{
  "abi": [
    {
      "inputs": [
        {
          "internalType": "contract IJBOperatorStore",
          "name": "_operatorStore",
          "type": "address"
        },
        {
          "internalType": "contract IJBProjects",
          "name": "_projects",
          "type": "address"
        },
        {
          "internalType": "contract IJBDirectory",
          "name": "_directory",
          "type": "address"
        }
      ],
      "stateMutability": "nonpayable",
      "type": "constructor"
    },
    {
      "inputs": [],
      "name": "INVALID_LOCKED_UNTIL",
      "type": "error"
    },
    {
      "inputs": [],
      "name": "INVALID_PROJECT_ID",
      "type": "error"
    },
    {
      "inputs": [],
      "name": "INVALID_SPLIT_PERCENT",
      "type": "error"
    },
    {
      "inputs": [],
      "name": "INVALID_TOTAL_PERCENT",
      "type": "error"
    },
    {
      "inputs": [],
      "name": "PREVIOUS_LOCKED_SPLITS_NOT_INCLUDED",
      "type": "error"
    },
    {
      "inputs": [],
      "name": "UNAUTHORIZED",
      "type": "error"
    },
    {
      "anonymous": false,
      "inputs": [
        {
          "indexed": true,
          "internalType": "uint256",
          "name": "projectId",
          "type": "uint256"
        },
        {
          "indexed": true,
          "internalType": "uint256",
          "name": "domain",
          "type": "uint256"
        },
        {
          "indexed": true,
          "internalType": "uint256",
          "name": "group",
          "type": "uint256"
        },
        {
          "components": [
            {
              "internalType": "bool",
              "name": "preferClaimed",
              "type": "bool"
            },
            {
              "internalType": "uint256",
              "name": "percent",
              "type": "uint256"
            },
            {
              "internalType": "uint256",
              "name": "projectId",
              "type": "uint256"
            },
            {
              "internalType": "address payable",
              "name": "beneficiary",
              "type": "address"
            },
            {
              "internalType": "uint256",
              "name": "lockedUntil",
              "type": "uint256"
            },
            {
              "internalType": "contract IJBSplitAllocator",
              "name": "allocator",
              "type": "address"
            }
          ],
          "indexed": false,
          "internalType": "struct JBSplit",
          "name": "split",
          "type": "tuple"
        },
        {
          "indexed": false,
          "internalType": "address",
          "name": "caller",
          "type": "address"
        }
      ],
      "name": "SetSplit",
      "type": "event"
    },
    {
      "inputs": [],
      "name": "directory",
      "outputs": [
        {
          "internalType": "contract IJBDirectory",
          "name": "",
          "type": "address"
        }
      ],
      "stateMutability": "view",
      "type": "function"
    },
    {
      "inputs": [],
      "name": "operatorStore",
      "outputs": [
        {
          "internalType": "contract IJBOperatorStore",
          "name": "",
          "type": "address"
        }
      ],
      "stateMutability": "view",
      "type": "function"
    },
    {
      "inputs": [],
      "name": "projects",
      "outputs": [
        {
          "internalType": "contract IJBProjects",
          "name": "",
          "type": "address"
        }
      ],
      "stateMutability": "view",
      "type": "function"
    },
    {
      "inputs": [
        {
          "internalType": "uint256",
          "name": "_projectId",
          "type": "uint256"
        },
        {
          "internalType": "uint256",
          "name": "_domain",
          "type": "uint256"
        },
        {
          "internalType": "uint256",
          "name": "_group",
          "type": "uint256"
        },
        {
          "components": [
            {
              "internalType": "bool",
              "name": "preferClaimed",
              "type": "bool"
            },
            {
              "internalType": "uint256",
              "name": "percent",
              "type": "uint256"
            },
            {
              "internalType": "uint256",
              "name": "projectId",
              "type": "uint256"
            },
            {
              "internalType": "address payable",
              "name": "beneficiary",
              "type": "address"
            },
            {
              "internalType": "uint256",
              "name": "lockedUntil",
              "type": "uint256"
            },
            {
              "internalType": "contract IJBSplitAllocator",
              "name": "allocator",
              "type": "address"
            }
          ],
          "internalType": "struct JBSplit[]",
          "name": "_splits",
          "type": "tuple[]"
        }
      ],
      "name": "set",
      "outputs": [],
      "stateMutability": "nonpayable",
      "type": "function"
    },
    {
      "inputs": [
        {
          "internalType": "uint256",
          "name": "_projectId",
          "type": "uint256"
        },
        {
          "internalType": "uint256",
          "name": "_domain",
          "type": "uint256"
        },
        {
          "internalType": "uint256",
          "name": "_group",
          "type": "uint256"
        }
      ],
      "name": "splitsOf",
      "outputs": [
        {
          "components": [
            {
              "internalType": "bool",
              "name": "preferClaimed",
              "type": "bool"
            },
            {
              "internalType": "uint256",
              "name": "percent",
              "type": "uint256"
            },
            {
              "internalType": "uint256",
              "name": "projectId",
              "type": "uint256"
            },
            {
              "internalType": "address payable",
              "name": "beneficiary",
              "type": "address"
            },
            {
              "internalType": "uint256",
              "name": "lockedUntil",
              "type": "uint256"
            },
            {
              "internalType": "contract IJBSplitAllocator",
              "name": "allocator",
              "type": "address"
            }
          ],
          "internalType": "struct JBSplit[]",
          "name": "",
          "type": "tuple[]"
        }
      ],
      "stateMutability": "view",
      "type": "function"
    }
  ],
  "bytecode": {
    "object": "0x60e060405234801561001057600080fd5b506040516110b53803806110b583398101604081905261002f91610056565b6001600160601b0319606093841b811660805291831b821660a05290911b1660c0526100bb565b60008060006060848603121561006b57600080fd5b8351610076816100a3565b6020850151909350610087816100a3565b6040850151909250610098816100a3565b809150509250925092565b6001600160a01b03811681146100b857600080fd5b50565b60805160601c60a05160601c60c05160601c610fa861010d6000396000818161010501526101f9015260008181608a015261015201526000818160de015281816102cd01526103830152610fa86000f3fe608060405234801561001057600080fd5b50600436106100575760003560e01c806369e11cc51461005c5780638b79543c146100855780639acff5ac146100c4578063ad007d63146100d9578063c41c2f2414610100575b600080fd5b61006f61006a366004610c62565b610127565b60405161007c9190610e09565b60405180910390f35b6100ac7f000000000000000000000000000000000000000000000000000000000000000081565b6040516001600160a01b03909116815260200161007c565b6100d76100d2366004610c8e565b61013c565b005b6100ac7f000000000000000000000000000000000000000000000000000000000000000081565b6100ac7f000000000000000000000000000000000000000000000000000000000000000081565b6060610134848484610a52565b949350505050565b6040516331a9108f60e11b8152600481018590527f00000000000000000000000000000000000000000000000000000000000000006001600160a01b031690636352211e9060240160206040518083038186803b15801561019c57600080fd5b505afa1580156101b0573d6000803e3d6000fd5b505050506040513d601f19601f820116820180604052508101906101d49190610c21565b604051632eec7b5560e11b815260048101869052859060129033906001600160a01b037f00000000000000000000000000000000000000000000000000000000000000001690635dd8f6aa9060240160206040518083038186803b15801561023b57600080fd5b505afa15801561024f573d6000803e3d6000fd5b505050506040513d601f19601f820116820180604052508101906102739190610c21565b6001600160a01b0316148015816102935750336001600160a01b03851614155b8015610349575060405163c161c93f60e01b81523360048201526001600160a01b03858116602483015260448201859052606482018490527f0000000000000000000000000000000000000000000000000000000000000000169063c161c93f9060840160206040518083038186803b15801561030f57600080fd5b505afa158015610323573d6000803e3d6000fd5b505050506040513d601f19601f820116820180604052508101906103479190610c45565b155b80156103ff575060405163c161c93f60e01b81523360048201526001600160a01b03858116602483015260006044830152606482018490527f0000000000000000000000000000000000000000000000000000000000000000169063c161c93f9060840160206040518083038186803b1580156103c557600080fd5b505afa1580156103d9573d6000803e3d6000fd5b505050506040513d601f19601f820116820180604052508101906103fd9190610c45565b155b1561041d5760405163075fd2b160e01b815260040160405180910390fd5b600061042a898989610a52565b905060005b81518110156106335781818151811061044a5761044a610f20565b602002602001015160800151421061046157610621565b6000805b88518110156106005783838151811061048057610480610f20565b60200260200101516020015189828151811061049e5761049e610f20565b60200260200101516020015114801561050257508383815181106104c4576104c4610f20565b6020026020010151606001516001600160a01b03168982815181106104eb576104eb610f20565b6020026020010151606001516001600160a01b0316145b8015610559575083838151811061051b5761051b610f20565b602002602001015160a001516001600160a01b031689828151811061054257610542610f20565b602002602001015160a001516001600160a01b0316145b801561059e575083838151811061057257610572610f20565b60200260200101516040015189828151811061059057610590610f20565b602002602001015160400151145b80156105e457508383815181106105b7576105b7610f20565b6020026020010151608001518982815181106105d5576105d5610f20565b60200260200101516080015110155b156105ee57600191505b806105f881610eef565b915050610465565b508061061f57604051631974459560e01b815260040160405180910390fd5b505b8061062b81610eef565b91505061042f565b506000805b8751811015610a235787818151811061065357610653610f20565b602002602001015160200151600014156106805760405163e119ba4560e01b815260040160405180910390fd5b66ffffffffffffff801688828151811061069c5761069c610f20565b60200260200101516040015111156106c757604051631da26cc960e11b815260040160405180910390fd5b8781815181106106d9576106d9610f20565b602002602001015160200151826106f09190610ed7565b9150633b9aca0082111561071757604051630eca736160e41b815260040160405180910390fd5b600088828151811061072b5761072b610f20565b602002602001015160000151610742576000610745565b60015b60ff169050600189838151811061075e5761075e610f20565b602002602001015160200151901b81179050602189838151811061078457610784610f20565b602002602001015160400151901b8117905060598983815181106107aa576107aa610f20565b6020026020010151606001516001600160a01b0316901b8117905080600160008e815260200190815260200160002060008d815260200190815260200160002060008c8152602001908152602001600020600084815260200190815260200160002081905550600089838151811061082457610824610f20565b602002602001015160800151118061086c575060006001600160a01b031689838151811061085457610854610f20565b602002602001015160a001516001600160a01b031614155b156109615765ffffffffffff801689838151811061088c5761088c610f20565b60200260200101516080015111156108b75760405163d509b54d60e01b815260040160405180910390fd5b60008983815181106108cb576108cb610f20565b60200260200101516080015165ffffffffffff16905060308a84815181106108f5576108f5610f20565b602002602001015160a001516001600160a01b0316901b8117905080600260008f815260200190815260200160002060008e815260200190815260200160002060008d8152602001908152602001600020600085815260200190815260200160002081905550506109bb565b60008c81526002602090815260408083208e845282528083208d84528252808320858452909152902054156109bb5760008c81526002602090815260408083208e845282528083208d845282528083208584529091528120555b898b8d7f0d7ea8ac1cb69dfa18ce2b18e90d31b4d4a0370aacadf7db42d42930a09b3f018c86815181106109f1576109f1610f20565b602002602001015133604051610a08929190610e57565b60405180910390a45080610a1b81610eef565b915050610638565b50509451600098895260208981526040808b20998b52988152888a20978a529690965250505092909320555050565b60008381526020818152604080832085845282528083208484529091528120546060918167ffffffffffffffff811115610a8e57610a8e610f36565b604051908082528060200260200182016040528015610ac757816020015b610ab4610bd7565b815260200190600190039081610aac5790505b50905060005b82811015610bcd57600087815260016020908152604080832089845282528083208884528252808320848452909152902054610b07610bd7565b60018281168114825282901c63ffffffff16602080830191909152602183901c66ffffffffffffff16604080840191909152605984901c6001600160a01b0316606084015260008b8152600283528181208b825283528181208a825283528181208682529092529020548015610b995765ffffffffffff811660808301526001600160a01b03603082901c1660a08301525b81858581518110610bac57610bac610f20565b60200260200101819052505050508080610bc590610eef565b915050610acd565b5095945050505050565b6040518060c00160405280600015158152602001600081526020016000815260200160006001600160a01b031681526020016000815260200160006001600160a01b031681525090565b600060208284031215610c3357600080fd5b8151610c3e81610f4c565b9392505050565b600060208284031215610c5757600080fd5b8151610c3e81610f64565b600080600060608486031215610c7757600080fd5b505081359360208301359350604090920135919050565b60008060008060808587031215610ca457600080fd5b8435935060208086013593506040860135925060608087013567ffffffffffffffff80821115610cd357600080fd5b818901915089601f830112610ce757600080fd5b813581811115610cf957610cf9610f36565b610d07858260051b01610ea6565b818152858101925083860160c08302850187018d1015610d2657600080fd5b60009450845b83811015610dad5760c0828f031215610d43578586fd5b610d4b610e7d565b8235610d5681610f64565b815282890135898201526040808401359082015287830135610d7781610f4c565b818901526080838101359082015260a0830135610d9381610f4c565b60a082015285529387019360c09190910190600101610d2c565b505080965050505050505092959194509250565b80511515825260208082015190830152604080820151908301526060808201516001600160a01b03908116918401919091526080808301519084015260a09182015116910152565b6020808252825182820181905260009190848201906040850190845b81811015610e4b57610e38838551610dc1565b9284019260c09290920191600101610e25565b50909695505050505050565b60e08101610e658285610dc1565b6001600160a01b039290921660c09190910152919050565b60405160c0810167ffffffffffffffff81118282101715610ea057610ea0610f36565b60405290565b604051601f8201601f1916810167ffffffffffffffff81118282101715610ecf57610ecf610f36565b604052919050565b60008219821115610eea57610eea610f0a565b500190565b6000600019821415610f0357610f03610f0a565b5060010190565b634e487b7160e01b600052601160045260246000fd5b634e487b7160e01b600052603260045260246000fd5b634e487b7160e01b600052604160045260246000fd5b6001600160a01b0381168114610f6157600080fd5b50565b8015158114610f6157600080fdfea2646970667358221220f660a89099700c823347648762046b1b12c89c240df366c6474982f76ee879d264736f6c63430008060033",
    "linkReferences": {}
  }
}