{
  "abi": [
    {
      "inputs": [],
      "name": "ETH_PAYOUT",
      "outputs": [
        {
          "internalType": "uint256",
          "name": "",
          "type": "uint256"
        }
      ],
      "stateMutability": "view",
      "type": "function"
    },
    {
      "inputs": [],
      "name": "RESERVED_TOKENS",
      "outputs": [
        {
          "internalType": "uint256",
          "name": "",
          "type": "uint256"
        }
      ],
      "stateMutability": "view",
      "type": "function"
    }
  ],
  "bytecode": {
    "object": "0x6098610038600b82828239805160001a607314602b57634e487b7160e01b600052600060045260246000fd5b30600052607381538281f3fe7300000000000000000000000000000000000000003014608060405260043610603d5760003560e01c806368fc68c7146042578063ad8710ad14605b575b600080fd5b6049600281565b60405190815260200160405180910390f35b604960018156fea264697066735822122052bdbc8c745eb9fd0b7cd2ffaf10f4ac12dcd38e0a23f159d0b89aa8952d369f64736f6c63430008060033",
    "linkReferences": {}
  }
}