{
  "abi": [
    {
      "inputs": [
        {
          "internalType": "contract IJBOperatorStore",
          "name": "_operatorStore",
          "type": "address"
        }
      ],
      "stateMutability": "nonpayable",
      "type": "constructor"
    },
    {
      "inputs": [],
      "name": "UNAUTHORIZED",
      "type": "error"
    },
    {
      "anonymous": false,
      "inputs": [
        {
          "indexed": true,
          "internalType": "address",
          "name": "owner",
          "type": "address"
        },
        {
          "indexed": true,
          "internalType": "address",
          "name": "approved",
          "type": "address"
        },
        {
          "indexed": true,
          "internalType": "uint256",
          "name": "tokenId",
          "type": "uint256"
        }
      ],
      "name": "Approval",
      "type": "event"
    },
    {
      "anonymous": false,
      "inputs": [
        {
          "indexed": true,
          "internalType": "address",
          "name": "owner",
          "type": "address"
        },
        {
          "indexed": true,
          "internalType": "address",
          "name": "operator",
          "type": "address"
        },
        {
          "indexed": false,
          "internalType": "bool",
          "name": "approved",
          "type": "bool"
        }
      ],
      "name": "ApprovalForAll",
      "type": "event"
    },
    {
      "anonymous": false,
      "inputs": [
        {
          "indexed": true,
          "internalType": "uint256",
          "name": "projectId",
          "type": "uint256"
        },
        {
          "indexed": true,
          "internalType": "address",
          "name": "owner",
          "type": "address"
        },
        {
          "components": [
            {
              "internalType": "string",
              "name": "content",
              "type": "string"
            },
            {
              "internalType": "uint256",
              "name": "domain",
              "type": "uint256"
            }
          ],
          "indexed": false,
          "internalType": "struct JBProjectMetadata",
          "name": "metadata",
          "type": "tuple"
        },
        {
          "indexed": false,
          "internalType": "address",
          "name": "caller",
          "type": "address"
        }
      ],
      "name": "Create",
      "type": "event"
    },
    {
      "anonymous": false,
      "inputs": [
        {
          "indexed": true,
          "internalType": "address",
          "name": "delegator",
          "type": "address"
        },
        {
          "indexed": true,
          "internalType": "address",
          "name": "fromDelegate",
          "type": "address"
        },
        {
          "indexed": true,
          "internalType": "address",
          "name": "toDelegate",
          "type": "address"
        }
      ],
      "name": "DelegateChanged",
      "type": "event"
    },
    {
      "anonymous": false,
      "inputs": [
        {
          "indexed": true,
          "internalType": "address",
          "name": "delegate",
          "type": "address"
        },
        {
          "indexed": false,
          "internalType": "uint256",
          "name": "previousBalance",
          "type": "uint256"
        },
        {
          "indexed": false,
          "internalType": "uint256",
          "name": "newBalance",
          "type": "uint256"
        }
      ],
      "name": "DelegateVotesChanged",
      "type": "event"
    },
    {
      "anonymous": false,
      "inputs": [
        {
          "indexed": true,
          "internalType": "address",
          "name": "previousOwner",
          "type": "address"
        },
        {
          "indexed": true,
          "internalType": "address",
          "name": "newOwner",
          "type": "address"
        }
      ],
      "name": "OwnershipTransferred",
      "type": "event"
    },
    {
      "anonymous": false,
      "inputs": [
        {
          "indexed": true,
          "internalType": "uint256",
          "name": "projectId",
          "type": "uint256"
        },
        {
          "components": [
            {
              "internalType": "string",
              "name": "content",
              "type": "string"
            },
            {
              "internalType": "uint256",
              "name": "domain",
              "type": "uint256"
            }
          ],
          "indexed": false,
          "internalType": "struct JBProjectMetadata",
          "name": "metadata",
          "type": "tuple"
        },
        {
          "indexed": false,
          "internalType": "address",
          "name": "caller",
          "type": "address"
        }
      ],
      "name": "SetMetadata",
      "type": "event"
    },
    {
      "anonymous": false,
      "inputs": [
        {
          "indexed": false,
          "internalType": "contract IJBTokenUriResolver",
          "name": "resolver",
          "type": "address"
        },
        {
          "indexed": false,
          "internalType": "address",
          "name": "caller",
          "type": "address"
        }
      ],
      "name": "SetTokenUriResolver",
      "type": "event"
    },
    {
      "anonymous": false,
      "inputs": [
        {
          "indexed": true,
          "internalType": "address",
          "name": "from",
          "type": "address"
        },
        {
          "indexed": true,
          "internalType": "address",
          "name": "to",
          "type": "address"
        },
        {
          "indexed": true,
          "internalType": "uint256",
          "name": "tokenId",
          "type": "uint256"
        }
      ],
      "name": "Transfer",
      "type": "event"
    },
    {
      "inputs": [],
      "name": "DOMAIN_SEPARATOR",
      "outputs": [
        {
          "internalType": "bytes32",
          "name": "",
          "type": "bytes32"
        }
      ],
      "stateMutability": "view",
      "type": "function"
    },
    {
      "inputs": [
        {
          "internalType": "address",
          "name": "to",
          "type": "address"
        },
        {
          "internalType": "uint256",
          "name": "tokenId",
          "type": "uint256"
        }
      ],
      "name": "approve",
      "outputs": [],
      "stateMutability": "nonpayable",
      "type": "function"
    },
    {
      "inputs": [
        {
          "internalType": "address",
          "name": "owner",
          "type": "address"
        }
      ],
      "name": "balanceOf",
      "outputs": [
        {
          "internalType": "uint256",
          "name": "",
          "type": "uint256"
        }
      ],
      "stateMutability": "view",
      "type": "function"
    },
    {
      "inputs": [],
      "name": "count",
      "outputs": [
        {
          "internalType": "uint256",
          "name": "",
          "type": "uint256"
        }
      ],
      "stateMutability": "view",
      "type": "function"
    },
    {
      "inputs": [
        {
          "internalType": "address",
          "name": "_owner",
          "type": "address"
        },
        {
          "components": [
            {
              "internalType": "string",
              "name": "content",
              "type": "string"
            },
            {
              "internalType": "uint256",
              "name": "domain",
              "type": "uint256"
            }
          ],
          "internalType": "struct JBProjectMetadata",
          "name": "_metadata",
          "type": "tuple"
        }
      ],
      "name": "createFor",
      "outputs": [
        {
          "internalType": "uint256",
          "name": "projectId",
          "type": "uint256"
        }
      ],
      "stateMutability": "nonpayable",
      "type": "function"
    },
    {
      "inputs": [
        {
          "internalType": "address",
          "name": "delegatee",
          "type": "address"
        }
      ],
      "name": "delegate",
      "outputs": [],
      "stateMutability": "nonpayable",
      "type": "function"
    },
    {
      "inputs": [
        {
          "internalType": "address",
          "name": "delegatee",
          "type": "address"
        },
        {
          "internalType": "uint256",
          "name": "nonce",
          "type": "uint256"
        },
        {
          "internalType": "uint256",
          "name": "expiry",
          "type": "uint256"
        },
        {
          "internalType": "uint8",
          "name": "v",
          "type": "uint8"
        },
        {
          "internalType": "bytes32",
          "name": "r",
          "type": "bytes32"
        },
        {
          "internalType": "bytes32",
          "name": "s",
          "type": "bytes32"
        }
      ],
      "name": "delegateBySig",
      "outputs": [],
      "stateMutability": "nonpayable",
      "type": "function"
    },
    {
      "inputs": [
        {
          "internalType": "address",
          "name": "account",
          "type": "address"
        }
      ],
      "name": "delegates",
      "outputs": [
        {
          "internalType": "address",
          "name": "",
          "type": "address"
        }
      ],
      "stateMutability": "view",
      "type": "function"
    },
    {
      "inputs": [
        {
          "internalType": "uint256",
          "name": "tokenId",
          "type": "uint256"
        }
      ],
      "name": "getApproved",
      "outputs": [
        {
          "internalType": "address",
          "name": "",
          "type": "address"
        }
      ],
      "stateMutability": "view",
      "type": "function"
    },
    {
      "inputs": [
        {
          "internalType": "uint256",
          "name": "blockNumber",
          "type": "uint256"
        }
      ],
      "name": "getPastTotalSupply",
      "outputs": [
        {
          "internalType": "uint256",
          "name": "",
          "type": "uint256"
        }
      ],
      "stateMutability": "view",
      "type": "function"
    },
    {
      "inputs": [
        {
          "internalType": "address",
          "name": "account",
          "type": "address"
        },
        {
          "internalType": "uint256",
          "name": "blockNumber",
          "type": "uint256"
        }
      ],
      "name": "getPastVotes",
      "outputs": [
        {
          "internalType": "uint256",
          "name": "",
          "type": "uint256"
        }
      ],
      "stateMutability": "view",
      "type": "function"
    },
    {
      "inputs": [
        {
          "internalType": "address",
          "name": "account",
          "type": "address"
        }
      ],
      "name": "getVotes",
      "outputs": [
        {
          "internalType": "uint256",
          "name": "",
          "type": "uint256"
        }
      ],
      "stateMutability": "view",
      "type": "function"
    },
    {
      "inputs": [
        {
          "internalType": "address",
          "name": "owner",
          "type": "address"
        },
        {
          "internalType": "address",
          "name": "operator",
          "type": "address"
        }
      ],
      "name": "isApprovedForAll",
      "outputs": [
        {
          "internalType": "bool",
          "name": "",
          "type": "bool"
        }
      ],
      "stateMutability": "view",
      "type": "function"
    },
    {
      "inputs": [
        {
          "internalType": "uint256",
          "name": "",
          "type": "uint256"
        },
        {
          "internalType": "uint256",
          "name": "",
          "type": "uint256"
        }
      ],
      "name": "metadataContentOf",
      "outputs": [
        {
          "internalType": "string",
          "name": "",
          "type": "string"
        }
      ],
      "stateMutability": "view",
      "type": "function"
    },
    {
      "inputs": [],
      "name": "name",
      "outputs": [
        {
          "internalType": "string",
          "name": "",
          "type": "string"
        }
      ],
      "stateMutability": "view",
      "type": "function"
    },
    {
      "inputs": [
        {
          "internalType": "address",
          "name": "owner",
          "type": "address"
        }
      ],
      "name": "nonces",
      "outputs": [
        {
          "internalType": "uint256",
          "name": "",
          "type": "uint256"
        }
      ],
      "stateMutability": "view",
      "type": "function"
    },
    {
      "inputs": [],
      "name": "operatorStore",
      "outputs": [
        {
          "internalType": "contract IJBOperatorStore",
          "name": "",
          "type": "address"
        }
      ],
      "stateMutability": "view",
      "type": "function"
    },
    {
      "inputs": [],
      "name": "owner",
      "outputs": [
        {
          "internalType": "address",
          "name": "",
          "type": "address"
        }
      ],
      "stateMutability": "view",
      "type": "function"
    },
    {
      "inputs": [
        {
          "internalType": "uint256",
          "name": "tokenId",
          "type": "uint256"
        }
      ],
      "name": "ownerOf",
      "outputs": [
        {
          "internalType": "address",
          "name": "",
          "type": "address"
        }
      ],
      "stateMutability": "view",
      "type": "function"
    },
    {
      "inputs": [],
      "name": "renounceOwnership",
      "outputs": [],
      "stateMutability": "nonpayable",
      "type": "function"
    },
    {
      "inputs": [
        {
          "internalType": "address",
          "name": "from",
          "type": "address"
        },
        {
          "internalType": "address",
          "name": "to",
          "type": "address"
        },
        {
          "internalType": "uint256",
          "name": "tokenId",
          "type": "uint256"
        }
      ],
      "name": "safeTransferFrom",
      "outputs": [],
      "stateMutability": "nonpayable",
      "type": "function"
    },
    {
      "inputs": [
        {
          "internalType": "address",
          "name": "from",
          "type": "address"
        },
        {
          "internalType": "address",
          "name": "to",
          "type": "address"
        },
        {
          "internalType": "uint256",
          "name": "tokenId",
          "type": "uint256"
        },
        {
          "internalType": "bytes",
          "name": "_data",
          "type": "bytes"
        }
      ],
      "name": "safeTransferFrom",
      "outputs": [],
      "stateMutability": "nonpayable",
      "type": "function"
    },
    {
      "inputs": [
        {
          "internalType": "address",
          "name": "operator",
          "type": "address"
        },
        {
          "internalType": "bool",
          "name": "approved",
          "type": "bool"
        }
      ],
      "name": "setApprovalForAll",
      "outputs": [],
      "stateMutability": "nonpayable",
      "type": "function"
    },
    {
      "inputs": [
        {
          "internalType": "uint256",
          "name": "_projectId",
          "type": "uint256"
        },
        {
          "components": [
            {
              "internalType": "string",
              "name": "content",
              "type": "string"
            },
            {
              "internalType": "uint256",
              "name": "domain",
              "type": "uint256"
            }
          ],
          "internalType": "struct JBProjectMetadata",
          "name": "_metadata",
          "type": "tuple"
        }
      ],
      "name": "setMetadataOf",
      "outputs": [],
      "stateMutability": "nonpayable",
      "type": "function"
    },
    {
      "inputs": [
        {
          "internalType": "contract IJBTokenUriResolver",
          "name": "_newResolver",
          "type": "address"
        }
      ],
      "name": "setTokenUriResolver",
      "outputs": [],
      "stateMutability": "nonpayable",
      "type": "function"
    },
    {
      "inputs": [
        {
          "internalType": "bytes4",
          "name": "interfaceId",
          "type": "bytes4"
        }
      ],
      "name": "supportsInterface",
      "outputs": [
        {
          "internalType": "bool",
          "name": "",
          "type": "bool"
        }
      ],
      "stateMutability": "view",
      "type": "function"
    },
    {
      "inputs": [],
      "name": "symbol",
      "outputs": [
        {
          "internalType": "string",
          "name": "",
          "type": "string"
        }
      ],
      "stateMutability": "view",
      "type": "function"
    },
    {
      "inputs": [
        {
          "internalType": "uint256",
          "name": "_projectId",
          "type": "uint256"
        }
      ],
      "name": "tokenURI",
      "outputs": [
        {
          "internalType": "string",
          "name": "",
          "type": "string"
        }
      ],
      "stateMutability": "view",
      "type": "function"
    },
    {
      "inputs": [],
      "name": "tokenUriResolver",
      "outputs": [
        {
          "internalType": "contract IJBTokenUriResolver",
          "name": "",
          "type": "address"
        }
      ],
      "stateMutability": "view",
      "type": "function"
    },
    {
      "inputs": [
        {
          "internalType": "address",
          "name": "from",
          "type": "address"
        },
        {
          "internalType": "address",
          "name": "to",
          "type": "address"
        },
        {
          "internalType": "uint256",
          "name": "tokenId",
          "type": "uint256"
        }
      ],
      "name": "transferFrom",
      "outputs": [],
      "stateMutability": "nonpayable",
      "type": "function"
    },
    {
      "inputs": [
        {
          "internalType": "address",
          "name": "newOwner",
          "type": "address"
        }
      ],
      "name": "transferOwnership",
      "outputs": [],
      "stateMutability": "nonpayable",
      "type": "function"
    }
  ],
  "bytecode": {
    "object": "0x6101606040526000600b553480156200001757600080fd5b5060405162002d4f38038062002d4f8339810160408190526200003a916200028a565b6040805180820182526011808252704a75696365626f782050726f6a6563747360781b60208084018290528451808601865260018152603160f81b818301528551808701875293845283820192835285518087019096526008865267094aa92868a849eb60c31b918601919091526001600160601b0319606087901b166080528251939490939091620000d19160009190620001e4565b508051620000e7906001906020840190620001e4565b505082516020938401208251928401929092206101008390526101208190524660c0818152604080517f8b73c3c69bb8fe3d512ecc4cf759cc79239f7b179b0ffacaa9a75d522b39400f8189018190528183019790975260608181019590955260808101939093523060a0808501829052825180860382018152949093019091528251929096019190912090529290921b60e05261014052506200018b3362000192565b50620002f9565b600a80546001600160a01b038381166001600160a01b0319831681179093556040519116919082907f8be0079c531659141344cd1fd0a4f28419497f9722a3daafe3b4186f6b6457e090600090a35050565b828054620001f290620002bc565b90600052602060002090601f01602090048101928262000216576000855562000261565b82601f106200023157805160ff191683800117855562000261565b8280016001018555821562000261579182015b828111156200026157825182559160200191906001019062000244565b506200026f92915062000273565b5090565b5b808211156200026f576000815560010162000274565b6000602082840312156200029d57600080fd5b81516001600160a01b0381168114620002b557600080fd5b9392505050565b600181811c90821680620002d157607f821691505b60208210811415620002f357634e487b7160e01b600052602260045260246000fd5b50919050565b60805160601c60a05160c05160e05160601c6101005161012051610140516129e76200036860003960006113d801526000611427015260006114020152600061135b01526000611385015260006113af0152600081816103e20152818161084901526108ff01526129e76000f3fe608060405234801561001057600080fd5b50600436106101e55760003560e01c8063666d87a01161010f578063a22cb465116100a2578063c87b56dd11610071578063c87b56dd1461042a578063e131fc0c1461043d578063e985e9c514610450578063f2fde38b1461048c57600080fd5b8063a22cb465146103ca578063ad007d63146103dd578063b88d4fde14610404578063c3cda5201461041757600080fd5b80638da5cb5b116100de5780638da5cb5b1461038b5780638e539e8c1461039c57806395d89b41146103af5780639ab24eb0146103b757600080fd5b8063666d87a01461034a57806370a082311461035d578063715018a6146103705780637ecebe001461037857600080fd5b80633644e5151161018757806342842e0e1161015657806342842e0e146102e5578063587cde1e146102f85780635c19a95c146103245780636352211e1461033757600080fd5b80633644e515146102a457806336574975146102ac57806339fbc775146102bf5780633a46b1a8146102d257600080fd5b8063081812fc116101c3578063081812fc1461023e578063095ea7b31461026957806323b872dd1461027e5780632407497e1461029157600080fd5b806301ffc9a7146101ea57806306661abd1461021257806306fdde0314610229575b600080fd5b6101fd6101f83660046124b1565b61049f565b60405190151581526020015b60405180910390f35b61021b600b5481565b604051908152602001610209565b6102316104f1565b6040516102099190612637565b61025161024c366004612562565b610583565b6040516001600160a01b039091168152602001610209565b61027c610277366004612406565b61061d565b005b61027c61028c366004612298565b610733565b61027c61029f366004612242565b610764565b61021b6107e7565b61027c6102ba36600461257b565b6107f6565b6102316102cd3660046125ac565b610a0c565b61021b6102e0366004612406565b610ab1565b61027c6102f3366004612298565b610ada565b610251610306366004612242565b6001600160a01b039081166000908152600660205260409020541690565b61027c610332366004612242565b610af5565b610251610345366004612562565b610b04565b61021b6103583660046123b6565b610b7b565b61021b61036b366004612242565b610c2e565b61027c610cb5565b61021b610386366004612242565b610ceb565b600a546001600160a01b0316610251565b61021b6103aa366004612562565b610d09565b610231610d65565b61021b6103c5366004612242565b610d74565b61027c6103d8366004612388565b610d95565b6102517f000000000000000000000000000000000000000000000000000000000000000081565b61027c6104123660046122d9565b610da0565b61027c610425366004612432565b610dd8565b610231610438366004612562565b610f05565b600d54610251906001600160a01b031681565b6101fd61045e36600461225f565b6001600160a01b03918216600090815260056020908152604080832093909416825291909152205460ff1690565b61027c61049a366004612242565b610fac565b60006001600160e01b031982166380ac58cd60e01b14806104d057506001600160e01b03198216635b5e139f60e01b145b806104eb57506301ffc9a760e01b6001600160e01b03198316145b92915050565b606060008054610500906128d0565b80601f016020809104026020016040519081016040528092919081815260200182805461052c906128d0565b80156105795780601f1061054e57610100808354040283529160200191610579565b820191906000526020600020905b81548152906001019060200180831161055c57829003601f168201915b5050505050905090565b6000818152600260205260408120546001600160a01b03166106015760405162461bcd60e51b815260206004820152602c60248201527f4552433732313a20617070726f76656420717565727920666f72206e6f6e657860448201526b34b9ba32b73a103a37b5b2b760a11b60648201526084015b60405180910390fd5b506000908152600460205260409020546001600160a01b031690565b600061062882610b04565b9050806001600160a01b0316836001600160a01b031614156106965760405162461bcd60e51b815260206004820152602160248201527f4552433732313a20617070726f76616c20746f2063757272656e74206f776e656044820152603960f91b60648201526084016105f8565b336001600160a01b03821614806106b257506106b2813361045e565b6107245760405162461bcd60e51b815260206004820152603860248201527f4552433732313a20617070726f76652063616c6c6572206973206e6f74206f7760448201527f6e6572206e6f7220617070726f76656420666f7220616c6c000000000000000060648201526084016105f8565b61072e8383611047565b505050565b61073d33826110b5565b6107595760405162461bcd60e51b81526004016105f8906126d1565b61072e8383836111ac565b600a546001600160a01b0316331461078e5760405162461bcd60e51b81526004016105f89061269c565b600d80546001600160a01b0319166001600160a01b038316908117909155604080519182523360208301527fe7784d93cfbfa4408e19577e6cc0436f4dbb51214b70e100905dfce9def88c16910160405180910390a150565b60006107f161134e565b905090565b6107ff82610b04565b826006336001600160a01b038416148015906108c5575060405163c161c93f60e01b81523360048201526001600160a01b03848116602483015260448201849052606482018390527f0000000000000000000000000000000000000000000000000000000000000000169063c161c93f9060840160206040518083038186803b15801561088b57600080fd5b505afa15801561089f573d6000803e3d6000fd5b505050506040513d601f19601f820116820180604052508101906108c39190612494565b155b801561097b575060405163c161c93f60e01b81523360048201526001600160a01b03848116602483015260006044830152606482018390527f0000000000000000000000000000000000000000000000000000000000000000169063c161c93f9060840160206040518083038186803b15801561094157600080fd5b505afa158015610955573d6000803e3d6000fd5b505050506040513d601f19601f820116820180604052508101906109799190612494565b155b156109995760405163075fd2b160e01b815260040160405180910390fd5b6109a384806127b3565b6000878152600c6020908152604080832089830135845290915290206109ca9290916121a0565b50847fd07720acb527321c9d1766f359139d0e0e3551bd99fb3ca353d4f008f3aad8e685336040516109fd929190612722565b60405180910390a25050505050565b600c60209081526000928352604080842090915290825290208054610a30906128d0565b80601f0160208091040260200160405190810160405280929190818152602001828054610a5c906128d0565b8015610aa95780601f10610a7e57610100808354040283529160200191610aa9565b820191906000526020600020905b815481529060010190602001808311610a8c57829003601f168201915b505050505081565b6001600160a01b0382166000908152600760205260408120610ad39083611475565b9392505050565b61072e83838360405180602001604052806000815250610da0565b33610b008183611584565b5050565b6000818152600260205260408120546001600160a01b0316806104eb5760405162461bcd60e51b815260206004820152602960248201527f4552433732313a206f776e657220717565727920666f72206e6f6e657869737460448201526832b73a103a37b5b2b760b91b60648201526084016105f8565b6000600b60008154610b8c90612905565b91829055509050610b9d83826115f6565b6000610ba983806127b3565b90501115610be457610bbb82806127b3565b6000838152600c602090815260408083208783013584529091529020610be29290916121a0565b505b826001600160a01b0316817fa1c6fd563bcbc3222f6031d7c26ff58cd6c701abff0bfffe652d055ce40629d48433604051610c20929190612722565b60405180910390a392915050565b60006001600160a01b038216610c995760405162461bcd60e51b815260206004820152602a60248201527f4552433732313a2062616c616e636520717565727920666f7220746865207a65604482015269726f206164647265737360b01b60648201526084016105f8565b506001600160a01b031660009081526003602052604090205490565b600a546001600160a01b03163314610cdf5760405162461bcd60e51b81526004016105f89061269c565b610ce96000611610565b565b6001600160a01b0381166000908152600960205260408120546104eb565b6000438210610d5a5760405162461bcd60e51b815260206004820152601a60248201527f566f7465733a20626c6f636b206e6f7420796574206d696e656400000000000060448201526064016105f8565b6104eb600883611475565b606060018054610500906128d0565b6001600160a01b03811660009081526007602052604081206104eb90611662565b610b003383836116be565b610daa33836110b5565b610dc65760405162461bcd60e51b81526004016105f8906126d1565b610dd28484848461178d565b50505050565b83421115610e285760405162461bcd60e51b815260206004820152601860248201527f566f7465733a207369676e61747572652065787069726564000000000000000060448201526064016105f8565b604080517fe48329057bfd03d55e49b547132e39cffd9c1820ad7b9d4c5307691425d15adf60208201526001600160a01b038816918101919091526060810186905260808101859052600090610ea290610e9a9060a001604051602081830303815290604052805190602001206117c0565b85858561180e565b9050610ead81611836565b8614610ef25760405162461bcd60e51b8152602060048201526014602482015273566f7465733a20696e76616c6964206e6f6e636560601b60448201526064016105f8565b610efc8188611584565b50505050505050565b600d546060906001600160a01b0316610f2c57505060408051602081019091526000815290565b600d54604051636d02a25560e11b8152600481018490526001600160a01b039091169063da0544aa9060240160006040518083038186803b158015610f7057600080fd5b505afa158015610f84573d6000803e3d6000fd5b505050506040513d6000823e601f3d908101601f191682016040526104eb91908101906124eb565b600a546001600160a01b03163314610fd65760405162461bcd60e51b81526004016105f89061269c565b6001600160a01b03811661103b5760405162461bcd60e51b815260206004820152602660248201527f4f776e61626c653a206e6577206f776e657220697320746865207a65726f206160448201526564647265737360d01b60648201526084016105f8565b61104481611610565b50565b600081815260046020526040902080546001600160a01b0319166001600160a01b038416908117909155819061107c82610b04565b6001600160a01b03167f8c5be1e5ebec7d5bd14f71427d1e84f3dd0314c0f7b2291e5b200ac8c7c3b92560405160405180910390a45050565b6000818152600260205260408120546001600160a01b031661112e5760405162461bcd60e51b815260206004820152602c60248201527f4552433732313a206f70657261746f7220717565727920666f72206e6f6e657860448201526b34b9ba32b73a103a37b5b2b760a11b60648201526084016105f8565b600061113983610b04565b9050806001600160a01b0316846001600160a01b031614806111745750836001600160a01b031661116984610583565b6001600160a01b0316145b806111a457506001600160a01b0380821660009081526005602090815260408083209388168352929052205460ff165b949350505050565b826001600160a01b03166111bf82610b04565b6001600160a01b0316146112235760405162461bcd60e51b815260206004820152602560248201527f4552433732313a207472616e736665722066726f6d20696e636f72726563742060448201526437bbb732b960d91b60648201526084016105f8565b6001600160a01b0382166112855760405162461bcd60e51b8152602060048201526024808201527f4552433732313a207472616e7366657220746f20746865207a65726f206164646044820152637265737360e01b60648201526084016105f8565b611290600082611047565b6001600160a01b03831660009081526003602052604081208054600192906112b990849061288d565b90915550506001600160a01b03821660009081526003602052604081208054600192906112e7908490612853565b909155505060008181526002602052604080822080546001600160a01b0319166001600160a01b0386811691821790925591518493918716917fddf252ad1be2c89b69c2b068fc378daa952ba7f163c4a11628f55a4df523b3ef91a461072e83838361185e565b6000306001600160a01b037f0000000000000000000000000000000000000000000000000000000000000000161480156113a757507f000000000000000000000000000000000000000000000000000000000000000046145b156113d157507f000000000000000000000000000000000000000000000000000000000000000090565b50604080517f00000000000000000000000000000000000000000000000000000000000000006020808301919091527f0000000000000000000000000000000000000000000000000000000000000000828401527f000000000000000000000000000000000000000000000000000000000000000060608301524660808301523060a0808401919091528351808403909101815260c0909201909252805191012090565b60004382106114c65760405162461bcd60e51b815260206004820181905260248201527f436865636b706f696e74733a20626c6f636b206e6f7420796574206d696e656460448201526064016105f8565b825460005b8181101561152b5760006114df828461186a565b9050848660000182815481106114f7576114f761294c565b60009182526020909120015463ffffffff16111561151757809250611525565b611522816001612853565b91505b506114cb565b811561156f578461153d60018461288d565b8154811061154d5761154d61294c565b60009182526020909120015464010000000090046001600160e01b0316611572565b60005b6001600160e01b031695945050505050565b6001600160a01b0382811660008181526006602052604080822080548686166001600160a01b0319821681179092559151919094169392849290917f3134e8a2e6d97e929a7e54011ea5485d7d196dd5f0ba4d4ef95803e8e3fc257f9190a461072e81836115f186611885565b611890565b610b008282604051806020016040528060008152506119be565b600a80546001600160a01b038381166001600160a01b0319831681179093556040519116919082907f8be0079c531659141344cd1fd0a4f28419497f9722a3daafe3b4186f6b6457e090600090a35050565b805460009080156116ab578261167960018361288d565b815481106116895761168961294c565b60009182526020909120015464010000000090046001600160e01b03166116ae565b60005b6001600160e01b03169392505050565b816001600160a01b0316836001600160a01b031614156117205760405162461bcd60e51b815260206004820152601960248201527f4552433732313a20617070726f766520746f2063616c6c65720000000000000060448201526064016105f8565b6001600160a01b03838116600081815260056020908152604080832094871680845294825291829020805460ff191686151590811790915591519182527f17307eab39ab6107e8899845ad3d59bd9653f200f220920489ca2b5937696c31910160405180910390a3505050565b6117988484846111ac565b6117a4848484846119f1565b610dd25760405162461bcd60e51b81526004016105f89061264a565b60006104eb6117cd61134e565b8360405161190160f01b6020820152602281018390526042810182905260009060620160405160208183030381529060405280519060200120905092915050565b600080600061181f87878787611afb565b9150915061182c81611be8565b5095945050505050565b6001600160a01b03811660009081526009602052604090208054600181018255905b50919050565b61072e83836001611da3565b6000611879600284841861286b565b610ad390848416612853565b60006104eb82610c2e565b816001600160a01b0316836001600160a01b0316141580156118b25750600081115b1561072e576001600160a01b03831615611940576001600160a01b038316600090815260076020526040812081906118ed90611e1385611e1f565b91509150846001600160a01b03167fdec2bacdd2f05b59de34da9b523dff8be42e5e38e818c82fdb0bae774387a7248383604051611935929190918252602082015260400190565b60405180910390a250505b6001600160a01b0382161561072e576001600160a01b0382166000908152600760205260408120819061197690611e4d85611e1f565b91509150836001600160a01b03167fdec2bacdd2f05b59de34da9b523dff8be42e5e38e818c82fdb0bae774387a72483836040516109fd929190918252602082015260400190565b6119c88383611e59565b6119d560008484846119f1565b61072e5760405162461bcd60e51b81526004016105f89061264a565b60006001600160a01b0384163b15611af357604051630a85bd0160e11b81526001600160a01b0385169063150b7a0290611a359033908990889088906004016125fa565b602060405180830381600087803b158015611a4f57600080fd5b505af1925050508015611a7f575060408051601f3d908101601f19168201909252611a7c918101906124ce565b60015b611ad9573d808015611aad576040519150601f19603f3d011682016040523d82523d6000602084013e611ab2565b606091505b508051611ad15760405162461bcd60e51b81526004016105f89061264a565b805181602001fd5b6001600160e01b031916630a85bd0160e11b1490506111a4565b5060016111a4565b6000807f7fffffffffffffffffffffffffffffff5d576e7357a4501ddfe92f46681b20a0831115611b325750600090506003611bdf565b8460ff16601b14158015611b4a57508460ff16601c14155b15611b5b5750600090506004611bdf565b6040805160008082526020820180845289905260ff881692820192909252606081018690526080810185905260019060a0016020604051602081039080840390855afa158015611baf573d6000803e3d6000fd5b5050604051601f1901519150506001600160a01b038116611bd857600060019250925050611bdf565b9150600090505b94509492505050565b6000816004811115611bfc57611bfc612936565b1415611c055750565b6001816004811115611c1957611c19612936565b1415611c675760405162461bcd60e51b815260206004820152601860248201527f45434453413a20696e76616c6964207369676e6174757265000000000000000060448201526064016105f8565b6002816004811115611c7b57611c7b612936565b1415611cc95760405162461bcd60e51b815260206004820152601f60248201527f45434453413a20696e76616c6964207369676e6174757265206c656e6774680060448201526064016105f8565b6003816004811115611cdd57611cdd612936565b1415611d365760405162461bcd60e51b815260206004820152602260248201527f45434453413a20696e76616c6964207369676e6174757265202773272076616c604482015261756560f01b60648201526084016105f8565b6004816004811115611d4a57611d4a612936565b14156110445760405162461bcd60e51b815260206004820152602260248201527f45434453413a20696e76616c6964207369676e6174757265202776272076616c604482015261756560f01b60648201526084016105f8565b6001600160a01b038316611dc257611dbf6008611e4d83611e1f565b50505b6001600160a01b038216611de157611dde6008611e1383611e1f565b50505b6001600160a01b0383811660009081526006602052604080822054858416835291205461072e92918216911683611890565b6000610ad3828461288d565b600080611e4185611e3c611e3288611662565b868863ffffffff16565b611fa3565b91509150935093915050565b6000610ad38284612853565b6001600160a01b038216611eaf5760405162461bcd60e51b815260206004820181905260248201527f4552433732313a206d696e7420746f20746865207a65726f206164647265737360448201526064016105f8565b6000818152600260205260409020546001600160a01b031615611f145760405162461bcd60e51b815260206004820152601c60248201527f4552433732313a20746f6b656e20616c7265616479206d696e7465640000000060448201526064016105f8565b6001600160a01b0382166000908152600360205260408120805460019290611f3d908490612853565b909155505060008181526002602052604080822080546001600160a01b0319166001600160a01b03861690811790915590518392907fddf252ad1be2c89b69c2b068fc378daa952ba7f163c4a11628f55a4df523b3ef908290a4610b006000838361185e565b8154600090819081611fb486611662565b9050600082118015611ff257504386611fce60018561288d565b81548110611fde57611fde61294c565b60009182526020909120015463ffffffff16145b1561205257612000856120ce565b8661200c60018561288d565b8154811061201c5761201c61294c565b9060005260206000200160000160046101000a8154816001600160e01b0302191690836001600160e01b031602179055506120c0565b85600001604051806040016040528061206a4361213b565b63ffffffff16815260200161207e886120ce565b6001600160e01b0390811690915282546001810184556000938452602093849020835194909301519091166401000000000263ffffffff909316929092179101555b9250839150505b9250929050565b60006001600160e01b038211156121375760405162461bcd60e51b815260206004820152602760248201527f53616665436173743a2076616c756520646f65736e27742066697420696e20326044820152663234206269747360c81b60648201526084016105f8565b5090565b600063ffffffff8211156121375760405162461bcd60e51b815260206004820152602660248201527f53616665436173743a2076616c756520646f65736e27742066697420696e203360448201526532206269747360d01b60648201526084016105f8565b8280546121ac906128d0565b90600052602060002090601f0160209004810192826121ce5760008555612214565b82601f106121e75782800160ff19823516178555612214565b82800160010185558215612214579182015b828111156122145782358255916020019190600101906121f9565b506121379291505b80821115612137576000815560010161221c565b60006040828403121561185857600080fd5b60006020828403121561225457600080fd5b8135610ad381612978565b6000806040838503121561227257600080fd5b823561227d81612978565b9150602083013561228d81612978565b809150509250929050565b6000806000606084860312156122ad57600080fd5b83356122b881612978565b925060208401356122c881612978565b929592945050506040919091013590565b600080600080608085870312156122ef57600080fd5b84356122fa81612978565b9350602085013561230a81612978565b925060408501359150606085013567ffffffffffffffff81111561232d57600080fd5b8501601f8101871361233e57600080fd5b803561235161234c8261282b565b6127fa565b81815288602083850101111561236657600080fd5b8160208401602083013760006020838301015280935050505092959194509250565b6000806040838503121561239b57600080fd5b82356123a681612978565b9150602083013561228d8161298d565b600080604083850312156123c957600080fd5b82356123d481612978565b9150602083013567ffffffffffffffff8111156123f057600080fd5b6123fc85828601612230565b9150509250929050565b6000806040838503121561241957600080fd5b823561242481612978565b946020939093013593505050565b60008060008060008060c0878903121561244b57600080fd5b863561245681612978565b95506020870135945060408701359350606087013560ff8116811461247a57600080fd5b9598949750929560808101359460a0909101359350915050565b6000602082840312156124a657600080fd5b8151610ad38161298d565b6000602082840312156124c357600080fd5b8135610ad38161299b565b6000602082840312156124e057600080fd5b8151610ad38161299b565b6000602082840312156124fd57600080fd5b815167ffffffffffffffff81111561251457600080fd5b8201601f8101841361252557600080fd5b805161253361234c8261282b565b81815285602083850101111561254857600080fd5b6125598260208301602086016128a4565b95945050505050565b60006020828403121561257457600080fd5b5035919050565b6000806040838503121561258e57600080fd5b82359150602083013567ffffffffffffffff8111156123f057600080fd5b600080604083850312156125bf57600080fd5b50508035926020909101359150565b600081518084526125e68160208601602086016128a4565b601f01601f19169290920160200192915050565b6001600160a01b038581168252841660208201526040810183905260806060820181905260009061262d908301846125ce565b9695505050505050565b602081526000610ad360208301846125ce565b60208082526032908201527f4552433732313a207472616e7366657220746f206e6f6e20455243373231526560408201527131b2b4bb32b91034b6b83632b6b2b73a32b960711b606082015260800190565b6020808252818101527f4f776e61626c653a2063616c6c6572206973206e6f7420746865206f776e6572604082015260600190565b60208082526031908201527f4552433732313a207472616e736665722063616c6c6572206973206e6f74206f6040820152701ddb995c881b9bdc88185c1c1c9bdd9959607a1b606082015260800190565b6040815260008335601e1985360301811261273c57600080fd5b8401803567ffffffffffffffff81111561275557600080fd5b80360386131561276457600080fd5b604080850152806080850152806020830160a0860137600060a082860101526020860135606085015260a0601f19601f83011685010192505050610ad360208301846001600160a01b03169052565b6000808335601e198436030181126127ca57600080fd5b83018035915067ffffffffffffffff8211156127e557600080fd5b6020019150368190038213156120c757600080fd5b604051601f8201601f1916810167ffffffffffffffff8111828210171561282357612823612962565b604052919050565b600067ffffffffffffffff82111561284557612845612962565b50601f01601f191660200190565b6000821982111561286657612866612920565b500190565b60008261288857634e487b7160e01b600052601260045260246000fd5b500490565b60008282101561289f5761289f612920565b500390565b60005b838110156128bf5781810151838201526020016128a7565b83811115610dd25750506000910152565b600181811c908216806128e457607f821691505b6020821081141561185857634e487b7160e01b600052602260045260246000fd5b600060001982141561291957612919612920565b5060010190565b634e487b7160e01b600052601160045260246000fd5b634e487b7160e01b600052602160045260246000fd5b634e487b7160e01b600052603260045260246000fd5b634e487b7160e01b600052604160045260246000fd5b6001600160a01b038116811461104457600080fd5b801515811461104457600080fd5b6001600160e01b03198116811461104457600080fdfea264697066735822122033c9e96833275aa12f2b95cee90be89b123223632d624701d9c972f489fbe9fc64736f6c63430008060033",
    "linkReferences": {}
  }
}