{
  "abi": [
    {
      "inputs": [
        {
          "internalType": "contract IJBOperatorStore",
          "name": "_operatorStore",
          "type": "address"
        }
      ],
      "stateMutability": "nonpayable",
      "type": "constructor"
    },
    {
      "inputs": [],
      "name": "UNAUTHORIZED",
      "type": "error"
    },
    {
      "anonymous": false,
      "inputs": [
        {
          "indexed": true,
          "internalType": "address",
          "name": "owner",
          "type": "address"
        },
        {
          "indexed": true,
          "internalType": "address",
          "name": "approved",
          "type": "address"
        },
        {
          "indexed": true,
          "internalType": "uint256",
          "name": "tokenId",
          "type": "uint256"
        }
      ],
      "name": "Approval",
      "type": "event"
    },
    {
      "anonymous": false,
      "inputs": [
        {
          "indexed": true,
          "internalType": "address",
          "name": "owner",
          "type": "address"
        },
        {
          "indexed": true,
          "internalType": "address",
          "name": "operator",
          "type": "address"
        },
        {
          "indexed": false,
          "internalType": "bool",
          "name": "approved",
          "type": "bool"
        }
      ],
      "name": "ApprovalForAll",
      "type": "event"
    },
    {
      "anonymous": false,
      "inputs": [
        {
          "indexed": true,
          "internalType": "uint256",
          "name": "projectId",
          "type": "uint256"
        },
        {
          "indexed": true,
          "internalType": "address",
          "name": "owner",
          "type": "address"
        },
        {
          "components": [
            {
              "internalType": "string",
              "name": "content",
              "type": "string"
            },
            {
              "internalType": "uint256",
              "name": "domain",
              "type": "uint256"
            }
          ],
          "indexed": false,
          "internalType": "struct JBProjectMetadata",
          "name": "metadata",
          "type": "tuple"
        },
        {
          "indexed": false,
          "internalType": "address",
          "name": "caller",
          "type": "address"
        }
      ],
      "name": "Create",
      "type": "event"
    },
    {
      "anonymous": false,
      "inputs": [
        {
          "indexed": true,
          "internalType": "address",
          "name": "delegator",
          "type": "address"
        },
        {
          "indexed": true,
          "internalType": "address",
          "name": "fromDelegate",
          "type": "address"
        },
        {
          "indexed": true,
          "internalType": "address",
          "name": "toDelegate",
          "type": "address"
        }
      ],
      "name": "DelegateChanged",
      "type": "event"
    },
    {
      "anonymous": false,
      "inputs": [
        {
          "indexed": true,
          "internalType": "address",
          "name": "delegate",
          "type": "address"
        },
        {
          "indexed": false,
          "internalType": "uint256",
          "name": "previousBalance",
          "type": "uint256"
        },
        {
          "indexed": false,
          "internalType": "uint256",
          "name": "newBalance",
          "type": "uint256"
        }
      ],
      "name": "DelegateVotesChanged",
      "type": "event"
    },
    {
      "anonymous": false,
      "inputs": [
        {
          "indexed": true,
          "internalType": "address",
          "name": "previousOwner",
          "type": "address"
        },
        {
          "indexed": true,
          "internalType": "address",
          "name": "newOwner",
          "type": "address"
        }
      ],
      "name": "OwnershipTransferred",
      "type": "event"
    },
    {
      "anonymous": false,
      "inputs": [
        {
          "indexed": true,
          "internalType": "uint256",
          "name": "projectId",
          "type": "uint256"
        },
        {
          "components": [
            {
              "internalType": "string",
              "name": "content",
              "type": "string"
            },
            {
              "internalType": "uint256",
              "name": "domain",
              "type": "uint256"
            }
          ],
          "indexed": false,
          "internalType": "struct JBProjectMetadata",
          "name": "metadata",
          "type": "tuple"
        },
        {
          "indexed": false,
          "internalType": "address",
          "name": "caller",
          "type": "address"
        }
      ],
      "name": "SetMetadata",
      "type": "event"
    },
    {
      "anonymous": false,
      "inputs": [
        {
          "indexed": true,
          "internalType": "contract IJBTokenUriResolver",
          "name": "resolver",
          "type": "address"
        },
        {
          "indexed": false,
          "internalType": "address",
          "name": "caller",
          "type": "address"
        }
      ],
      "name": "SetTokenUriResolver",
      "type": "event"
    },
    {
      "anonymous": false,
      "inputs": [
        {
          "indexed": true,
          "internalType": "address",
          "name": "from",
          "type": "address"
        },
        {
          "indexed": true,
          "internalType": "address",
          "name": "to",
          "type": "address"
        },
        {
          "indexed": true,
          "internalType": "uint256",
          "name": "tokenId",
          "type": "uint256"
        }
      ],
      "name": "Transfer",
      "type": "event"
    },
    {
      "inputs": [],
      "name": "DOMAIN_SEPARATOR",
      "outputs": [
        {
          "internalType": "bytes32",
          "name": "",
          "type": "bytes32"
        }
      ],
      "stateMutability": "view",
      "type": "function"
    },
    {
      "inputs": [
        {
          "internalType": "address",
          "name": "to",
          "type": "address"
        },
        {
          "internalType": "uint256",
          "name": "tokenId",
          "type": "uint256"
        }
      ],
      "name": "approve",
      "outputs": [],
      "stateMutability": "nonpayable",
      "type": "function"
    },
    {
      "inputs": [
        {
          "internalType": "address",
          "name": "owner",
          "type": "address"
        }
      ],
      "name": "balanceOf",
      "outputs": [
        {
          "internalType": "uint256",
          "name": "",
          "type": "uint256"
        }
      ],
      "stateMutability": "view",
      "type": "function"
    },
    {
      "inputs": [],
      "name": "count",
      "outputs": [
        {
          "internalType": "uint256",
          "name": "",
          "type": "uint256"
        }
      ],
      "stateMutability": "view",
      "type": "function"
    },
    {
      "inputs": [
        {
          "internalType": "address",
          "name": "_owner",
          "type": "address"
        },
        {
          "components": [
            {
              "internalType": "string",
              "name": "content",
              "type": "string"
            },
            {
              "internalType": "uint256",
              "name": "domain",
              "type": "uint256"
            }
          ],
          "internalType": "struct JBProjectMetadata",
          "name": "_metadata",
          "type": "tuple"
        }
      ],
      "name": "createFor",
      "outputs": [
        {
          "internalType": "uint256",
          "name": "projectId",
          "type": "uint256"
        }
      ],
      "stateMutability": "nonpayable",
      "type": "function"
    },
    {
      "inputs": [
        {
          "internalType": "address",
          "name": "delegatee",
          "type": "address"
        }
      ],
      "name": "delegate",
      "outputs": [],
      "stateMutability": "nonpayable",
      "type": "function"
    },
    {
      "inputs": [
        {
          "internalType": "address",
          "name": "delegatee",
          "type": "address"
        },
        {
          "internalType": "uint256",
          "name": "nonce",
          "type": "uint256"
        },
        {
          "internalType": "uint256",
          "name": "expiry",
          "type": "uint256"
        },
        {
          "internalType": "uint8",
          "name": "v",
          "type": "uint8"
        },
        {
          "internalType": "bytes32",
          "name": "r",
          "type": "bytes32"
        },
        {
          "internalType": "bytes32",
          "name": "s",
          "type": "bytes32"
        }
      ],
      "name": "delegateBySig",
      "outputs": [],
      "stateMutability": "nonpayable",
      "type": "function"
    },
    {
      "inputs": [
        {
          "internalType": "address",
          "name": "account",
          "type": "address"
        }
      ],
      "name": "delegates",
      "outputs": [
        {
          "internalType": "address",
          "name": "",
          "type": "address"
        }
      ],
      "stateMutability": "view",
      "type": "function"
    },
    {
      "inputs": [
        {
          "internalType": "uint256",
          "name": "tokenId",
          "type": "uint256"
        }
      ],
      "name": "getApproved",
      "outputs": [
        {
          "internalType": "address",
          "name": "",
          "type": "address"
        }
      ],
      "stateMutability": "view",
      "type": "function"
    },
    {
      "inputs": [
        {
          "internalType": "uint256",
          "name": "blockNumber",
          "type": "uint256"
        }
      ],
      "name": "getPastTotalSupply",
      "outputs": [
        {
          "internalType": "uint256",
          "name": "",
          "type": "uint256"
        }
      ],
      "stateMutability": "view",
      "type": "function"
    },
    {
      "inputs": [
        {
          "internalType": "address",
          "name": "account",
          "type": "address"
        },
        {
          "internalType": "uint256",
          "name": "blockNumber",
          "type": "uint256"
        }
      ],
      "name": "getPastVotes",
      "outputs": [
        {
          "internalType": "uint256",
          "name": "",
          "type": "uint256"
        }
      ],
      "stateMutability": "view",
      "type": "function"
    },
    {
      "inputs": [
        {
          "internalType": "address",
          "name": "account",
          "type": "address"
        }
      ],
      "name": "getVotes",
      "outputs": [
        {
          "internalType": "uint256",
          "name": "",
          "type": "uint256"
        }
      ],
      "stateMutability": "view",
      "type": "function"
    },
    {
      "inputs": [
        {
          "internalType": "address",
          "name": "owner",
          "type": "address"
        },
        {
          "internalType": "address",
          "name": "operator",
          "type": "address"
        }
      ],
      "name": "isApprovedForAll",
      "outputs": [
        {
          "internalType": "bool",
          "name": "",
          "type": "bool"
        }
      ],
      "stateMutability": "view",
      "type": "function"
    },
    {
      "inputs": [
        {
          "internalType": "uint256",
          "name": "",
          "type": "uint256"
        },
        {
          "internalType": "uint256",
          "name": "",
          "type": "uint256"
        }
      ],
      "name": "metadataContentOf",
      "outputs": [
        {
          "internalType": "string",
          "name": "",
          "type": "string"
        }
      ],
      "stateMutability": "view",
      "type": "function"
    },
    {
      "inputs": [],
      "name": "name",
      "outputs": [
        {
          "internalType": "string",
          "name": "",
          "type": "string"
        }
      ],
      "stateMutability": "view",
      "type": "function"
    },
    {
      "inputs": [
        {
          "internalType": "address",
          "name": "owner",
          "type": "address"
        }
      ],
      "name": "nonces",
      "outputs": [
        {
          "internalType": "uint256",
          "name": "",
          "type": "uint256"
        }
      ],
      "stateMutability": "view",
      "type": "function"
    },
    {
      "inputs": [],
      "name": "operatorStore",
      "outputs": [
        {
          "internalType": "contract IJBOperatorStore",
          "name": "",
          "type": "address"
        }
      ],
      "stateMutability": "view",
      "type": "function"
    },
    {
      "inputs": [],
      "name": "owner",
      "outputs": [
        {
          "internalType": "address",
          "name": "",
          "type": "address"
        }
      ],
      "stateMutability": "view",
      "type": "function"
    },
    {
      "inputs": [
        {
          "internalType": "uint256",
          "name": "tokenId",
          "type": "uint256"
        }
      ],
      "name": "ownerOf",
      "outputs": [
        {
          "internalType": "address",
          "name": "",
          "type": "address"
        }
      ],
      "stateMutability": "view",
      "type": "function"
    },
    {
      "inputs": [],
      "name": "renounceOwnership",
      "outputs": [],
      "stateMutability": "nonpayable",
      "type": "function"
    },
    {
      "inputs": [
        {
          "internalType": "address",
          "name": "from",
          "type": "address"
        },
        {
          "internalType": "address",
          "name": "to",
          "type": "address"
        },
        {
          "internalType": "uint256",
          "name": "tokenId",
          "type": "uint256"
        }
      ],
      "name": "safeTransferFrom",
      "outputs": [],
      "stateMutability": "nonpayable",
      "type": "function"
    },
    {
      "inputs": [
        {
          "internalType": "address",
          "name": "from",
          "type": "address"
        },
        {
          "internalType": "address",
          "name": "to",
          "type": "address"
        },
        {
          "internalType": "uint256",
          "name": "tokenId",
          "type": "uint256"
        },
        {
          "internalType": "bytes",
          "name": "_data",
          "type": "bytes"
        }
      ],
      "name": "safeTransferFrom",
      "outputs": [],
      "stateMutability": "nonpayable",
      "type": "function"
    },
    {
      "inputs": [
        {
          "internalType": "address",
          "name": "operator",
          "type": "address"
        },
        {
          "internalType": "bool",
          "name": "approved",
          "type": "bool"
        }
      ],
      "name": "setApprovalForAll",
      "outputs": [],
      "stateMutability": "nonpayable",
      "type": "function"
    },
    {
      "inputs": [
        {
          "internalType": "uint256",
          "name": "_projectId",
          "type": "uint256"
        },
        {
          "components": [
            {
              "internalType": "string",
              "name": "content",
              "type": "string"
            },
            {
              "internalType": "uint256",
              "name": "domain",
              "type": "uint256"
            }
          ],
          "internalType": "struct JBProjectMetadata",
          "name": "_metadata",
          "type": "tuple"
        }
      ],
      "name": "setMetadataOf",
      "outputs": [],
      "stateMutability": "nonpayable",
      "type": "function"
    },
    {
      "inputs": [
        {
          "internalType": "contract IJBTokenUriResolver",
          "name": "_newResolver",
          "type": "address"
        }
      ],
      "name": "setTokenUriResolver",
      "outputs": [],
      "stateMutability": "nonpayable",
      "type": "function"
    },
    {
      "inputs": [
        {
          "internalType": "bytes4",
          "name": "_interfaceId",
          "type": "bytes4"
        }
      ],
      "name": "supportsInterface",
      "outputs": [
        {
          "internalType": "bool",
          "name": "",
          "type": "bool"
        }
      ],
      "stateMutability": "view",
      "type": "function"
    },
    {
      "inputs": [],
      "name": "symbol",
      "outputs": [
        {
          "internalType": "string",
          "name": "",
          "type": "string"
        }
      ],
      "stateMutability": "view",
      "type": "function"
    },
    {
      "inputs": [
        {
          "internalType": "uint256",
          "name": "_projectId",
          "type": "uint256"
        }
      ],
      "name": "tokenURI",
      "outputs": [
        {
          "internalType": "string",
          "name": "",
          "type": "string"
        }
      ],
      "stateMutability": "view",
      "type": "function"
    },
    {
      "inputs": [],
      "name": "tokenUriResolver",
      "outputs": [
        {
          "internalType": "contract IJBTokenUriResolver",
          "name": "",
          "type": "address"
        }
      ],
      "stateMutability": "view",
      "type": "function"
    },
    {
      "inputs": [
        {
          "internalType": "address",
          "name": "from",
          "type": "address"
        },
        {
          "internalType": "address",
          "name": "to",
          "type": "address"
        },
        {
          "internalType": "uint256",
          "name": "tokenId",
          "type": "uint256"
        }
      ],
      "name": "transferFrom",
      "outputs": [],
      "stateMutability": "nonpayable",
      "type": "function"
    },
    {
      "inputs": [
        {
          "internalType": "address",
          "name": "newOwner",
          "type": "address"
        }
      ],
      "name": "transferOwnership",
      "outputs": [],
      "stateMutability": "nonpayable",
      "type": "function"
    }
  ],
  "bytecode": {
    "object": "0x6101606040526000600b553480156200001757600080fd5b5060405162002d9938038062002d998339810160408190526200003a916200028a565b6040805180820182526011808252704a75696365626f782050726f6a6563747360781b60208084018290528451808601865260018152603160f81b818301528551808701875293845283820192835285518087019096526008865267094aa92868a849eb60c31b918601919091526001600160601b0319606087901b166080528251939490939091620000d19160009190620001e4565b508051620000e7906001906020840190620001e4565b505082516020938401208251928401929092206101008390526101208190524660c0818152604080517f8b73c3c69bb8fe3d512ecc4cf759cc79239f7b179b0ffacaa9a75d522b39400f8189018190528183019790975260608181019590955260808101939093523060a0808501829052825180860382018152949093019091528251929096019190912090529290921b60e05261014052506200018b3362000192565b50620002f9565b600a80546001600160a01b038381166001600160a01b0319831681179093556040519116919082907f8be0079c531659141344cd1fd0a4f28419497f9722a3daafe3b4186f6b6457e090600090a35050565b828054620001f290620002bc565b90600052602060002090601f01602090048101928262000216576000855562000261565b82601f106200023157805160ff191683800117855562000261565b8280016001018555821562000261579182015b828111156200026157825182559160200191906001019062000244565b506200026f92915062000273565b5090565b5b808211156200026f576000815560010162000274565b6000602082840312156200029d57600080fd5b81516001600160a01b0381168114620002b557600080fd5b9392505050565b600181811c90821680620002d157607f821691505b60208210811415620002f357634e487b7160e01b600052602260045260246000fd5b50919050565b60805160601c60a05160c05160e05160601c610100516101205161014051612a3162000368600039600061128b015260006112da015260006112b50152600061120e01526000611238015260006112620152600081816103e20152818161136f01526114250152612a316000f3fe608060405234801561001057600080fd5b50600436106101e55760003560e01c8063666d87a01161010f578063a22cb465116100a2578063c87b56dd11610071578063c87b56dd1461042a578063e131fc0c1461043d578063e985e9c514610450578063f2fde38b1461048c57600080fd5b8063a22cb465146103ca578063ad007d63146103dd578063b88d4fde14610404578063c3cda5201461041757600080fd5b80638da5cb5b116100de5780638da5cb5b1461038b5780638e539e8c1461039c57806395d89b41146103af5780639ab24eb0146103b757600080fd5b8063666d87a01461034a57806370a082311461035d578063715018a6146103705780637ecebe001461037857600080fd5b80633644e5151161018757806342842e0e1161015657806342842e0e146102e5578063587cde1e146102f85780635c19a95c146103245780636352211e1461033757600080fd5b80633644e515146102a457806336574975146102ac57806339fbc775146102bf5780633a46b1a8146102d257600080fd5b8063081812fc116101c3578063081812fc1461023e578063095ea7b31461026957806323b872dd1461027e5780632407497e1461029157600080fd5b806301ffc9a7146101ea57806306661abd1461021257806306fdde0314610229575b600080fd5b6101fd6101f83660046124fb565b61049f565b60405190151581526020015b60405180910390f35b61021b600b5481565b604051908152602001610209565b6102316104e5565b6040516102099190612681565b61025161024c3660046125ac565b610577565b6040516001600160a01b039091168152602001610209565b61027c610277366004612450565b610611565b005b61027c61028c3660046122e2565b610727565b61027c61029f36600461228c565b610758565b61021b6107d6565b61027c6102ba3660046125c5565b6107e5565b6102316102cd3660046125f6565b61086f565b61021b6102e0366004612450565b610914565b61027c6102f33660046122e2565b61093d565b61025161030636600461228c565b6001600160a01b039081166000908152600660205260409020541690565b61027c61033236600461228c565b610958565b6102516103453660046125ac565b610967565b61021b610358366004612400565b6109de565b61021b61036b36600461228c565b610a91565b61027c610b18565b61021b61038636600461228c565b610b4e565b600a546001600160a01b0316610251565b61021b6103aa3660046125ac565b610b6c565b610231610bc8565b61021b6103c536600461228c565b610bd7565b61027c6103d83660046123d2565b610bf8565b6102517f000000000000000000000000000000000000000000000000000000000000000081565b61027c610412366004612323565b610c03565b61027c61042536600461247c565b610c3b565b6102316104383660046125ac565b610d68565b600d54610251906001600160a01b031681565b6101fd61045e3660046122a9565b6001600160a01b03918216600090815260056020908152604080832093909416825291909152205460ff1690565b61027c61049a36600461228c565b610e0f565b60006001600160e01b0319821663aa91a66f60e01b14806104d057506001600160e01b0319821663ad007d6360e01b145b806104df57506104df82610eaa565b92915050565b6060600080546104f49061291a565b80601f01602080910402602001604051908101604052809291908181526020018280546105209061291a565b801561056d5780601f106105425761010080835404028352916020019161056d565b820191906000526020600020905b81548152906001019060200180831161055057829003601f168201915b5050505050905090565b6000818152600260205260408120546001600160a01b03166105f55760405162461bcd60e51b815260206004820152602c60248201527f4552433732313a20617070726f76656420717565727920666f72206e6f6e657860448201526b34b9ba32b73a103a37b5b2b760a11b60648201526084015b60405180910390fd5b506000908152600460205260409020546001600160a01b031690565b600061061c82610967565b9050806001600160a01b0316836001600160a01b0316141561068a5760405162461bcd60e51b815260206004820152602160248201527f4552433732313a20617070726f76616c20746f2063757272656e74206f776e656044820152603960f91b60648201526084016105ec565b336001600160a01b03821614806106a657506106a6813361045e565b6107185760405162461bcd60e51b815260206004820152603860248201527f4552433732313a20617070726f76652063616c6c6572206973206e6f74206f7760448201527f6e6572206e6f7220617070726f76656420666f7220616c6c000000000000000060648201526084016105ec565b6107228383610efa565b505050565b6107313382610f68565b61074d5760405162461bcd60e51b81526004016105ec9061271b565b61072283838361105f565b600a546001600160a01b031633146107825760405162461bcd60e51b81526004016105ec906126e6565b600d80546001600160a01b0319166001600160a01b0383169081179091556040513381527fe7784d93cfbfa4408e19577e6cc0436f4dbb51214b70e100905dfce9def88c169060200160405180910390a250565b60006107e0611201565b905090565b6107ee82610967565b8260066107fc838383611328565b61080684806127fd565b6000878152600c60209081526040808320898301358452909152902061082d9290916121ea565b50847fd07720acb527321c9d1766f359139d0e0e3551bd99fb3ca353d4f008f3aad8e6853360405161086092919061276c565b60405180910390a25050505050565b600c602090815260009283526040808420909152908252902080546108939061291a565b80601f01602080910402602001604051908101604052809291908181526020018280546108bf9061291a565b801561090c5780601f106108e15761010080835404028352916020019161090c565b820191906000526020600020905b8154815290600101906020018083116108ef57829003601f168201915b505050505081565b6001600160a01b038216600090815260076020526040812061093690836114bf565b9392505050565b61072283838360405180602001604052806000815250610c03565b3361096381836115ce565b5050565b6000818152600260205260408120546001600160a01b0316806104df5760405162461bcd60e51b815260206004820152602960248201527f4552433732313a206f776e657220717565727920666f72206e6f6e657869737460448201526832b73a103a37b5b2b760b91b60648201526084016105ec565b6000600b600081546109ef9061294f565b91829055509050610a008382611640565b6000610a0c83806127fd565b90501115610a4757610a1e82806127fd565b6000838152600c602090815260408083208783013584529091529020610a459290916121ea565b505b826001600160a01b0316817fa1c6fd563bcbc3222f6031d7c26ff58cd6c701abff0bfffe652d055ce40629d48433604051610a8392919061276c565b60405180910390a392915050565b60006001600160a01b038216610afc5760405162461bcd60e51b815260206004820152602a60248201527f4552433732313a2062616c616e636520717565727920666f7220746865207a65604482015269726f206164647265737360b01b60648201526084016105ec565b506001600160a01b031660009081526003602052604090205490565b600a546001600160a01b03163314610b425760405162461bcd60e51b81526004016105ec906126e6565b610b4c600061165a565b565b6001600160a01b0381166000908152600960205260408120546104df565b6000438210610bbd5760405162461bcd60e51b815260206004820152601a60248201527f566f7465733a20626c6f636b206e6f7420796574206d696e656400000000000060448201526064016105ec565b6104df6008836114bf565b6060600180546104f49061291a565b6001600160a01b03811660009081526007602052604081206104df906116ac565b610963338383611708565b610c0d3383610f68565b610c295760405162461bcd60e51b81526004016105ec9061271b565b610c35848484846117d7565b50505050565b83421115610c8b5760405162461bcd60e51b815260206004820152601860248201527f566f7465733a207369676e61747572652065787069726564000000000000000060448201526064016105ec565b604080517fe48329057bfd03d55e49b547132e39cffd9c1820ad7b9d4c5307691425d15adf60208201526001600160a01b038816918101919091526060810186905260808101859052600090610d0590610cfd9060a0016040516020818303038152906040528051906020012061180a565b858585611858565b9050610d1081611880565b8614610d555760405162461bcd60e51b8152602060048201526014602482015273566f7465733a20696e76616c6964206e6f6e636560601b60448201526064016105ec565b610d5f81886115ce565b50505050505050565b600d546060906001600160a01b0316610d8f57505060408051602081019091526000815290565b600d54604051636d02a25560e11b8152600481018490526001600160a01b039091169063da0544aa9060240160006040518083038186803b158015610dd357600080fd5b505afa158015610de7573d6000803e3d6000fd5b505050506040513d6000823e601f3d908101601f191682016040526104df9190810190612535565b600a546001600160a01b03163314610e395760405162461bcd60e51b81526004016105ec906126e6565b6001600160a01b038116610e9e5760405162461bcd60e51b815260206004820152602660248201527f4f776e61626c653a206e6577206f776e657220697320746865207a65726f206160448201526564647265737360d01b60648201526084016105ec565b610ea78161165a565b50565b60006001600160e01b031982166380ac58cd60e01b1480610edb57506001600160e01b03198216635b5e139f60e01b145b806104df57506301ffc9a760e01b6001600160e01b03198316146104df565b600081815260046020526040902080546001600160a01b0319166001600160a01b0384169081179091558190610f2f82610967565b6001600160a01b03167f8c5be1e5ebec7d5bd14f71427d1e84f3dd0314c0f7b2291e5b200ac8c7c3b92560405160405180910390a45050565b6000818152600260205260408120546001600160a01b0316610fe15760405162461bcd60e51b815260206004820152602c60248201527f4552433732313a206f70657261746f7220717565727920666f72206e6f6e657860448201526b34b9ba32b73a103a37b5b2b760a11b60648201526084016105ec565b6000610fec83610967565b9050806001600160a01b0316846001600160a01b031614806110275750836001600160a01b031661101c84610577565b6001600160a01b0316145b8061105757506001600160a01b0380821660009081526005602090815260408083209388168352929052205460ff165b949350505050565b826001600160a01b031661107282610967565b6001600160a01b0316146110d65760405162461bcd60e51b815260206004820152602560248201527f4552433732313a207472616e736665722066726f6d20696e636f72726563742060448201526437bbb732b960d91b60648201526084016105ec565b6001600160a01b0382166111385760405162461bcd60e51b8152602060048201526024808201527f4552433732313a207472616e7366657220746f20746865207a65726f206164646044820152637265737360e01b60648201526084016105ec565b611143600082610efa565b6001600160a01b038316600090815260036020526040812080546001929061116c9084906128d7565b90915550506001600160a01b038216600090815260036020526040812080546001929061119a90849061289d565b909155505060008181526002602052604080822080546001600160a01b0319166001600160a01b0386811691821790925591518493918716917fddf252ad1be2c89b69c2b068fc378daa952ba7f163c4a11628f55a4df523b3ef91a46107228383836118a8565b6000306001600160a01b037f00000000000000000000000000000000000000000000000000000000000000001614801561125a57507f000000000000000000000000000000000000000000000000000000000000000046145b1561128457507f000000000000000000000000000000000000000000000000000000000000000090565b50604080517f00000000000000000000000000000000000000000000000000000000000000006020808301919091527f0000000000000000000000000000000000000000000000000000000000000000828401527f000000000000000000000000000000000000000000000000000000000000000060608301524660808301523060a0808401919091528351808403909101815260c0909201909252805191012090565b336001600160a01b038416148015906113eb575060405163c161c93f60e01b81523360048201526001600160a01b03848116602483015260448201849052606482018390527f0000000000000000000000000000000000000000000000000000000000000000169063c161c93f9060840160206040518083038186803b1580156113b157600080fd5b505afa1580156113c5573d6000803e3d6000fd5b505050506040513d601f19601f820116820180604052508101906113e991906124de565b155b80156114a1575060405163c161c93f60e01b81523360048201526001600160a01b03848116602483015260006044830152606482018390527f0000000000000000000000000000000000000000000000000000000000000000169063c161c93f9060840160206040518083038186803b15801561146757600080fd5b505afa15801561147b573d6000803e3d6000fd5b505050506040513d601f19601f8201168201806040525081019061149f91906124de565b155b156107225760405163075fd2b160e01b815260040160405180910390fd5b60004382106115105760405162461bcd60e51b815260206004820181905260248201527f436865636b706f696e74733a20626c6f636b206e6f7420796574206d696e656460448201526064016105ec565b825460005b8181101561157557600061152982846118b4565b90508486600001828154811061154157611541612996565b60009182526020909120015463ffffffff1611156115615780925061156f565b61156c81600161289d565b91505b50611515565b81156115b957846115876001846128d7565b8154811061159757611597612996565b60009182526020909120015464010000000090046001600160e01b03166115bc565b60005b6001600160e01b031695945050505050565b6001600160a01b0382811660008181526006602052604080822080548686166001600160a01b0319821681179092559151919094169392849290917f3134e8a2e6d97e929a7e54011ea5485d7d196dd5f0ba4d4ef95803e8e3fc257f9190a4610722818361163b866118cf565b6118da565b610963828260405180602001604052806000815250611a08565b600a80546001600160a01b038381166001600160a01b0319831681179093556040519116919082907f8be0079c531659141344cd1fd0a4f28419497f9722a3daafe3b4186f6b6457e090600090a35050565b805460009080156116f557826116c36001836128d7565b815481106116d3576116d3612996565b60009182526020909120015464010000000090046001600160e01b03166116f8565b60005b6001600160e01b03169392505050565b816001600160a01b0316836001600160a01b0316141561176a5760405162461bcd60e51b815260206004820152601960248201527f4552433732313a20617070726f766520746f2063616c6c65720000000000000060448201526064016105ec565b6001600160a01b03838116600081815260056020908152604080832094871680845294825291829020805460ff191686151590811790915591519182527f17307eab39ab6107e8899845ad3d59bd9653f200f220920489ca2b5937696c31910160405180910390a3505050565b6117e284848461105f565b6117ee84848484611a3b565b610c355760405162461bcd60e51b81526004016105ec90612694565b60006104df611817611201565b8360405161190160f01b6020820152602281018390526042810182905260009060620160405160208183030381529060405280519060200120905092915050565b600080600061186987878787611b45565b9150915061187681611c32565b5095945050505050565b6001600160a01b03811660009081526009602052604090208054600181018255905b50919050565b61072283836001611ded565b60006118c360028484186128b5565b6109369084841661289d565b60006104df82610a91565b816001600160a01b0316836001600160a01b0316141580156118fc5750600081115b15610722576001600160a01b0383161561198a576001600160a01b0383166000908152600760205260408120819061193790611e5d85611e69565b91509150846001600160a01b03167fdec2bacdd2f05b59de34da9b523dff8be42e5e38e818c82fdb0bae774387a724838360405161197f929190918252602082015260400190565b60405180910390a250505b6001600160a01b03821615610722576001600160a01b038216600090815260076020526040812081906119c090611e9785611e69565b91509150836001600160a01b03167fdec2bacdd2f05b59de34da9b523dff8be42e5e38e818c82fdb0bae774387a7248383604051610860929190918252602082015260400190565b611a128383611ea3565b611a1f6000848484611a3b565b6107225760405162461bcd60e51b81526004016105ec90612694565b60006001600160a01b0384163b15611b3d57604051630a85bd0160e11b81526001600160a01b0385169063150b7a0290611a7f903390899088908890600401612644565b602060405180830381600087803b158015611a9957600080fd5b505af1925050508015611ac9575060408051601f3d908101601f19168201909252611ac691810190612518565b60015b611b23573d808015611af7576040519150601f19603f3d011682016040523d82523d6000602084013e611afc565b606091505b508051611b1b5760405162461bcd60e51b81526004016105ec90612694565b805181602001fd5b6001600160e01b031916630a85bd0160e11b149050611057565b506001611057565b6000807f7fffffffffffffffffffffffffffffff5d576e7357a4501ddfe92f46681b20a0831115611b7c5750600090506003611c29565b8460ff16601b14158015611b9457508460ff16601c14155b15611ba55750600090506004611c29565b6040805160008082526020820180845289905260ff881692820192909252606081018690526080810185905260019060a0016020604051602081039080840390855afa158015611bf9573d6000803e3d6000fd5b5050604051601f1901519150506001600160a01b038116611c2257600060019250925050611c29565b9150600090505b94509492505050565b6000816004811115611c4657611c46612980565b1415611c4f5750565b6001816004811115611c6357611c63612980565b1415611cb15760405162461bcd60e51b815260206004820152601860248201527f45434453413a20696e76616c6964207369676e6174757265000000000000000060448201526064016105ec565b6002816004811115611cc557611cc5612980565b1415611d135760405162461bcd60e51b815260206004820152601f60248201527f45434453413a20696e76616c6964207369676e6174757265206c656e6774680060448201526064016105ec565b6003816004811115611d2757611d27612980565b1415611d805760405162461bcd60e51b815260206004820152602260248201527f45434453413a20696e76616c6964207369676e6174757265202773272076616c604482015261756560f01b60648201526084016105ec565b6004816004811115611d9457611d94612980565b1415610ea75760405162461bcd60e51b815260206004820152602260248201527f45434453413a20696e76616c6964207369676e6174757265202776272076616c604482015261756560f01b60648201526084016105ec565b6001600160a01b038316611e0c57611e096008611e9783611e69565b50505b6001600160a01b038216611e2b57611e286008611e5d83611e69565b50505b6001600160a01b03838116600090815260066020526040808220548584168352912054610722929182169116836118da565b600061093682846128d7565b600080611e8b85611e86611e7c886116ac565b868863ffffffff16565b611fed565b91509150935093915050565b6000610936828461289d565b6001600160a01b038216611ef95760405162461bcd60e51b815260206004820181905260248201527f4552433732313a206d696e7420746f20746865207a65726f206164647265737360448201526064016105ec565b6000818152600260205260409020546001600160a01b031615611f5e5760405162461bcd60e51b815260206004820152601c60248201527f4552433732313a20746f6b656e20616c7265616479206d696e7465640000000060448201526064016105ec565b6001600160a01b0382166000908152600360205260408120805460019290611f8790849061289d565b909155505060008181526002602052604080822080546001600160a01b0319166001600160a01b03861690811790915590518392907fddf252ad1be2c89b69c2b068fc378daa952ba7f163c4a11628f55a4df523b3ef908290a4610963600083836118a8565b8154600090819081611ffe866116ac565b905060008211801561203c575043866120186001856128d7565b8154811061202857612028612996565b60009182526020909120015463ffffffff16145b1561209c5761204a85612118565b866120566001856128d7565b8154811061206657612066612996565b9060005260206000200160000160046101000a8154816001600160e01b0302191690836001600160e01b0316021790555061210a565b8560000160405180604001604052806120b443612185565b63ffffffff1681526020016120c888612118565b6001600160e01b0390811690915282546001810184556000938452602093849020835194909301519091166401000000000263ffffffff909316929092179101555b9250839150505b9250929050565b60006001600160e01b038211156121815760405162461bcd60e51b815260206004820152602760248201527f53616665436173743a2076616c756520646f65736e27742066697420696e20326044820152663234206269747360c81b60648201526084016105ec565b5090565b600063ffffffff8211156121815760405162461bcd60e51b815260206004820152602660248201527f53616665436173743a2076616c756520646f65736e27742066697420696e203360448201526532206269747360d01b60648201526084016105ec565b8280546121f69061291a565b90600052602060002090601f016020900481019282612218576000855561225e565b82601f106122315782800160ff1982351617855561225e565b8280016001018555821561225e579182015b8281111561225e578235825591602001919060010190612243565b506121819291505b808211156121815760008155600101612266565b6000604082840312156118a257600080fd5b60006020828403121561229e57600080fd5b8135610936816129c2565b600080604083850312156122bc57600080fd5b82356122c7816129c2565b915060208301356122d7816129c2565b809150509250929050565b6000806000606084860312156122f757600080fd5b8335612302816129c2565b92506020840135612312816129c2565b929592945050506040919091013590565b6000806000806080858703121561233957600080fd5b8435612344816129c2565b93506020850135612354816129c2565b925060408501359150606085013567ffffffffffffffff81111561237757600080fd5b8501601f8101871361238857600080fd5b803561239b61239682612875565b612844565b8181528860208385010111156123b057600080fd5b8160208401602083013760006020838301015280935050505092959194509250565b600080604083850312156123e557600080fd5b82356123f0816129c2565b915060208301356122d7816129d7565b6000806040838503121561241357600080fd5b823561241e816129c2565b9150602083013567ffffffffffffffff81111561243a57600080fd5b6124468582860161227a565b9150509250929050565b6000806040838503121561246357600080fd5b823561246e816129c2565b946020939093013593505050565b60008060008060008060c0878903121561249557600080fd5b86356124a0816129c2565b95506020870135945060408701359350606087013560ff811681146124c457600080fd5b9598949750929560808101359460a0909101359350915050565b6000602082840312156124f057600080fd5b8151610936816129d7565b60006020828403121561250d57600080fd5b8135610936816129e5565b60006020828403121561252a57600080fd5b8151610936816129e5565b60006020828403121561254757600080fd5b815167ffffffffffffffff81111561255e57600080fd5b8201601f8101841361256f57600080fd5b805161257d61239682612875565b81815285602083850101111561259257600080fd5b6125a38260208301602086016128ee565b95945050505050565b6000602082840312156125be57600080fd5b5035919050565b600080604083850312156125d857600080fd5b82359150602083013567ffffffffffffffff81111561243a57600080fd5b6000806040838503121561260957600080fd5b50508035926020909101359150565b600081518084526126308160208601602086016128ee565b601f01601f19169290920160200192915050565b6001600160a01b038581168252841660208201526040810183905260806060820181905260009061267790830184612618565b9695505050505050565b6020815260006109366020830184612618565b60208082526032908201527f4552433732313a207472616e7366657220746f206e6f6e20455243373231526560408201527131b2b4bb32b91034b6b83632b6b2b73a32b960711b606082015260800190565b6020808252818101527f4f776e61626c653a2063616c6c6572206973206e6f7420746865206f776e6572604082015260600190565b60208082526031908201527f4552433732313a207472616e736665722063616c6c6572206973206e6f74206f6040820152701ddb995c881b9bdc88185c1c1c9bdd9959607a1b606082015260800190565b6040815260008335601e1985360301811261278657600080fd5b8401803567ffffffffffffffff81111561279f57600080fd5b8036038613156127ae57600080fd5b604080850152806080850152806020830160a0860137600060a082860101526020860135606085015260a0601f19601f8301168501019250505061093660208301846001600160a01b03169052565b6000808335601e1984360301811261281457600080fd5b83018035915067ffffffffffffffff82111561282f57600080fd5b60200191503681900382131561211157600080fd5b604051601f8201601f1916810167ffffffffffffffff8111828210171561286d5761286d6129ac565b604052919050565b600067ffffffffffffffff82111561288f5761288f6129ac565b50601f01601f191660200190565b600082198211156128b0576128b061296a565b500190565b6000826128d257634e487b7160e01b600052601260045260246000fd5b500490565b6000828210156128e9576128e961296a565b500390565b60005b838110156129095781810151838201526020016128f1565b83811115610c355750506000910152565b600181811c9082168061292e57607f821691505b602082108114156118a257634e487b7160e01b600052602260045260246000fd5b60006000198214156129635761296361296a565b5060010190565b634e487b7160e01b600052601160045260246000fd5b634e487b7160e01b600052602160045260246000fd5b634e487b7160e01b600052603260045260246000fd5b634e487b7160e01b600052604160045260246000fd5b6001600160a01b0381168114610ea757600080fd5b8015158114610ea757600080fd5b6001600160e01b031981168114610ea757600080fdfea2646970667358221220602d1589ba6c9088557aa9a09190bf483ef0a1bc176db156e172672a7876638564736f6c63430008060033",
    "linkReferences": {}
  }
}