{
  "abi": [
    {
      "inputs": [
        {
          "internalType": "string",
          "name": "name_",
          "type": "string"
        },
        {
          "internalType": "string",
          "name": "symbol_",
          "type": "string"
        }
      ],
      "stateMutability": "nonpayable",
      "type": "constructor"
    },
    {
      "anonymous": false,
      "inputs": [
        {
          "indexed": true,
          "internalType": "address",
          "name": "owner",
          "type": "address"
        },
        {
          "indexed": true,
          "internalType": "address",
          "name": "approved",
          "type": "address"
        },
        {
          "indexed": true,
          "internalType": "uint256",
          "name": "tokenId",
          "type": "uint256"
        }
      ],
      "name": "Approval",
      "type": "event"
    },
    {
      "anonymous": false,
      "inputs": [
        {
          "indexed": true,
          "internalType": "address",
          "name": "owner",
          "type": "address"
        },
        {
          "indexed": true,
          "internalType": "address",
          "name": "operator",
          "type": "address"
        },
        {
          "indexed": false,
          "internalType": "bool",
          "name": "approved",
          "type": "bool"
        }
      ],
      "name": "ApprovalForAll",
      "type": "event"
    },
    {
      "anonymous": false,
      "inputs": [
        {
          "indexed": true,
          "internalType": "address",
          "name": "from",
          "type": "address"
        },
        {
          "indexed": true,
          "internalType": "address",
          "name": "to",
          "type": "address"
        },
        {
          "indexed": true,
          "internalType": "uint256",
          "name": "tokenId",
          "type": "uint256"
        }
      ],
      "name": "Transfer",
      "type": "event"
    },
    {
      "inputs": [
        {
          "internalType": "address",
          "name": "to",
          "type": "address"
        },
        {
          "internalType": "uint256",
          "name": "tokenId",
          "type": "uint256"
        }
      ],
      "name": "approve",
      "outputs": [],
      "stateMutability": "nonpayable",
      "type": "function"
    },
    {
      "inputs": [
        {
          "internalType": "address",
          "name": "owner",
          "type": "address"
        }
      ],
      "name": "balanceOf",
      "outputs": [
        {
          "internalType": "uint256",
          "name": "",
          "type": "uint256"
        }
      ],
      "stateMutability": "view",
      "type": "function"
    },
    {
      "inputs": [
        {
          "internalType": "uint256",
          "name": "tokenId",
          "type": "uint256"
        }
      ],
      "name": "getApproved",
      "outputs": [
        {
          "internalType": "address",
          "name": "",
          "type": "address"
        }
      ],
      "stateMutability": "view",
      "type": "function"
    },
    {
      "inputs": [
        {
          "internalType": "address",
          "name": "owner",
          "type": "address"
        },
        {
          "internalType": "address",
          "name": "operator",
          "type": "address"
        }
      ],
      "name": "isApprovedForAll",
      "outputs": [
        {
          "internalType": "bool",
          "name": "",
          "type": "bool"
        }
      ],
      "stateMutability": "view",
      "type": "function"
    },
    {
      "inputs": [],
      "name": "name",
      "outputs": [
        {
          "internalType": "string",
          "name": "",
          "type": "string"
        }
      ],
      "stateMutability": "view",
      "type": "function"
    },
    {
      "inputs": [
        {
          "internalType": "uint256",
          "name": "tokenId",
          "type": "uint256"
        }
      ],
      "name": "ownerOf",
      "outputs": [
        {
          "internalType": "address",
          "name": "",
          "type": "address"
        }
      ],
      "stateMutability": "view",
      "type": "function"
    },
    {
      "inputs": [
        {
          "internalType": "address",
          "name": "from",
          "type": "address"
        },
        {
          "internalType": "address",
          "name": "to",
          "type": "address"
        },
        {
          "internalType": "uint256",
          "name": "tokenId",
          "type": "uint256"
        }
      ],
      "name": "safeTransferFrom",
      "outputs": [],
      "stateMutability": "nonpayable",
      "type": "function"
    },
    {
      "inputs": [
        {
          "internalType": "address",
          "name": "from",
          "type": "address"
        },
        {
          "internalType": "address",
          "name": "to",
          "type": "address"
        },
        {
          "internalType": "uint256",
          "name": "tokenId",
          "type": "uint256"
        },
        {
          "internalType": "bytes",
          "name": "_data",
          "type": "bytes"
        }
      ],
      "name": "safeTransferFrom",
      "outputs": [],
      "stateMutability": "nonpayable",
      "type": "function"
    },
    {
      "inputs": [
        {
          "internalType": "address",
          "name": "operator",
          "type": "address"
        },
        {
          "internalType": "bool",
          "name": "approved",
          "type": "bool"
        }
      ],
      "name": "setApprovalForAll",
      "outputs": [],
      "stateMutability": "nonpayable",
      "type": "function"
    },
    {
      "inputs": [
        {
          "internalType": "bytes4",
          "name": "interfaceId",
          "type": "bytes4"
        }
      ],
      "name": "supportsInterface",
      "outputs": [
        {
          "internalType": "bool",
          "name": "",
          "type": "bool"
        }
      ],
      "stateMutability": "view",
      "type": "function"
    },
    {
      "inputs": [],
      "name": "symbol",
      "outputs": [
        {
          "internalType": "string",
          "name": "",
          "type": "string"
        }
      ],
      "stateMutability": "view",
      "type": "function"
    },
    {
      "inputs": [
        {
          "internalType": "uint256",
          "name": "tokenId",
          "type": "uint256"
        }
      ],
      "name": "tokenURI",
      "outputs": [
        {
          "internalType": "string",
          "name": "",
          "type": "string"
        }
      ],
      "stateMutability": "view",
      "type": "function"
    },
    {
      "inputs": [
        {
          "internalType": "address",
          "name": "from",
          "type": "address"
        },
        {
          "internalType": "address",
          "name": "to",
          "type": "address"
        },
        {
          "internalType": "uint256",
          "name": "tokenId",
          "type": "uint256"
        }
      ],
      "name": "transferFrom",
      "outputs": [],
      "stateMutability": "nonpayable",
      "type": "function"
    }
  ],
  "bytecode": {
    "object": "0x60806040523480156200001157600080fd5b50604051620014ed380380620014ed8339810160408190526200003491620001c5565b81516200004990600090602085019062000068565b5080516200005f90600190602084019062000068565b50505062000282565b82805462000076906200022f565b90600052602060002090601f0160209004810192826200009a5760008555620000e5565b82601f10620000b557805160ff1916838001178555620000e5565b82800160010185558215620000e5579182015b82811115620000e5578251825591602001919060010190620000c8565b50620000f3929150620000f7565b5090565b5b80821115620000f35760008155600101620000f8565b600082601f8301126200012057600080fd5b81516001600160401b03808211156200013d576200013d6200026c565b604051601f8301601f19908116603f011681019082821181831017156200016857620001686200026c565b816040528381526020925086838588010111156200018557600080fd5b600091505b83821015620001a957858201830151818301840152908201906200018a565b83821115620001bb5760008385830101525b9695505050505050565b60008060408385031215620001d957600080fd5b82516001600160401b0380821115620001f157600080fd5b620001ff868387016200010e565b935060208501519150808211156200021657600080fd5b5062000225858286016200010e565b9150509250929050565b600181811c908216806200024457607f821691505b602082108114156200026657634e487b7160e01b600052602260045260246000fd5b50919050565b634e487b7160e01b600052604160045260246000fd5b61125b80620002926000396000f3fe608060405234801561001057600080fd5b50600436106100cf5760003560e01c80636352211e1161008c578063a22cb46511610066578063a22cb465146101b3578063b88d4fde146101c6578063c87b56dd146101d9578063e985e9c5146101ec57600080fd5b80636352211e1461017757806370a082311461018a57806395d89b41146101ab57600080fd5b806301ffc9a7146100d457806306fdde03146100fc578063081812fc14610111578063095ea7b31461013c57806323b872dd1461015157806342842e0e14610164575b600080fd5b6100e76100e2366004610f3a565b610228565b60405190151581526020015b60405180910390f35b61010461027a565b6040516100f39190611025565b61012461011f366004610f74565b61030c565b6040516001600160a01b0390911681526020016100f3565b61014f61014a366004610f10565b6103a6565b005b61014f61015f366004610dbc565b6104bc565b61014f610172366004610dbc565b6104ed565b610124610185366004610f74565b610508565b61019d610198366004610d6e565b61057f565b6040519081526020016100f3565b610104610606565b61014f6101c1366004610ed4565b610615565b61014f6101d4366004610df8565b610624565b6101046101e7366004610f74565b61065c565b6100e76101fa366004610d89565b6001600160a01b03918216600090815260056020908152604080832093909416825291909152205460ff1690565b60006001600160e01b031982166380ac58cd60e01b148061025957506001600160e01b03198216635b5e139f60e01b145b8061027457506301ffc9a760e01b6001600160e01b03198316145b92915050565b6060600080546102899061114a565b80601f01602080910402602001604051908101604052809291908181526020018280546102b59061114a565b80156103025780601f106102d757610100808354040283529160200191610302565b820191906000526020600020905b8154815290600101906020018083116102e557829003601f168201915b5050505050905090565b6000818152600260205260408120546001600160a01b031661038a5760405162461bcd60e51b815260206004820152602c60248201527f4552433732313a20617070726f76656420717565727920666f72206e6f6e657860448201526b34b9ba32b73a103a37b5b2b760a11b60648201526084015b60405180910390fd5b506000908152600460205260409020546001600160a01b031690565b60006103b182610508565b9050806001600160a01b0316836001600160a01b0316141561041f5760405162461bcd60e51b815260206004820152602160248201527f4552433732313a20617070726f76616c20746f2063757272656e74206f776e656044820152603960f91b6064820152608401610381565b336001600160a01b038216148061043b575061043b81336101fa565b6104ad5760405162461bcd60e51b815260206004820152603860248201527f4552433732313a20617070726f76652063616c6c6572206973206e6f74206f7760448201527f6e6572206e6f7220617070726f76656420666f7220616c6c00000000000000006064820152608401610381565b6104b78383610744565b505050565b6104c633826107b2565b6104e25760405162461bcd60e51b81526004016103819061108a565b6104b78383836108a9565b6104b783838360405180602001604052806000815250610624565b6000818152600260205260408120546001600160a01b0316806102745760405162461bcd60e51b815260206004820152602960248201527f4552433732313a206f776e657220717565727920666f72206e6f6e657869737460448201526832b73a103a37b5b2b760b91b6064820152608401610381565b60006001600160a01b0382166105ea5760405162461bcd60e51b815260206004820152602a60248201527f4552433732313a2062616c616e636520717565727920666f7220746865207a65604482015269726f206164647265737360b01b6064820152608401610381565b506001600160a01b031660009081526003602052604090205490565b6060600180546102899061114a565b610620338383610a45565b5050565b61062e33836107b2565b61064a5760405162461bcd60e51b81526004016103819061108a565b61065684848484610b14565b50505050565b6000818152600260205260409020546060906001600160a01b03166106db5760405162461bcd60e51b815260206004820152602f60248201527f4552433732314d657461646174613a2055524920717565727920666f72206e6f60448201526e3732bc34b9ba32b73a103a37b5b2b760891b6064820152608401610381565b60006106f260408051602081019091526000815290565b90506000815111610712576040518060200160405280600081525061073d565b8061071c84610b47565b60405160200161072d929190610fb9565b6040516020818303038152906040525b9392505050565b600081815260046020526040902080546001600160a01b0319166001600160a01b038416908117909155819061077982610508565b6001600160a01b03167f8c5be1e5ebec7d5bd14f71427d1e84f3dd0314c0f7b2291e5b200ac8c7c3b92560405160405180910390a45050565b6000818152600260205260408120546001600160a01b031661082b5760405162461bcd60e51b815260206004820152602c60248201527f4552433732313a206f70657261746f7220717565727920666f72206e6f6e657860448201526b34b9ba32b73a103a37b5b2b760a11b6064820152608401610381565b600061083683610508565b9050806001600160a01b0316846001600160a01b031614806108715750836001600160a01b03166108668461030c565b6001600160a01b0316145b806108a157506001600160a01b0380821660009081526005602090815260408083209388168352929052205460ff165b949350505050565b826001600160a01b03166108bc82610508565b6001600160a01b0316146109205760405162461bcd60e51b815260206004820152602560248201527f4552433732313a207472616e736665722066726f6d20696e636f72726563742060448201526437bbb732b960d91b6064820152608401610381565b6001600160a01b0382166109825760405162461bcd60e51b8152602060048201526024808201527f4552433732313a207472616e7366657220746f20746865207a65726f206164646044820152637265737360e01b6064820152608401610381565b61098d600082610744565b6001600160a01b03831660009081526003602052604081208054600192906109b6908490611107565b90915550506001600160a01b03821660009081526003602052604081208054600192906109e49084906110db565b909155505060008181526002602052604080822080546001600160a01b0319166001600160a01b0386811691821790925591518493918716917fddf252ad1be2c89b69c2b068fc378daa952ba7f163c4a11628f55a4df523b3ef91a4505050565b816001600160a01b0316836001600160a01b03161415610aa75760405162461bcd60e51b815260206004820152601960248201527f4552433732313a20617070726f766520746f2063616c6c6572000000000000006044820152606401610381565b6001600160a01b03838116600081815260056020908152604080832094871680845294825291829020805460ff191686151590811790915591519182527f17307eab39ab6107e8899845ad3d59bd9653f200f220920489ca2b5937696c31910160405180910390a3505050565b610b1f8484846108a9565b610b2b84848484610c45565b6106565760405162461bcd60e51b815260040161038190611038565b606081610b6b5750506040805180820190915260018152600360fc1b602082015290565b8160005b8115610b955780610b7f81611185565b9150610b8e9050600a836110f3565b9150610b6f565b60008167ffffffffffffffff811115610bb057610bb06111f6565b6040519080825280601f01601f191660200182016040528015610bda576020820181803683370190505b5090505b84156108a157610bef600183611107565b9150610bfc600a866111a0565b610c079060306110db565b60f81b818381518110610c1c57610c1c6111e0565b60200101906001600160f81b031916908160001a905350610c3e600a866110f3565b9450610bde565b60006001600160a01b0384163b15610d4757604051630a85bd0160e11b81526001600160a01b0385169063150b7a0290610c89903390899088908890600401610fe8565b602060405180830381600087803b158015610ca357600080fd5b505af1925050508015610cd3575060408051601f3d908101601f19168201909252610cd091810190610f57565b60015b610d2d573d808015610d01576040519150601f19603f3d011682016040523d82523d6000602084013e610d06565b606091505b508051610d255760405162461bcd60e51b815260040161038190611038565b805181602001fd5b6001600160e01b031916630a85bd0160e11b1490506108a1565b506001949350505050565b80356001600160a01b0381168114610d6957600080fd5b919050565b600060208284031215610d8057600080fd5b61073d82610d52565b60008060408385031215610d9c57600080fd5b610da583610d52565b9150610db360208401610d52565b90509250929050565b600080600060608486031215610dd157600080fd5b610dda84610d52565b9250610de860208501610d52565b9150604084013590509250925092565b60008060008060808587031215610e0e57600080fd5b610e1785610d52565b9350610e2560208601610d52565b925060408501359150606085013567ffffffffffffffff80821115610e4957600080fd5b818701915087601f830112610e5d57600080fd5b813581811115610e6f57610e6f6111f6565b604051601f8201601f19908116603f01168101908382118183101715610e9757610e976111f6565b816040528281528a6020848701011115610eb057600080fd5b82602086016020830137600060208483010152809550505050505092959194509250565b60008060408385031215610ee757600080fd5b610ef083610d52565b915060208301358015158114610f0557600080fd5b809150509250929050565b60008060408385031215610f2357600080fd5b610f2c83610d52565b946020939093013593505050565b600060208284031215610f4c57600080fd5b813561073d8161120c565b600060208284031215610f6957600080fd5b815161073d8161120c565b600060208284031215610f8657600080fd5b5035919050565b60008151808452610fa581602086016020860161111e565b601f01601f19169290920160200192915050565b60008351610fcb81846020880161111e565b835190830190610fdf81836020880161111e565b01949350505050565b6001600160a01b038581168252841660208201526040810183905260806060820181905260009061101b90830184610f8d565b9695505050505050565b60208152600061073d6020830184610f8d565b60208082526032908201527f4552433732313a207472616e7366657220746f206e6f6e20455243373231526560408201527131b2b4bb32b91034b6b83632b6b2b73a32b960711b606082015260800190565b60208082526031908201527f4552433732313a207472616e736665722063616c6c6572206973206e6f74206f6040820152701ddb995c881b9bdc88185c1c1c9bdd9959607a1b606082015260800190565b600082198211156110ee576110ee6111b4565b500190565b600082611102576111026111ca565b500490565b600082821015611119576111196111b4565b500390565b60005b83811015611139578181015183820152602001611121565b838111156106565750506000910152565b600181811c9082168061115e57607f821691505b6020821081141561117f57634e487b7160e01b600052602260045260246000fd5b50919050565b6000600019821415611199576111996111b4565b5060010190565b6000826111af576111af6111ca565b500690565b634e487b7160e01b600052601160045260246000fd5b634e487b7160e01b600052601260045260246000fd5b634e487b7160e01b600052603260045260246000fd5b634e487b7160e01b600052604160045260246000fd5b6001600160e01b03198116811461122257600080fd5b5056fea26469706673582212202614c5d700d35686cd9e8f5de486511487a7e74038c4353e0903a448cf1eebdc64736f6c63430008060033",
    "linkReferences": {}
  }
}