{
  "abi": [
    {
      "inputs": [
        {
          "internalType": "contract IJBOperatorStore",
          "name": "_operatorStore",
          "type": "address"
        },
        {
          "internalType": "contract IJBProjects",
          "name": "_projects",
          "type": "address"
        }
      ],
      "stateMutability": "nonpayable",
      "type": "constructor"
    },
    {
      "inputs": [],
      "name": "ADD_TERMINAL_ZERO_ADDRESS",
      "type": "error"
    },
    {
      "inputs": [],
      "name": "CONTROLLER_ALREADY_IN_ALLOWLIST",
      "type": "error"
    },
    {
      "inputs": [],
      "name": "CONTROLLER_ALREADY_SET",
      "type": "error"
    },
    {
      "inputs": [],
      "name": "CONTROLLER_NOT_IN_ALLOWLIST",
      "type": "error"
    },
    {
      "inputs": [],
      "name": "INVALID_PROJECT_ID_IN_DIRECTORY",
      "type": "error"
    },
    {
      "inputs": [],
      "name": "PRIMARY_TERMINAL_ALREADY_SET",
      "type": "error"
    },
    {
      "inputs": [],
      "name": "SET_CONTROLLER_ZERO_ADDRESS",
      "type": "error"
    },
    {
      "inputs": [],
      "name": "SET_PRIMARY_TERMINAL_ZERO_ADDRESS",
      "type": "error"
    },
    {
      "inputs": [],
      "name": "UNAUTHORIZED",
      "type": "error"
    },
    {
      "anonymous": false,
      "inputs": [
        {
          "indexed": true,
          "internalType": "uint256",
          "name": "projectId",
          "type": "uint256"
        },
        {
          "indexed": true,
          "internalType": "contract IJBPaymentTerminal",
          "name": "terminal",
          "type": "address"
        },
        {
          "indexed": false,
          "internalType": "address",
          "name": "caller",
          "type": "address"
        }
      ],
      "name": "AddTerminal",
      "type": "event"
    },
    {
      "anonymous": false,
      "inputs": [
        {
          "indexed": true,
          "internalType": "address",
          "name": "_address",
          "type": "address"
        },
        {
          "indexed": false,
          "internalType": "address",
          "name": "caller",
          "type": "address"
        }
      ],
      "name": "AddToSetControllerAllowlist",
      "type": "event"
    },
    {
      "anonymous": false,
      "inputs": [
        {
          "indexed": true,
          "internalType": "address",
          "name": "previousOwner",
          "type": "address"
        },
        {
          "indexed": true,
          "internalType": "address",
          "name": "newOwner",
          "type": "address"
        }
      ],
      "name": "OwnershipTransferred",
      "type": "event"
    },
    {
      "anonymous": false,
      "inputs": [
        {
          "indexed": true,
          "internalType": "address",
          "name": "_address",
          "type": "address"
        },
        {
          "indexed": false,
          "internalType": "address",
          "name": "caller",
          "type": "address"
        }
      ],
      "name": "RemoveFromSetControllerAllowlist",
      "type": "event"
    },
    {
      "anonymous": false,
      "inputs": [
        {
          "indexed": true,
          "internalType": "uint256",
          "name": "projectId",
          "type": "uint256"
        },
        {
          "indexed": true,
          "internalType": "contract IJBPaymentTerminal",
          "name": "terminal",
          "type": "address"
        },
        {
          "indexed": false,
          "internalType": "address",
          "name": "caller",
          "type": "address"
        }
      ],
      "name": "RemoveTerminal",
      "type": "event"
    },
    {
      "anonymous": false,
      "inputs": [
        {
          "indexed": true,
          "internalType": "uint256",
          "name": "projectId",
          "type": "uint256"
        },
        {
          "indexed": true,
          "internalType": "contract IJBController",
          "name": "controller",
          "type": "address"
        },
        {
          "indexed": false,
          "internalType": "address",
          "name": "caller",
          "type": "address"
        }
      ],
      "name": "SetController",
      "type": "event"
    },
    {
      "anonymous": false,
      "inputs": [
        {
          "indexed": true,
          "internalType": "uint256",
          "name": "projectId",
          "type": "uint256"
        },
        {
          "indexed": true,
          "internalType": "address",
          "name": "token",
          "type": "address"
        },
        {
          "indexed": true,
          "internalType": "contract IJBPaymentTerminal",
          "name": "terminal",
          "type": "address"
        },
        {
          "indexed": false,
          "internalType": "address",
          "name": "caller",
          "type": "address"
        }
      ],
      "name": "SetPrimaryTerminal",
      "type": "event"
    },
    {
      "inputs": [
        {
          "internalType": "uint256",
          "name": "_projectId",
          "type": "uint256"
        },
        {
          "internalType": "contract IJBPaymentTerminal[]",
          "name": "_terminals",
          "type": "address[]"
        }
      ],
      "name": "addTerminalsOf",
      "outputs": [],
      "stateMutability": "nonpayable",
      "type": "function"
    },
    {
      "inputs": [
        {
          "internalType": "address",
          "name": "_address",
          "type": "address"
        }
      ],
      "name": "addToSetControllerAllowlist",
      "outputs": [],
      "stateMutability": "nonpayable",
      "type": "function"
    },
    {
      "inputs": [
        {
          "internalType": "uint256",
          "name": "",
          "type": "uint256"
        }
      ],
      "name": "controllerOf",
      "outputs": [
        {
          "internalType": "contract IJBController",
          "name": "",
          "type": "address"
        }
      ],
      "stateMutability": "view",
      "type": "function"
    },
    {
      "inputs": [
        {
          "internalType": "address",
          "name": "",
          "type": "address"
        }
      ],
      "name": "isAllowedToSetController",
      "outputs": [
        {
          "internalType": "bool",
          "name": "",
          "type": "bool"
        }
      ],
      "stateMutability": "view",
      "type": "function"
    },
    {
      "inputs": [
        {
          "internalType": "uint256",
          "name": "_projectId",
          "type": "uint256"
        },
        {
          "internalType": "contract IJBPaymentTerminal",
          "name": "_terminal",
          "type": "address"
        }
      ],
      "name": "isTerminalOf",
      "outputs": [
        {
          "internalType": "bool",
          "name": "",
          "type": "bool"
        }
      ],
      "stateMutability": "view",
      "type": "function"
    },
    {
      "inputs": [],
      "name": "operatorStore",
      "outputs": [
        {
          "internalType": "contract IJBOperatorStore",
          "name": "",
          "type": "address"
        }
      ],
      "stateMutability": "view",
      "type": "function"
    },
    {
      "inputs": [],
      "name": "owner",
      "outputs": [
        {
          "internalType": "address",
          "name": "",
          "type": "address"
        }
      ],
      "stateMutability": "view",
      "type": "function"
    },
    {
      "inputs": [
        {
          "internalType": "uint256",
          "name": "_projectId",
          "type": "uint256"
        },
        {
          "internalType": "address",
          "name": "_token",
          "type": "address"
        }
      ],
      "name": "primaryTerminalOf",
      "outputs": [
        {
          "internalType": "contract IJBPaymentTerminal",
          "name": "",
          "type": "address"
        }
      ],
      "stateMutability": "view",
      "type": "function"
    },
    {
      "inputs": [],
      "name": "projects",
      "outputs": [
        {
          "internalType": "contract IJBProjects",
          "name": "",
          "type": "address"
        }
      ],
      "stateMutability": "view",
      "type": "function"
    },
    {
      "inputs": [
        {
          "internalType": "address",
          "name": "_address",
          "type": "address"
        }
      ],
      "name": "removeFromSetControllerAllowlist",
      "outputs": [],
      "stateMutability": "nonpayable",
      "type": "function"
    },
    {
      "inputs": [
        {
          "internalType": "uint256",
          "name": "_projectId",
          "type": "uint256"
        },
        {
          "internalType": "contract IJBPaymentTerminal",
          "name": "_terminal",
          "type": "address"
        }
      ],
      "name": "removeTerminalOf",
      "outputs": [],
      "stateMutability": "nonpayable",
      "type": "function"
    },
    {
      "inputs": [],
      "name": "renounceOwnership",
      "outputs": [],
      "stateMutability": "nonpayable",
      "type": "function"
    },
    {
      "inputs": [
        {
          "internalType": "uint256",
          "name": "_projectId",
          "type": "uint256"
        },
        {
          "internalType": "contract IJBController",
          "name": "_controller",
          "type": "address"
        }
      ],
      "name": "setControllerOf",
      "outputs": [],
      "stateMutability": "nonpayable",
      "type": "function"
    },
    {
      "inputs": [
        {
          "internalType": "uint256",
          "name": "_projectId",
          "type": "uint256"
        },
        {
          "internalType": "contract IJBPaymentTerminal",
          "name": "_terminal",
          "type": "address"
        }
      ],
      "name": "setPrimaryTerminalOf",
      "outputs": [],
      "stateMutability": "nonpayable",
      "type": "function"
    },
    {
      "inputs": [
        {
          "internalType": "uint256",
          "name": "_projectId",
          "type": "uint256"
        }
      ],
      "name": "terminalsOf",
      "outputs": [
        {
          "internalType": "contract IJBPaymentTerminal[]",
          "name": "",
          "type": "address[]"
        }
      ],
      "stateMutability": "view",
      "type": "function"
    },
    {
      "inputs": [
        {
          "internalType": "address",
          "name": "newOwner",
          "type": "address"
        }
      ],
      "name": "transferOwnership",
      "outputs": [],
      "stateMutability": "nonpayable",
      "type": "function"
    }
  ],
  "bytecode": {
    "object": "0x60c06040523480156200001157600080fd5b5060405162001b9138038062001b918339810160408190526200003491620000b8565b606082901b6001600160601b031916608052620000513362000068565b60601b6001600160601b03191660a0525062000110565b600080546001600160a01b038381166001600160a01b0319831681178455604051919092169283917f8be0079c531659141344cd1fd0a4f28419497f9722a3daafe3b4186f6b6457e09190a35050565b60008060408385031215620000cc57600080fd5b8251620000d981620000f7565b6020840151909250620000ec81620000f7565b809150509250929050565b6001600160a01b03811681146200010d57600080fd5b50565b60805160601c60a05160601c6119fa62000197600039600081816101dc015281816102c8015281816107b601528181610a6501528181610d8701526111090152600081816102140152818161039d01528181610448015281816108a90152818161095401528181610e3701528181610ee2015281816111b9015261126401526119fa6000f3fe608060405234801561001057600080fd5b50600436106101005760003560e01c80638b79543c11610097578063d188044911610066578063d188044914610256578063df14411814610279578063e527757a1461028c578063f2fde38b1461029f57600080fd5b80638b79543c146101d75780638da5cb5b146101fe578063ad007d631461020f578063d17541531461023657600080fd5b80636e49181f116100d35780636e49181f14610186578063714e7f32146101a9578063715018a6146101bc57806386202650146101c457600080fd5b80631cda3bfe146101055780634a1f1df41461011a5780635dd8f6aa1461012d5780636ca35c8a14610173575b600080fd5b610118610113366004611846565b6102b2565b005b610118610128366004611781565b61059c565b61015661013b3660046117e4565b6004602052600090815260409020546001600160a01b031681565b6040516001600160a01b0390911681526020015b60405180910390f35b610118610181366004611781565b610660565b610199610194366004611816565b610717565b604051901515815260200161016a565b6101186101b7366004611816565b6107a0565b610118610b7c565b6101566101d2366004611816565b610bb2565b6101567f000000000000000000000000000000000000000000000000000000000000000081565b6000546001600160a01b0316610156565b6101567f000000000000000000000000000000000000000000000000000000000000000081565b6102496102443660046117e4565b610d05565b60405161016a91906118ee565b610199610264366004611781565b60036020526000908152604090205460ff1681565b610118610287366004611816565b610d71565b61011861029a366004611816565b6110f3565b6101186102ad366004611781565b6115de565b6040516331a9108f60e11b8152600481018490527f00000000000000000000000000000000000000000000000000000000000000006001600160a01b031690636352211e9060240160206040518083038186803b15801561031257600080fd5b505afa158015610326573d6000803e3d6000fd5b505050506040513d601f19601f8201168201806040525081019061034a91906117a5565b6000848152600460205260409020548490600e906001600160a01b0316331480158161037f5750336001600160a01b03851614155b801561042a575060405163c161c93f60e01b81526001600160a01b037f0000000000000000000000000000000000000000000000000000000000000000169063c161c93f906103d89033908890889088906004016118c5565b60206040518083038186803b1580156103f057600080fd5b505afa158015610404573d6000803e3d6000fd5b505050506040513d601f19601f8201168201806040525081019061042891906117c2565b155b80156104d6575060405163c161c93f60e01b81526001600160a01b037f0000000000000000000000000000000000000000000000000000000000000000169063c161c93f90610484903390889060009088906004016118c5565b60206040518083038186803b15801561049c57600080fd5b505afa1580156104b0573d6000803e3d6000fd5b505050506040513d601f19601f820116820180604052508101906104d491906117c2565b155b156104f45760405163075fd2b160e01b815260040160405180910390fd5b60005b8581101561059257600087878381811061051357610513611999565b90506020020160208101906105289190611781565b6001600160a01b0316141561055057604051630264fce360e01b815260040160405180910390fd5b6105808888888481811061056657610566611999565b905060200201602081019061057b9190611781565b611679565b8061058a81611970565b9150506104f7565b5050505050505050565b6000546001600160a01b031633146105cf5760405162461bcd60e51b81526004016105c69061193b565b60405180910390fd5b6001600160a01b03811660009081526003602052604090205460ff16610608576040516331b69c3960e01b815260040160405180910390fd5b6001600160a01b038116600081815260036020908152604091829020805460ff1916905590513381527f627b6b323d459a0b1a57687e03a8e2899cee037277c9d3b13874b295be31c3db91015b60405180910390a250565b6000546001600160a01b0316331461068a5760405162461bcd60e51b81526004016105c69061193b565b6001600160a01b03811660009081526003602052604090205460ff16156106c3576040516218353d60e31b815260040160405180910390fd5b6001600160a01b038116600081815260036020908152604091829020805460ff1916600117905590513381527fdfd2bc577e70beb5e792777b0667811f285a3479332a67b6c6adbe7c33a337e59101610655565b6000805b60008481526001602052604090205481101561079457600084815260016020526040902080546001600160a01b03851691908390811061075d5761075d611999565b6000918252602090912001546001600160a01b0316141561078257600191505061079a565b8061078c81611970565b91505061071b565b50600090505b92915050565b6040516331a9108f60e11b8152600481018390527f00000000000000000000000000000000000000000000000000000000000000006001600160a01b031690636352211e9060240160206040518083038186803b15801561080057600080fd5b505afa158015610814573d6000803e3d6000fd5b505050506040513d601f19601f8201168201806040525081019061083891906117a5565b6001600160a01b0382166000908152600360205260409020548390600d9060ff16801561087457503360009081526003602052604090205460ff165b8015801561088b5750336001600160a01b03851614155b8015610936575060405163c161c93f60e01b81526001600160a01b037f0000000000000000000000000000000000000000000000000000000000000000169063c161c93f906108e49033908890889088906004016118c5565b60206040518083038186803b1580156108fc57600080fd5b505afa158015610910573d6000803e3d6000fd5b505050506040513d601f19601f8201168201806040525081019061093491906117c2565b155b80156109e2575060405163c161c93f60e01b81526001600160a01b037f0000000000000000000000000000000000000000000000000000000000000000169063c161c93f90610990903390889060009088906004016118c5565b60206040518083038186803b1580156109a857600080fd5b505afa1580156109bc573d6000803e3d6000fd5b505050506040513d601f19601f820116820180604052508101906109e091906117c2565b155b15610a005760405163075fd2b160e01b815260040160405180910390fd5b6001600160a01b038516610a2757604051630b4846e960e11b815260040160405180910390fd5b6000868152600460205260409020546001600160a01b0386811691161415610a625760405163fe78094160e01b815260040160405180910390fd5b857f00000000000000000000000000000000000000000000000000000000000000006001600160a01b03166306661abd6040518163ffffffff1660e01b815260040160206040518083038186803b158015610abc57600080fd5b505afa158015610ad0573d6000803e3d6000fd5b505050506040513d601f19601f82011682018060405250810190610af491906117fd565b1015610b1357604051634a283a5360e11b815260040160405180910390fd5b60008681526004602090815260409182902080546001600160a01b0319166001600160a01b038916908117909155915133815288917f7f9a7dcb234c909a09de2f344661ad9e5b24067adb97c908647c2edcbb121c3091015b60405180910390a3505050505050565b6000546001600160a01b03163314610ba65760405162461bcd60e51b81526004016105c69061193b565b610bb060006116ff565b565b60008281526002602090815260408083206001600160a01b03858116855292528220541615610c06575060008281526002602090815260408083206001600160a01b0380861685529252909120541661079a565b60005b600084815260016020526040902054811015610794576000848152600160205260408120805483908110610c3f57610c3f611999565b9060005260206000200160009054906101000a90046001600160a01b03169050836001600160a01b0316816001600160a01b031663fc0c546a6040518163ffffffff1660e01b815260040160206040518083038186803b158015610ca257600080fd5b505afa158015610cb6573d6000803e3d6000fd5b505050506040513d601f19601f82011682018060405250810190610cda91906117a5565b6001600160a01b03161415610cf257915061079a9050565b5080610cfd81611970565b915050610c09565b600081815260016020908152604091829020805483518184028101840190945280845260609392830182828015610d6557602002820191906000526020600020905b81546001600160a01b03168152600190910190602001808311610d47575b50505050509050919050565b6040516331a9108f60e11b8152600481018390527f00000000000000000000000000000000000000000000000000000000000000006001600160a01b031690636352211e9060240160206040518083038186803b158015610dd157600080fd5b505afa158015610de5573d6000803e3d6000fd5b505050506040513d601f19601f82011682018060405250810190610e0991906117a5565b826010336001600160a01b03841614801590610ec4575060405163c161c93f60e01b81526001600160a01b037f0000000000000000000000000000000000000000000000000000000000000000169063c161c93f90610e729033908790879087906004016118c5565b60206040518083038186803b158015610e8a57600080fd5b505afa158015610e9e573d6000803e3d6000fd5b505050506040513d601f19601f82011682018060405250810190610ec291906117c2565b155b8015610f70575060405163c161c93f60e01b81526001600160a01b037f0000000000000000000000000000000000000000000000000000000000000000169063c161c93f90610f1e903390879060009087906004016118c5565b60206040518083038186803b158015610f3657600080fd5b505afa158015610f4a573d6000803e3d6000fd5b505050506040513d601f19601f82011682018060405250810190610f6e91906117c2565b155b15610f8e5760405163075fd2b160e01b815260040160405180910390fd5b6001600160a01b038416610fb5576040516306c7e6c760e11b815260040160405180910390fd5b6000846001600160a01b031663fc0c546a6040518163ffffffff1660e01b815260040160206040518083038186803b158015610ff057600080fd5b505afa158015611004573d6000803e3d6000fd5b505050506040513d601f19601f8201168201806040525081019061102891906117a5565b60008781526002602090815260408083206001600160a01b0380861685529252909120549192508681169116141561107357604051639d9fc9f160e01b815260040160405180910390fd5b61107d8686611679565b60008681526002602090815260408083206001600160a01b038581168086529184529382902080546001600160a01b031916948a1694851790559051338152909189917fc670a502bbb9f8a4315f95eca901a9f99b65f89a2eb5705a58050e5c00f9d672910160405180910390a4505050505050565b6040516331a9108f60e11b8152600481018390527f00000000000000000000000000000000000000000000000000000000000000006001600160a01b031690636352211e9060240160206040518083038186803b15801561115357600080fd5b505afa158015611167573d6000803e3d6000fd5b505050506040513d601f19601f8201168201806040525081019061118b91906117a5565b82600f336001600160a01b03841614801590611246575060405163c161c93f60e01b81526001600160a01b037f0000000000000000000000000000000000000000000000000000000000000000169063c161c93f906111f49033908790879087906004016118c5565b60206040518083038186803b15801561120c57600080fd5b505afa158015611220573d6000803e3d6000fd5b505050506040513d601f19601f8201168201806040525081019061124491906117c2565b155b80156112f2575060405163c161c93f60e01b81526001600160a01b037f0000000000000000000000000000000000000000000000000000000000000000169063c161c93f906112a0903390879060009087906004016118c5565b60206040518083038186803b1580156112b857600080fd5b505afa1580156112cc573d6000803e3d6000fd5b505050506040513d601f19601f820116820180604052508101906112f091906117c2565b155b156113105760405163075fd2b160e01b815260040160405180910390fd5b60008581526001602090815260408083208054825181850281018501909352808352919290919083018282801561137057602002820191906000526020600020905b81546001600160a01b03168152600190910190602001808311611352575b5050506000898152600160205260408120939450611391939250905061174f565b60005b815181101561143f57856001600160a01b03168282815181106113b9576113b9611999565b60200260200101516001600160a01b03161461142d57600087815260016020526040902082518390839081106113f1576113f1611999565b60209081029190910181015182546001810184556000938452919092200180546001600160a01b0319166001600160a01b039092169190911790555b8061143781611970565b915050611394565b50846001600160a01b0316600260008881526020019081526020016000206000876001600160a01b031663fc0c546a6040518163ffffffff1660e01b815260040160206040518083038186803b15801561149857600080fd5b505afa1580156114ac573d6000803e3d6000fd5b505050506040513d601f19601f820116820180604052508101906114d091906117a5565b6001600160a01b0390811682526020820192909252604001600020541614156115a157600260008781526020019081526020016000206000866001600160a01b031663fc0c546a6040518163ffffffff1660e01b815260040160206040518083038186803b15801561154157600080fd5b505afa158015611555573d6000803e3d6000fd5b505050506040513d601f19601f8201168201806040525081019061157991906117a5565b6001600160a01b03168152602081019190915260400160002080546001600160a01b03191690555b6040513381526001600160a01b0386169087907fbf79cd9af545aa6edcc5ac76aa264b34ccb6e59a51b44998a766f828ec9b7c8690602001610b6c565b6000546001600160a01b031633146116085760405162461bcd60e51b81526004016105c69061193b565b6001600160a01b03811661166d5760405162461bcd60e51b815260206004820152602660248201527f4f776e61626c653a206e6577206f776e657220697320746865207a65726f206160448201526564647265737360d01b60648201526084016105c6565b611676816116ff565b50565b6116838282610717565b1561168c575050565b60008281526001602081815260408084208054938401815584529281902090910180546001600160a01b0319166001600160a01b038516908117909155915133815284917f409bccc07b7cf7807930526a24318212d614c59f2dde05a017a41efee144e7c8910160405180910390a35050565b600080546001600160a01b038381166001600160a01b0319831681178455604051919092169283917f8be0079c531659141344cd1fd0a4f28419497f9722a3daafe3b4186f6b6457e09190a35050565b508054600082559060005260206000209081019061167691905b8082111561177d5760008155600101611769565b5090565b60006020828403121561179357600080fd5b813561179e816119af565b9392505050565b6000602082840312156117b757600080fd5b815161179e816119af565b6000602082840312156117d457600080fd5b8151801515811461179e57600080fd5b6000602082840312156117f657600080fd5b5035919050565b60006020828403121561180f57600080fd5b5051919050565b6000806040838503121561182957600080fd5b82359150602083013561183b816119af565b809150509250929050565b60008060006040848603121561185b57600080fd5b83359250602084013567ffffffffffffffff8082111561187a57600080fd5b818601915086601f83011261188e57600080fd5b81358181111561189d57600080fd5b8760208260051b85010111156118b257600080fd5b6020830194508093505050509250925092565b6001600160a01b0394851681529290931660208301526040820152606081019190915260800190565b6020808252825182820181905260009190848201906040850190845b8181101561192f5783516001600160a01b03168352928401929184019160010161190a565b50909695505050505050565b6020808252818101527f4f776e61626c653a2063616c6c6572206973206e6f7420746865206f776e6572604082015260600190565b600060001982141561199257634e487b7160e01b600052601160045260246000fd5b5060010190565b634e487b7160e01b600052603260045260246000fd5b6001600160a01b038116811461167657600080fdfea2646970667358221220e4ba71c76defdd83b71b17edb8f184e063d612e1239ee5adccc2d11ff3f485f364736f6c63430008060033",
    "linkReferences": {}
  }
}