{
  "abi": [
    {
      "inputs": [],
      "name": "EXTEND_LOCK",
      "outputs": [
        {
          "internalType": "uint256",
          "name": "",
          "type": "uint256"
        }
      ],
      "stateMutability": "view",
      "type": "function"
    },
    {
      "inputs": [],
      "name": "LOCK",
      "outputs": [
        {
          "internalType": "uint256",
          "name": "",
          "type": "uint256"
        }
      ],
      "stateMutability": "view",
      "type": "function"
    },
    {
      "inputs": [],
      "name": "REDEEM",
      "outputs": [
        {
          "internalType": "uint256",
          "name": "",
          "type": "uint256"
        }
      ],
      "stateMutability": "view",
      "type": "function"
    },
    {
      "inputs": [],
      "name": "SET_PUBLIC_EXTENSION_FLAG",
      "outputs": [
        {
          "internalType": "uint256",
          "name": "",
          "type": "uint256"
        }
      ],
      "stateMutability": "view",
      "type": "function"
    },
    {
      "inputs": [],
      "name": "UNLOCK",
      "outputs": [
        {
          "internalType": "uint256",
          "name": "",
          "type": "uint256"
        }
      ],
      "stateMutability": "view",
      "type": "function"
    }
  ],
  "bytecode": {
    "object": "0x60cb610039600b82828239805160001a60731461002c57634e487b7160e01b600052600060045260246000fd5b30600052607381538281f3fe7300000000000000000000000000000000000000003014608060405260043610605b5760003560e01c8063523993da146060578063706c3a2214607957806375cea2d7146080578063a4f0d7d0146087578063c577af3014608e575b600080fd5b6067601481565b60405190815260200160405180910390f35b6067601781565b6067601581565b6067601381565b606760168156fea264697066735822122081c80dc04e9e162db5b2d0255915e3232c7939c1c8d2dd00a4994696fb26b3ce64736f6c63430008060033",
    "linkReferences": {}
  }
}