{
  "abi": [
    {
      "inputs": [],
      "name": "EXTEND_LOCK",
      "outputs": [
        {
          "internalType": "uint256",
          "name": "",
          "type": "uint256"
        }
      ],
      "stateMutability": "view",
      "type": "function"
    },
    {
      "inputs": [],
      "name": "LOCK",
      "outputs": [
        {
          "internalType": "uint256",
          "name": "",
          "type": "uint256"
        }
      ],
      "stateMutability": "view",
      "type": "function"
    },
    {
      "inputs": [],
      "name": "UNLOCK",
      "outputs": [
        {
          "internalType": "uint256",
          "name": "",
          "type": "uint256"
        }
      ],
      "stateMutability": "view",
      "type": "function"
    }
  ],
  "bytecode": {
    "object": "0x60a9610039600b82828239805160001a60731461002c57634e487b7160e01b600052600060045260246000fd5b30600052607381538281f3fe730000000000000000000000000000000000000000301460806040526004361060475760003560e01c8063523993da14604c57806375cea2d7146065578063a4f0d7d014606c575b600080fd5b6053601481565b60405190815260200160405180910390f35b6053601581565b605360138156fea26469706673582212207eba65d7ba20a5b8e665f46a945fca726d7791511a4b69586f2111cdff29749564736f6c63430008060033",
    "linkReferences": {}
  }
}