{
  "abi": [
    {
      "inputs": [
        {
          "internalType": "string",
          "name": "_name",
          "type": "string"
        },
        {
          "internalType": "string",
          "name": "_symbol",
          "type": "string"
        }
      ],
      "stateMutability": "nonpayable",
      "type": "constructor"
    },
    {
      "anonymous": false,
      "inputs": [
        {
          "indexed": true,
          "internalType": "address",
          "name": "owner",
          "type": "address"
        },
        {
          "indexed": true,
          "internalType": "address",
          "name": "spender",
          "type": "address"
        },
        {
          "indexed": false,
          "internalType": "uint256",
          "name": "value",
          "type": "uint256"
        }
      ],
      "name": "Approval",
      "type": "event"
    },
    {
      "anonymous": false,
      "inputs": [
        {
          "indexed": true,
          "internalType": "address",
          "name": "previousOwner",
          "type": "address"
        },
        {
          "indexed": true,
          "internalType": "address",
          "name": "newOwner",
          "type": "address"
        }
      ],
      "name": "OwnershipTransferred",
      "type": "event"
    },
    {
      "anonymous": false,
      "inputs": [
        {
          "indexed": true,
          "internalType": "address",
          "name": "from",
          "type": "address"
        },
        {
          "indexed": true,
          "internalType": "address",
          "name": "to",
          "type": "address"
        },
        {
          "indexed": false,
          "internalType": "uint256",
          "name": "value",
          "type": "uint256"
        }
      ],
      "name": "Transfer",
      "type": "event"
    },
    {
      "inputs": [],
      "name": "DOMAIN_SEPARATOR",
      "outputs": [
        {
          "internalType": "bytes32",
          "name": "",
          "type": "bytes32"
        }
      ],
      "stateMutability": "view",
      "type": "function"
    },
    {
      "inputs": [
        {
          "internalType": "address",
          "name": "owner",
          "type": "address"
        },
        {
          "internalType": "address",
          "name": "spender",
          "type": "address"
        }
      ],
      "name": "allowance",
      "outputs": [
        {
          "internalType": "uint256",
          "name": "",
          "type": "uint256"
        }
      ],
      "stateMutability": "view",
      "type": "function"
    },
    {
      "inputs": [
        {
          "internalType": "address",
          "name": "spender",
          "type": "address"
        },
        {
          "internalType": "uint256",
          "name": "amount",
          "type": "uint256"
        }
      ],
      "name": "approve",
      "outputs": [
        {
          "internalType": "bool",
          "name": "",
          "type": "bool"
        }
      ],
      "stateMutability": "nonpayable",
      "type": "function"
    },
    {
      "inputs": [
        {
          "internalType": "uint256",
          "name": "",
          "type": "uint256"
        },
        {
          "internalType": "address",
          "name": "_spender",
          "type": "address"
        },
        {
          "internalType": "uint256",
          "name": "_amount",
          "type": "uint256"
        }
      ],
      "name": "approve",
      "outputs": [],
      "stateMutability": "nonpayable",
      "type": "function"
    },
    {
      "inputs": [
        {
          "internalType": "address",
          "name": "_account",
          "type": "address"
        },
        {
          "internalType": "uint256",
          "name": "",
          "type": "uint256"
        }
      ],
      "name": "balanceOf",
      "outputs": [
        {
          "internalType": "uint256",
          "name": "",
          "type": "uint256"
        }
      ],
      "stateMutability": "view",
      "type": "function"
    },
    {
      "inputs": [
        {
          "internalType": "address",
          "name": "account",
          "type": "address"
        }
      ],
      "name": "balanceOf",
      "outputs": [
        {
          "internalType": "uint256",
          "name": "",
          "type": "uint256"
        }
      ],
      "stateMutability": "view",
      "type": "function"
    },
    {
      "inputs": [
        {
          "internalType": "uint256",
          "name": "",
          "type": "uint256"
        },
        {
          "internalType": "address",
          "name": "_account",
          "type": "address"
        },
        {
          "internalType": "uint256",
          "name": "_amount",
          "type": "uint256"
        }
      ],
      "name": "burn",
      "outputs": [],
      "stateMutability": "nonpayable",
      "type": "function"
    },
    {
      "inputs": [],
      "name": "decimals",
      "outputs": [
        {
          "internalType": "uint8",
          "name": "",
          "type": "uint8"
        }
      ],
      "stateMutability": "view",
      "type": "function"
    },
    {
      "inputs": [
        {
          "internalType": "address",
          "name": "spender",
          "type": "address"
        },
        {
          "internalType": "uint256",
          "name": "subtractedValue",
          "type": "uint256"
        }
      ],
      "name": "decreaseAllowance",
      "outputs": [
        {
          "internalType": "bool",
          "name": "",
          "type": "bool"
        }
      ],
      "stateMutability": "nonpayable",
      "type": "function"
    },
    {
      "inputs": [
        {
          "internalType": "address",
          "name": "spender",
          "type": "address"
        },
        {
          "internalType": "uint256",
          "name": "addedValue",
          "type": "uint256"
        }
      ],
      "name": "increaseAllowance",
      "outputs": [
        {
          "internalType": "bool",
          "name": "",
          "type": "bool"
        }
      ],
      "stateMutability": "nonpayable",
      "type": "function"
    },
    {
      "inputs": [
        {
          "internalType": "uint256",
          "name": "",
          "type": "uint256"
        },
        {
          "internalType": "address",
          "name": "_account",
          "type": "address"
        },
        {
          "internalType": "uint256",
          "name": "_amount",
          "type": "uint256"
        }
      ],
      "name": "mint",
      "outputs": [],
      "stateMutability": "nonpayable",
      "type": "function"
    },
    {
      "inputs": [],
      "name": "name",
      "outputs": [
        {
          "internalType": "string",
          "name": "",
          "type": "string"
        }
      ],
      "stateMutability": "view",
      "type": "function"
    },
    {
      "inputs": [
        {
          "internalType": "address",
          "name": "owner",
          "type": "address"
        }
      ],
      "name": "nonces",
      "outputs": [
        {
          "internalType": "uint256",
          "name": "",
          "type": "uint256"
        }
      ],
      "stateMutability": "view",
      "type": "function"
    },
    {
      "inputs": [],
      "name": "owner",
      "outputs": [
        {
          "internalType": "address",
          "name": "",
          "type": "address"
        }
      ],
      "stateMutability": "view",
      "type": "function"
    },
    {
      "inputs": [
        {
          "internalType": "address",
          "name": "owner",
          "type": "address"
        },
        {
          "internalType": "address",
          "name": "spender",
          "type": "address"
        },
        {
          "internalType": "uint256",
          "name": "value",
          "type": "uint256"
        },
        {
          "internalType": "uint256",
          "name": "deadline",
          "type": "uint256"
        },
        {
          "internalType": "uint8",
          "name": "v",
          "type": "uint8"
        },
        {
          "internalType": "bytes32",
          "name": "r",
          "type": "bytes32"
        },
        {
          "internalType": "bytes32",
          "name": "s",
          "type": "bytes32"
        }
      ],
      "name": "permit",
      "outputs": [],
      "stateMutability": "nonpayable",
      "type": "function"
    },
    {
      "inputs": [],
      "name": "renounceOwnership",
      "outputs": [],
      "stateMutability": "nonpayable",
      "type": "function"
    },
    {
      "inputs": [],
      "name": "symbol",
      "outputs": [
        {
          "internalType": "string",
          "name": "",
          "type": "string"
        }
      ],
      "stateMutability": "view",
      "type": "function"
    },
    {
      "inputs": [],
      "name": "totalSupply",
      "outputs": [
        {
          "internalType": "uint256",
          "name": "",
          "type": "uint256"
        }
      ],
      "stateMutability": "view",
      "type": "function"
    },
    {
      "inputs": [
        {
          "internalType": "uint256",
          "name": "",
          "type": "uint256"
        }
      ],
      "name": "totalSupply",
      "outputs": [
        {
          "internalType": "uint256",
          "name": "",
          "type": "uint256"
        }
      ],
      "stateMutability": "view",
      "type": "function"
    },
    {
      "inputs": [
        {
          "internalType": "address",
          "name": "recipient",
          "type": "address"
        },
        {
          "internalType": "uint256",
          "name": "amount",
          "type": "uint256"
        }
      ],
      "name": "transfer",
      "outputs": [
        {
          "internalType": "bool",
          "name": "",
          "type": "bool"
        }
      ],
      "stateMutability": "nonpayable",
      "type": "function"
    },
    {
      "inputs": [
        {
          "internalType": "uint256",
          "name": "",
          "type": "uint256"
        },
        {
          "internalType": "address",
          "name": "_to",
          "type": "address"
        },
        {
          "internalType": "uint256",
          "name": "_amount",
          "type": "uint256"
        }
      ],
      "name": "transfer",
      "outputs": [],
      "stateMutability": "nonpayable",
      "type": "function"
    },
    {
      "inputs": [
        {
          "internalType": "uint256",
          "name": "",
          "type": "uint256"
        },
        {
          "internalType": "address",
          "name": "_from",
          "type": "address"
        },
        {
          "internalType": "address",
          "name": "_to",
          "type": "address"
        },
        {
          "internalType": "uint256",
          "name": "_amount",
          "type": "uint256"
        }
      ],
      "name": "transferFrom",
      "outputs": [],
      "stateMutability": "nonpayable",
      "type": "function"
    },
    {
      "inputs": [
        {
          "internalType": "address",
          "name": "sender",
          "type": "address"
        },
        {
          "internalType": "address",
          "name": "recipient",
          "type": "address"
        },
        {
          "internalType": "uint256",
          "name": "amount",
          "type": "uint256"
        }
      ],
      "name": "transferFrom",
      "outputs": [
        {
          "internalType": "bool",
          "name": "",
          "type": "bool"
        }
      ],
      "stateMutability": "nonpayable",
      "type": "function"
    },
    {
      "inputs": [
        {
          "internalType": "uint256",
          "name": "",
          "type": "uint256"
        },
        {
          "internalType": "address",
          "name": "_newOwner",
          "type": "address"
        }
      ],
      "name": "transferOwnership",
      "outputs": [],
      "stateMutability": "nonpayable",
      "type": "function"
    },
    {
      "inputs": [
        {
          "internalType": "address",
          "name": "newOwner",
          "type": "address"
        }
      ],
      "name": "transferOwnership",
      "outputs": [],
      "stateMutability": "nonpayable",
      "type": "function"
    }
  ],
  "bytecode": {
    "object": "0x6101606040527f6e71edae12b1b97f4d1f60370fef10105fa2faae0126114a169c64845d6126c9610140523480156200003757600080fd5b5060405162001a7d38038062001a7d8339810160408190526200005a9162000310565b8180604051806040016040528060018152602001603160f81b8152508484816003908051906020019062000090929190620001b3565b508051620000a6906004906020840190620001b3565b5050825160208085019190912083518483012060e08290526101008190524660a0818152604080517f8b73c3c69bb8fe3d512ecc4cf759cc79239f7b179b0ffacaa9a75d522b39400f81880181905281830187905260608201869052608082019490945230818401528151808203909301835260c0019052805194019390932091935091906080523060601b60c05261012052506200015593506200014f9250506200015d9050565b62000161565b5050620003cd565b3390565b600680546001600160a01b038381166001600160a01b0319831681179093556040519116919082907f8be0079c531659141344cd1fd0a4f28419497f9722a3daafe3b4186f6b6457e090600090a35050565b828054620001c1906200037a565b90600052602060002090601f016020900481019282620001e5576000855562000230565b82601f106200020057805160ff191683800117855562000230565b8280016001018555821562000230579182015b828111156200023057825182559160200191906001019062000213565b506200023e92915062000242565b5090565b5b808211156200023e576000815560010162000243565b600082601f8301126200026b57600080fd5b81516001600160401b0380821115620002885762000288620003b7565b604051601f8301601f19908116603f01168101908282118183101715620002b357620002b3620003b7565b81604052838152602092508683858801011115620002d057600080fd5b600091505b83821015620002f45785820183015181830184015290820190620002d5565b83821115620003065760008385830101525b9695505050505050565b600080604083850312156200032457600080fd5b82516001600160401b03808211156200033c57600080fd5b6200034a8683870162000259565b935060208501519150808211156200036157600080fd5b50620003708582860162000259565b9150509250929050565b600181811c908216806200038f57607f821691505b60208210811415620003b157634e487b7160e01b600052602260045260246000fd5b50919050565b634e487b7160e01b600052604160045260246000fd5b60805160a05160c05160601c60e0516101005161012051610140516116526200042b600039600061078701526000610cb801526000610d0701526000610ce201526000610c3b01526000610c6501526000610c8f01526116526000f3fe608060405234801561001057600080fd5b50600436106101725760003560e01c80637ecebe00116100de578063a457c2d711610097578063d505accf11610071578063d505accf1461031b578063dd62ed3e1461032e578063f2fde38b14610367578063f8548e361461037a57600080fd5b8063a457c2d7146102e2578063a9059cbb146102f5578063bd85b0391461030857600080fd5b80637ecebe0014610273578063836a1040146102865780638cb0a511146102995780638da5cb5b146102ac57806395d89b41146102c75780639eea5f66146102cf57600080fd5b806329507f731161013057806329507f7314610205578063313ce567146102185780633644e51514610227578063395093511461022f57806370a0823114610242578063715018a61461026b57600080fd5b8062fdd58e1461017757806306fdde031461019d578063095ea7b3146101b257806318160ddd146101d55780631c0f12b6146101dd57806323b872dd146101f2575b600080fd5b61018a610185366004611433565b61038d565b6040519081526020015b60405180910390f35b6101a56103ae565b6040516101949190611502565b6101c56101c0366004611433565b610440565b6040519015158152602001610194565b60025461018a565b6101f06101eb366004611499565b610456565b005b6101c5610200366004611384565b610468565b6101f0610213366004611476565b61051e565b60405160128152602001610194565b61018a61055a565b6101c561023d366004611433565b610564565b61018a610250366004611336565b6001600160a01b031660009081526020819052604090205490565b6101f06105a0565b61018a610281366004611336565b6105d6565b6101f06102943660046114dd565b6105f6565b6101f06102a73660046114dd565b61062f565b6006546040516001600160a01b039091168152602001610194565b6101a561063f565b6101f06102dd3660046114dd565b61064e565b6101c56102f0366004611433565b610682565b6101c5610303366004611433565b61071b565b61018a61031636600461145d565b610728565b6101f06103293660046113c0565b610733565b61018a61033c366004611351565b6001600160a01b03918216600090815260016020908152604080832093909416825291909152205490565b6101f0610375366004611336565b610897565b6101f06103883660046114dd565b610932565b6001600160a01b0382166000908152602081905260408120545b9392505050565b6060600380546103bd906115bb565b80601f01602080910402602001604051908101604052809291908181526020018280546103e9906115bb565b80156104365780601f1061040b57610100808354040283529160200191610436565b820191906000526020600020905b81548152906001019060200180831161041957829003601f168201915b5050505050905090565b600061044d33848461093c565b50600192915050565b610461838383610468565b5050505050565b6001600160a01b0383166000908152600160209081526040808320338452909152812054600019811461050857828110156104fb5760405162461bcd60e51b815260206004820152602860248201527f45524332303a207472616e7366657220616d6f756e74206578636565647320616044820152676c6c6f77616e636560c01b60648201526084015b60405180910390fd5b610508853385840361093c565b610513858585610a60565b506001949350505050565b6006546001600160a01b031633146105485760405162461bcd60e51b81526004016104f290611557565b61055181610897565b5050565b905090565b6000610555610c2e565b3360008181526001602090815260408083206001600160a01b0387168452909152812054909161044d91859061059b90869061158c565b61093c565b6006546001600160a01b031633146105ca5760405162461bcd60e51b81526004016104f290611557565b6105d46000610d55565b565b6001600160a01b0381166000908152600560205260408120545b92915050565b6006546001600160a01b031633146106205760405162461bcd60e51b81526004016104f290611557565b61062a8282610da7565b505050565b6106398282610440565b50505050565b6060600480546103bd906115bb565b6006546001600160a01b031633146106785760405162461bcd60e51b81526004016104f290611557565b61062a8282610e86565b3360009081526001602090815260408083206001600160a01b0386168452909152812054828110156107045760405162461bcd60e51b815260206004820152602560248201527f45524332303a2064656372656173656420616c6c6f77616e63652062656c6f77604482015264207a65726f60d81b60648201526084016104f2565b610711338585840361093c565b5060019392505050565b600061044d338484610a60565b60006105f060025490565b834211156107835760405162461bcd60e51b815260206004820152601d60248201527f45524332305065726d69743a206578706972656420646561646c696e6500000060448201526064016104f2565b60007f00000000000000000000000000000000000000000000000000000000000000008888886107b28c610fd4565b6040805160208101969096526001600160a01b0394851690860152929091166060840152608083015260a082015260c0810186905260e001604051602081830303815290604052805190602001209050600061080d82610ffc565b9050600061081d8287878761104a565b9050896001600160a01b0316816001600160a01b0316146108805760405162461bcd60e51b815260206004820152601e60248201527f45524332305065726d69743a20696e76616c6964207369676e6174757265000060448201526064016104f2565b61088b8a8a8a61093c565b50505050505050505050565b6006546001600160a01b031633146108c15760405162461bcd60e51b81526004016104f290611557565b6001600160a01b0381166109265760405162461bcd60e51b815260206004820152602660248201527f4f776e61626c653a206e6577206f776e657220697320746865207a65726f206160448201526564647265737360d01b60648201526084016104f2565b61092f81610d55565b50565b610639828261071b565b6001600160a01b03831661099e5760405162461bcd60e51b8152602060048201526024808201527f45524332303a20617070726f76652066726f6d20746865207a65726f206164646044820152637265737360e01b60648201526084016104f2565b6001600160a01b0382166109ff5760405162461bcd60e51b815260206004820152602260248201527f45524332303a20617070726f766520746f20746865207a65726f206164647265604482015261737360f01b60648201526084016104f2565b6001600160a01b0383811660008181526001602090815260408083209487168084529482529182902085905590518481527f8c5be1e5ebec7d5bd14f71427d1e84f3dd0314c0f7b2291e5b200ac8c7c3b925910160405180910390a3505050565b6001600160a01b038316610ac45760405162461bcd60e51b815260206004820152602560248201527f45524332303a207472616e736665722066726f6d20746865207a65726f206164604482015264647265737360d81b60648201526084016104f2565b6001600160a01b038216610b265760405162461bcd60e51b815260206004820152602360248201527f45524332303a207472616e7366657220746f20746865207a65726f206164647260448201526265737360e81b60648201526084016104f2565b6001600160a01b03831660009081526020819052604090205481811015610b9e5760405162461bcd60e51b815260206004820152602660248201527f45524332303a207472616e7366657220616d6f756e7420657863656564732062604482015265616c616e636560d01b60648201526084016104f2565b6001600160a01b03808516600090815260208190526040808220858503905591851681529081208054849290610bd590849061158c565b92505081905550826001600160a01b0316846001600160a01b03167fddf252ad1be2c89b69c2b068fc378daa952ba7f163c4a11628f55a4df523b3ef84604051610c2191815260200190565b60405180910390a3610639565b6000306001600160a01b037f000000000000000000000000000000000000000000000000000000000000000016148015610c8757507f000000000000000000000000000000000000000000000000000000000000000046145b15610cb157507f000000000000000000000000000000000000000000000000000000000000000090565b50604080517f00000000000000000000000000000000000000000000000000000000000000006020808301919091527f0000000000000000000000000000000000000000000000000000000000000000828401527f000000000000000000000000000000000000000000000000000000000000000060608301524660808301523060a0808401919091528351808403909101815260c0909201909252805191012090565b600680546001600160a01b038381166001600160a01b0319831681179093556040519116919082907f8be0079c531659141344cd1fd0a4f28419497f9722a3daafe3b4186f6b6457e090600090a35050565b6001600160a01b038216610dfd5760405162461bcd60e51b815260206004820152601f60248201527f45524332303a206d696e7420746f20746865207a65726f20616464726573730060448201526064016104f2565b8060026000828254610e0f919061158c565b90915550506001600160a01b03821660009081526020819052604081208054839290610e3c90849061158c565b90915550506040518181526001600160a01b038316906000907fddf252ad1be2c89b69c2b068fc378daa952ba7f163c4a11628f55a4df523b3ef9060200160405180910390a35050565b6001600160a01b038216610ee65760405162461bcd60e51b815260206004820152602160248201527f45524332303a206275726e2066726f6d20746865207a65726f206164647265736044820152607360f81b60648201526084016104f2565b6001600160a01b03821660009081526020819052604090205481811015610f5a5760405162461bcd60e51b815260206004820152602260248201527f45524332303a206275726e20616d6f756e7420657863656564732062616c616e604482015261636560f01b60648201526084016104f2565b6001600160a01b0383166000908152602081905260408120838303905560028054849290610f899084906115a4565b90915550506040518281526000906001600160a01b038516907fddf252ad1be2c89b69c2b068fc378daa952ba7f163c4a11628f55a4df523b3ef9060200160405180910390a3505050565b6001600160a01b03811660009081526005602052604090208054600181018255905b50919050565b60006105f0611009610c2e565b8360405161190160f01b6020820152602281018390526042810182905260009060620160405160208183030381529060405280519060200120905092915050565b600080600061105b87878787611072565b915091506110688161115f565b5095945050505050565b6000807f7fffffffffffffffffffffffffffffff5d576e7357a4501ddfe92f46681b20a08311156110a95750600090506003611156565b8460ff16601b141580156110c157508460ff16601c14155b156110d25750600090506004611156565b6040805160008082526020820180845289905260ff881692820192909252606081018690526080810185905260019060a0016020604051602081039080840390855afa158015611126573d6000803e3d6000fd5b5050604051601f1901519150506001600160a01b03811661114f57600060019250925050611156565b9150600090505b94509492505050565b600081600481111561117357611173611606565b141561117c5750565b600181600481111561119057611190611606565b14156111de5760405162461bcd60e51b815260206004820152601860248201527f45434453413a20696e76616c6964207369676e6174757265000000000000000060448201526064016104f2565b60028160048111156111f2576111f2611606565b14156112405760405162461bcd60e51b815260206004820152601f60248201527f45434453413a20696e76616c6964207369676e6174757265206c656e6774680060448201526064016104f2565b600381600481111561125457611254611606565b14156112ad5760405162461bcd60e51b815260206004820152602260248201527f45434453413a20696e76616c6964207369676e6174757265202773272076616c604482015261756560f01b60648201526084016104f2565b60048160048111156112c1576112c1611606565b141561092f5760405162461bcd60e51b815260206004820152602260248201527f45434453413a20696e76616c6964207369676e6174757265202776272076616c604482015261756560f01b60648201526084016104f2565b80356001600160a01b038116811461133157600080fd5b919050565b60006020828403121561134857600080fd5b6103a78261131a565b6000806040838503121561136457600080fd5b61136d8361131a565b915061137b6020840161131a565b90509250929050565b60008060006060848603121561139957600080fd5b6113a28461131a565b92506113b06020850161131a565b9150604084013590509250925092565b600080600080600080600060e0888a0312156113db57600080fd5b6113e48861131a565b96506113f26020890161131a565b95506040880135945060608801359350608088013560ff8116811461141657600080fd5b9699959850939692959460a0840135945060c09093013592915050565b6000806040838503121561144657600080fd5b61144f8361131a565b946020939093013593505050565b60006020828403121561146f57600080fd5b5035919050565b6000806040838503121561148957600080fd5b8235915061137b6020840161131a565b600080600080608085870312156114af57600080fd5b843593506114bf6020860161131a565b92506114cd6040860161131a565b9396929550929360600135925050565b6000806000606084860312156114f257600080fd5b833592506113b06020850161131a565b600060208083528351808285015260005b8181101561152f57858101830151858201604001528201611513565b81811115611541576000604083870101525b50601f01601f1916929092016040019392505050565b6020808252818101527f4f776e61626c653a2063616c6c6572206973206e6f7420746865206f776e6572604082015260600190565b6000821982111561159f5761159f6115f0565b500190565b6000828210156115b6576115b66115f0565b500390565b600181811c908216806115cf57607f821691505b60208210811415610ff657634e487b7160e01b600052602260045260246000fd5b634e487b7160e01b600052601160045260246000fd5b634e487b7160e01b600052602160045260246000fdfea26469706673582212203db0cb61b36e19658a2e5b68e87580a0e483582941245ea1b81f061779f107f064736f6c63430008060033",
    "linkReferences": {}
  }
}