{
  "abi": [
    {
      "inputs": [
        {
          "internalType": "contract IJBOperatorStore",
          "name": "_operatorStore",
          "type": "address"
        },
        {
          "internalType": "contract IJBProjects",
          "name": "_projects",
          "type": "address"
        },
        {
          "internalType": "contract IJBDirectory",
          "name": "_directory",
          "type": "address"
        }
      ],
      "stateMutability": "nonpayable",
      "type": "constructor"
    },
    {
      "inputs": [],
      "name": "CANT_REMOVE_TOKEN_IF_ITS_REQUIRED",
      "type": "error"
    },
    {
      "inputs": [],
      "name": "CONTROLLER_UNAUTHORIZED",
      "type": "error"
    },
    {
      "inputs": [],
      "name": "EMPTY_NAME",
      "type": "error"
    },
    {
      "inputs": [],
      "name": "EMPTY_SYMBOL",
      "type": "error"
    },
    {
      "inputs": [],
      "name": "INSUFFICIENT_FUNDS",
      "type": "error"
    },
    {
      "inputs": [],
      "name": "INSUFFICIENT_UNCLAIMED_TOKENS",
      "type": "error"
    },
    {
      "inputs": [],
      "name": "PROJECT_ALREADY_HAS_TOKEN",
      "type": "error"
    },
    {
      "inputs": [],
      "name": "RECIPIENT_ZERO_ADDRESS",
      "type": "error"
    },
    {
      "inputs": [],
      "name": "TOKEN_NOT_FOUND",
      "type": "error"
    },
    {
      "inputs": [],
      "name": "UNAUTHORIZED",
      "type": "error"
    },
    {
      "anonymous": false,
      "inputs": [
        {
          "indexed": true,
          "internalType": "address",
          "name": "holder",
          "type": "address"
        },
        {
          "indexed": true,
          "internalType": "uint256",
          "name": "projectId",
          "type": "uint256"
        },
        {
          "indexed": false,
          "internalType": "uint256",
          "name": "amount",
          "type": "uint256"
        },
        {
          "indexed": false,
          "internalType": "uint256",
          "name": "initialUnclaimedBalance",
          "type": "uint256"
        },
        {
          "indexed": false,
          "internalType": "uint256",
          "name": "initialClaimedBalance",
          "type": "uint256"
        },
        {
          "indexed": false,
          "internalType": "bool",
          "name": "preferClaimedTokens",
          "type": "bool"
        },
        {
          "indexed": false,
          "internalType": "address",
          "name": "caller",
          "type": "address"
        }
      ],
      "name": "Burn",
      "type": "event"
    },
    {
      "anonymous": false,
      "inputs": [
        {
          "indexed": true,
          "internalType": "uint256",
          "name": "projectId",
          "type": "uint256"
        },
        {
          "indexed": true,
          "internalType": "contract IJBToken",
          "name": "newToken",
          "type": "address"
        },
        {
          "indexed": true,
          "internalType": "contract IJBToken",
          "name": "oldToken",
          "type": "address"
        },
        {
          "indexed": false,
          "internalType": "address",
          "name": "owner",
          "type": "address"
        },
        {
          "indexed": false,
          "internalType": "address",
          "name": "caller",
          "type": "address"
        }
      ],
      "name": "Change",
      "type": "event"
    },
    {
      "anonymous": false,
      "inputs": [
        {
          "indexed": true,
          "internalType": "address",
          "name": "holder",
          "type": "address"
        },
        {
          "indexed": true,
          "internalType": "uint256",
          "name": "projectId",
          "type": "uint256"
        },
        {
          "indexed": false,
          "internalType": "uint256",
          "name": "initialUnclaimedBalance",
          "type": "uint256"
        },
        {
          "indexed": false,
          "internalType": "uint256",
          "name": "amount",
          "type": "uint256"
        },
        {
          "indexed": false,
          "internalType": "address",
          "name": "caller",
          "type": "address"
        }
      ],
      "name": "Claim",
      "type": "event"
    },
    {
      "anonymous": false,
      "inputs": [
        {
          "indexed": true,
          "internalType": "uint256",
          "name": "projectId",
          "type": "uint256"
        },
        {
          "indexed": true,
          "internalType": "contract IJBToken",
          "name": "token",
          "type": "address"
        },
        {
          "indexed": false,
          "internalType": "string",
          "name": "name",
          "type": "string"
        },
        {
          "indexed": false,
          "internalType": "string",
          "name": "symbol",
          "type": "string"
        },
        {
          "indexed": false,
          "internalType": "address",
          "name": "caller",
          "type": "address"
        }
      ],
      "name": "Issue",
      "type": "event"
    },
    {
      "anonymous": false,
      "inputs": [
        {
          "indexed": true,
          "internalType": "address",
          "name": "holder",
          "type": "address"
        },
        {
          "indexed": true,
          "internalType": "uint256",
          "name": "projectId",
          "type": "uint256"
        },
        {
          "indexed": false,
          "internalType": "uint256",
          "name": "amount",
          "type": "uint256"
        },
        {
          "indexed": false,
          "internalType": "bool",
          "name": "tokensWereClaimed",
          "type": "bool"
        },
        {
          "indexed": false,
          "internalType": "bool",
          "name": "preferClaimedTokens",
          "type": "bool"
        },
        {
          "indexed": false,
          "internalType": "address",
          "name": "caller",
          "type": "address"
        }
      ],
      "name": "Mint",
      "type": "event"
    },
    {
      "anonymous": false,
      "inputs": [
        {
          "indexed": true,
          "internalType": "uint256",
          "name": "projectId",
          "type": "uint256"
        },
        {
          "indexed": true,
          "internalType": "bool",
          "name": "flag",
          "type": "bool"
        },
        {
          "indexed": false,
          "internalType": "address",
          "name": "caller",
          "type": "address"
        }
      ],
      "name": "ShouldRequireClaim",
      "type": "event"
    },
    {
      "anonymous": false,
      "inputs": [
        {
          "indexed": true,
          "internalType": "address",
          "name": "holder",
          "type": "address"
        },
        {
          "indexed": true,
          "internalType": "uint256",
          "name": "projectId",
          "type": "uint256"
        },
        {
          "indexed": true,
          "internalType": "address",
          "name": "recipient",
          "type": "address"
        },
        {
          "indexed": false,
          "internalType": "uint256",
          "name": "amount",
          "type": "uint256"
        },
        {
          "indexed": false,
          "internalType": "address",
          "name": "caller",
          "type": "address"
        }
      ],
      "name": "Transfer",
      "type": "event"
    },
    {
      "inputs": [
        {
          "internalType": "address",
          "name": "_holder",
          "type": "address"
        },
        {
          "internalType": "uint256",
          "name": "_projectId",
          "type": "uint256"
        }
      ],
      "name": "balanceOf",
      "outputs": [
        {
          "internalType": "uint256",
          "name": "balance",
          "type": "uint256"
        }
      ],
      "stateMutability": "view",
      "type": "function"
    },
    {
      "inputs": [
        {
          "internalType": "address",
          "name": "_holder",
          "type": "address"
        },
        {
          "internalType": "uint256",
          "name": "_projectId",
          "type": "uint256"
        },
        {
          "internalType": "uint256",
          "name": "_amount",
          "type": "uint256"
        },
        {
          "internalType": "bool",
          "name": "_preferClaimedTokens",
          "type": "bool"
        }
      ],
      "name": "burnFrom",
      "outputs": [],
      "stateMutability": "nonpayable",
      "type": "function"
    },
    {
      "inputs": [
        {
          "internalType": "uint256",
          "name": "_projectId",
          "type": "uint256"
        },
        {
          "internalType": "contract IJBToken",
          "name": "_token",
          "type": "address"
        },
        {
          "internalType": "address",
          "name": "_newOwner",
          "type": "address"
        }
      ],
      "name": "changeFor",
      "outputs": [
        {
          "internalType": "contract IJBToken",
          "name": "oldToken",
          "type": "address"
        }
      ],
      "stateMutability": "nonpayable",
      "type": "function"
    },
    {
      "inputs": [
        {
          "internalType": "address",
          "name": "_holder",
          "type": "address"
        },
        {
          "internalType": "uint256",
          "name": "_projectId",
          "type": "uint256"
        },
        {
          "internalType": "uint256",
          "name": "_amount",
          "type": "uint256"
        }
      ],
      "name": "claimFor",
      "outputs": [],
      "stateMutability": "nonpayable",
      "type": "function"
    },
    {
      "inputs": [],
      "name": "directory",
      "outputs": [
        {
          "internalType": "contract IJBDirectory",
          "name": "",
          "type": "address"
        }
      ],
      "stateMutability": "view",
      "type": "function"
    },
    {
      "inputs": [
        {
          "internalType": "uint256",
          "name": "_projectId",
          "type": "uint256"
        },
        {
          "internalType": "string",
          "name": "_name",
          "type": "string"
        },
        {
          "internalType": "string",
          "name": "_symbol",
          "type": "string"
        }
      ],
      "name": "issueFor",
      "outputs": [
        {
          "internalType": "contract IJBToken",
          "name": "token",
          "type": "address"
        }
      ],
      "stateMutability": "nonpayable",
      "type": "function"
    },
    {
      "inputs": [
        {
          "internalType": "address",
          "name": "_holder",
          "type": "address"
        },
        {
          "internalType": "uint256",
          "name": "_projectId",
          "type": "uint256"
        },
        {
          "internalType": "uint256",
          "name": "_amount",
          "type": "uint256"
        },
        {
          "internalType": "bool",
          "name": "_preferClaimedTokens",
          "type": "bool"
        }
      ],
      "name": "mintFor",
      "outputs": [],
      "stateMutability": "nonpayable",
      "type": "function"
    },
    {
      "inputs": [],
      "name": "operatorStore",
      "outputs": [
        {
          "internalType": "contract IJBOperatorStore",
          "name": "",
          "type": "address"
        }
      ],
      "stateMutability": "view",
      "type": "function"
    },
    {
      "inputs": [],
      "name": "projects",
      "outputs": [
        {
          "internalType": "contract IJBProjects",
          "name": "",
          "type": "address"
        }
      ],
      "stateMutability": "view",
      "type": "function"
    },
    {
      "inputs": [
        {
          "internalType": "uint256",
          "name": "",
          "type": "uint256"
        }
      ],
      "name": "requireClaimFor",
      "outputs": [
        {
          "internalType": "bool",
          "name": "",
          "type": "bool"
        }
      ],
      "stateMutability": "view",
      "type": "function"
    },
    {
      "inputs": [
        {
          "internalType": "uint256",
          "name": "_projectId",
          "type": "uint256"
        },
        {
          "internalType": "bool",
          "name": "_flag",
          "type": "bool"
        }
      ],
      "name": "shouldRequireClaimingFor",
      "outputs": [],
      "stateMutability": "nonpayable",
      "type": "function"
    },
    {
      "inputs": [
        {
          "internalType": "uint256",
          "name": "",
          "type": "uint256"
        }
      ],
      "name": "tokenOf",
      "outputs": [
        {
          "internalType": "contract IJBToken",
          "name": "",
          "type": "address"
        }
      ],
      "stateMutability": "view",
      "type": "function"
    },
    {
      "inputs": [
        {
          "internalType": "uint256",
          "name": "_projectId",
          "type": "uint256"
        }
      ],
      "name": "totalSupplyOf",
      "outputs": [
        {
          "internalType": "uint256",
          "name": "totalSupply",
          "type": "uint256"
        }
      ],
      "stateMutability": "view",
      "type": "function"
    },
    {
      "inputs": [
        {
          "internalType": "address",
          "name": "_holder",
          "type": "address"
        },
        {
          "internalType": "uint256",
          "name": "_projectId",
          "type": "uint256"
        },
        {
          "internalType": "address",
          "name": "_recipient",
          "type": "address"
        },
        {
          "internalType": "uint256",
          "name": "_amount",
          "type": "uint256"
        }
      ],
      "name": "transferFrom",
      "outputs": [],
      "stateMutability": "nonpayable",
      "type": "function"
    },
    {
      "inputs": [
        {
          "internalType": "address",
          "name": "",
          "type": "address"
        },
        {
          "internalType": "uint256",
          "name": "",
          "type": "uint256"
        }
      ],
      "name": "unclaimedBalanceOf",
      "outputs": [
        {
          "internalType": "uint256",
          "name": "",
          "type": "uint256"
        }
      ],
      "stateMutability": "view",
      "type": "function"
    },
    {
      "inputs": [
        {
          "internalType": "uint256",
          "name": "",
          "type": "uint256"
        }
      ],
      "name": "unclaimedTotalSupplyOf",
      "outputs": [
        {
          "internalType": "uint256",
          "name": "",
          "type": "uint256"
        }
      ],
      "stateMutability": "view",
      "type": "function"
    }
  ],
  "bytecode": {
    "object": "0x60e06040523480156200001157600080fd5b5060405162002e1c38038062002e1c83398101604081905262000034916200005a565b6001600160601b0319606091821b811660805292811b831660a0521b1660c052620000c7565b6000806000606084860312156200007057600080fd5b83516200007d81620000ae565b60208501519093506200009081620000ae565b6040850151909250620000a381620000ae565b809150509250925092565b6001600160a01b0381168114620000c457600080fd5b50565b60805160601c60a05160601c60c05160601c612cdd6200013f6000396000818161023101526113ae01526000818161029e01528181610e7a01528181610f2c0152818161146301526115150152600081816102c601528181610436015281816108b501528181610c7301526111590152612cdd6000f3fe60806040523480156200001157600080fd5b5060043610620001145760003560e01c8063906ebd0f11620000a3578063c41c2f24116200006e578063c41c2f2414620002c0578063ceddd3e414620002e8578063ea78803f14620002ff578063ff0186c5146200032b57600080fd5b8063906ebd0f1462000253578063a7f2a70b146200026a578063ac689bcd1462000281578063ad007d63146200029857600080fd5b80636607955d11620000e45780636607955d14620001c457806375b0d9cd14620001dd5780637b4d8e2c14620001f45780638b79543c146200022b57600080fd5b8062fdd58e14620001195780631412884f14620001435780635287af37146200016657806357e4c7781462000194575b600080fd5b620001306200012a366004620016db565b62000342565b6040519081526020015b60405180910390f35b6200013062000154366004620017fe565b60016020526000908152604090205481565b6200013062000177366004620016db565b600260209081526000928352604080842090915290825290205481565b620001ab620001a536600462001865565b62000411565b6040516001600160a01b0390911681526020016200013a565b620001db620001d536600462001757565b62000620565b005b62000130620001ee366004620017fe565b620007d8565b6200021a62000205366004620017fe565b60036020526000908152604090205460ff1681565b60405190151581526020016200013a565b620001ab7f000000000000000000000000000000000000000000000000000000000000000081565b620001db620002643660046200178f565b62000893565b620001ab6200027b366004620018ac565b62000c4e565b620001db620002923660046200170a565b62000e4a565b620001ab7f000000000000000000000000000000000000000000000000000000000000000081565b620001ab7f000000000000000000000000000000000000000000000000000000000000000081565b620001db620002f93660046200178f565b62001137565b620001ab62000310366004620017fe565b6000602081905290815260409020546001600160a01b031681565b620001db6200033c36600462001832565b62001398565b6001600160a01b038083166000908152600260209081526040808320858452825280832054918390529091205490911680156200040a57604051627eeac760e11b81526001600160a01b0385811660048301526024820185905282169062fdd58e9060440160206040518083038186803b158015620003c057600080fd5b505afa158015620003d5573d6000803e3d6000fd5b505050506040513d601f19601f82011682018060405250810190620003fb919062001818565b620004079083620019fb565b91505b5092915050565b604051632eec7b5560e11b815260048101849052600090849033906001600160a01b037f00000000000000000000000000000000000000000000000000000000000000001690635dd8f6aa9060240160206040518083038186803b1580156200047957600080fd5b505afa1580156200048e573d6000803e3d6000fd5b505050506040513d601f19601f82011682018060405250810190620004b49190620016b4565b6001600160a01b031614620004dc57604051632adfdd0560e21b815260040160405180910390fd5b6001600160a01b03841615801562000502575060008581526003602052604090205460ff165b156200052157604051631a95c24760e31b815260040160405180910390fd5b600085815260208190526040902080546001600160a01b038681166001600160a01b0319831617909255811692508316158015906200056857506001600160a01b03821615155b15620005cc5760405163f2fde38b60e01b81526001600160a01b03848116600483015283169063f2fde38b90602401600060405180830381600087803b158015620005b257600080fd5b505af1158015620005c7573d6000803e3d6000fd5b505050505b604080516001600160a01b038581168252336020830152808516929087169188917f53b937570201bb723ab1530f41c21f62fba8df64afef862cb0a6f4eccc3094dc910160405180910390a4509392505050565b6000828152602081905260409020546001600160a01b03168062000657576040516339e231e760e11b815260040160405180910390fd5b6001600160a01b0384166000908152600260209081526040808320868452909152902054828110156200069d576040516383fc8b2d60e01b815260040160405180910390fd5b6001600160a01b0385166000908152600260209081526040808320878452909152902054620006ce90849062001a16565b6001600160a01b03861660009081526002602090815260408083208884528252808320939093556001905220546200070890849062001a16565b60008581526001602052604090819020919091555163020da84160e61b8152600481018590526001600160a01b0386811660248301526044820185905283169063836a104090606401600060405180830381600087803b1580156200076c57600080fd5b505af115801562000781573d6000803e3d6000fd5b50506040805184815260208101879052338183015290518793506001600160a01b03891692507fe718784128df3c3d45fbd6519133fee450494f7cdb2b53830a5087cd47f980829181900360600190a35050505050565b60008181526001602090815260408083205491839052909120546001600160a01b031680156200088d5760405163bd85b03960e01b8152600481018490526001600160a01b0382169063bd85b0399060240160206040518083038186803b1580156200084357600080fd5b505afa15801562000858573d6000803e3d6000fd5b505050506040513d601f19601f820116820180604052508101906200087e919062001818565b6200088a9083620019fb565b91505b50919050565b604051632eec7b5560e11b815260048101849052839033906001600160a01b037f00000000000000000000000000000000000000000000000000000000000000001690635dd8f6aa9060240160206040518083038186803b158015620008f857600080fd5b505afa1580156200090d573d6000803e3d6000fd5b505050506040513d601f19601f82011682018060405250810190620009339190620016b4565b6001600160a01b0316146200095b57604051632adfdd0560e21b815260040160405180910390fd5b600084815260208181526040808320546001600160a01b0389811685526002845282852089865290935290832054911691821562000a1b57604051627eeac760e11b81526001600160a01b0389811660048301526024820189905284169062fdd58e9060440160206040518083038186803b158015620009da57600080fd5b505afa158015620009ef573d6000803e3d6000fd5b505050506040513d601f19601f8201168201806040525081019062000a15919062001818565b62000a1e565b60005b9050808610158062000a305750818610155b801562000a5157508086108062000a51575062000a4e818762001a16565b82105b801562000a7257508186108062000a72575062000a6f828762001a16565b81105b1562000a9157604051631cf2628760e31b815260040160405180910390fd5b60008162000aa25750600062000ae1565b851562000ac25786821062000ab8578662000aba565b815b905062000ae1565b86831062000ad257600062000ade565b62000ade838862001a16565b90505b600062000aef828962001a16565b9050811562000b6457604051634f752fb360e11b8152600481018a90526001600160a01b038b8116602483015260448201849052861690639eea5f6690606401600060405180830381600087803b15801562000b4a57600080fd5b505af115801562000b5f573d6000803e3d6000fd5b505050505b801562000be6576001600160a01b038a1660009081526002602090815260408083208c845290915290205462000b9c90829062001a16565b6001600160a01b038b1660009081526002602090815260408083208d845282528083209390935560019052205462000bd690829062001a16565b60008a8152600160205260409020555b6040805189815260208101869052908101849052871515606082015233608082015289906001600160a01b038c16907fbe100da6adaa492f7ba1b0de916ae2606126ec7b044d7aa8ec74971a607ceecd9060a00160405180910390a350505050505050505050565b604051632eec7b5560e11b815260048101869052600090869033906001600160a01b037f00000000000000000000000000000000000000000000000000000000000000001690635dd8f6aa9060240160206040518083038186803b15801562000cb657600080fd5b505afa15801562000ccb573d6000803e3d6000fd5b505050506040513d601f19601f8201168201806040525081019062000cf19190620016b4565b6001600160a01b03161462000d1957604051632adfdd0560e21b815260040160405180910390fd5b8462000d38576040516392bf449d60e01b815260040160405180910390fd5b8262000d575760405163571431a760e01b815260040160405180910390fd5b6000878152602081905260409020546001600160a01b03161562000d8e576040516329518c2b60e21b815260040160405180910390fd5b8585858560405162000da0906200165a565b62000daf94939291906200197f565b604051809103906000f08015801562000dcc573d6000803e3d6000fd5b506000888152602081905260409081902080546001600160a01b0319166001600160a01b03841690811790915590519193509088907f1b1705bef26552c8f314c5eb80e9c84f02876c2f7f30a7f9ad5cafd17d5fa6da9062000e38908a908a908a908a903390620019b5565b60405180910390a35095945050505050565b8383600b336001600160a01b0384161480159062000f0d575060405163c161c93f60e01b81526001600160a01b037f0000000000000000000000000000000000000000000000000000000000000000169063c161c93f9062000eb790339087908790879060040162001956565b60206040518083038186803b15801562000ed057600080fd5b505afa15801562000ee5573d6000803e3d6000fd5b505050506040513d601f19601f8201168201806040525081019062000f0b9190620017de565b155b801562000fc0575060405163c161c93f60e01b81526001600160a01b037f0000000000000000000000000000000000000000000000000000000000000000169063c161c93f9062000f6a9033908790600090879060040162001956565b60206040518083038186803b15801562000f8357600080fd5b505afa15801562000f98573d6000803e3d6000fd5b505050506040513d601f19601f8201168201806040525081019062000fbe9190620017de565b155b1562000fdf5760405163075fd2b160e01b815260040160405180910390fd5b6001600160a01b038516620010075760405163c6587bab60e01b815260040160405180910390fd5b6001600160a01b0387166000908152600260209081526040808320898452909152902054808511156200104d576040516383fc8b2d60e01b815260040160405180910390fd5b6001600160a01b03881660009081526002602090815260408083208a84529091529020546200107e90869062001a16565b6001600160a01b03808a1660009081526002602081815260408084208d8552825280842095909555928a16825282528281208a82529091522054620010c5908690620019fb565b6001600160a01b0387811660008181526002602090815260408083208d8452825291829020949094558051898152339481019490945290928a928c16917fae47e55abe3902569528abe4272b889079230a248aec0659a2939a90354982c6910160405180910390a45050505050505050565b604051632eec7b5560e11b815260048101849052839033906001600160a01b037f00000000000000000000000000000000000000000000000000000000000000001690635dd8f6aa9060240160206040518083038186803b1580156200119c57600080fd5b505afa158015620011b1573d6000803e3d6000fd5b505050506040513d601f19601f82011682018060405250810190620011d79190620016b4565b6001600160a01b031614620011ff57604051632adfdd0560e21b815260040160405180910390fd5b6000848152602081815260408083205460039092528220546001600160a01b03909116919060ff1680620012305750835b80156200124557506001600160a01b03821615155b90508015620012bf5760405163020da84160e61b8152600481018790526001600160a01b0388811660248301526044820187905283169063836a104090606401600060405180830381600087803b158015620012a057600080fd5b505af1158015620012b5573d6000803e3d6000fd5b505050506200133a565b6001600160a01b0387166000908152600260209081526040808320898452909152902054620012f0908690620019fb565b6001600160a01b03881660009081526002602090815260408083208a84528252808320939093556001905220546200132a908690620019fb565b6000878152600160205260409020555b60408051868152821515602082015285151581830152336060820152905187916001600160a01b038a16917f5dd3ead325af435e56bc762b40de54c96de6071938d18a26414245807591d86f9181900360800190a350505050505050565b6040516331a9108f60e11b8152600481018390527f00000000000000000000000000000000000000000000000000000000000000006001600160a01b031690636352211e9060240160206040518083038186803b158015620013f957600080fd5b505afa1580156200140e573d6000803e3d6000fd5b505050506040513d601f19601f82011682018060405250810190620014349190620016b4565b82600c336001600160a01b03841614801590620014f6575060405163c161c93f60e01b81526001600160a01b037f0000000000000000000000000000000000000000000000000000000000000000169063c161c93f90620014a090339087908790879060040162001956565b60206040518083038186803b158015620014b957600080fd5b505afa158015620014ce573d6000803e3d6000fd5b505050506040513d601f19601f82011682018060405250810190620014f49190620017de565b155b8015620015a9575060405163c161c93f60e01b81526001600160a01b037f0000000000000000000000000000000000000000000000000000000000000000169063c161c93f90620015539033908790600090879060040162001956565b60206040518083038186803b1580156200156c57600080fd5b505afa15801562001581573d6000803e3d6000fd5b505050506040513d601f19601f82011682018060405250810190620015a79190620017de565b155b15620015c85760405163075fd2b160e01b815260040160405180910390fd5b6000858152602081905260409020546001600160a01b031680620015ff576040516339e231e760e11b815260040160405180910390fd5b600086815260036020908152604091829020805460ff1916881515908117909155915133815288917f91c234a3a3ebdc00c9bbd80f24661ca100d784b6d9f53923b3a693344719e08c910160405180910390a3505050505050565b6112398062001a6f83390190565b60008083601f8401126200167b57600080fd5b50813567ffffffffffffffff8111156200169457600080fd5b602083019150836020828501011115620016ad57600080fd5b9250929050565b600060208284031215620016c757600080fd5b8151620016d48162001a46565b9392505050565b60008060408385031215620016ef57600080fd5b8235620016fc8162001a46565b946020939093013593505050565b600080600080608085870312156200172157600080fd5b84356200172e8162001a46565b9350602085013592506040850135620017478162001a46565b9396929550929360600135925050565b6000806000606084860312156200176d57600080fd5b83356200177a8162001a46565b95602085013595506040909401359392505050565b60008060008060808587031215620017a657600080fd5b8435620017b38162001a46565b935060208501359250604085013591506060850135620017d38162001a5f565b939692955090935050565b600060208284031215620017f157600080fd5b8151620016d48162001a5f565b6000602082840312156200181157600080fd5b5035919050565b6000602082840312156200182b57600080fd5b5051919050565b600080604083850312156200184657600080fd5b8235915060208301356200185a8162001a5f565b809150509250929050565b6000806000606084860312156200187b57600080fd5b8335925060208401356200188f8162001a46565b91506040840135620018a18162001a46565b809150509250925092565b600080600080600060608688031215620018c557600080fd5b85359450602086013567ffffffffffffffff80821115620018e557600080fd5b620018f389838a0162001668565b909650945060408801359150808211156200190d57600080fd5b506200191c8882890162001668565b969995985093965092949392505050565b81835281816020850137506000828201602090810191909152601f909101601f19169091010190565b6001600160a01b0394851681529290931660208301526040820152606081019190915260800190565b604081526000620019956040830186886200192d565b8281036020840152620019aa8185876200192d565b979650505050505050565b606081526000620019cb6060830187896200192d565b8281036020840152620019e08186886200192d565b91505060018060a01b03831660408301529695505050505050565b6000821982111562001a115762001a1162001a30565b500190565b60008282101562001a2b5762001a2b62001a30565b500390565b634e487b7160e01b600052601160045260246000fd5b6001600160a01b038116811462001a5c57600080fd5b50565b801515811462001a5c57600080fdfe60806040523480156200001157600080fd5b50604051620012393803806200123983398101604081905262000034916200023b565b8151829082906200004d906003906020850190620000de565b50805162000063906004906020840190620000de565b505050620000806200007a6200008860201b60201c565b6200008c565b5050620002f8565b3390565b600580546001600160a01b038381166001600160a01b0319831681179093556040519116919082907f8be0079c531659141344cd1fd0a4f28419497f9722a3daafe3b4186f6b6457e090600090a35050565b828054620000ec90620002a5565b90600052602060002090601f0160209004810192826200011057600085556200015b565b82601f106200012b57805160ff19168380011785556200015b565b828001600101855582156200015b579182015b828111156200015b5782518255916020019190600101906200013e565b50620001699291506200016d565b5090565b5b808211156200016957600081556001016200016e565b600082601f8301126200019657600080fd5b81516001600160401b0380821115620001b357620001b3620002e2565b604051601f8301601f19908116603f01168101908282118183101715620001de57620001de620002e2565b81604052838152602092508683858801011115620001fb57600080fd5b600091505b838210156200021f578582018301518183018401529082019062000200565b83821115620002315760008385830101525b9695505050505050565b600080604083850312156200024f57600080fd5b82516001600160401b03808211156200026757600080fd5b620002758683870162000184565b935060208501519150808211156200028c57600080fd5b506200029b8582860162000184565b9150509250929050565b600181811c90821680620002ba57607f821691505b60208210811415620002dc57634e487b7160e01b600052602260045260246000fd5b50919050565b634e487b7160e01b600052604160045260246000fd5b610f3180620003086000396000f3fe608060405234801561001057600080fd5b50600436106101365760003560e01c8063836a1040116100b8578063a457c2d71161007c578063a457c2d714610278578063a9059cbb1461028b578063bd85b0391461029e578063dd62ed3e146102b1578063f2fde38b146102ea578063f8548e36146102fd57600080fd5b8063836a10401461021c5780638cb0a5111461022f5780638da5cb5b1461024257806395d89b411461025d5780639eea5f661461026557600080fd5b806323b872dd116100ff57806323b872dd146101b6578063313ce567146101c957806339509351146101d857806370a08231146101eb578063715018a61461021457600080fd5b8062fdd58e1461013b57806306fdde0314610161578063095ea7b31461017657806318160ddd146101995780631c0f12b6146101a1575b600080fd5b61014e610149366004610d45565b610310565b6040519081526020015b60405180910390f35b610169610331565b6040516101589190610df1565b610189610184366004610d45565b6103c3565b6040519015158152602001610158565b60025461014e565b6101b46101af366004610d88565b6103d9565b005b6101896101c4366004610d09565b6103eb565b60405160128152602001610158565b6101896101e6366004610d45565b6104a1565b61014e6101f9366004610cbb565b6001600160a01b031660009081526020819052604090205490565b6101b46104dd565b6101b461022a366004610dcc565b610513565b6101b461023d366004610dcc565b61054c565b6005546040516001600160a01b039091168152602001610158565b61016961055c565b6101b4610273366004610dcc565b61056b565b610189610286366004610d45565b61059f565b610189610299366004610d45565b610638565b61014e6102ac366004610d6f565b610645565b61014e6102bf366004610cd6565b6001600160a01b03918216600090815260016020908152604080832093909416825291909152205490565b6101b46102f8366004610cbb565b610656565b6101b461030b366004610dcc565b61068c565b6001600160a01b0382166000908152602081905260408120545b9392505050565b60606003805461034090610eaa565b80601f016020809104026020016040519081016040528092919081815260200182805461036c90610eaa565b80156103b95780601f1061038e576101008083540402835291602001916103b9565b820191906000526020600020905b81548152906001019060200180831161039c57829003601f168201915b5050505050905090565b60006103d0338484610696565b50600192915050565b6103e48383836103eb565b5050505050565b6001600160a01b0383166000908152600160209081526040808320338452909152812054600019811461048b578281101561047e5760405162461bcd60e51b815260206004820152602860248201527f45524332303a207472616e7366657220616d6f756e74206578636565647320616044820152676c6c6f77616e636560c01b60648201526084015b60405180910390fd5b61048b8533858403610696565b6104968585856107ba565b506001949350505050565b3360008181526001602090815260408083206001600160a01b038716845290915281205490916103d09185906104d8908690610e7b565b610696565b6005546001600160a01b031633146105075760405162461bcd60e51b815260040161047590610e46565b6105116000610988565b565b6005546001600160a01b0316331461053d5760405162461bcd60e51b815260040161047590610e46565b61054782826109da565b505050565b61055682826103c3565b50505050565b60606004805461034090610eaa565b6005546001600160a01b031633146105955760405162461bcd60e51b815260040161047590610e46565b6105478282610ab9565b3360009081526001602090815260408083206001600160a01b0386168452909152812054828110156106215760405162461bcd60e51b815260206004820152602560248201527f45524332303a2064656372656173656420616c6c6f77616e63652062656c6f77604482015264207a65726f60d81b6064820152608401610475565b61062e3385858403610696565b5060019392505050565b60006103d03384846107ba565b600061065060025490565b92915050565b6005546001600160a01b031633146106805760405162461bcd60e51b815260040161047590610e46565b61068981610c07565b50565b6105568282610638565b6001600160a01b0383166106f85760405162461bcd60e51b8152602060048201526024808201527f45524332303a20617070726f76652066726f6d20746865207a65726f206164646044820152637265737360e01b6064820152608401610475565b6001600160a01b0382166107595760405162461bcd60e51b815260206004820152602260248201527f45524332303a20617070726f766520746f20746865207a65726f206164647265604482015261737360f01b6064820152608401610475565b6001600160a01b0383811660008181526001602090815260408083209487168084529482529182902085905590518481527f8c5be1e5ebec7d5bd14f71427d1e84f3dd0314c0f7b2291e5b200ac8c7c3b925910160405180910390a3505050565b6001600160a01b03831661081e5760405162461bcd60e51b815260206004820152602560248201527f45524332303a207472616e736665722066726f6d20746865207a65726f206164604482015264647265737360d81b6064820152608401610475565b6001600160a01b0382166108805760405162461bcd60e51b815260206004820152602360248201527f45524332303a207472616e7366657220746f20746865207a65726f206164647260448201526265737360e81b6064820152608401610475565b6001600160a01b038316600090815260208190526040902054818110156108f85760405162461bcd60e51b815260206004820152602660248201527f45524332303a207472616e7366657220616d6f756e7420657863656564732062604482015265616c616e636560d01b6064820152608401610475565b6001600160a01b0380851660009081526020819052604080822085850390559185168152908120805484929061092f908490610e7b565b92505081905550826001600160a01b0316846001600160a01b03167fddf252ad1be2c89b69c2b068fc378daa952ba7f163c4a11628f55a4df523b3ef8460405161097b91815260200190565b60405180910390a3610556565b600580546001600160a01b038381166001600160a01b0319831681179093556040519116919082907f8be0079c531659141344cd1fd0a4f28419497f9722a3daafe3b4186f6b6457e090600090a35050565b6001600160a01b038216610a305760405162461bcd60e51b815260206004820152601f60248201527f45524332303a206d696e7420746f20746865207a65726f2061646472657373006044820152606401610475565b8060026000828254610a429190610e7b565b90915550506001600160a01b03821660009081526020819052604081208054839290610a6f908490610e7b565b90915550506040518181526001600160a01b038316906000907fddf252ad1be2c89b69c2b068fc378daa952ba7f163c4a11628f55a4df523b3ef9060200160405180910390a35050565b6001600160a01b038216610b195760405162461bcd60e51b815260206004820152602160248201527f45524332303a206275726e2066726f6d20746865207a65726f206164647265736044820152607360f81b6064820152608401610475565b6001600160a01b03821660009081526020819052604090205481811015610b8d5760405162461bcd60e51b815260206004820152602260248201527f45524332303a206275726e20616d6f756e7420657863656564732062616c616e604482015261636560f01b6064820152608401610475565b6001600160a01b0383166000908152602081905260408120838303905560028054849290610bbc908490610e93565b90915550506040518281526000906001600160a01b038516907fddf252ad1be2c89b69c2b068fc378daa952ba7f163c4a11628f55a4df523b3ef9060200160405180910390a3505050565b6005546001600160a01b03163314610c315760405162461bcd60e51b815260040161047590610e46565b6001600160a01b038116610c965760405162461bcd60e51b815260206004820152602660248201527f4f776e61626c653a206e6577206f776e657220697320746865207a65726f206160448201526564647265737360d01b6064820152608401610475565b61068981610988565b80356001600160a01b0381168114610cb657600080fd5b919050565b600060208284031215610ccd57600080fd5b61032a82610c9f565b60008060408385031215610ce957600080fd5b610cf283610c9f565b9150610d0060208401610c9f565b90509250929050565b600080600060608486031215610d1e57600080fd5b610d2784610c9f565b9250610d3560208501610c9f565b9150604084013590509250925092565b60008060408385031215610d5857600080fd5b610d6183610c9f565b946020939093013593505050565b600060208284031215610d8157600080fd5b5035919050565b60008060008060808587031215610d9e57600080fd5b84359350610dae60208601610c9f565b9250610dbc60408601610c9f565b9396929550929360600135925050565b600080600060608486031215610de157600080fd5b83359250610d3560208501610c9f565b600060208083528351808285015260005b81811015610e1e57858101830151858201604001528201610e02565b81811115610e30576000604083870101525b50601f01601f1916929092016040019392505050565b6020808252818101527f4f776e61626c653a2063616c6c6572206973206e6f7420746865206f776e6572604082015260600190565b60008219821115610e8e57610e8e610ee5565b500190565b600082821015610ea557610ea5610ee5565b500390565b600181811c90821680610ebe57607f821691505b60208210811415610edf57634e487b7160e01b600052602260045260246000fd5b50919050565b634e487b7160e01b600052601160045260246000fdfea2646970667358221220537b70c5bdbe65a51aa2fc25a3b4debbebca2f94e00548d20510849e0b95510464736f6c63430008060033a26469706673582212204f8be0e413553ecbe1ebabcc5c76385fb187738eeabe1d9515dbb444650244f664736f6c63430008060033",
    "linkReferences": {}
  }
}