{
  "abi": [
    {
      "inputs": [
        {
          "internalType": "contract IJBOperatorStore",
          "name": "_operatorStore",
          "type": "address"
        },
        {
          "internalType": "contract IJBProjects",
          "name": "_projects",
          "type": "address"
        },
        {
          "internalType": "contract IJBDirectory",
          "name": "_directory",
          "type": "address"
        }
      ],
      "stateMutability": "nonpayable",
      "type": "constructor"
    },
    {
      "inputs": [],
      "name": "CANT_REMOVE_TOKEN_IF_ITS_REQUIRED",
      "type": "error"
    },
    {
      "inputs": [],
      "name": "CONTROLLER_UNAUTHORIZED",
      "type": "error"
    },
    {
      "inputs": [],
      "name": "EMPTY_NAME",
      "type": "error"
    },
    {
      "inputs": [],
      "name": "EMPTY_SYMBOL",
      "type": "error"
    },
    {
      "inputs": [],
      "name": "INSUFFICIENT_FUNDS",
      "type": "error"
    },
    {
      "inputs": [],
      "name": "INSUFFICIENT_UNCLAIMED_TOKENS",
      "type": "error"
    },
    {
      "inputs": [],
      "name": "PROJECT_ALREADY_HAS_TOKEN",
      "type": "error"
    },
    {
      "inputs": [],
      "name": "RECIPIENT_ZERO_ADDRESS",
      "type": "error"
    },
    {
      "inputs": [],
      "name": "TOKENS_MUST_HAVE_18_DECIMALS",
      "type": "error"
    },
    {
      "inputs": [],
      "name": "TOKEN_ALREADY_IN_USE",
      "type": "error"
    },
    {
      "inputs": [],
      "name": "TOKEN_NOT_FOUND",
      "type": "error"
    },
    {
      "inputs": [],
      "name": "UNAUTHORIZED",
      "type": "error"
    },
    {
      "anonymous": false,
      "inputs": [
        {
          "indexed": true,
          "internalType": "address",
          "name": "holder",
          "type": "address"
        },
        {
          "indexed": true,
          "internalType": "uint256",
          "name": "projectId",
          "type": "uint256"
        },
        {
          "indexed": false,
          "internalType": "uint256",
          "name": "amount",
          "type": "uint256"
        },
        {
          "indexed": false,
          "internalType": "uint256",
          "name": "initialUnclaimedBalance",
          "type": "uint256"
        },
        {
          "indexed": false,
          "internalType": "uint256",
          "name": "initialClaimedBalance",
          "type": "uint256"
        },
        {
          "indexed": false,
          "internalType": "bool",
          "name": "preferClaimedTokens",
          "type": "bool"
        },
        {
          "indexed": false,
          "internalType": "address",
          "name": "caller",
          "type": "address"
        }
      ],
      "name": "Burn",
      "type": "event"
    },
    {
      "anonymous": false,
      "inputs": [
        {
          "indexed": true,
          "internalType": "uint256",
          "name": "projectId",
          "type": "uint256"
        },
        {
          "indexed": true,
          "internalType": "contract IJBToken",
          "name": "newToken",
          "type": "address"
        },
        {
          "indexed": true,
          "internalType": "contract IJBToken",
          "name": "oldToken",
          "type": "address"
        },
        {
          "indexed": false,
          "internalType": "address",
          "name": "owner",
          "type": "address"
        },
        {
          "indexed": false,
          "internalType": "address",
          "name": "caller",
          "type": "address"
        }
      ],
      "name": "Change",
      "type": "event"
    },
    {
      "anonymous": false,
      "inputs": [
        {
          "indexed": true,
          "internalType": "address",
          "name": "holder",
          "type": "address"
        },
        {
          "indexed": true,
          "internalType": "uint256",
          "name": "projectId",
          "type": "uint256"
        },
        {
          "indexed": false,
          "internalType": "uint256",
          "name": "initialUnclaimedBalance",
          "type": "uint256"
        },
        {
          "indexed": false,
          "internalType": "uint256",
          "name": "amount",
          "type": "uint256"
        },
        {
          "indexed": false,
          "internalType": "address",
          "name": "caller",
          "type": "address"
        }
      ],
      "name": "Claim",
      "type": "event"
    },
    {
      "anonymous": false,
      "inputs": [
        {
          "indexed": true,
          "internalType": "uint256",
          "name": "projectId",
          "type": "uint256"
        },
        {
          "indexed": true,
          "internalType": "contract IJBToken",
          "name": "token",
          "type": "address"
        },
        {
          "indexed": false,
          "internalType": "string",
          "name": "name",
          "type": "string"
        },
        {
          "indexed": false,
          "internalType": "string",
          "name": "symbol",
          "type": "string"
        },
        {
          "indexed": false,
          "internalType": "address",
          "name": "caller",
          "type": "address"
        }
      ],
      "name": "Issue",
      "type": "event"
    },
    {
      "anonymous": false,
      "inputs": [
        {
          "indexed": true,
          "internalType": "address",
          "name": "holder",
          "type": "address"
        },
        {
          "indexed": true,
          "internalType": "uint256",
          "name": "projectId",
          "type": "uint256"
        },
        {
          "indexed": false,
          "internalType": "uint256",
          "name": "amount",
          "type": "uint256"
        },
        {
          "indexed": false,
          "internalType": "bool",
          "name": "tokensWereClaimed",
          "type": "bool"
        },
        {
          "indexed": false,
          "internalType": "bool",
          "name": "preferClaimedTokens",
          "type": "bool"
        },
        {
          "indexed": false,
          "internalType": "address",
          "name": "caller",
          "type": "address"
        }
      ],
      "name": "Mint",
      "type": "event"
    },
    {
      "anonymous": false,
      "inputs": [
        {
          "indexed": true,
          "internalType": "uint256",
          "name": "projectId",
          "type": "uint256"
        },
        {
          "indexed": true,
          "internalType": "bool",
          "name": "flag",
          "type": "bool"
        },
        {
          "indexed": false,
          "internalType": "address",
          "name": "caller",
          "type": "address"
        }
      ],
      "name": "ShouldRequireClaim",
      "type": "event"
    },
    {
      "anonymous": false,
      "inputs": [
        {
          "indexed": true,
          "internalType": "address",
          "name": "holder",
          "type": "address"
        },
        {
          "indexed": true,
          "internalType": "uint256",
          "name": "projectId",
          "type": "uint256"
        },
        {
          "indexed": true,
          "internalType": "address",
          "name": "recipient",
          "type": "address"
        },
        {
          "indexed": false,
          "internalType": "uint256",
          "name": "amount",
          "type": "uint256"
        },
        {
          "indexed": false,
          "internalType": "address",
          "name": "caller",
          "type": "address"
        }
      ],
      "name": "Transfer",
      "type": "event"
    },
    {
      "inputs": [
        {
          "internalType": "address",
          "name": "_holder",
          "type": "address"
        },
        {
          "internalType": "uint256",
          "name": "_projectId",
          "type": "uint256"
        }
      ],
      "name": "balanceOf",
      "outputs": [
        {
          "internalType": "uint256",
          "name": "balance",
          "type": "uint256"
        }
      ],
      "stateMutability": "view",
      "type": "function"
    },
    {
      "inputs": [
        {
          "internalType": "address",
          "name": "_holder",
          "type": "address"
        },
        {
          "internalType": "uint256",
          "name": "_projectId",
          "type": "uint256"
        },
        {
          "internalType": "uint256",
          "name": "_amount",
          "type": "uint256"
        },
        {
          "internalType": "bool",
          "name": "_preferClaimedTokens",
          "type": "bool"
        }
      ],
      "name": "burnFrom",
      "outputs": [],
      "stateMutability": "nonpayable",
      "type": "function"
    },
    {
      "inputs": [
        {
          "internalType": "uint256",
          "name": "_projectId",
          "type": "uint256"
        },
        {
          "internalType": "contract IJBToken",
          "name": "_token",
          "type": "address"
        },
        {
          "internalType": "address",
          "name": "_newOwner",
          "type": "address"
        }
      ],
      "name": "changeFor",
      "outputs": [
        {
          "internalType": "contract IJBToken",
          "name": "oldToken",
          "type": "address"
        }
      ],
      "stateMutability": "nonpayable",
      "type": "function"
    },
    {
      "inputs": [
        {
          "internalType": "address",
          "name": "_holder",
          "type": "address"
        },
        {
          "internalType": "uint256",
          "name": "_projectId",
          "type": "uint256"
        },
        {
          "internalType": "uint256",
          "name": "_amount",
          "type": "uint256"
        }
      ],
      "name": "claimFor",
      "outputs": [],
      "stateMutability": "nonpayable",
      "type": "function"
    },
    {
      "inputs": [],
      "name": "directory",
      "outputs": [
        {
          "internalType": "contract IJBDirectory",
          "name": "",
          "type": "address"
        }
      ],
      "stateMutability": "view",
      "type": "function"
    },
    {
      "inputs": [
        {
          "internalType": "uint256",
          "name": "_projectId",
          "type": "uint256"
        },
        {
          "internalType": "string",
          "name": "_name",
          "type": "string"
        },
        {
          "internalType": "string",
          "name": "_symbol",
          "type": "string"
        }
      ],
      "name": "issueFor",
      "outputs": [
        {
          "internalType": "contract IJBToken",
          "name": "token",
          "type": "address"
        }
      ],
      "stateMutability": "nonpayable",
      "type": "function"
    },
    {
      "inputs": [
        {
          "internalType": "address",
          "name": "_holder",
          "type": "address"
        },
        {
          "internalType": "uint256",
          "name": "_projectId",
          "type": "uint256"
        },
        {
          "internalType": "uint256",
          "name": "_amount",
          "type": "uint256"
        },
        {
          "internalType": "bool",
          "name": "_preferClaimedTokens",
          "type": "bool"
        }
      ],
      "name": "mintFor",
      "outputs": [],
      "stateMutability": "nonpayable",
      "type": "function"
    },
    {
      "inputs": [],
      "name": "operatorStore",
      "outputs": [
        {
          "internalType": "contract IJBOperatorStore",
          "name": "",
          "type": "address"
        }
      ],
      "stateMutability": "view",
      "type": "function"
    },
    {
      "inputs": [
        {
          "internalType": "contract IJBToken",
          "name": "",
          "type": "address"
        }
      ],
      "name": "projectOf",
      "outputs": [
        {
          "internalType": "uint256",
          "name": "",
          "type": "uint256"
        }
      ],
      "stateMutability": "view",
      "type": "function"
    },
    {
      "inputs": [],
      "name": "projects",
      "outputs": [
        {
          "internalType": "contract IJBProjects",
          "name": "",
          "type": "address"
        }
      ],
      "stateMutability": "view",
      "type": "function"
    },
    {
      "inputs": [
        {
          "internalType": "uint256",
          "name": "",
          "type": "uint256"
        }
      ],
      "name": "requireClaimFor",
      "outputs": [
        {
          "internalType": "bool",
          "name": "",
          "type": "bool"
        }
      ],
      "stateMutability": "view",
      "type": "function"
    },
    {
      "inputs": [
        {
          "internalType": "uint256",
          "name": "_projectId",
          "type": "uint256"
        },
        {
          "internalType": "bool",
          "name": "_flag",
          "type": "bool"
        }
      ],
      "name": "shouldRequireClaimingFor",
      "outputs": [],
      "stateMutability": "nonpayable",
      "type": "function"
    },
    {
      "inputs": [
        {
          "internalType": "uint256",
          "name": "",
          "type": "uint256"
        }
      ],
      "name": "tokenOf",
      "outputs": [
        {
          "internalType": "contract IJBToken",
          "name": "",
          "type": "address"
        }
      ],
      "stateMutability": "view",
      "type": "function"
    },
    {
      "inputs": [
        {
          "internalType": "uint256",
          "name": "_projectId",
          "type": "uint256"
        }
      ],
      "name": "totalSupplyOf",
      "outputs": [
        {
          "internalType": "uint256",
          "name": "totalSupply",
          "type": "uint256"
        }
      ],
      "stateMutability": "view",
      "type": "function"
    },
    {
      "inputs": [
        {
          "internalType": "address",
          "name": "_holder",
          "type": "address"
        },
        {
          "internalType": "uint256",
          "name": "_projectId",
          "type": "uint256"
        },
        {
          "internalType": "address",
          "name": "_recipient",
          "type": "address"
        },
        {
          "internalType": "uint256",
          "name": "_amount",
          "type": "uint256"
        }
      ],
      "name": "transferFrom",
      "outputs": [],
      "stateMutability": "nonpayable",
      "type": "function"
    },
    {
      "inputs": [
        {
          "internalType": "address",
          "name": "",
          "type": "address"
        },
        {
          "internalType": "uint256",
          "name": "",
          "type": "uint256"
        }
      ],
      "name": "unclaimedBalanceOf",
      "outputs": [
        {
          "internalType": "uint256",
          "name": "",
          "type": "uint256"
        }
      ],
      "stateMutability": "view",
      "type": "function"
    },
    {
      "inputs": [
        {
          "internalType": "uint256",
          "name": "",
          "type": "uint256"
        }
      ],
      "name": "unclaimedTotalSupplyOf",
      "outputs": [
        {
          "internalType": "uint256",
          "name": "",
          "type": "uint256"
        }
      ],
      "stateMutability": "view",
      "type": "function"
    }
  ],
  "bytecode": {
    "object": "0x60e06040523480156200001157600080fd5b506040516200365d3803806200365d83398101604081905262000034916200005a565b6001600160601b0319606091821b811660805292811b831660a0521b1660c052620000c7565b6000806000606084860312156200007057600080fd5b83516200007d81620000ae565b60208501519093506200009081620000ae565b6040850151909250620000a381620000ae565b809150509250925092565b6001600160a01b0381168114620000c457600080fd5b50565b60805160601c60a05160601c60c05160601c61352c6200013160003960008181610260015261137a0152600081816102cd015281816114ea01526115a50152600081816102f50152818161046501528181610a3b01528181610db50152611125015261352c6000f3fe60806040523480156200001157600080fd5b5060043610620001205760003560e01c80638b79543c11620000af578063ad007d63116200007a578063ad007d6314620002c7578063c41c2f2414620002ef578063ceddd3e41462000317578063ea78803f146200032e578063ff0186c5146200035a57600080fd5b80638b79543c146200025a578063906ebd0f1462000282578063a7f2a70b1462000299578063ac689bcd14620002b057600080fd5b806357e4c77811620000f057806357e4c77814620001c35780636607955d14620001f357806375b0d9cd146200020c5780637b4d8e2c146200022357600080fd5b8062fdd58e14620001255780631412884f146200014f578063176309b714620001725780635287af371462000195575b600080fd5b6200013c62000136366004620016ca565b62000371565b6040519081526020015b60405180910390f35b6200013c620001603660046200180d565b60026020526000908152604090205481565b6200013c62000183366004620017ed565b60016020526000908152604090205481565b6200013c620001a6366004620016ca565b600360209081526000928352604080842090915290825290205481565b620001da620001d436600462001874565b62000440565b6040516001600160a01b03909116815260200162000146565b6200020a6200020436600462001746565b62000792565b005b6200013c6200021d3660046200180d565b6200095e565b62000249620002343660046200180d565b60046020526000908152604090205460ff1681565b604051901515815260200162000146565b620001da7f000000000000000000000000000000000000000000000000000000000000000081565b6200020a620002933660046200177e565b62000a19565b620001da620002aa366004620018bb565b62000d90565b6200020a620002c1366004620016f9565b62000f9a565b620001da7f000000000000000000000000000000000000000000000000000000000000000081565b620001da7f000000000000000000000000000000000000000000000000000000000000000081565b6200020a620003283660046200177e565b62001103565b620001da6200033f3660046200180d565b6000602081905290815260409020546001600160a01b031681565b6200020a6200036b36600462001841565b62001364565b6001600160a01b038083166000908152600360209081526040808320858452825280832054918390529091205490911680156200043957604051627eeac760e11b81526001600160a01b0385811660048301526024820185905282169062fdd58e9060440160206040518083038186803b158015620003ef57600080fd5b505afa15801562000404573d6000803e3d6000fd5b505050506040513d601f19601f820116820180604052508101906200042a919062001827565b62000436908362001a06565b91505b5092915050565b604051632eec7b5560e11b815260048101849052600090849033906001600160a01b037f00000000000000000000000000000000000000000000000000000000000000001690635dd8f6aa9060240160206040518083038186803b158015620004a857600080fd5b505afa158015620004bd573d6000803e3d6000fd5b505050506040513d601f19601f82011682018060405250810190620004e39190620016a3565b6001600160a01b0316146200050b57604051632adfdd0560e21b815260040160405180910390fd5b6001600160a01b03841615801562000531575060008581526004602052604090205460ff165b156200055057604051631a95c24760e31b815260040160405180910390fd5b6001600160a01b0384166000908152600160205260409020541562000588576040516309bcd42360e11b815260040160405180910390fd5b6001600160a01b03841615801590620006195750836001600160a01b031663313ce5676040518163ffffffff1660e01b815260040160206040518083038186803b158015620005d657600080fd5b505afa158015620005eb573d6000803e3d6000fd5b505050506040513d601f19601f820116820180604052508101906200061191906200193c565b60ff16601214155b156200063857604051632b70e32560e21b815260040160405180910390fd5b600085815260208190526040902080546001600160a01b038681166001600160a01b0319831681179093551692501562000688576001600160a01b03841660009081526001602052604090208590555b6001600160a01b03821615620006b2576001600160a01b0382166000908152600160205260408120555b6001600160a01b03831615801590620006d357506001600160a01b03821615155b156200073e576040516329507f7360e01b8152600481018690526001600160a01b0384811660248301528316906329507f7390604401600060405180830381600087803b1580156200072457600080fd5b505af115801562000739573d6000803e3d6000fd5b505050505b604080516001600160a01b038581168252336020830152808516929087169188917f53b937570201bb723ab1530f41c21f62fba8df64afef862cb0a6f4eccc3094dc910160405180910390a4509392505050565b8282600b620007a3838383620014a2565b6000858152602081905260409020546001600160a01b031680620007da576040516339e231e760e11b815260040160405180910390fd5b6001600160a01b03871660009081526003602090815260408083208984529091529020548581101562000820576040516383fc8b2d60e01b815260040160405180910390fd5b6001600160a01b03881660009081526003602090815260408083208a84529091529020546200085190879062001a21565b6001600160a01b03891660009081526003602090815260408083208b84528252808320939093556002905220546200088b90879062001a21565b60008881526002602052604090819020919091555163020da84160e61b8152600481018890526001600160a01b0389811660248301526044820188905283169063836a104090606401600060405180830381600087803b158015620008ef57600080fd5b505af115801562000904573d6000803e3d6000fd5b505060408051848152602081018a9052338183015290518a93506001600160a01b038c1692507fe718784128df3c3d45fbd6519133fee450494f7cdb2b53830a5087cd47f980829181900360600190a35050505050505050565b60008181526002602090815260408083205491839052909120546001600160a01b0316801562000a135760405163bd85b03960e01b8152600481018490526001600160a01b0382169063bd85b0399060240160206040518083038186803b158015620009c957600080fd5b505afa158015620009de573d6000803e3d6000fd5b505050506040513d601f19601f8201168201806040525081019062000a04919062001827565b62000a10908362001a06565b91505b50919050565b604051632eec7b5560e11b815260048101849052839033906001600160a01b037f00000000000000000000000000000000000000000000000000000000000000001690635dd8f6aa9060240160206040518083038186803b15801562000a7e57600080fd5b505afa15801562000a93573d6000803e3d6000fd5b505050506040513d601f19601f8201168201806040525081019062000ab99190620016a3565b6001600160a01b03161462000ae157604051632adfdd0560e21b815260040160405180910390fd5b600084815260208181526040808320546001600160a01b0389811685526003845282852089865290935290832054911691821562000ba157604051627eeac760e11b81526001600160a01b0389811660048301526024820189905284169062fdd58e9060440160206040518083038186803b15801562000b6057600080fd5b505afa15801562000b75573d6000803e3d6000fd5b505050506040513d601f19601f8201168201806040525081019062000b9b919062001827565b62000ba4565b60005b905062000bb2828262001a06565b86111562000bd357604051631cf2628760e31b815260040160405180910390fd5b60008162000be45750600062000c23565b851562000c045786821062000bfa578662000bfc565b815b905062000c23565b86831062000c1457600062000c20565b62000c20838862001a21565b90505b600062000c31828962001a21565b9050801562000cb5576001600160a01b038a1660009081526003602090815260408083208c845290915290205462000c6b90829062001a21565b6001600160a01b038b1660009081526003602090815260408083208d845282528083209390935560029052205462000ca590829062001a21565b60008a8152600260205260409020555b811562000d2857604051634f752fb360e11b8152600481018a90526001600160a01b038b8116602483015260448201849052861690639eea5f6690606401600060405180830381600087803b15801562000d0e57600080fd5b505af115801562000d23573d6000803e3d6000fd5b505050505b6040805189815260208101869052908101849052871515606082015233608082015289906001600160a01b038c16907fbe100da6adaa492f7ba1b0de916ae2606126ec7b044d7aa8ec74971a607ceecd9060a00160405180910390a350505050505050505050565b604051632eec7b5560e11b815260048101869052600090869033906001600160a01b037f00000000000000000000000000000000000000000000000000000000000000001690635dd8f6aa9060240160206040518083038186803b15801562000df857600080fd5b505afa15801562000e0d573d6000803e3d6000fd5b505050506040513d601f19601f8201168201806040525081019062000e339190620016a3565b6001600160a01b03161462000e5b57604051632adfdd0560e21b815260040160405180910390fd5b8462000e7a576040516392bf449d60e01b815260040160405180910390fd5b8262000e995760405163571431a760e01b815260040160405180910390fd5b6000878152602081905260409020546001600160a01b03161562000ed0576040516329518c2b60e21b815260040160405180910390fd5b8585858560405162000ee29062001649565b62000ef194939291906200198a565b604051809103906000f08015801562000f0e573d6000803e3d6000fd5b5060008881526020818152604080832080546001600160a01b0319166001600160a01b0386169081179091558084526001909252918290208a905590519193509088907f1b1705bef26552c8f314c5eb80e9c84f02876c2f7f30a7f9ad5cafd17d5fa6da9062000f88908a908a908a908a903390620019c0565b60405180910390a35095945050505050565b8383600c62000fab838383620014a2565b6001600160a01b03851662000fd35760405163c6587bab60e01b815260040160405180910390fd5b6001600160a01b03871660009081526003602090815260408083208984529091529020548085111562001019576040516383fc8b2d60e01b815260040160405180910390fd5b6001600160a01b03881660009081526003602090815260408083208a84529091529020546200104a90869062001a21565b6001600160a01b03808a1660009081526003602081815260408084208d8552825280842095909555928a16825282528281208a825290915220546200109190869062001a06565b6001600160a01b0387811660008181526003602090815260408083208d8452825291829020949094558051898152339481019490945290928a928c16917fae47e55abe3902569528abe4272b889079230a248aec0659a2939a90354982c6910160405180910390a45050505050505050565b604051632eec7b5560e11b815260048101849052839033906001600160a01b037f00000000000000000000000000000000000000000000000000000000000000001690635dd8f6aa9060240160206040518083038186803b1580156200116857600080fd5b505afa1580156200117d573d6000803e3d6000fd5b505050506040513d601f19601f82011682018060405250810190620011a39190620016a3565b6001600160a01b031614620011cb57604051632adfdd0560e21b815260040160405180910390fd5b6000848152602081815260408083205460049092528220546001600160a01b03909116919060ff1680620011fc5750835b80156200121157506001600160a01b03821615155b905080156200128b5760405163020da84160e61b8152600481018790526001600160a01b0388811660248301526044820187905283169063836a104090606401600060405180830381600087803b1580156200126c57600080fd5b505af115801562001281573d6000803e3d6000fd5b5050505062001306565b6001600160a01b0387166000908152600360209081526040808320898452909152902054620012bc90869062001a06565b6001600160a01b03881660009081526003602090815260408083208a8452825280832093909355600290522054620012f690869062001a06565b6000878152600260205260409020555b60408051868152821515602082015285151581830152336060820152905187916001600160a01b038a16917f5dd3ead325af435e56bc762b40de54c96de6071938d18a26414245807591d86f9181900360800190a350505050505050565b6040516331a9108f60e11b8152600481018390527f00000000000000000000000000000000000000000000000000000000000000006001600160a01b031690636352211e9060240160206040518083038186803b158015620013c557600080fd5b505afa158015620013da573d6000803e3d6000fd5b505050506040513d601f19601f82011682018060405250810190620014009190620016a3565b82600d62001410838383620014a2565b6000858152602081905260409020546001600160a01b03168062001447576040516339e231e760e11b815260040160405180910390fd5b600086815260046020908152604091829020805460ff1916881515908117909155915133815288917f91c234a3a3ebdc00c9bbd80f24661ca100d784b6d9f53923b3a693344719e08c910160405180910390a3505050505050565b336001600160a01b038416148015906200156a575060405163c161c93f60e01b81523360048201526001600160a01b03848116602483015260448201849052606482018390527f0000000000000000000000000000000000000000000000000000000000000000169063c161c93f9060840160206040518083038186803b1580156200152d57600080fd5b505afa15801562001542573d6000803e3d6000fd5b505050506040513d601f19601f82011682018060405250810190620015689190620017cd565b155b801562001625575060405163c161c93f60e01b81523360048201526001600160a01b03848116602483015260006044830152606482018390527f0000000000000000000000000000000000000000000000000000000000000000169063c161c93f9060840160206040518083038186803b158015620015e857600080fd5b505afa158015620015fd573d6000803e3d6000fd5b505050506040513d601f19601f82011682018060405250810190620016239190620017cd565b155b15620016445760405163075fd2b160e01b815260040160405180910390fd5b505050565b611a7d8062001a7a83390190565b60008083601f8401126200166a57600080fd5b50813567ffffffffffffffff8111156200168357600080fd5b6020830191508360208285010111156200169c57600080fd5b9250929050565b600060208284031215620016b657600080fd5b8151620016c38162001a51565b9392505050565b60008060408385031215620016de57600080fd5b8235620016eb8162001a51565b946020939093013593505050565b600080600080608085870312156200171057600080fd5b84356200171d8162001a51565b9350602085013592506040850135620017368162001a51565b9396929550929360600135925050565b6000806000606084860312156200175c57600080fd5b8335620017698162001a51565b95602085013595506040909401359392505050565b600080600080608085870312156200179557600080fd5b8435620017a28162001a51565b935060208501359250604085013591506060850135620017c28162001a6a565b939692955090935050565b600060208284031215620017e057600080fd5b8151620016c38162001a6a565b6000602082840312156200180057600080fd5b8135620016c38162001a51565b6000602082840312156200182057600080fd5b5035919050565b6000602082840312156200183a57600080fd5b5051919050565b600080604083850312156200185557600080fd5b823591506020830135620018698162001a6a565b809150509250929050565b6000806000606084860312156200188a57600080fd5b8335925060208401356200189e8162001a51565b91506040840135620018b08162001a51565b809150509250925092565b600080600080600060608688031215620018d457600080fd5b85359450602086013567ffffffffffffffff80821115620018f457600080fd5b6200190289838a0162001657565b909650945060408801359150808211156200191c57600080fd5b506200192b8882890162001657565b969995985093965092949392505050565b6000602082840312156200194f57600080fd5b815160ff81168114620016c357600080fd5b81835281816020850137506000828201602090810191909152601f909101601f19169091010190565b604081526000620019a060408301868862001961565b8281036020840152620019b581858762001961565b979650505050505050565b606081526000620019d660608301878962001961565b8281036020840152620019eb81868862001961565b91505060018060a01b03831660408301529695505050505050565b6000821982111562001a1c5762001a1c62001a3b565b500190565b60008282101562001a365762001a3662001a3b565b500390565b634e487b7160e01b600052601160045260246000fd5b6001600160a01b038116811462001a6757600080fd5b50565b801515811462001a6757600080fdfe6101606040527f6e71edae12b1b97f4d1f60370fef10105fa2faae0126114a169c64845d6126c9610140523480156200003757600080fd5b5060405162001a7d38038062001a7d8339810160408190526200005a9162000310565b8180604051806040016040528060018152602001603160f81b8152508484816003908051906020019062000090929190620001b3565b508051620000a6906004906020840190620001b3565b5050825160208085019190912083518483012060e08290526101008190524660a0818152604080517f8b73c3c69bb8fe3d512ecc4cf759cc79239f7b179b0ffacaa9a75d522b39400f81880181905281830187905260608201869052608082019490945230818401528151808203909301835260c0019052805194019390932091935091906080523060601b60c05261012052506200015593506200014f9250506200015d9050565b62000161565b5050620003cd565b3390565b600680546001600160a01b038381166001600160a01b0319831681179093556040519116919082907f8be0079c531659141344cd1fd0a4f28419497f9722a3daafe3b4186f6b6457e090600090a35050565b828054620001c1906200037a565b90600052602060002090601f016020900481019282620001e5576000855562000230565b82601f106200020057805160ff191683800117855562000230565b8280016001018555821562000230579182015b828111156200023057825182559160200191906001019062000213565b506200023e92915062000242565b5090565b5b808211156200023e576000815560010162000243565b600082601f8301126200026b57600080fd5b81516001600160401b0380821115620002885762000288620003b7565b604051601f8301601f19908116603f01168101908282118183101715620002b357620002b3620003b7565b81604052838152602092508683858801011115620002d057600080fd5b600091505b83821015620002f45785820183015181830184015290820190620002d5565b83821115620003065760008385830101525b9695505050505050565b600080604083850312156200032457600080fd5b82516001600160401b03808211156200033c57600080fd5b6200034a8683870162000259565b935060208501519150808211156200036157600080fd5b50620003708582860162000259565b9150509250929050565b600181811c908216806200038f57607f821691505b60208210811415620003b157634e487b7160e01b600052602260045260246000fd5b50919050565b634e487b7160e01b600052604160045260246000fd5b60805160a05160c05160601c60e0516101005161012051610140516116526200042b600039600061078701526000610cb801526000610d0701526000610ce201526000610c3b01526000610c6501526000610c8f01526116526000f3fe608060405234801561001057600080fd5b50600436106101725760003560e01c80637ecebe00116100de578063a457c2d711610097578063d505accf11610071578063d505accf1461031b578063dd62ed3e1461032e578063f2fde38b14610367578063f8548e361461037a57600080fd5b8063a457c2d7146102e2578063a9059cbb146102f5578063bd85b0391461030857600080fd5b80637ecebe0014610273578063836a1040146102865780638cb0a511146102995780638da5cb5b146102ac57806395d89b41146102c75780639eea5f66146102cf57600080fd5b806329507f731161013057806329507f7314610205578063313ce567146102185780633644e51514610227578063395093511461022f57806370a0823114610242578063715018a61461026b57600080fd5b8062fdd58e1461017757806306fdde031461019d578063095ea7b3146101b257806318160ddd146101d55780631c0f12b6146101dd57806323b872dd146101f2575b600080fd5b61018a610185366004611433565b61038d565b6040519081526020015b60405180910390f35b6101a56103ae565b6040516101949190611502565b6101c56101c0366004611433565b610440565b6040519015158152602001610194565b60025461018a565b6101f06101eb366004611499565b610456565b005b6101c5610200366004611384565b610468565b6101f0610213366004611476565b61051e565b60405160128152602001610194565b61018a61055a565b6101c561023d366004611433565b610564565b61018a610250366004611336565b6001600160a01b031660009081526020819052604090205490565b6101f06105a0565b61018a610281366004611336565b6105d6565b6101f06102943660046114dd565b6105f6565b6101f06102a73660046114dd565b61062f565b6006546040516001600160a01b039091168152602001610194565b6101a561063f565b6101f06102dd3660046114dd565b61064e565b6101c56102f0366004611433565b610682565b6101c5610303366004611433565b61071b565b61018a61031636600461145d565b610728565b6101f06103293660046113c0565b610733565b61018a61033c366004611351565b6001600160a01b03918216600090815260016020908152604080832093909416825291909152205490565b6101f0610375366004611336565b610897565b6101f06103883660046114dd565b610932565b6001600160a01b0382166000908152602081905260408120545b9392505050565b6060600380546103bd906115bb565b80601f01602080910402602001604051908101604052809291908181526020018280546103e9906115bb565b80156104365780601f1061040b57610100808354040283529160200191610436565b820191906000526020600020905b81548152906001019060200180831161041957829003601f168201915b5050505050905090565b600061044d33848461093c565b50600192915050565b610461838383610468565b5050505050565b6001600160a01b0383166000908152600160209081526040808320338452909152812054600019811461050857828110156104fb5760405162461bcd60e51b815260206004820152602860248201527f45524332303a207472616e7366657220616d6f756e74206578636565647320616044820152676c6c6f77616e636560c01b60648201526084015b60405180910390fd5b610508853385840361093c565b610513858585610a60565b506001949350505050565b6006546001600160a01b031633146105485760405162461bcd60e51b81526004016104f290611557565b61055181610897565b5050565b905090565b6000610555610c2e565b3360008181526001602090815260408083206001600160a01b0387168452909152812054909161044d91859061059b90869061158c565b61093c565b6006546001600160a01b031633146105ca5760405162461bcd60e51b81526004016104f290611557565b6105d46000610d55565b565b6001600160a01b0381166000908152600560205260408120545b92915050565b6006546001600160a01b031633146106205760405162461bcd60e51b81526004016104f290611557565b61062a8282610da7565b505050565b6106398282610440565b50505050565b6060600480546103bd906115bb565b6006546001600160a01b031633146106785760405162461bcd60e51b81526004016104f290611557565b61062a8282610e86565b3360009081526001602090815260408083206001600160a01b0386168452909152812054828110156107045760405162461bcd60e51b815260206004820152602560248201527f45524332303a2064656372656173656420616c6c6f77616e63652062656c6f77604482015264207a65726f60d81b60648201526084016104f2565b610711338585840361093c565b5060019392505050565b600061044d338484610a60565b60006105f060025490565b834211156107835760405162461bcd60e51b815260206004820152601d60248201527f45524332305065726d69743a206578706972656420646561646c696e6500000060448201526064016104f2565b60007f00000000000000000000000000000000000000000000000000000000000000008888886107b28c610fd4565b6040805160208101969096526001600160a01b0394851690860152929091166060840152608083015260a082015260c0810186905260e001604051602081830303815290604052805190602001209050600061080d82610ffc565b9050600061081d8287878761104a565b9050896001600160a01b0316816001600160a01b0316146108805760405162461bcd60e51b815260206004820152601e60248201527f45524332305065726d69743a20696e76616c6964207369676e6174757265000060448201526064016104f2565b61088b8a8a8a61093c565b50505050505050505050565b6006546001600160a01b031633146108c15760405162461bcd60e51b81526004016104f290611557565b6001600160a01b0381166109265760405162461bcd60e51b815260206004820152602660248201527f4f776e61626c653a206e6577206f776e657220697320746865207a65726f206160448201526564647265737360d01b60648201526084016104f2565b61092f81610d55565b50565b610639828261071b565b6001600160a01b03831661099e5760405162461bcd60e51b8152602060048201526024808201527f45524332303a20617070726f76652066726f6d20746865207a65726f206164646044820152637265737360e01b60648201526084016104f2565b6001600160a01b0382166109ff5760405162461bcd60e51b815260206004820152602260248201527f45524332303a20617070726f766520746f20746865207a65726f206164647265604482015261737360f01b60648201526084016104f2565b6001600160a01b0383811660008181526001602090815260408083209487168084529482529182902085905590518481527f8c5be1e5ebec7d5bd14f71427d1e84f3dd0314c0f7b2291e5b200ac8c7c3b925910160405180910390a3505050565b6001600160a01b038316610ac45760405162461bcd60e51b815260206004820152602560248201527f45524332303a207472616e736665722066726f6d20746865207a65726f206164604482015264647265737360d81b60648201526084016104f2565b6001600160a01b038216610b265760405162461bcd60e51b815260206004820152602360248201527f45524332303a207472616e7366657220746f20746865207a65726f206164647260448201526265737360e81b60648201526084016104f2565b6001600160a01b03831660009081526020819052604090205481811015610b9e5760405162461bcd60e51b815260206004820152602660248201527f45524332303a207472616e7366657220616d6f756e7420657863656564732062604482015265616c616e636560d01b60648201526084016104f2565b6001600160a01b03808516600090815260208190526040808220858503905591851681529081208054849290610bd590849061158c565b92505081905550826001600160a01b0316846001600160a01b03167fddf252ad1be2c89b69c2b068fc378daa952ba7f163c4a11628f55a4df523b3ef84604051610c2191815260200190565b60405180910390a3610639565b6000306001600160a01b037f000000000000000000000000000000000000000000000000000000000000000016148015610c8757507f000000000000000000000000000000000000000000000000000000000000000046145b15610cb157507f000000000000000000000000000000000000000000000000000000000000000090565b50604080517f00000000000000000000000000000000000000000000000000000000000000006020808301919091527f0000000000000000000000000000000000000000000000000000000000000000828401527f000000000000000000000000000000000000000000000000000000000000000060608301524660808301523060a0808401919091528351808403909101815260c0909201909252805191012090565b600680546001600160a01b038381166001600160a01b0319831681179093556040519116919082907f8be0079c531659141344cd1fd0a4f28419497f9722a3daafe3b4186f6b6457e090600090a35050565b6001600160a01b038216610dfd5760405162461bcd60e51b815260206004820152601f60248201527f45524332303a206d696e7420746f20746865207a65726f20616464726573730060448201526064016104f2565b8060026000828254610e0f919061158c565b90915550506001600160a01b03821660009081526020819052604081208054839290610e3c90849061158c565b90915550506040518181526001600160a01b038316906000907fddf252ad1be2c89b69c2b068fc378daa952ba7f163c4a11628f55a4df523b3ef9060200160405180910390a35050565b6001600160a01b038216610ee65760405162461bcd60e51b815260206004820152602160248201527f45524332303a206275726e2066726f6d20746865207a65726f206164647265736044820152607360f81b60648201526084016104f2565b6001600160a01b03821660009081526020819052604090205481811015610f5a5760405162461bcd60e51b815260206004820152602260248201527f45524332303a206275726e20616d6f756e7420657863656564732062616c616e604482015261636560f01b60648201526084016104f2565b6001600160a01b0383166000908152602081905260408120838303905560028054849290610f899084906115a4565b90915550506040518281526000906001600160a01b038516907fddf252ad1be2c89b69c2b068fc378daa952ba7f163c4a11628f55a4df523b3ef9060200160405180910390a3505050565b6001600160a01b03811660009081526005602052604090208054600181018255905b50919050565b60006105f0611009610c2e565b8360405161190160f01b6020820152602281018390526042810182905260009060620160405160208183030381529060405280519060200120905092915050565b600080600061105b87878787611072565b915091506110688161115f565b5095945050505050565b6000807f7fffffffffffffffffffffffffffffff5d576e7357a4501ddfe92f46681b20a08311156110a95750600090506003611156565b8460ff16601b141580156110c157508460ff16601c14155b156110d25750600090506004611156565b6040805160008082526020820180845289905260ff881692820192909252606081018690526080810185905260019060a0016020604051602081039080840390855afa158015611126573d6000803e3d6000fd5b5050604051601f1901519150506001600160a01b03811661114f57600060019250925050611156565b9150600090505b94509492505050565b600081600481111561117357611173611606565b141561117c5750565b600181600481111561119057611190611606565b14156111de5760405162461bcd60e51b815260206004820152601860248201527f45434453413a20696e76616c6964207369676e6174757265000000000000000060448201526064016104f2565b60028160048111156111f2576111f2611606565b14156112405760405162461bcd60e51b815260206004820152601f60248201527f45434453413a20696e76616c6964207369676e6174757265206c656e6774680060448201526064016104f2565b600381600481111561125457611254611606565b14156112ad5760405162461bcd60e51b815260206004820152602260248201527f45434453413a20696e76616c6964207369676e6174757265202773272076616c604482015261756560f01b60648201526084016104f2565b60048160048111156112c1576112c1611606565b141561092f5760405162461bcd60e51b815260206004820152602260248201527f45434453413a20696e76616c6964207369676e6174757265202776272076616c604482015261756560f01b60648201526084016104f2565b80356001600160a01b038116811461133157600080fd5b919050565b60006020828403121561134857600080fd5b6103a78261131a565b6000806040838503121561136457600080fd5b61136d8361131a565b915061137b6020840161131a565b90509250929050565b60008060006060848603121561139957600080fd5b6113a28461131a565b92506113b06020850161131a565b9150604084013590509250925092565b600080600080600080600060e0888a0312156113db57600080fd5b6113e48861131a565b96506113f26020890161131a565b95506040880135945060608801359350608088013560ff8116811461141657600080fd5b9699959850939692959460a0840135945060c09093013592915050565b6000806040838503121561144657600080fd5b61144f8361131a565b946020939093013593505050565b60006020828403121561146f57600080fd5b5035919050565b6000806040838503121561148957600080fd5b8235915061137b6020840161131a565b600080600080608085870312156114af57600080fd5b843593506114bf6020860161131a565b92506114cd6040860161131a565b9396929550929360600135925050565b6000806000606084860312156114f257600080fd5b833592506113b06020850161131a565b600060208083528351808285015260005b8181101561152f57858101830151858201604001528201611513565b81811115611541576000604083870101525b50601f01601f1916929092016040019392505050565b6020808252818101527f4f776e61626c653a2063616c6c6572206973206e6f7420746865206f776e6572604082015260600190565b6000821982111561159f5761159f6115f0565b500190565b6000828210156115b6576115b66115f0565b500390565b600181811c908216806115cf57607f821691505b60208210811415610ff657634e487b7160e01b600052602260045260246000fd5b634e487b7160e01b600052601160045260246000fd5b634e487b7160e01b600052602160045260246000fdfea26469706673582212203db0cb61b36e19658a2e5b68e87580a0e483582941245ea1b81f061779f107f064736f6c63430008060033a2646970667358221220cf15bb9c89113176027bdfa00651be37b24248f06a0deb42927bce8d0953399964736f6c63430008060033",
    "linkReferences": {}
  }
}