{
  "abi": [
    {
      "inputs": [
        {
          "internalType": "contract IJBOperatorStore",
          "name": "_operatorStore",
          "type": "address"
        },
        {
          "internalType": "contract IJBProjects",
          "name": "_projects",
          "type": "address"
        },
        {
          "internalType": "contract IJBDirectory",
          "name": "_directory",
          "type": "address"
        },
        {
          "internalType": "contract IJBFundingCycleStore",
          "name": "_fundingCycleStore",
          "type": "address"
        },
        {
          "internalType": "contract IJBTokenStore",
          "name": "_tokenStore",
          "type": "address"
        },
        {
          "internalType": "contract IJBSplitsStore",
          "name": "_splitsStore",
          "type": "address"
        }
      ],
      "stateMutability": "nonpayable",
      "type": "constructor"
    },
    {
      "inputs": [],
      "name": "BAD_DISTRIBUTION_LIMIT",
      "type": "error"
    },
    {
      "inputs": [],
      "name": "BAD_DISTRIBUTION_LIMIT_CURRENCY",
      "type": "error"
    },
    {
      "inputs": [],
      "name": "BAD_OVERFLOW_ALLOWANCE",
      "type": "error"
    },
    {
      "inputs": [],
      "name": "BAD_OVERFLOW_ALLOWANCE_CURRENCY",
      "type": "error"
    },
    {
      "inputs": [],
      "name": "BURN_PAUSED_AND_SENDER_NOT_VALID_TERMINAL_DELEGATE",
      "type": "error"
    },
    {
      "inputs": [],
      "name": "CALLER_NOT_CURRENT_CONTROLLER",
      "type": "error"
    },
    {
      "inputs": [],
      "name": "CANT_MIGRATE_TO_CURRENT_CONTROLLER",
      "type": "error"
    },
    {
      "inputs": [],
      "name": "CHANGE_TOKEN_NOT_ALLOWED",
      "type": "error"
    },
    {
      "inputs": [],
      "name": "FUNDING_CYCLE_ALREADY_LAUNCHED",
      "type": "error"
    },
    {
      "inputs": [],
      "name": "INVALID_BALLOT_REDEMPTION_RATE",
      "type": "error"
    },
    {
      "inputs": [],
      "name": "INVALID_REDEMPTION_RATE",
      "type": "error"
    },
    {
      "inputs": [],
      "name": "INVALID_RESERVED_RATE",
      "type": "error"
    },
    {
      "inputs": [],
      "name": "MIGRATION_NOT_ALLOWED",
      "type": "error"
    },
    {
      "inputs": [],
      "name": "MINT_PAUSED_AND_NOT_TERMINAL_DELEGATE",
      "type": "error"
    },
    {
      "inputs": [],
      "name": "NO_BURNABLE_TOKENS",
      "type": "error"
    },
    {
      "inputs": [
        {
          "internalType": "uint256",
          "name": "prod1",
          "type": "uint256"
        },
        {
          "internalType": "uint256",
          "name": "denominator",
          "type": "uint256"
        }
      ],
      "name": "PRBMath__MulDivOverflow",
      "type": "error"
    },
    {
      "inputs": [],
      "name": "UNAUTHORIZED",
      "type": "error"
    },
    {
      "inputs": [],
      "name": "ZERO_TOKENS_TO_MINT",
      "type": "error"
    },
    {
      "anonymous": false,
      "inputs": [
        {
          "indexed": true,
          "internalType": "address",
          "name": "holder",
          "type": "address"
        },
        {
          "indexed": true,
          "internalType": "uint256",
          "name": "projectId",
          "type": "uint256"
        },
        {
          "indexed": false,
          "internalType": "uint256",
          "name": "count",
          "type": "uint256"
        },
        {
          "indexed": false,
          "internalType": "string",
          "name": "memo",
          "type": "string"
        },
        {
          "indexed": false,
          "internalType": "address",
          "name": "caller",
          "type": "address"
        }
      ],
      "name": "BurnTokens",
      "type": "event"
    },
    {
      "anonymous": false,
      "inputs": [
        {
          "indexed": true,
          "internalType": "uint256",
          "name": "fundingCycleConfiguration",
          "type": "uint256"
        },
        {
          "indexed": true,
          "internalType": "uint256",
          "name": "fundingCycleNumber",
          "type": "uint256"
        },
        {
          "indexed": true,
          "internalType": "uint256",
          "name": "projectId",
          "type": "uint256"
        },
        {
          "indexed": false,
          "internalType": "address",
          "name": "beneficiary",
          "type": "address"
        },
        {
          "indexed": false,
          "internalType": "uint256",
          "name": "count",
          "type": "uint256"
        },
        {
          "indexed": false,
          "internalType": "uint256",
          "name": "beneficiaryTokenCount",
          "type": "uint256"
        },
        {
          "indexed": false,
          "internalType": "string",
          "name": "memo",
          "type": "string"
        },
        {
          "indexed": false,
          "internalType": "address",
          "name": "caller",
          "type": "address"
        }
      ],
      "name": "DistributeReservedTokens",
      "type": "event"
    },
    {
      "anonymous": false,
      "inputs": [
        {
          "indexed": true,
          "internalType": "uint256",
          "name": "fundingCycleConfiguration",
          "type": "uint256"
        },
        {
          "indexed": true,
          "internalType": "uint256",
          "name": "fundingCycleNumber",
          "type": "uint256"
        },
        {
          "indexed": true,
          "internalType": "uint256",
          "name": "projectId",
          "type": "uint256"
        },
        {
          "components": [
            {
              "internalType": "bool",
              "name": "preferClaimed",
              "type": "bool"
            },
            {
              "internalType": "uint256",
              "name": "percent",
              "type": "uint256"
            },
            {
              "internalType": "uint256",
              "name": "projectId",
              "type": "uint256"
            },
            {
              "internalType": "address payable",
              "name": "beneficiary",
              "type": "address"
            },
            {
              "internalType": "uint256",
              "name": "lockedUntil",
              "type": "uint256"
            },
            {
              "internalType": "contract IJBSplitAllocator",
              "name": "allocator",
              "type": "address"
            }
          ],
          "indexed": false,
          "internalType": "struct JBSplit",
          "name": "split",
          "type": "tuple"
        },
        {
          "indexed": false,
          "internalType": "uint256",
          "name": "count",
          "type": "uint256"
        },
        {
          "indexed": false,
          "internalType": "address",
          "name": "caller",
          "type": "address"
        }
      ],
      "name": "DistributeToReservedTokenSplit",
      "type": "event"
    },
    {
      "anonymous": false,
      "inputs": [
        {
          "indexed": true,
          "internalType": "uint256",
          "name": "projectId",
          "type": "uint256"
        },
        {
          "indexed": false,
          "internalType": "contract IJBController",
          "name": "to",
          "type": "address"
        },
        {
          "indexed": false,
          "internalType": "address",
          "name": "caller",
          "type": "address"
        }
      ],
      "name": "Migrate",
      "type": "event"
    },
    {
      "anonymous": false,
      "inputs": [
        {
          "indexed": true,
          "internalType": "address",
          "name": "beneficiary",
          "type": "address"
        },
        {
          "indexed": true,
          "internalType": "uint256",
          "name": "projectId",
          "type": "uint256"
        },
        {
          "indexed": true,
          "internalType": "uint256",
          "name": "count",
          "type": "uint256"
        },
        {
          "indexed": false,
          "internalType": "string",
          "name": "memo",
          "type": "string"
        },
        {
          "indexed": false,
          "internalType": "uint256",
          "name": "reservedRate",
          "type": "uint256"
        },
        {
          "indexed": false,
          "internalType": "address",
          "name": "caller",
          "type": "address"
        }
      ],
      "name": "MintTokens",
      "type": "event"
    },
    {
      "anonymous": false,
      "inputs": [
        {
          "indexed": true,
          "internalType": "uint256",
          "name": "fundingCycleConfiguration",
          "type": "uint256"
        },
        {
          "indexed": true,
          "internalType": "uint256",
          "name": "fundingCycleNumber",
          "type": "uint256"
        },
        {
          "indexed": true,
          "internalType": "uint256",
          "name": "projectId",
          "type": "uint256"
        },
        {
          "components": [
            {
              "internalType": "contract IJBPaymentTerminal",
              "name": "terminal",
              "type": "address"
            },
            {
              "internalType": "uint256",
              "name": "distributionLimit",
              "type": "uint256"
            },
            {
              "internalType": "uint256",
              "name": "distributionLimitCurrency",
              "type": "uint256"
            },
            {
              "internalType": "uint256",
              "name": "overflowAllowance",
              "type": "uint256"
            },
            {
              "internalType": "uint256",
              "name": "overflowAllowanceCurrency",
              "type": "uint256"
            }
          ],
          "indexed": false,
          "internalType": "struct JBFundAccessConstraints",
          "name": "constraints",
          "type": "tuple"
        },
        {
          "indexed": false,
          "internalType": "address",
          "name": "caller",
          "type": "address"
        }
      ],
      "name": "SetFundAccessConstraints",
      "type": "event"
    },
    {
      "inputs": [
        {
          "internalType": "address",
          "name": "_holder",
          "type": "address"
        },
        {
          "internalType": "uint256",
          "name": "_projectId",
          "type": "uint256"
        },
        {
          "internalType": "uint256",
          "name": "_tokenCount",
          "type": "uint256"
        },
        {
          "internalType": "string",
          "name": "_memo",
          "type": "string"
        },
        {
          "internalType": "bool",
          "name": "_preferClaimedTokens",
          "type": "bool"
        }
      ],
      "name": "burnTokensOf",
      "outputs": [],
      "stateMutability": "nonpayable",
      "type": "function"
    },
    {
      "inputs": [
        {
          "internalType": "uint256",
          "name": "_projectId",
          "type": "uint256"
        },
        {
          "internalType": "contract IJBToken",
          "name": "_token",
          "type": "address"
        },
        {
          "internalType": "address",
          "name": "_newOwner",
          "type": "address"
        }
      ],
      "name": "changeTokenOf",
      "outputs": [],
      "stateMutability": "nonpayable",
      "type": "function"
    },
    {
      "inputs": [],
      "name": "directory",
      "outputs": [
        {
          "internalType": "contract IJBDirectory",
          "name": "",
          "type": "address"
        }
      ],
      "stateMutability": "view",
      "type": "function"
    },
    {
      "inputs": [
        {
          "internalType": "uint256",
          "name": "_projectId",
          "type": "uint256"
        },
        {
          "internalType": "string",
          "name": "_memo",
          "type": "string"
        }
      ],
      "name": "distributeReservedTokensOf",
      "outputs": [
        {
          "internalType": "uint256",
          "name": "",
          "type": "uint256"
        }
      ],
      "stateMutability": "nonpayable",
      "type": "function"
    },
    {
      "inputs": [
        {
          "internalType": "uint256",
          "name": "_projectId",
          "type": "uint256"
        },
        {
          "internalType": "uint256",
          "name": "_configuration",
          "type": "uint256"
        },
        {
          "internalType": "contract IJBPaymentTerminal",
          "name": "_terminal",
          "type": "address"
        }
      ],
      "name": "distributionLimitCurrencyOf",
      "outputs": [
        {
          "internalType": "uint256",
          "name": "",
          "type": "uint256"
        }
      ],
      "stateMutability": "view",
      "type": "function"
    },
    {
      "inputs": [
        {
          "internalType": "uint256",
          "name": "_projectId",
          "type": "uint256"
        },
        {
          "internalType": "uint256",
          "name": "_configuration",
          "type": "uint256"
        },
        {
          "internalType": "contract IJBPaymentTerminal",
          "name": "_terminal",
          "type": "address"
        }
      ],
      "name": "distributionLimitOf",
      "outputs": [
        {
          "internalType": "uint256",
          "name": "",
          "type": "uint256"
        }
      ],
      "stateMutability": "view",
      "type": "function"
    },
    {
      "inputs": [],
      "name": "fundingCycleStore",
      "outputs": [
        {
          "internalType": "contract IJBFundingCycleStore",
          "name": "",
          "type": "address"
        }
      ],
      "stateMutability": "view",
      "type": "function"
    },
    {
      "inputs": [
        {
          "internalType": "uint256",
          "name": "_projectId",
          "type": "uint256"
        },
        {
          "internalType": "string",
          "name": "_name",
          "type": "string"
        },
        {
          "internalType": "string",
          "name": "_symbol",
          "type": "string"
        }
      ],
      "name": "issueTokenFor",
      "outputs": [
        {
          "internalType": "contract IJBToken",
          "name": "token",
          "type": "address"
        }
      ],
      "stateMutability": "nonpayable",
      "type": "function"
    },
    {
      "inputs": [
        {
          "internalType": "uint256",
          "name": "_projectId",
          "type": "uint256"
        },
        {
          "components": [
            {
              "internalType": "uint256",
              "name": "duration",
              "type": "uint256"
            },
            {
              "internalType": "uint256",
              "name": "weight",
              "type": "uint256"
            },
            {
              "internalType": "uint256",
              "name": "discountRate",
              "type": "uint256"
            },
            {
              "internalType": "contract IJBFundingCycleBallot",
              "name": "ballot",
              "type": "address"
            }
          ],
          "internalType": "struct JBFundingCycleData",
          "name": "_data",
          "type": "tuple"
        },
        {
          "components": [
            {
              "internalType": "uint256",
              "name": "reservedRate",
              "type": "uint256"
            },
            {
              "internalType": "uint256",
              "name": "redemptionRate",
              "type": "uint256"
            },
            {
              "internalType": "uint256",
              "name": "ballotRedemptionRate",
              "type": "uint256"
            },
            {
              "internalType": "bool",
              "name": "pausePay",
              "type": "bool"
            },
            {
              "internalType": "bool",
              "name": "pauseDistributions",
              "type": "bool"
            },
            {
              "internalType": "bool",
              "name": "pauseRedeem",
              "type": "bool"
            },
            {
              "internalType": "bool",
              "name": "pauseMint",
              "type": "bool"
            },
            {
              "internalType": "bool",
              "name": "pauseBurn",
              "type": "bool"
            },
            {
              "internalType": "bool",
              "name": "allowChangeToken",
              "type": "bool"
            },
            {
              "internalType": "bool",
              "name": "allowTerminalMigration",
              "type": "bool"
            },
            {
              "internalType": "bool",
              "name": "allowControllerMigration",
              "type": "bool"
            },
            {
              "internalType": "bool",
              "name": "holdFees",
              "type": "bool"
            },
            {
              "internalType": "bool",
              "name": "useLocalBalanceForRedemptions",
              "type": "bool"
            },
            {
              "internalType": "bool",
              "name": "useDataSourceForPay",
              "type": "bool"
            },
            {
              "internalType": "bool",
              "name": "useDataSourceForRedeem",
              "type": "bool"
            },
            {
              "internalType": "contract IJBFundingCycleDataSource",
              "name": "dataSource",
              "type": "address"
            }
          ],
          "internalType": "struct JBFundingCycleMetadata",
          "name": "_metadata",
          "type": "tuple"
        },
        {
          "internalType": "uint256",
          "name": "_mustStartAtOrAfter",
          "type": "uint256"
        },
        {
          "components": [
            {
              "internalType": "uint256",
              "name": "group",
              "type": "uint256"
            },
            {
              "components": [
                {
                  "internalType": "bool",
                  "name": "preferClaimed",
                  "type": "bool"
                },
                {
                  "internalType": "uint256",
                  "name": "percent",
                  "type": "uint256"
                },
                {
                  "internalType": "uint256",
                  "name": "projectId",
                  "type": "uint256"
                },
                {
                  "internalType": "address payable",
                  "name": "beneficiary",
                  "type": "address"
                },
                {
                  "internalType": "uint256",
                  "name": "lockedUntil",
                  "type": "uint256"
                },
                {
                  "internalType": "contract IJBSplitAllocator",
                  "name": "allocator",
                  "type": "address"
                }
              ],
              "internalType": "struct JBSplit[]",
              "name": "splits",
              "type": "tuple[]"
            }
          ],
          "internalType": "struct JBGroupedSplits[]",
          "name": "_groupedSplits",
          "type": "tuple[]"
        },
        {
          "components": [
            {
              "internalType": "contract IJBPaymentTerminal",
              "name": "terminal",
              "type": "address"
            },
            {
              "internalType": "uint256",
              "name": "distributionLimit",
              "type": "uint256"
            },
            {
              "internalType": "uint256",
              "name": "distributionLimitCurrency",
              "type": "uint256"
            },
            {
              "internalType": "uint256",
              "name": "overflowAllowance",
              "type": "uint256"
            },
            {
              "internalType": "uint256",
              "name": "overflowAllowanceCurrency",
              "type": "uint256"
            }
          ],
          "internalType": "struct JBFundAccessConstraints[]",
          "name": "_fundAccessConstraints",
          "type": "tuple[]"
        },
        {
          "internalType": "contract IJBPaymentTerminal[]",
          "name": "_terminals",
          "type": "address[]"
        }
      ],
      "name": "launchFundingCycleFor",
      "outputs": [
        {
          "internalType": "uint256",
          "name": "configuration",
          "type": "uint256"
        }
      ],
      "stateMutability": "nonpayable",
      "type": "function"
    },
    {
      "inputs": [
        {
          "internalType": "address",
          "name": "_owner",
          "type": "address"
        },
        {
          "components": [
            {
              "internalType": "string",
              "name": "content",
              "type": "string"
            },
            {
              "internalType": "uint256",
              "name": "domain",
              "type": "uint256"
            }
          ],
          "internalType": "struct JBProjectMetadata",
          "name": "_projectMetadata",
          "type": "tuple"
        },
        {
          "components": [
            {
              "internalType": "uint256",
              "name": "duration",
              "type": "uint256"
            },
            {
              "internalType": "uint256",
              "name": "weight",
              "type": "uint256"
            },
            {
              "internalType": "uint256",
              "name": "discountRate",
              "type": "uint256"
            },
            {
              "internalType": "contract IJBFundingCycleBallot",
              "name": "ballot",
              "type": "address"
            }
          ],
          "internalType": "struct JBFundingCycleData",
          "name": "_data",
          "type": "tuple"
        },
        {
          "components": [
            {
              "internalType": "uint256",
              "name": "reservedRate",
              "type": "uint256"
            },
            {
              "internalType": "uint256",
              "name": "redemptionRate",
              "type": "uint256"
            },
            {
              "internalType": "uint256",
              "name": "ballotRedemptionRate",
              "type": "uint256"
            },
            {
              "internalType": "bool",
              "name": "pausePay",
              "type": "bool"
            },
            {
              "internalType": "bool",
              "name": "pauseDistributions",
              "type": "bool"
            },
            {
              "internalType": "bool",
              "name": "pauseRedeem",
              "type": "bool"
            },
            {
              "internalType": "bool",
              "name": "pauseMint",
              "type": "bool"
            },
            {
              "internalType": "bool",
              "name": "pauseBurn",
              "type": "bool"
            },
            {
              "internalType": "bool",
              "name": "allowChangeToken",
              "type": "bool"
            },
            {
              "internalType": "bool",
              "name": "allowTerminalMigration",
              "type": "bool"
            },
            {
              "internalType": "bool",
              "name": "allowControllerMigration",
              "type": "bool"
            },
            {
              "internalType": "bool",
              "name": "holdFees",
              "type": "bool"
            },
            {
              "internalType": "bool",
              "name": "useLocalBalanceForRedemptions",
              "type": "bool"
            },
            {
              "internalType": "bool",
              "name": "useDataSourceForPay",
              "type": "bool"
            },
            {
              "internalType": "bool",
              "name": "useDataSourceForRedeem",
              "type": "bool"
            },
            {
              "internalType": "contract IJBFundingCycleDataSource",
              "name": "dataSource",
              "type": "address"
            }
          ],
          "internalType": "struct JBFundingCycleMetadata",
          "name": "_metadata",
          "type": "tuple"
        },
        {
          "internalType": "uint256",
          "name": "_mustStartAtOrAfter",
          "type": "uint256"
        },
        {
          "components": [
            {
              "internalType": "uint256",
              "name": "group",
              "type": "uint256"
            },
            {
              "components": [
                {
                  "internalType": "bool",
                  "name": "preferClaimed",
                  "type": "bool"
                },
                {
                  "internalType": "uint256",
                  "name": "percent",
                  "type": "uint256"
                },
                {
                  "internalType": "uint256",
                  "name": "projectId",
                  "type": "uint256"
                },
                {
                  "internalType": "address payable",
                  "name": "beneficiary",
                  "type": "address"
                },
                {
                  "internalType": "uint256",
                  "name": "lockedUntil",
                  "type": "uint256"
                },
                {
                  "internalType": "contract IJBSplitAllocator",
                  "name": "allocator",
                  "type": "address"
                }
              ],
              "internalType": "struct JBSplit[]",
              "name": "splits",
              "type": "tuple[]"
            }
          ],
          "internalType": "struct JBGroupedSplits[]",
          "name": "_groupedSplits",
          "type": "tuple[]"
        },
        {
          "components": [
            {
              "internalType": "contract IJBPaymentTerminal",
              "name": "terminal",
              "type": "address"
            },
            {
              "internalType": "uint256",
              "name": "distributionLimit",
              "type": "uint256"
            },
            {
              "internalType": "uint256",
              "name": "distributionLimitCurrency",
              "type": "uint256"
            },
            {
              "internalType": "uint256",
              "name": "overflowAllowance",
              "type": "uint256"
            },
            {
              "internalType": "uint256",
              "name": "overflowAllowanceCurrency",
              "type": "uint256"
            }
          ],
          "internalType": "struct JBFundAccessConstraints[]",
          "name": "_fundAccessConstraints",
          "type": "tuple[]"
        },
        {
          "internalType": "contract IJBPaymentTerminal[]",
          "name": "_terminals",
          "type": "address[]"
        }
      ],
      "name": "launchProjectFor",
      "outputs": [
        {
          "internalType": "uint256",
          "name": "projectId",
          "type": "uint256"
        }
      ],
      "stateMutability": "nonpayable",
      "type": "function"
    },
    {
      "inputs": [
        {
          "internalType": "uint256",
          "name": "_projectId",
          "type": "uint256"
        },
        {
          "internalType": "contract IJBController",
          "name": "_to",
          "type": "address"
        }
      ],
      "name": "migrate",
      "outputs": [],
      "stateMutability": "nonpayable",
      "type": "function"
    },
    {
      "inputs": [
        {
          "internalType": "uint256",
          "name": "_projectId",
          "type": "uint256"
        },
        {
          "internalType": "uint256",
          "name": "_tokenCount",
          "type": "uint256"
        },
        {
          "internalType": "address",
          "name": "_beneficiary",
          "type": "address"
        },
        {
          "internalType": "string",
          "name": "_memo",
          "type": "string"
        },
        {
          "internalType": "bool",
          "name": "_preferClaimedTokens",
          "type": "bool"
        },
        {
          "internalType": "bool",
          "name": "_useReservedRate",
          "type": "bool"
        }
      ],
      "name": "mintTokensOf",
      "outputs": [
        {
          "internalType": "uint256",
          "name": "beneficiaryTokenCount",
          "type": "uint256"
        }
      ],
      "stateMutability": "nonpayable",
      "type": "function"
    },
    {
      "inputs": [],
      "name": "operatorStore",
      "outputs": [
        {
          "internalType": "contract IJBOperatorStore",
          "name": "",
          "type": "address"
        }
      ],
      "stateMutability": "view",
      "type": "function"
    },
    {
      "inputs": [
        {
          "internalType": "uint256",
          "name": "_projectId",
          "type": "uint256"
        },
        {
          "internalType": "uint256",
          "name": "_configuration",
          "type": "uint256"
        },
        {
          "internalType": "contract IJBPaymentTerminal",
          "name": "_terminal",
          "type": "address"
        }
      ],
      "name": "overflowAllowanceCurrencyOf",
      "outputs": [
        {
          "internalType": "uint256",
          "name": "",
          "type": "uint256"
        }
      ],
      "stateMutability": "view",
      "type": "function"
    },
    {
      "inputs": [
        {
          "internalType": "uint256",
          "name": "_projectId",
          "type": "uint256"
        },
        {
          "internalType": "uint256",
          "name": "_configuration",
          "type": "uint256"
        },
        {
          "internalType": "contract IJBPaymentTerminal",
          "name": "_terminal",
          "type": "address"
        }
      ],
      "name": "overflowAllowanceOf",
      "outputs": [
        {
          "internalType": "uint256",
          "name": "",
          "type": "uint256"
        }
      ],
      "stateMutability": "view",
      "type": "function"
    },
    {
      "inputs": [
        {
          "internalType": "uint256",
          "name": "_projectId",
          "type": "uint256"
        },
        {
          "internalType": "contract IJBController",
          "name": "",
          "type": "address"
        }
      ],
      "name": "prepForMigrationOf",
      "outputs": [],
      "stateMutability": "nonpayable",
      "type": "function"
    },
    {
      "inputs": [],
      "name": "projects",
      "outputs": [
        {
          "internalType": "contract IJBProjects",
          "name": "",
          "type": "address"
        }
      ],
      "stateMutability": "view",
      "type": "function"
    },
    {
      "inputs": [
        {
          "internalType": "uint256",
          "name": "_projectId",
          "type": "uint256"
        },
        {
          "components": [
            {
              "internalType": "uint256",
              "name": "duration",
              "type": "uint256"
            },
            {
              "internalType": "uint256",
              "name": "weight",
              "type": "uint256"
            },
            {
              "internalType": "uint256",
              "name": "discountRate",
              "type": "uint256"
            },
            {
              "internalType": "contract IJBFundingCycleBallot",
              "name": "ballot",
              "type": "address"
            }
          ],
          "internalType": "struct JBFundingCycleData",
          "name": "_data",
          "type": "tuple"
        },
        {
          "components": [
            {
              "internalType": "uint256",
              "name": "reservedRate",
              "type": "uint256"
            },
            {
              "internalType": "uint256",
              "name": "redemptionRate",
              "type": "uint256"
            },
            {
              "internalType": "uint256",
              "name": "ballotRedemptionRate",
              "type": "uint256"
            },
            {
              "internalType": "bool",
              "name": "pausePay",
              "type": "bool"
            },
            {
              "internalType": "bool",
              "name": "pauseDistributions",
              "type": "bool"
            },
            {
              "internalType": "bool",
              "name": "pauseRedeem",
              "type": "bool"
            },
            {
              "internalType": "bool",
              "name": "pauseMint",
              "type": "bool"
            },
            {
              "internalType": "bool",
              "name": "pauseBurn",
              "type": "bool"
            },
            {
              "internalType": "bool",
              "name": "allowChangeToken",
              "type": "bool"
            },
            {
              "internalType": "bool",
              "name": "allowTerminalMigration",
              "type": "bool"
            },
            {
              "internalType": "bool",
              "name": "allowControllerMigration",
              "type": "bool"
            },
            {
              "internalType": "bool",
              "name": "holdFees",
              "type": "bool"
            },
            {
              "internalType": "bool",
              "name": "useLocalBalanceForRedemptions",
              "type": "bool"
            },
            {
              "internalType": "bool",
              "name": "useDataSourceForPay",
              "type": "bool"
            },
            {
              "internalType": "bool",
              "name": "useDataSourceForRedeem",
              "type": "bool"
            },
            {
              "internalType": "contract IJBFundingCycleDataSource",
              "name": "dataSource",
              "type": "address"
            }
          ],
          "internalType": "struct JBFundingCycleMetadata",
          "name": "_metadata",
          "type": "tuple"
        },
        {
          "internalType": "uint256",
          "name": "_mustStartAtOrAfter",
          "type": "uint256"
        },
        {
          "components": [
            {
              "internalType": "uint256",
              "name": "group",
              "type": "uint256"
            },
            {
              "components": [
                {
                  "internalType": "bool",
                  "name": "preferClaimed",
                  "type": "bool"
                },
                {
                  "internalType": "uint256",
                  "name": "percent",
                  "type": "uint256"
                },
                {
                  "internalType": "uint256",
                  "name": "projectId",
                  "type": "uint256"
                },
                {
                  "internalType": "address payable",
                  "name": "beneficiary",
                  "type": "address"
                },
                {
                  "internalType": "uint256",
                  "name": "lockedUntil",
                  "type": "uint256"
                },
                {
                  "internalType": "contract IJBSplitAllocator",
                  "name": "allocator",
                  "type": "address"
                }
              ],
              "internalType": "struct JBSplit[]",
              "name": "splits",
              "type": "tuple[]"
            }
          ],
          "internalType": "struct JBGroupedSplits[]",
          "name": "_groupedSplits",
          "type": "tuple[]"
        },
        {
          "components": [
            {
              "internalType": "contract IJBPaymentTerminal",
              "name": "terminal",
              "type": "address"
            },
            {
              "internalType": "uint256",
              "name": "distributionLimit",
              "type": "uint256"
            },
            {
              "internalType": "uint256",
              "name": "distributionLimitCurrency",
              "type": "uint256"
            },
            {
              "internalType": "uint256",
              "name": "overflowAllowance",
              "type": "uint256"
            },
            {
              "internalType": "uint256",
              "name": "overflowAllowanceCurrency",
              "type": "uint256"
            }
          ],
          "internalType": "struct JBFundAccessConstraints[]",
          "name": "_fundAccessConstraints",
          "type": "tuple[]"
        }
      ],
      "name": "reconfigureFundingCyclesOf",
      "outputs": [
        {
          "internalType": "uint256",
          "name": "",
          "type": "uint256"
        }
      ],
      "stateMutability": "nonpayable",
      "type": "function"
    },
    {
      "inputs": [
        {
          "internalType": "uint256",
          "name": "_projectId",
          "type": "uint256"
        },
        {
          "internalType": "uint256",
          "name": "_reservedRate",
          "type": "uint256"
        }
      ],
      "name": "reservedTokenBalanceOf",
      "outputs": [
        {
          "internalType": "uint256",
          "name": "",
          "type": "uint256"
        }
      ],
      "stateMutability": "view",
      "type": "function"
    },
    {
      "inputs": [],
      "name": "splitsStore",
      "outputs": [
        {
          "internalType": "contract IJBSplitsStore",
          "name": "",
          "type": "address"
        }
      ],
      "stateMutability": "view",
      "type": "function"
    },
    {
      "inputs": [],
      "name": "tokenStore",
      "outputs": [
        {
          "internalType": "contract IJBTokenStore",
          "name": "",
          "type": "address"
        }
      ],
      "stateMutability": "view",
      "type": "function"
    }
  ],
  "bytecode": {
    "object": "0x6101406040523480156200001257600080fd5b506040516200487a3803806200487a83398101604081905262000035916200007b565b6001600160601b0319606096871b8116608052600160005594861b851660a05292851b84166101205290841b831660c052831b821660e05290911b166101005262000128565b60008060008060008060c087890312156200009557600080fd5b8651620000a2816200010f565b6020880151909650620000b5816200010f565b6040880151909550620000c8816200010f565b6060880151909450620000db816200010f565b6080880151909350620000ee816200010f565b60a088015190925062000101816200010f565b809150509295509295509295565b6001600160a01b03811681146200012557600080fd5b50565b60805160601c60a05160601c60c05160601c60e05160601c6101005160601c6101205160601c61457d620002fd600039600081816103a80152818161048d0152818161078a01528181610d1f015281816110d40152818161138b015281816114fb0152818161158c01528181611b3301528181611bc601528181611d29015261202801526000818161018f01528181612a8f0152612edc0152600081816102fa0152818161086f01528181610c7401528181610dd701528181611256015281816121330152818161247e01528181612586015281816126cf015281816128640152612fba0152600081816102d3015281816106d201528181610b940152818161118e01528181611a7401528181611f700152818161263001526129a701526000818161035a0152818161097401528181610e85015281816114530152818161161b0152818161185701528181611c7e01528181612260015281816127a6015261302e01526000818161038101528181610544015281816105ef01528181610a2401528181610acf01528181610f3501528181610fe0015281816116cb0152818161177601528181611907015281816119b201528181611dd801528181611e830152818161231001526123bb015261457d6000f3fe608060405234801561001057600080fd5b50600436106101375760003560e01c8063557e7155116100b85780638b79543c1161007c5780638b79543c14610355578063ad007d631461037c578063c41c2f24146103a3578063d1013073146103ca578063e867c59c146103dd578063f033b3b4146103f057600080fd5b8063557e7155146102ce57806361930630146102f5578063628d92881461031c5780636e5c86141461032f5780638ae9c07b1461034257600080fd5b8063405b84fa116100ff578063405b84fa146101dc5780634e9d00d2146101ef578063507dac011461022f5780635172a2bf146102425780635578dfd71461028857600080fd5b8063073d499c1461013c5780631665bc0f14610162578063229bb824146101775780632bdfe0041461018a5780633e8c615b146101c9575b600080fd5b61014f61014a366004613ecc565b610403565b6040519081526020015b60405180910390f35b6101756101703660046137e8565b610439565b005b610175610185366004613b63565b610936565b6101b17f000000000000000000000000000000000000000000000000000000000000000081565b6040516001600160a01b039091168152602001610159565b6101756101d7366004613b33565b610cff565b6101756101ea366004613b33565b610e6f565b61014f6101fd366004613ecc565b60009283526002602090815260408085209385529281528284206001600160a01b039290921684525290205460f81c90565b61014f61023d3660046136fa565b611439565b61014f610250366004613ecc565b60009283526003602090815260408085209385529281528284206001600160a01b03929092168452529020546001600160f81b031690565b61014f610296366004613ecc565b60009283526002602090815260408085209385529281528284206001600160a01b03929092168452529020546001600160f81b031690565b6101b17f000000000000000000000000000000000000000000000000000000000000000081565b6101b17f000000000000000000000000000000000000000000000000000000000000000081565b61014f61032a366004613cbc565b611602565b61014f61033d366004613d58565b61183e565b61014f610350366004613e3d565b611c3e565b6101b17f000000000000000000000000000000000000000000000000000000000000000081565b6101b17f000000000000000000000000000000000000000000000000000000000000000081565b6101b17f000000000000000000000000000000000000000000000000000000000000000081565b6101b16103d8366004613ba5565b612247565b61014f6103eb366004613c1e565b61251a565b61014f6103fe366004613e1b565b61255a565b600083815260036020908152604080832085845282528083206001600160a01b038516845290915290205460f81c5b9392505050565b600260005414156104655760405162461bcd60e51b815260040161045c906140f1565b60405180910390fd5b6002600055604051636e49181f60e01b81526004810186905233602482015286908690600a907f00000000000000000000000000000000000000000000000000000000000000006001600160a01b031690636e49181f9060440160206040518083038186803b1580156104d757600080fd5b505afa1580156104eb573d6000803e3d6000fd5b505050506040513d601f19601f8201168201806040525081019061050f919061395e565b801580156105265750336001600160a01b03851614155b80156105d1575060405163c161c93f60e01b81526001600160a01b037f0000000000000000000000000000000000000000000000000000000000000000169063c161c93f9061057f903390889088908890600401613f6b565b60206040518083038186803b15801561059757600080fd5b505afa1580156105ab573d6000803e3d6000fd5b505050506040513d601f19601f820116820180604052508101906105cf919061395e565b155b801561067d575060405163c161c93f60e01b81526001600160a01b037f0000000000000000000000000000000000000000000000000000000000000000169063c161c93f9061062b90339088906000908890600401613f6b565b60206040518083038186803b15801561064357600080fd5b505afa158015610657573d6000803e3d6000fd5b505050506040513d601f19601f8201168201806040525081019061067b919061395e565b155b1561069b5760405163075fd2b160e01b815260040160405180910390fd5b876106b957604051637b38547b60e01b815260040160405180910390fd5b6040516321d1336160e11b8152600481018a90526000907f00000000000000000000000000000000000000000000000000000000000000006001600160a01b0316906343a266c2906024016101206040518083038186803b15801561071d57600080fd5b505afa158015610731573d6000803e3d6000fd5b505050506040513d601f19601f820116820180604052508101906107559190613a9a565b610100810151909150603c1c600190811614801561080e5750604051636e49181f60e01b8152600481018b90523360248201527f00000000000000000000000000000000000000000000000000000000000000006001600160a01b031690636e49181f9060440160206040518083038186803b1580156107d457600080fd5b505afa1580156107e8573d6000803e3d6000fd5b505050506040513d601f19601f8201168201806040525081019061080c919061395e565b155b1561082c57604051630f1490e360e31b815260040160405180910390fd5b60008a815260016020526040902054610846908a9061443b565b60008b81526001602052604090819020919091555163906ebd0f60e01b81526001600160a01b037f0000000000000000000000000000000000000000000000000000000000000000169063906ebd0f906108aa908e908e908e908c90600401614014565b600060405180830381600087803b1580156108c457600080fd5b505af11580156108d8573d6000803e3d6000fd5b50505050898b6001600160a01b03167fdf04e13ee4fcd48a81ab2fd114757093740a3efa9b6475d86e05878b4c59d0798b8b8b3360405161091c94939291906141a0565b60405180910390a350506001600055505050505050505050565b600260005414156109595760405162461bcd60e51b815260040161045c906140f1565b60026000556040516331a9108f60e11b8152600481018490527f00000000000000000000000000000000000000000000000000000000000000006001600160a01b031690636352211e9060240160206040518083038186803b1580156109be57600080fd5b505afa1580156109d2573d6000803e3d6000fd5b505050506040513d601f19601f820116820180604052508101906109f691906136dd565b836008336001600160a01b03841614801590610ab1575060405163c161c93f60e01b81526001600160a01b037f0000000000000000000000000000000000000000000000000000000000000000169063c161c93f90610a5f903390879087908790600401613f6b565b60206040518083038186803b158015610a7757600080fd5b505afa158015610a8b573d6000803e3d6000fd5b505050506040513d601f19601f82011682018060405250810190610aaf919061395e565b155b8015610b5d575060405163c161c93f60e01b81526001600160a01b037f0000000000000000000000000000000000000000000000000000000000000000169063c161c93f90610b0b90339087906000908790600401613f6b565b60206040518083038186803b158015610b2357600080fd5b505afa158015610b37573d6000803e3d6000fd5b505050506040513d601f19601f82011682018060405250810190610b5b919061395e565b155b15610b7b5760405163075fd2b160e01b815260040160405180910390fd5b6040516321d1336160e11b8152600481018790526000907f00000000000000000000000000000000000000000000000000000000000000006001600160a01b0316906343a266c2906024016101206040518083038186803b158015610bdf57600080fd5b505afa158015610bf3573d6000803e3d6000fd5b505050506040513d601f19601f82011682018060405250810190610c179190613a9a565b610100810151909150603d1c600190811614610c4657604051632ebc601360e01b815260040160405180910390fd5b604051630afc98ef60e31b8152600481018890526001600160a01b03878116602483015286811660448301527f000000000000000000000000000000000000000000000000000000000000000016906357e4c77890606401602060405180830381600087803b158015610cb857600080fd5b505af1158015610ccc573d6000803e3d6000fd5b505050506040513d601f19601f82011682018060405250810190610cf091906136dd565b50506001600055505050505050565b604051632eec7b5560e11b81526004810183905230906001600160a01b037f00000000000000000000000000000000000000000000000000000000000000001690635dd8f6aa9060240160206040518083038186803b158015610d6157600080fd5b505afa158015610d75573d6000803e3d6000fd5b505050506040513d601f19601f82011682018060405250810190610d9991906136dd565b6001600160a01b03161415610dc157604051637e16712d60e11b815260040160405180910390fd5b6040516375b0d9cd60e01b8152600481018390527f00000000000000000000000000000000000000000000000000000000000000006001600160a01b0316906375b0d9cd9060240160206040518083038186803b158015610e2157600080fd5b505afa158015610e35573d6000803e3d6000fd5b505050506040513d601f19601f82011682018060405250810190610e599190613b1a565b6000928352600160205260409092209190915550565b6040516331a9108f60e11b8152600481018390527f00000000000000000000000000000000000000000000000000000000000000006001600160a01b031690636352211e9060240160206040518083038186803b158015610ecf57600080fd5b505afa158015610ee3573d6000803e3d6000fd5b505050506040513d601f19601f82011682018060405250810190610f0791906136dd565b826003336001600160a01b03841614801590610fc2575060405163c161c93f60e01b81526001600160a01b037f0000000000000000000000000000000000000000000000000000000000000000169063c161c93f90610f70903390879087908790600401613f6b565b60206040518083038186803b158015610f8857600080fd5b505afa158015610f9c573d6000803e3d6000fd5b505050506040513d601f19601f82011682018060405250810190610fc0919061395e565b155b801561106e575060405163c161c93f60e01b81526001600160a01b037f0000000000000000000000000000000000000000000000000000000000000000169063c161c93f9061101c90339087906000908790600401613f6b565b60206040518083038186803b15801561103457600080fd5b505afa158015611048573d6000803e3d6000fd5b505050506040513d601f19601f8201168201806040525081019061106c919061395e565b155b1561108c5760405163075fd2b160e01b815260040160405180910390fd5b600260005414156110af5760405162461bcd60e51b815260040161045c906140f1565b6002600055604051632eec7b5560e11b81526004810186905230906001600160a01b037f00000000000000000000000000000000000000000000000000000000000000001690635dd8f6aa9060240160206040518083038186803b15801561111657600080fd5b505afa15801561112a573d6000803e3d6000fd5b505050506040513d601f19601f8201168201806040525081019061114e91906136dd565b6001600160a01b031614611175576040516314a80ba960e01b815260040160405180910390fd5b6040516321d1336160e11b8152600481018690526000907f00000000000000000000000000000000000000000000000000000000000000006001600160a01b0316906343a266c2906024016101206040518083038186803b1580156111d957600080fd5b505afa1580156111ed573d6000803e3d6000fd5b505050506040513d601f19601f820116820180604052508101906112119190613a9a565b610100810151909150603f1c600190811614611240576040516346ace3f960e01b815260040160405180910390fd5b6040516375b0d9cd60e01b8152600481018790527f00000000000000000000000000000000000000000000000000000000000000006001600160a01b0316906375b0d9cd9060240160206040518083038186803b1580156112a057600080fd5b505afa1580156112b4573d6000803e3d6000fd5b505050506040513d601f19601f820116820180604052508101906112d89190613b1a565b6000878152600160205260409020541461130757611305866040518060200160405280600081525061260d565b505b604051633e8c615b60e01b8152600481018790523060248201526001600160a01b03861690633e8c615b90604401600060405180830381600087803b15801561134f57600080fd5b505af1158015611363573d6000803e3d6000fd5b50506040516338a73f9960e11b8152600481018990526001600160a01b0388811660248301527f000000000000000000000000000000000000000000000000000000000000000016925063714e7f329150604401600060405180830381600087803b1580156113d157600080fd5b505af11580156113e5573d6000803e3d6000fd5b5050604080516001600160a01b03891681523360208201528993507f01f954abace731a88ab86e71186040cc2be49fe517ea06bc0d24f25b82b8345692500160405180910390a25050600160005550505050565b6040516303336c3d60e51b81526000906001600160a01b037f0000000000000000000000000000000000000000000000000000000000000000169063666d87a09061148a908c908c90600401613f94565b602060405180830381600087803b1580156114a457600080fd5b505af11580156114b8573d6000803e3d6000fd5b505050506040513d601f19601f820116820180604052508101906114dc9190613b1a565b6040516338a73f9960e11b8152600481018290523060248201529091507f00000000000000000000000000000000000000000000000000000000000000006001600160a01b03169063714e7f3290604401600060405180830381600087803b15801561154757600080fd5b505af115801561155b573d6000803e3d6000fd5b5050505061156d818888888888612927565b508151156115f657604051630e6d1dff60e11b81526001600160a01b037f00000000000000000000000000000000000000000000000000000000000000001690631cda3bfe906115c39084908690600401614156565b600060405180830381600087803b1580156115dd57600080fd5b505af11580156115f1573d6000803e3d6000fd5b505050505b98975050505050505050565b6040516331a9108f60e11b8152600481018790526000907f00000000000000000000000000000000000000000000000000000000000000006001600160a01b031690636352211e9060240160206040518083038186803b15801561166557600080fd5b505afa158015611679573d6000803e3d6000fd5b505050506040513d601f19601f8201168201806040525081019061169d91906136dd565b876001336001600160a01b03841614801590611758575060405163c161c93f60e01b81526001600160a01b037f0000000000000000000000000000000000000000000000000000000000000000169063c161c93f90611706903390879087908790600401613f6b565b60206040518083038186803b15801561171e57600080fd5b505afa158015611732573d6000803e3d6000fd5b505050506040513d601f19601f82011682018060405250810190611756919061395e565b155b8015611804575060405163c161c93f60e01b81526001600160a01b037f0000000000000000000000000000000000000000000000000000000000000000169063c161c93f906117b290339087906000908790600401613f6b565b60206040518083038186803b1580156117ca57600080fd5b505afa1580156117de573d6000803e3d6000fd5b505050506040513d601f19601f82011682018060405250810190611802919061395e565b155b156118225760405163075fd2b160e01b815260040160405180910390fd5b6118308a8a8a8a8a8a612927565b9a9950505050505050505050565b6040516331a9108f60e11b8152600481018890526000907f00000000000000000000000000000000000000000000000000000000000000006001600160a01b031690636352211e9060240160206040518083038186803b1580156118a157600080fd5b505afa1580156118b5573d6000803e3d6000fd5b505050506040513d601f19601f820116820180604052508101906118d991906136dd565b886001336001600160a01b03841614801590611994575060405163c161c93f60e01b81526001600160a01b037f0000000000000000000000000000000000000000000000000000000000000000169063c161c93f90611942903390879087908790600401613f6b565b60206040518083038186803b15801561195a57600080fd5b505afa15801561196e573d6000803e3d6000fd5b505050506040513d601f19601f82011682018060405250810190611992919061395e565b155b8015611a40575060405163c161c93f60e01b81526001600160a01b037f0000000000000000000000000000000000000000000000000000000000000000169063c161c93f906119ee90339087906000908790600401613f6b565b60206040518083038186803b158015611a0657600080fd5b505afa158015611a1a573d6000803e3d6000fd5b505050506040513d601f19601f82011682018060405250810190611a3e919061395e565b155b15611a5e5760405163075fd2b160e01b815260040160405180910390fd5b604051632cee6deb60e01b8152600481018c90527f00000000000000000000000000000000000000000000000000000000000000006001600160a01b031690632cee6deb9060240160206040518083038186803b158015611abe57600080fd5b505afa158015611ad2573d6000803e3d6000fd5b505050506040513d601f19601f82011682018060405250810190611af69190613b1a565b15611b175760405160016217a1f760e11b0319815260040160405180910390fd5b6040516338a73f9960e11b8152600481018c90523060248201527f00000000000000000000000000000000000000000000000000000000000000006001600160a01b03169063714e7f3290604401600060405180830381600087803b158015611b7f57600080fd5b505af1158015611b93573d6000803e3d6000fd5b50505050611ba58b8b8b8b8b8b612927565b855190945015611c3057604051630e6d1dff60e11b81526001600160a01b037f00000000000000000000000000000000000000000000000000000000000000001690631cda3bfe90611bfd908e908990600401614156565b600060405180830381600087803b158015611c1757600080fd5b505af1158015611c2b573d6000803e3d6000fd5b505050505b505050979650505050505050565b600060026000541415611c635760405162461bcd60e51b815260040161045c906140f1565b60026000556040516331a9108f60e11b8152600481018990527f00000000000000000000000000000000000000000000000000000000000000006001600160a01b031690636352211e9060240160206040518083038186803b158015611cc857600080fd5b505afa158015611cdc573d6000803e3d6000fd5b505050506040513d601f19601f82011682018060405250810190611d0091906136dd565b604051636e49181f60e01b8152600481018a905233602482015289906009906001600160a01b037f00000000000000000000000000000000000000000000000000000000000000001690636e49181f9060440160206040518083038186803b158015611d6b57600080fd5b505afa158015611d7f573d6000803e3d6000fd5b505050506040513d601f19601f82011682018060405250810190611da3919061395e565b80158015611dba5750336001600160a01b03851614155b8015611e65575060405163c161c93f60e01b81526001600160a01b037f0000000000000000000000000000000000000000000000000000000000000000169063c161c93f90611e13903390889088908890600401613f6b565b60206040518083038186803b158015611e2b57600080fd5b505afa158015611e3f573d6000803e3d6000fd5b505050506040513d601f19601f82011682018060405250810190611e63919061395e565b155b8015611f11575060405163c161c93f60e01b81526001600160a01b037f0000000000000000000000000000000000000000000000000000000000000000169063c161c93f90611ebf90339088906000908890600401613f6b565b60206040518083038186803b158015611ed757600080fd5b505afa158015611eeb573d6000803e3d6000fd5b505050506040513d601f19601f82011682018060405250810190611f0f919061395e565b155b15611f2f5760405163075fd2b160e01b815260040160405180910390fd5b8a611f4d576040516327f44f9560e21b815260040160405180910390fd5b6040516321d1336160e11b8152600481018d905260009081906001600160a01b037f000000000000000000000000000000000000000000000000000000000000000016906343a266c2906024016101206040518083038186803b158015611fb357600080fd5b505afa158015611fc7573d6000803e3d6000fd5b505050506040513d601f19601f82011682018060405250810190611feb9190613a9a565b610100810151909150603b1c60019081161480156120a45750604051636e49181f60e01b8152600481018f90523360248201526001600160a01b037f00000000000000000000000000000000000000000000000000000000000000001690636e49181f9060440160206040518083038186803b15801561206a57600080fd5b505afa15801561207e573d6000803e3d6000fd5b505050506040513d601f19601f820116820180604052508101906120a2919061395e565b155b156120c257604051638c5fb46160e01b815260040160405180910390fd5b876120ce5760006120dc565b61010081015160081c61ffff165b9150506127108114156121175760008d815260016020526040902054612103908d9061443b565b60008e8152600160205260409020556121e8565b61212f8c6121278361271061447a565b612710612d65565b95507f00000000000000000000000000000000000000000000000000000000000000006001600160a01b031663ceddd3e48c8f898c6040518563ffffffff1660e01b81526004016121839493929190614014565b600060405180830381600087803b15801561219d57600080fd5b505af11580156121b1573d6000803e3d6000fd5b5050505080600014156121e85760008d8152600160205260409020546121d89087906143e2565b60008e8152600160205260409020555b8b8d8c6001600160a01b03167f795e99b6853d7eafe7c0ccc6fb02e87770a8284e2be638ef327b6347587bde2c8d8d863360405161222994939291906140bc565b60405180910390a45050600160005550919998505050505050505050565b6040516331a9108f60e11b8152600481018690526000907f00000000000000000000000000000000000000000000000000000000000000006001600160a01b031690636352211e9060240160206040518083038186803b1580156122aa57600080fd5b505afa1580156122be573d6000803e3d6000fd5b505050506040513d601f19601f820116820180604052508101906122e291906136dd565b866007336001600160a01b0384161480159061239d575060405163c161c93f60e01b81526001600160a01b037f0000000000000000000000000000000000000000000000000000000000000000169063c161c93f9061234b903390879087908790600401613f6b565b60206040518083038186803b15801561236357600080fd5b505afa158015612377573d6000803e3d6000fd5b505050506040513d601f19601f8201168201806040525081019061239b919061395e565b155b8015612449575060405163c161c93f60e01b81526001600160a01b037f0000000000000000000000000000000000000000000000000000000000000000169063c161c93f906123f790339087906000908790600401613f6b565b60206040518083038186803b15801561240f57600080fd5b505afa158015612423573d6000803e3d6000fd5b505050506040513d601f19601f82011682018060405250810190612447919061395e565b155b156124675760405163075fd2b160e01b815260040160405180910390fd5b60405163a7f2a70b60e01b81526001600160a01b037f0000000000000000000000000000000000000000000000000000000000000000169063a7f2a70b906124bb908c908c908c908c908c906004016141d3565b602060405180830381600087803b1580156124d557600080fd5b505af11580156124e9573d6000803e3d6000fd5b505050506040513d601f19601f8201168201806040525081019061250d91906136dd565b9998505050505050505050565b60006002600054141561253f5760405162461bcd60e51b815260040161045c906140f1565b600260005561254e838361260d565b60016000559392505050565b6000828152600160205260408082205490516375b0d9cd60e01b815260048101859052610432919084907f00000000000000000000000000000000000000000000000000000000000000006001600160a01b0316906375b0d9cd9060240160206040518083038186803b1580156125d057600080fd5b505afa1580156125e4573d6000803e3d6000fd5b505050506040513d601f19601f820116820180604052508101906126089190613b1a565b612e33565b6040516321d1336160e11b81526004810183905260009081906001600160a01b037f000000000000000000000000000000000000000000000000000000000000000016906343a266c2906024016101206040518083038186803b15801561267357600080fd5b505afa158015612687573d6000803e3d6000fd5b505050506040513d601f19601f820116820180604052508101906126ab9190613a9a565b6040516375b0d9cd60e01b8152600481018690529091506000906001600160a01b037f000000000000000000000000000000000000000000000000000000000000000016906375b0d9cd9060240160206040518083038186803b15801561271157600080fd5b505afa158015612725573d6000803e3d6000fd5b505050506040513d601f19601f820116820180604052508101906127499190613b1a565b6000868152600160205260409020546101008401519192506127729160081c61ffff1683612e33565b925061277e8382614423565b6000868152600160205260408082209290925590516331a9108f60e11b8152600481018790527f00000000000000000000000000000000000000000000000000000000000000006001600160a01b031690636352211e9060240160206040518083038186803b1580156127f057600080fd5b505afa158015612804573d6000803e3d6000fd5b505050506040513d601f19601f8201168201806040525081019061282891906136dd565b9050600084156128425761283d878587612ead565b612845565b60005b905080156128d3576040516333b774f960e21b81526001600160a01b037f0000000000000000000000000000000000000000000000000000000000000000169063ceddd3e4906128a09085908b908690600090600401614014565b600060405180830381600087803b1580156128ba57600080fd5b505af11580156128ce573d6000803e3d6000fd5b505050505b86846000015185602001517fb12d7a78048433f69fe6d30145bf08aad8e82985b96e4db6d5c6a7e94d57086e8589868c3360405161291595949392919061403c565b60405180910390a45050505092915050565b60006127108535111561294d57604051635623289560e01b815260040160405180910390fd5b6127108560200135111561297457604051639db9ee9360e01b815260040160405180910390fd5b6127108560400135111561299b57604051636edf8de360e11b815260040160405180910390fd5b60006001600160a01b037f00000000000000000000000000000000000000000000000000000000000000001663a249d42589896129e56129e0368c90038c018c61397b565b613203565b896040518563ffffffff1660e01b8152600401612a059493929190614200565b61012060405180830381600087803b158015612a2057600080fd5b505af1158015612a34573d6000803e3d6000fd5b505050506040513d601f19601f82011682018060405250810190612a589190613a9a565b905060005b8451811015612b62576000858281518110612a7a57612a7a6144f5565b602002602001015160200151511115612b50577f00000000000000000000000000000000000000000000000000000000000000006001600160a01b0316639acff5ac8a8460200151888581518110612ad457612ad46144f5565b602002602001015160000151898681518110612af257612af26144f5565b6020026020010151602001516040518563ffffffff1660e01b8152600401612b1d9493929190614254565b600060405180830381600087803b158015612b3757600080fd5b505af1158015612b4b573d6000803e3d6000fd5b505050505b80612b5a81614491565b915050612a5d565b5060005b8351811015612d53576000848281518110612b8357612b836144f5565b602002602001015190506001600160f81b03801681602001511115612bbb57604051634ae4b63560e11b815260040160405180910390fd5b604081015160ff1015612be15760405163f90c7b4b60e01b815260040160405180910390fd5b60608101516001600160f81b031015612c0d57604051632d7e1d6560e21b815260040160405180910390fd5b608081015160ff1015612c3357604051634857a6d360e11b815260040160405180910390fd5b602081015115612c7f5760408181015160208084015160008e815260028352848120888401518252835284812086516001600160a01b0316825290925292902060f89190911b90911790555b606081015115612ccb576080810151606082015160008c8152600360209081526040808320888301518452825280832086516001600160a01b03168452909152902060f89290921b1790555b82516020808501516040805185516001600160a01b031681528584015193810193909352808501519083015260608085015190830152608080850151908301523360a08301528c92917e506dbcdf2e70275bf246b8f39ca18ebea55b7253498928a3de5c5bae26bd849060c00160405180910390a45080612d4b81614491565b915050612b66565b506020015190505b9695505050505050565b600080806000198587098587029250828110838203039150508060001415612da057838281612d9657612d966144df565b0492505050610432565b838110612dca57604051631dcf306360e21b8152600481018290526024810185905260440161045c565b60008486880960026001871981018816978890046003810283188082028403028082028403028082028403028082028403028082028403029081029092039091026000889003889004909101858311909403939093029303949094049190911702949350505050565b6000806000851215612e5757612e48856144ac565b612e529084614423565b612e61565b612e61858461447a565b905080612e72576000915050610432565b612710841415612e83579050610432565b80612e9a81612710612e95888261447a565b612d65565b612ea4919061447a565b95945050505050565b60208201516040516369e11cc560e01b81526004810185905260248101919091526002604482015281906000907f00000000000000000000000000000000000000000000000000000000000000006001600160a01b0316906369e11cc59060640160006040518083038186803b158015612f2657600080fd5b505afa158015612f3a573d6000803e3d6000fd5b505050506040513d6000823e601f3d908101601f19168201604052612f629190810190613863565b905060005b81518110156131fa576000828281518110612f8457612f846144f5565b602002602001015190506000612fa3868360200151633b9aca00612d65565b9050801561319f5760a08201516001600160a01b037f000000000000000000000000000000000000000000000000000000000000000081169163ceddd3e491166130b55760408401516130125760608401516001600160a01b031661300857336130bb565b83606001516130bb565b60408481015190516331a9108f60e11b815260048101919091527f00000000000000000000000000000000000000000000000000000000000000006001600160a01b031690636352211e9060240160206040518083038186803b15801561307857600080fd5b505afa15801561308c573d6000803e3d6000fd5b505050506040513d601f19601f820116820180604052508101906130b091906136dd565b6130bb565b8360a001515b84516040516001600160e01b031960e085901b1681526130e392918d91879190600401614014565b600060405180830381600087803b1580156130fd57600080fd5b505af1158015613111573d6000803e3d6000fd5b5050505060a08201516001600160a01b031615613192578160a001516001600160a01b031663550b0432828a6002866040518563ffffffff1660e01b815260040161315f94939291906142ba565b600060405180830381600087803b15801561317957600080fd5b505af115801561318d573d6000803e3d6000fd5b505050505b61319c818661447a565b94505b87876000015188602001517f08b272f627530027641b54430e5e88cf4de5feb60e3df46d714a426e3cabb99f8585336040516131dd93929190614128565b60405180910390a4505080806131f290614491565b915050612f67565b50509392505050565b8051602082015160089190911b600117906018906132239061271061447a565b901b811790506028826040015161271061323d919061447a565b901b8117905081606001511561325857670100000000000000175b81608001511561326d57670200000000000000175b8160a001511561328257670400000000000000175b8160c001511561329757670800000000000000175b8160e00151156132ac57671000000000000000175b816101000151156132c257672000000000000000175b816101200151156132d857674000000000000000175b816101400151156132ee57678000000000000000175b816101600151156133055768010000000000000000175b8161018001511561331c5768020000000000000000175b816101a00151156133335768040000000000000000175b816101c001511561334a5768080000000000000000175b6101e0919091015160441b68100000000000000000600160e41b03161790565b803561337581614521565b919050565b600082601f83011261338b57600080fd5b813560206133a061339b836143bf565b61438f565b80838252828201915082860187848660051b89010111156133c057600080fd5b60005b858110156133e85781356133d681614521565b845292840192908401906001016133c3565b5090979650505050505050565b600082601f83011261340657600080fd5b8135602061341661339b836143bf565b8281528181019085830160a08086028801850189101561343557600080fd5b6000805b8781101561349c5782848c03121561344f578182fd5b6134576142dd565b843561346281614521565b8152848801358882015260408086013590820152606080860135908201526080808601359082015286529486019492820192600101613439565b50929998505050505050505050565b600082601f8301126134bc57600080fd5b60206134cb61339b84356143bf565b808435825282820191508285018684873560051b88010111156134ed57600080fd5b60005b8635811015613636576001600160401b03808335111561350f57600080fd5b823588016040818b03601f1901121561352757600080fd5b61352f614305565b878201358152826040830135111561354657600080fd5b6040820135820192508a603f84011261355e57600080fd5b87830135915061357061339b836143bf565b808382528982019150604085018d604060c08702880101111561359257600080fd5b600095505b8486101561361c5760c0818f0312156135af57600080fd5b6135b7614327565b6135c18235614539565b813581528b8201358c8201526040820135604082015260608201356135e581614521565b60608201526080828101359082015260a082013561360281614521565b60a0820152835260019590950194918a019160c001613597565b50828a0152508652505092840192908401906001016134f0565b50909695505050505050565b803561337581614539565b805161337581614521565b60008083601f84011261366a57600080fd5b5081356001600160401b0381111561368157600080fd5b60208301915083602082850101111561369957600080fd5b9250929050565b6000608082840312156136b257600080fd5b50919050565b600061020082840312156136b257600080fd5b6000604082840312156136b257600080fd5b6000602082840312156136ef57600080fd5b815161043281614521565b600080600080600080600080610340898b03121561371757600080fd5b6137208961336a565b975060208901356001600160401b038082111561373c57600080fd5b6137488c838d016136cb565b98506137578c60408d016136a0565b97506137668c60c08d016136b8565b96506102c08b013595506102e08b013591508082111561378557600080fd5b6137918c838d016134ab565b94506103008b01359150808211156137a857600080fd5b6137b48c838d016133f5565b93506103208b01359150808211156137cb57600080fd5b506137d88b828c0161337a565b9150509295985092959890939650565b60008060008060008060a0878903121561380157600080fd5b863561380c81614521565b9550602087013594506040870135935060608701356001600160401b0381111561383557600080fd5b61384189828a01613658565b909450925050608087013561385581614539565b809150509295509295509295565b6000602080838503121561387657600080fd5b82516001600160401b0381111561388c57600080fd5b8301601f8101851361389d57600080fd5b80516138ab61339b826143bf565b8181528381019083850160c0808502860187018a10156138ca57600080fd5b60009550855b8581101561394f5781838c0312156138e6578687fd5b6138ee614327565b83516138f981614539565b815283890151898201526040808501519082015260608085015161391c81614521565b908201526080848101519082015260a08085015161393981614521565b90820152855293870193918101916001016138d0565b50919998505050505050505050565b60006020828403121561397057600080fd5b815161043281614539565b6000610200828403121561398e57600080fd5b613996614349565b8235815260208301356020820152604083013560408201526139ba60608401613642565b60608201526139cb60808401613642565b60808201526139dc60a08401613642565b60a08201526139ed60c08401613642565b60c08201526139fe60e08401613642565b60e0820152610100613a11818501613642565b90820152610120613a23848201613642565b90820152610140613a35848201613642565b90820152610160613a47848201613642565b90820152610180613a59848201613642565b908201526101a0613a6b848201613642565b908201526101c0613a7d848201613642565b908201526101e0613a8f84820161336a565b908201529392505050565b60006101208284031215613aad57600080fd5b613ab561436c565b825181526020830151602082015260408301516040820152606083015160608201526080830151608082015260a083015160a082015260c083015160c0820152613b0160e0840161364d565b60e0820152610100928301519281019290925250919050565b600060208284031215613b2c57600080fd5b5051919050565b60008060408385031215613b4657600080fd5b823591506020830135613b5881614521565b809150509250929050565b600080600060608486031215613b7857600080fd5b833592506020840135613b8a81614521565b91506040840135613b9a81614521565b809150509250925092565b600080600080600060608688031215613bbd57600080fd5b8535945060208601356001600160401b0380821115613bdb57600080fd5b613be789838a01613658565b90965094506040880135915080821115613c0057600080fd5b50613c0d88828901613658565b969995985093965092949392505050565b60008060408385031215613c3157600080fd5b823591506020808401356001600160401b0380821115613c5057600080fd5b818601915086601f830112613c6457600080fd5b813581811115613c7657613c7661450b565b613c88601f8201601f1916850161438f565b91508082528784828501011115613c9e57600080fd5b80848401858401376000848284010152508093505050509250929050565b6000806000806000806103008789031215613cd657600080fd5b86359550613ce788602089016136a0565b9450613cf68860a089016136b8565b93506102a087013592506102c08701356001600160401b0380821115613d1b57600080fd5b613d278a838b016134ab565b93506102e0890135915080821115613d3e57600080fd5b50613d4b89828a016133f5565b9150509295509295509295565b6000806000806000806000610320888a031215613d7457600080fd5b87359650613d858960208a016136a0565b9550613d948960a08a016136b8565b94506102a088013593506102c08801356001600160401b0380821115613db957600080fd5b613dc58b838c016134ab565b94506102e08a0135915080821115613ddc57600080fd5b613de88b838c016133f5565b93506103008a0135915080821115613dff57600080fd5b50613e0c8a828b0161337a565b91505092959891949750929550565b60008060408385031215613e2e57600080fd5b50508035926020909101359150565b600080600080600080600060c0888a031215613e5857600080fd5b87359650602088013595506040880135613e7181614521565b945060608801356001600160401b03811115613e8c57600080fd5b613e988a828b01613658565b9095509350506080880135613eac81614539565b915060a0880135613ebc81614539565b8091505092959891949750929550565b600080600060608486031215613ee157600080fd5b83359250602084013591506040840135613b9a81614521565b81835281816020850137506000828201602090810191909152601f909101601f19169091010190565b80511515825260208082015190830152604080820151908301526060808201516001600160a01b03908116918401919091526080808301519084015260a09182015116910152565b6001600160a01b0394851681529290931660208301526040820152606081019190915260800190565b6001600160a01b0383168152604060208201526000823536849003601e19018112613fbe57600080fd5b830180356001600160401b03811115613fd657600080fd5b803603851315613fe557600080fd5b604080850152613ffc608085018260208501613efa565b91505060208401356060840152809150509392505050565b6001600160a01b03949094168452602084019290925260408301521515606082015260800190565b60018060a01b038616815260006020868184015285604084015260a0606084015284518060a085015260005b818110156140845786810183015185820160c001528201614068565b8181111561409657600060c083870101525b50601f01601f1916830160c0019150612d5b905060808301846001600160a01b03169052565b6060815260006140d0606083018688613efa565b6020830194909452506001600160a01b039190911660409091015292915050565b6020808252601f908201527f5265656e7472616e637947756172643a207265656e7472616e742063616c6c00604082015260600190565b61010081016141378286613f23565b60c08201939093526001600160a01b039190911660e090910152919050565b6000604082018483526020604081850152818551808452606086019150828701935060005b818110156133e85784516001600160a01b03168352938301939183019160010161417b565b8481526060602082015260006141ba606083018587613efa565b905060018060a01b038316604083015295945050505050565b8581526060602082015260006141ed606083018688613efa565b82810360408401526115f6818587613efa565b600060e082019050858252843560208301526020850135604083015260408501356060830152606085013561423481614521565b6001600160a01b0316608083015260a082019390935260c0015292915050565b600060808201868352602086818501528560408501526080606085015281855180845260a086019150828701935060005b818110156142ab57614298838651613f23565b9383019360c09290920191600101614285565b50909998505050505050505050565b84815260208101849052604081018390526101208101612ea46060830184613f23565b60405160a081016001600160401b03811182821017156142ff576142ff61450b565b60405290565b604080519081016001600160401b03811182821017156142ff576142ff61450b565b60405160c081016001600160401b03811182821017156142ff576142ff61450b565b60405161020081016001600160401b03811182821017156142ff576142ff61450b565b60405161012081016001600160401b03811182821017156142ff576142ff61450b565b604051601f8201601f191681016001600160401b03811182821017156143b7576143b761450b565b604052919050565b60006001600160401b038211156143d8576143d861450b565b5060051b60200190565b600080821280156001600160ff1b0384900385131615614404576144046144c9565b600160ff1b839003841281161561441d5761441d6144c9565b50500190565b60008219821115614436576144366144c9565b500190565b60008083128015600160ff1b850184121615614459576144596144c9565b6001600160ff1b0384018313811615614474576144746144c9565b50500390565b60008282101561448c5761448c6144c9565b500390565b60006000198214156144a5576144a56144c9565b5060010190565b6000600160ff1b8214156144c2576144c26144c9565b5060000390565b634e487b7160e01b600052601160045260246000fd5b634e487b7160e01b600052601260045260246000fd5b634e487b7160e01b600052603260045260246000fd5b634e487b7160e01b600052604160045260246000fd5b6001600160a01b038116811461453657600080fd5b50565b801515811461453657600080fdfea26469706673582212200fc2012f857dac96d9b89d06dab8bbfcb8184a1c3f2940b2d688367a3bc67ccb64736f6c63430008060033",
    "linkReferences": {}
  }
}