{
  "abi": [
    {
      "inputs": [
        {
          "internalType": "contract IJBOperatorStore",
          "name": "_operatorStore",
          "type": "address"
        },
        {
          "internalType": "contract IJBProjects",
          "name": "_projects",
          "type": "address"
        },
        {
          "internalType": "contract IJBDirectory",
          "name": "_directory",
          "type": "address"
        },
        {
          "internalType": "contract IJBFundingCycleStore",
          "name": "_fundingCycleStore",
          "type": "address"
        },
        {
          "internalType": "contract IJBTokenStore",
          "name": "_tokenStore",
          "type": "address"
        },
        {
          "internalType": "contract IJBSplitsStore",
          "name": "_splitsStore",
          "type": "address"
        }
      ],
      "stateMutability": "nonpayable",
      "type": "constructor"
    },
    {
      "inputs": [],
      "name": "BURN_PAUSED_AND_SENDER_NOT_VALID_TERMINAL_DELEGATE",
      "type": "error"
    },
    {
      "inputs": [],
      "name": "CANT_MIGRATE_TO_CURRENT_CONTROLLER",
      "type": "error"
    },
    {
      "inputs": [],
      "name": "CHANGE_TOKEN_NOT_ALLOWED",
      "type": "error"
    },
    {
      "inputs": [],
      "name": "FUNDING_CYCLE_ALREADY_LAUNCHED",
      "type": "error"
    },
    {
      "inputs": [],
      "name": "INVALID_BALLOT_REDEMPTION_RATE",
      "type": "error"
    },
    {
      "inputs": [],
      "name": "INVALID_DISTRIBUTION_LIMIT",
      "type": "error"
    },
    {
      "inputs": [],
      "name": "INVALID_DISTRIBUTION_LIMIT_CURRENCY",
      "type": "error"
    },
    {
      "inputs": [],
      "name": "INVALID_OVERFLOW_ALLOWANCE",
      "type": "error"
    },
    {
      "inputs": [],
      "name": "INVALID_OVERFLOW_ALLOWANCE_CURRENCY",
      "type": "error"
    },
    {
      "inputs": [],
      "name": "INVALID_REDEMPTION_RATE",
      "type": "error"
    },
    {
      "inputs": [],
      "name": "INVALID_RESERVED_RATE",
      "type": "error"
    },
    {
      "inputs": [],
      "name": "MIGRATION_NOT_ALLOWED",
      "type": "error"
    },
    {
      "inputs": [],
      "name": "MINT_NOT_ALLOWED_AND_NOT_TERMINAL_DELEGATE",
      "type": "error"
    },
    {
      "inputs": [],
      "name": "NOT_CURRENT_CONTROLLER",
      "type": "error"
    },
    {
      "inputs": [],
      "name": "NO_BURNABLE_TOKENS",
      "type": "error"
    },
    {
      "inputs": [
        {
          "internalType": "uint256",
          "name": "prod1",
          "type": "uint256"
        },
        {
          "internalType": "uint256",
          "name": "denominator",
          "type": "uint256"
        }
      ],
      "name": "PRBMath__MulDivOverflow",
      "type": "error"
    },
    {
      "inputs": [],
      "name": "UNAUTHORIZED",
      "type": "error"
    },
    {
      "inputs": [],
      "name": "ZERO_TOKENS_TO_MINT",
      "type": "error"
    },
    {
      "anonymous": false,
      "inputs": [
        {
          "indexed": true,
          "internalType": "address",
          "name": "holder",
          "type": "address"
        },
        {
          "indexed": true,
          "internalType": "uint256",
          "name": "projectId",
          "type": "uint256"
        },
        {
          "indexed": false,
          "internalType": "uint256",
          "name": "tokenCount",
          "type": "uint256"
        },
        {
          "indexed": false,
          "internalType": "string",
          "name": "memo",
          "type": "string"
        },
        {
          "indexed": false,
          "internalType": "address",
          "name": "caller",
          "type": "address"
        }
      ],
      "name": "BurnTokens",
      "type": "event"
    },
    {
      "anonymous": false,
      "inputs": [
        {
          "indexed": true,
          "internalType": "uint256",
          "name": "fundingCycleConfiguration",
          "type": "uint256"
        },
        {
          "indexed": true,
          "internalType": "uint256",
          "name": "fundingCycleNumber",
          "type": "uint256"
        },
        {
          "indexed": true,
          "internalType": "uint256",
          "name": "projectId",
          "type": "uint256"
        },
        {
          "indexed": false,
          "internalType": "address",
          "name": "beneficiary",
          "type": "address"
        },
        {
          "indexed": false,
          "internalType": "uint256",
          "name": "tokenCount",
          "type": "uint256"
        },
        {
          "indexed": false,
          "internalType": "uint256",
          "name": "beneficiaryTokenCount",
          "type": "uint256"
        },
        {
          "indexed": false,
          "internalType": "string",
          "name": "memo",
          "type": "string"
        },
        {
          "indexed": false,
          "internalType": "address",
          "name": "caller",
          "type": "address"
        }
      ],
      "name": "DistributeReservedTokens",
      "type": "event"
    },
    {
      "anonymous": false,
      "inputs": [
        {
          "indexed": true,
          "internalType": "uint256",
          "name": "projectId",
          "type": "uint256"
        },
        {
          "indexed": true,
          "internalType": "uint256",
          "name": "domain",
          "type": "uint256"
        },
        {
          "indexed": true,
          "internalType": "uint256",
          "name": "group",
          "type": "uint256"
        },
        {
          "components": [
            {
              "internalType": "bool",
              "name": "preferClaimed",
              "type": "bool"
            },
            {
              "internalType": "bool",
              "name": "preferAddToBalance",
              "type": "bool"
            },
            {
              "internalType": "uint256",
              "name": "percent",
              "type": "uint256"
            },
            {
              "internalType": "uint256",
              "name": "projectId",
              "type": "uint256"
            },
            {
              "internalType": "address payable",
              "name": "beneficiary",
              "type": "address"
            },
            {
              "internalType": "uint256",
              "name": "lockedUntil",
              "type": "uint256"
            },
            {
              "internalType": "contract IJBSplitAllocator",
              "name": "allocator",
              "type": "address"
            }
          ],
          "indexed": false,
          "internalType": "struct JBSplit",
          "name": "split",
          "type": "tuple"
        },
        {
          "indexed": false,
          "internalType": "uint256",
          "name": "tokenCount",
          "type": "uint256"
        },
        {
          "indexed": false,
          "internalType": "address",
          "name": "caller",
          "type": "address"
        }
      ],
      "name": "DistributeToReservedTokenSplit",
      "type": "event"
    },
    {
      "anonymous": false,
      "inputs": [
        {
          "indexed": false,
          "internalType": "uint256",
          "name": "configuration",
          "type": "uint256"
        },
        {
          "indexed": false,
          "internalType": "uint256",
          "name": "projectId",
          "type": "uint256"
        },
        {
          "indexed": false,
          "internalType": "string",
          "name": "memo",
          "type": "string"
        },
        {
          "indexed": false,
          "internalType": "address",
          "name": "caller",
          "type": "address"
        }
      ],
      "name": "LaunchFundingCycles",
      "type": "event"
    },
    {
      "anonymous": false,
      "inputs": [
        {
          "indexed": false,
          "internalType": "uint256",
          "name": "configuration",
          "type": "uint256"
        },
        {
          "indexed": false,
          "internalType": "uint256",
          "name": "projectId",
          "type": "uint256"
        },
        {
          "indexed": false,
          "internalType": "string",
          "name": "memo",
          "type": "string"
        },
        {
          "indexed": false,
          "internalType": "address",
          "name": "caller",
          "type": "address"
        }
      ],
      "name": "LaunchProject",
      "type": "event"
    },
    {
      "anonymous": false,
      "inputs": [
        {
          "indexed": true,
          "internalType": "uint256",
          "name": "projectId",
          "type": "uint256"
        },
        {
          "indexed": false,
          "internalType": "contract IJBMigratable",
          "name": "to",
          "type": "address"
        },
        {
          "indexed": false,
          "internalType": "address",
          "name": "caller",
          "type": "address"
        }
      ],
      "name": "Migrate",
      "type": "event"
    },
    {
      "anonymous": false,
      "inputs": [
        {
          "indexed": true,
          "internalType": "address",
          "name": "beneficiary",
          "type": "address"
        },
        {
          "indexed": true,
          "internalType": "uint256",
          "name": "projectId",
          "type": "uint256"
        },
        {
          "indexed": false,
          "internalType": "uint256",
          "name": "tokenCount",
          "type": "uint256"
        },
        {
          "indexed": false,
          "internalType": "uint256",
          "name": "beneficiaryTokenCount",
          "type": "uint256"
        },
        {
          "indexed": false,
          "internalType": "string",
          "name": "memo",
          "type": "string"
        },
        {
          "indexed": false,
          "internalType": "uint256",
          "name": "reservedRate",
          "type": "uint256"
        },
        {
          "indexed": false,
          "internalType": "address",
          "name": "caller",
          "type": "address"
        }
      ],
      "name": "MintTokens",
      "type": "event"
    },
    {
      "anonymous": false,
      "inputs": [
        {
          "indexed": true,
          "internalType": "uint256",
          "name": "projectId",
          "type": "uint256"
        },
        {
          "indexed": false,
          "internalType": "address",
          "name": "from",
          "type": "address"
        },
        {
          "indexed": false,
          "internalType": "address",
          "name": "caller",
          "type": "address"
        }
      ],
      "name": "PrepMigration",
      "type": "event"
    },
    {
      "anonymous": false,
      "inputs": [
        {
          "indexed": false,
          "internalType": "uint256",
          "name": "configuration",
          "type": "uint256"
        },
        {
          "indexed": false,
          "internalType": "uint256",
          "name": "projectId",
          "type": "uint256"
        },
        {
          "indexed": false,
          "internalType": "string",
          "name": "memo",
          "type": "string"
        },
        {
          "indexed": false,
          "internalType": "address",
          "name": "caller",
          "type": "address"
        }
      ],
      "name": "ReconfigureFundingCycles",
      "type": "event"
    },
    {
      "anonymous": false,
      "inputs": [
        {
          "indexed": true,
          "internalType": "uint256",
          "name": "fundingCycleConfiguration",
          "type": "uint256"
        },
        {
          "indexed": true,
          "internalType": "uint256",
          "name": "fundingCycleNumber",
          "type": "uint256"
        },
        {
          "indexed": true,
          "internalType": "uint256",
          "name": "projectId",
          "type": "uint256"
        },
        {
          "components": [
            {
              "internalType": "contract IJBPaymentTerminal",
              "name": "terminal",
              "type": "address"
            },
            {
              "internalType": "address",
              "name": "token",
              "type": "address"
            },
            {
              "internalType": "uint256",
              "name": "distributionLimit",
              "type": "uint256"
            },
            {
              "internalType": "uint256",
              "name": "distributionLimitCurrency",
              "type": "uint256"
            },
            {
              "internalType": "uint256",
              "name": "overflowAllowance",
              "type": "uint256"
            },
            {
              "internalType": "uint256",
              "name": "overflowAllowanceCurrency",
              "type": "uint256"
            }
          ],
          "indexed": false,
          "internalType": "struct JBFundAccessConstraints",
          "name": "constraints",
          "type": "tuple"
        },
        {
          "indexed": false,
          "internalType": "address",
          "name": "caller",
          "type": "address"
        }
      ],
      "name": "SetFundAccessConstraints",
      "type": "event"
    },
    {
      "inputs": [
        {
          "internalType": "address",
          "name": "_holder",
          "type": "address"
        },
        {
          "internalType": "uint256",
          "name": "_projectId",
          "type": "uint256"
        },
        {
          "internalType": "uint256",
          "name": "_tokenCount",
          "type": "uint256"
        },
        {
          "internalType": "string",
          "name": "_memo",
          "type": "string"
        },
        {
          "internalType": "bool",
          "name": "_preferClaimedTokens",
          "type": "bool"
        }
      ],
      "name": "burnTokensOf",
      "outputs": [],
      "stateMutability": "nonpayable",
      "type": "function"
    },
    {
      "inputs": [
        {
          "internalType": "uint256",
          "name": "_projectId",
          "type": "uint256"
        },
        {
          "internalType": "contract IJBToken",
          "name": "_token",
          "type": "address"
        },
        {
          "internalType": "address",
          "name": "_newOwner",
          "type": "address"
        }
      ],
      "name": "changeTokenOf",
      "outputs": [],
      "stateMutability": "nonpayable",
      "type": "function"
    },
    {
      "inputs": [
        {
          "internalType": "uint256",
          "name": "_projectId",
          "type": "uint256"
        }
      ],
      "name": "currentFundingCycleOf",
      "outputs": [
        {
          "components": [
            {
              "internalType": "uint256",
              "name": "number",
              "type": "uint256"
            },
            {
              "internalType": "uint256",
              "name": "configuration",
              "type": "uint256"
            },
            {
              "internalType": "uint256",
              "name": "basedOn",
              "type": "uint256"
            },
            {
              "internalType": "uint256",
              "name": "start",
              "type": "uint256"
            },
            {
              "internalType": "uint256",
              "name": "duration",
              "type": "uint256"
            },
            {
              "internalType": "uint256",
              "name": "weight",
              "type": "uint256"
            },
            {
              "internalType": "uint256",
              "name": "discountRate",
              "type": "uint256"
            },
            {
              "internalType": "contract IJBFundingCycleBallot",
              "name": "ballot",
              "type": "address"
            },
            {
              "internalType": "uint256",
              "name": "metadata",
              "type": "uint256"
            }
          ],
          "internalType": "struct JBFundingCycle",
          "name": "fundingCycle",
          "type": "tuple"
        },
        {
          "components": [
            {
              "internalType": "uint256",
              "name": "reservedRate",
              "type": "uint256"
            },
            {
              "internalType": "uint256",
              "name": "redemptionRate",
              "type": "uint256"
            },
            {
              "internalType": "uint256",
              "name": "ballotRedemptionRate",
              "type": "uint256"
            },
            {
              "internalType": "bool",
              "name": "pausePay",
              "type": "bool"
            },
            {
              "internalType": "bool",
              "name": "pauseDistributions",
              "type": "bool"
            },
            {
              "internalType": "bool",
              "name": "pauseRedeem",
              "type": "bool"
            },
            {
              "internalType": "bool",
              "name": "pauseBurn",
              "type": "bool"
            },
            {
              "internalType": "bool",
              "name": "allowMinting",
              "type": "bool"
            },
            {
              "internalType": "bool",
              "name": "allowChangeToken",
              "type": "bool"
            },
            {
              "internalType": "bool",
              "name": "allowTerminalMigration",
              "type": "bool"
            },
            {
              "internalType": "bool",
              "name": "allowControllerMigration",
              "type": "bool"
            },
            {
              "internalType": "bool",
              "name": "allowSetTerminals",
              "type": "bool"
            },
            {
              "internalType": "bool",
              "name": "allowSetController",
              "type": "bool"
            },
            {
              "internalType": "bool",
              "name": "holdFees",
              "type": "bool"
            },
            {
              "internalType": "bool",
              "name": "useTotalOverflowForRedemptions",
              "type": "bool"
            },
            {
              "internalType": "bool",
              "name": "useDataSourceForPay",
              "type": "bool"
            },
            {
              "internalType": "bool",
              "name": "useDataSourceForRedeem",
              "type": "bool"
            },
            {
              "internalType": "contract IJBFundingCycleDataSource",
              "name": "dataSource",
              "type": "address"
            }
          ],
          "internalType": "struct JBFundingCycleMetadata",
          "name": "metadata",
          "type": "tuple"
        }
      ],
      "stateMutability": "view",
      "type": "function"
    },
    {
      "inputs": [],
      "name": "directory",
      "outputs": [
        {
          "internalType": "contract IJBDirectory",
          "name": "",
          "type": "address"
        }
      ],
      "stateMutability": "view",
      "type": "function"
    },
    {
      "inputs": [
        {
          "internalType": "uint256",
          "name": "_projectId",
          "type": "uint256"
        },
        {
          "internalType": "string",
          "name": "_memo",
          "type": "string"
        }
      ],
      "name": "distributeReservedTokensOf",
      "outputs": [
        {
          "internalType": "uint256",
          "name": "",
          "type": "uint256"
        }
      ],
      "stateMutability": "nonpayable",
      "type": "function"
    },
    {
      "inputs": [
        {
          "internalType": "uint256",
          "name": "_projectId",
          "type": "uint256"
        },
        {
          "internalType": "uint256",
          "name": "_configuration",
          "type": "uint256"
        },
        {
          "internalType": "contract IJBPaymentTerminal",
          "name": "_terminal",
          "type": "address"
        },
        {
          "internalType": "address",
          "name": "_token",
          "type": "address"
        }
      ],
      "name": "distributionLimitOf",
      "outputs": [
        {
          "internalType": "uint256",
          "name": "",
          "type": "uint256"
        },
        {
          "internalType": "uint256",
          "name": "",
          "type": "uint256"
        }
      ],
      "stateMutability": "view",
      "type": "function"
    },
    {
      "inputs": [],
      "name": "fundingCycleStore",
      "outputs": [
        {
          "internalType": "contract IJBFundingCycleStore",
          "name": "",
          "type": "address"
        }
      ],
      "stateMutability": "view",
      "type": "function"
    },
    {
      "inputs": [
        {
          "internalType": "uint256",
          "name": "_projectId",
          "type": "uint256"
        },
        {
          "internalType": "uint256",
          "name": "_configuration",
          "type": "uint256"
        }
      ],
      "name": "getFundingCycleOf",
      "outputs": [
        {
          "components": [
            {
              "internalType": "uint256",
              "name": "number",
              "type": "uint256"
            },
            {
              "internalType": "uint256",
              "name": "configuration",
              "type": "uint256"
            },
            {
              "internalType": "uint256",
              "name": "basedOn",
              "type": "uint256"
            },
            {
              "internalType": "uint256",
              "name": "start",
              "type": "uint256"
            },
            {
              "internalType": "uint256",
              "name": "duration",
              "type": "uint256"
            },
            {
              "internalType": "uint256",
              "name": "weight",
              "type": "uint256"
            },
            {
              "internalType": "uint256",
              "name": "discountRate",
              "type": "uint256"
            },
            {
              "internalType": "contract IJBFundingCycleBallot",
              "name": "ballot",
              "type": "address"
            },
            {
              "internalType": "uint256",
              "name": "metadata",
              "type": "uint256"
            }
          ],
          "internalType": "struct JBFundingCycle",
          "name": "fundingCycle",
          "type": "tuple"
        },
        {
          "components": [
            {
              "internalType": "uint256",
              "name": "reservedRate",
              "type": "uint256"
            },
            {
              "internalType": "uint256",
              "name": "redemptionRate",
              "type": "uint256"
            },
            {
              "internalType": "uint256",
              "name": "ballotRedemptionRate",
              "type": "uint256"
            },
            {
              "internalType": "bool",
              "name": "pausePay",
              "type": "bool"
            },
            {
              "internalType": "bool",
              "name": "pauseDistributions",
              "type": "bool"
            },
            {
              "internalType": "bool",
              "name": "pauseRedeem",
              "type": "bool"
            },
            {
              "internalType": "bool",
              "name": "pauseBurn",
              "type": "bool"
            },
            {
              "internalType": "bool",
              "name": "allowMinting",
              "type": "bool"
            },
            {
              "internalType": "bool",
              "name": "allowChangeToken",
              "type": "bool"
            },
            {
              "internalType": "bool",
              "name": "allowTerminalMigration",
              "type": "bool"
            },
            {
              "internalType": "bool",
              "name": "allowControllerMigration",
              "type": "bool"
            },
            {
              "internalType": "bool",
              "name": "allowSetTerminals",
              "type": "bool"
            },
            {
              "internalType": "bool",
              "name": "allowSetController",
              "type": "bool"
            },
            {
              "internalType": "bool",
              "name": "holdFees",
              "type": "bool"
            },
            {
              "internalType": "bool",
              "name": "useTotalOverflowForRedemptions",
              "type": "bool"
            },
            {
              "internalType": "bool",
              "name": "useDataSourceForPay",
              "type": "bool"
            },
            {
              "internalType": "bool",
              "name": "useDataSourceForRedeem",
              "type": "bool"
            },
            {
              "internalType": "contract IJBFundingCycleDataSource",
              "name": "dataSource",
              "type": "address"
            }
          ],
          "internalType": "struct JBFundingCycleMetadata",
          "name": "metadata",
          "type": "tuple"
        }
      ],
      "stateMutability": "view",
      "type": "function"
    },
    {
      "inputs": [
        {
          "internalType": "uint256",
          "name": "_projectId",
          "type": "uint256"
        },
        {
          "internalType": "string",
          "name": "_name",
          "type": "string"
        },
        {
          "internalType": "string",
          "name": "_symbol",
          "type": "string"
        }
      ],
      "name": "issueTokenFor",
      "outputs": [
        {
          "internalType": "contract IJBToken",
          "name": "token",
          "type": "address"
        }
      ],
      "stateMutability": "nonpayable",
      "type": "function"
    },
    {
      "inputs": [
        {
          "internalType": "uint256",
          "name": "_projectId",
          "type": "uint256"
        }
      ],
      "name": "latestConfiguredFundingCycleOf",
      "outputs": [
        {
          "components": [
            {
              "internalType": "uint256",
              "name": "number",
              "type": "uint256"
            },
            {
              "internalType": "uint256",
              "name": "configuration",
              "type": "uint256"
            },
            {
              "internalType": "uint256",
              "name": "basedOn",
              "type": "uint256"
            },
            {
              "internalType": "uint256",
              "name": "start",
              "type": "uint256"
            },
            {
              "internalType": "uint256",
              "name": "duration",
              "type": "uint256"
            },
            {
              "internalType": "uint256",
              "name": "weight",
              "type": "uint256"
            },
            {
              "internalType": "uint256",
              "name": "discountRate",
              "type": "uint256"
            },
            {
              "internalType": "contract IJBFundingCycleBallot",
              "name": "ballot",
              "type": "address"
            },
            {
              "internalType": "uint256",
              "name": "metadata",
              "type": "uint256"
            }
          ],
          "internalType": "struct JBFundingCycle",
          "name": "fundingCycle",
          "type": "tuple"
        },
        {
          "components": [
            {
              "internalType": "uint256",
              "name": "reservedRate",
              "type": "uint256"
            },
            {
              "internalType": "uint256",
              "name": "redemptionRate",
              "type": "uint256"
            },
            {
              "internalType": "uint256",
              "name": "ballotRedemptionRate",
              "type": "uint256"
            },
            {
              "internalType": "bool",
              "name": "pausePay",
              "type": "bool"
            },
            {
              "internalType": "bool",
              "name": "pauseDistributions",
              "type": "bool"
            },
            {
              "internalType": "bool",
              "name": "pauseRedeem",
              "type": "bool"
            },
            {
              "internalType": "bool",
              "name": "pauseBurn",
              "type": "bool"
            },
            {
              "internalType": "bool",
              "name": "allowMinting",
              "type": "bool"
            },
            {
              "internalType": "bool",
              "name": "allowChangeToken",
              "type": "bool"
            },
            {
              "internalType": "bool",
              "name": "allowTerminalMigration",
              "type": "bool"
            },
            {
              "internalType": "bool",
              "name": "allowControllerMigration",
              "type": "bool"
            },
            {
              "internalType": "bool",
              "name": "allowSetTerminals",
              "type": "bool"
            },
            {
              "internalType": "bool",
              "name": "allowSetController",
              "type": "bool"
            },
            {
              "internalType": "bool",
              "name": "holdFees",
              "type": "bool"
            },
            {
              "internalType": "bool",
              "name": "useTotalOverflowForRedemptions",
              "type": "bool"
            },
            {
              "internalType": "bool",
              "name": "useDataSourceForPay",
              "type": "bool"
            },
            {
              "internalType": "bool",
              "name": "useDataSourceForRedeem",
              "type": "bool"
            },
            {
              "internalType": "contract IJBFundingCycleDataSource",
              "name": "dataSource",
              "type": "address"
            }
          ],
          "internalType": "struct JBFundingCycleMetadata",
          "name": "metadata",
          "type": "tuple"
        },
        {
          "internalType": "enum JBBallotState",
          "name": "ballotState",
          "type": "uint8"
        }
      ],
      "stateMutability": "view",
      "type": "function"
    },
    {
      "inputs": [
        {
          "internalType": "uint256",
          "name": "_projectId",
          "type": "uint256"
        },
        {
          "components": [
            {
              "internalType": "uint256",
              "name": "duration",
              "type": "uint256"
            },
            {
              "internalType": "uint256",
              "name": "weight",
              "type": "uint256"
            },
            {
              "internalType": "uint256",
              "name": "discountRate",
              "type": "uint256"
            },
            {
              "internalType": "contract IJBFundingCycleBallot",
              "name": "ballot",
              "type": "address"
            }
          ],
          "internalType": "struct JBFundingCycleData",
          "name": "_data",
          "type": "tuple"
        },
        {
          "components": [
            {
              "internalType": "uint256",
              "name": "reservedRate",
              "type": "uint256"
            },
            {
              "internalType": "uint256",
              "name": "redemptionRate",
              "type": "uint256"
            },
            {
              "internalType": "uint256",
              "name": "ballotRedemptionRate",
              "type": "uint256"
            },
            {
              "internalType": "bool",
              "name": "pausePay",
              "type": "bool"
            },
            {
              "internalType": "bool",
              "name": "pauseDistributions",
              "type": "bool"
            },
            {
              "internalType": "bool",
              "name": "pauseRedeem",
              "type": "bool"
            },
            {
              "internalType": "bool",
              "name": "pauseBurn",
              "type": "bool"
            },
            {
              "internalType": "bool",
              "name": "allowMinting",
              "type": "bool"
            },
            {
              "internalType": "bool",
              "name": "allowChangeToken",
              "type": "bool"
            },
            {
              "internalType": "bool",
              "name": "allowTerminalMigration",
              "type": "bool"
            },
            {
              "internalType": "bool",
              "name": "allowControllerMigration",
              "type": "bool"
            },
            {
              "internalType": "bool",
              "name": "allowSetTerminals",
              "type": "bool"
            },
            {
              "internalType": "bool",
              "name": "allowSetController",
              "type": "bool"
            },
            {
              "internalType": "bool",
              "name": "holdFees",
              "type": "bool"
            },
            {
              "internalType": "bool",
              "name": "useTotalOverflowForRedemptions",
              "type": "bool"
            },
            {
              "internalType": "bool",
              "name": "useDataSourceForPay",
              "type": "bool"
            },
            {
              "internalType": "bool",
              "name": "useDataSourceForRedeem",
              "type": "bool"
            },
            {
              "internalType": "contract IJBFundingCycleDataSource",
              "name": "dataSource",
              "type": "address"
            }
          ],
          "internalType": "struct JBFundingCycleMetadata",
          "name": "_metadata",
          "type": "tuple"
        },
        {
          "internalType": "uint256",
          "name": "_mustStartAtOrAfter",
          "type": "uint256"
        },
        {
          "components": [
            {
              "internalType": "uint256",
              "name": "group",
              "type": "uint256"
            },
            {
              "components": [
                {
                  "internalType": "bool",
                  "name": "preferClaimed",
                  "type": "bool"
                },
                {
                  "internalType": "bool",
                  "name": "preferAddToBalance",
                  "type": "bool"
                },
                {
                  "internalType": "uint256",
                  "name": "percent",
                  "type": "uint256"
                },
                {
                  "internalType": "uint256",
                  "name": "projectId",
                  "type": "uint256"
                },
                {
                  "internalType": "address payable",
                  "name": "beneficiary",
                  "type": "address"
                },
                {
                  "internalType": "uint256",
                  "name": "lockedUntil",
                  "type": "uint256"
                },
                {
                  "internalType": "contract IJBSplitAllocator",
                  "name": "allocator",
                  "type": "address"
                }
              ],
              "internalType": "struct JBSplit[]",
              "name": "splits",
              "type": "tuple[]"
            }
          ],
          "internalType": "struct JBGroupedSplits[]",
          "name": "_groupedSplits",
          "type": "tuple[]"
        },
        {
          "components": [
            {
              "internalType": "contract IJBPaymentTerminal",
              "name": "terminal",
              "type": "address"
            },
            {
              "internalType": "address",
              "name": "token",
              "type": "address"
            },
            {
              "internalType": "uint256",
              "name": "distributionLimit",
              "type": "uint256"
            },
            {
              "internalType": "uint256",
              "name": "distributionLimitCurrency",
              "type": "uint256"
            },
            {
              "internalType": "uint256",
              "name": "overflowAllowance",
              "type": "uint256"
            },
            {
              "internalType": "uint256",
              "name": "overflowAllowanceCurrency",
              "type": "uint256"
            }
          ],
          "internalType": "struct JBFundAccessConstraints[]",
          "name": "_fundAccessConstraints",
          "type": "tuple[]"
        },
        {
          "internalType": "contract IJBPaymentTerminal[]",
          "name": "_terminals",
          "type": "address[]"
        },
        {
          "internalType": "string",
          "name": "_memo",
          "type": "string"
        }
      ],
      "name": "launchFundingCyclesFor",
      "outputs": [
        {
          "internalType": "uint256",
          "name": "configuration",
          "type": "uint256"
        }
      ],
      "stateMutability": "nonpayable",
      "type": "function"
    },
    {
      "inputs": [
        {
          "internalType": "address",
          "name": "_owner",
          "type": "address"
        },
        {
          "components": [
            {
              "internalType": "string",
              "name": "content",
              "type": "string"
            },
            {
              "internalType": "uint256",
              "name": "domain",
              "type": "uint256"
            }
          ],
          "internalType": "struct JBProjectMetadata",
          "name": "_projectMetadata",
          "type": "tuple"
        },
        {
          "components": [
            {
              "internalType": "uint256",
              "name": "duration",
              "type": "uint256"
            },
            {
              "internalType": "uint256",
              "name": "weight",
              "type": "uint256"
            },
            {
              "internalType": "uint256",
              "name": "discountRate",
              "type": "uint256"
            },
            {
              "internalType": "contract IJBFundingCycleBallot",
              "name": "ballot",
              "type": "address"
            }
          ],
          "internalType": "struct JBFundingCycleData",
          "name": "_data",
          "type": "tuple"
        },
        {
          "components": [
            {
              "internalType": "uint256",
              "name": "reservedRate",
              "type": "uint256"
            },
            {
              "internalType": "uint256",
              "name": "redemptionRate",
              "type": "uint256"
            },
            {
              "internalType": "uint256",
              "name": "ballotRedemptionRate",
              "type": "uint256"
            },
            {
              "internalType": "bool",
              "name": "pausePay",
              "type": "bool"
            },
            {
              "internalType": "bool",
              "name": "pauseDistributions",
              "type": "bool"
            },
            {
              "internalType": "bool",
              "name": "pauseRedeem",
              "type": "bool"
            },
            {
              "internalType": "bool",
              "name": "pauseBurn",
              "type": "bool"
            },
            {
              "internalType": "bool",
              "name": "allowMinting",
              "type": "bool"
            },
            {
              "internalType": "bool",
              "name": "allowChangeToken",
              "type": "bool"
            },
            {
              "internalType": "bool",
              "name": "allowTerminalMigration",
              "type": "bool"
            },
            {
              "internalType": "bool",
              "name": "allowControllerMigration",
              "type": "bool"
            },
            {
              "internalType": "bool",
              "name": "allowSetTerminals",
              "type": "bool"
            },
            {
              "internalType": "bool",
              "name": "allowSetController",
              "type": "bool"
            },
            {
              "internalType": "bool",
              "name": "holdFees",
              "type": "bool"
            },
            {
              "internalType": "bool",
              "name": "useTotalOverflowForRedemptions",
              "type": "bool"
            },
            {
              "internalType": "bool",
              "name": "useDataSourceForPay",
              "type": "bool"
            },
            {
              "internalType": "bool",
              "name": "useDataSourceForRedeem",
              "type": "bool"
            },
            {
              "internalType": "contract IJBFundingCycleDataSource",
              "name": "dataSource",
              "type": "address"
            }
          ],
          "internalType": "struct JBFundingCycleMetadata",
          "name": "_metadata",
          "type": "tuple"
        },
        {
          "internalType": "uint256",
          "name": "_mustStartAtOrAfter",
          "type": "uint256"
        },
        {
          "components": [
            {
              "internalType": "uint256",
              "name": "group",
              "type": "uint256"
            },
            {
              "components": [
                {
                  "internalType": "bool",
                  "name": "preferClaimed",
                  "type": "bool"
                },
                {
                  "internalType": "bool",
                  "name": "preferAddToBalance",
                  "type": "bool"
                },
                {
                  "internalType": "uint256",
                  "name": "percent",
                  "type": "uint256"
                },
                {
                  "internalType": "uint256",
                  "name": "projectId",
                  "type": "uint256"
                },
                {
                  "internalType": "address payable",
                  "name": "beneficiary",
                  "type": "address"
                },
                {
                  "internalType": "uint256",
                  "name": "lockedUntil",
                  "type": "uint256"
                },
                {
                  "internalType": "contract IJBSplitAllocator",
                  "name": "allocator",
                  "type": "address"
                }
              ],
              "internalType": "struct JBSplit[]",
              "name": "splits",
              "type": "tuple[]"
            }
          ],
          "internalType": "struct JBGroupedSplits[]",
          "name": "_groupedSplits",
          "type": "tuple[]"
        },
        {
          "components": [
            {
              "internalType": "contract IJBPaymentTerminal",
              "name": "terminal",
              "type": "address"
            },
            {
              "internalType": "address",
              "name": "token",
              "type": "address"
            },
            {
              "internalType": "uint256",
              "name": "distributionLimit",
              "type": "uint256"
            },
            {
              "internalType": "uint256",
              "name": "distributionLimitCurrency",
              "type": "uint256"
            },
            {
              "internalType": "uint256",
              "name": "overflowAllowance",
              "type": "uint256"
            },
            {
              "internalType": "uint256",
              "name": "overflowAllowanceCurrency",
              "type": "uint256"
            }
          ],
          "internalType": "struct JBFundAccessConstraints[]",
          "name": "_fundAccessConstraints",
          "type": "tuple[]"
        },
        {
          "internalType": "contract IJBPaymentTerminal[]",
          "name": "_terminals",
          "type": "address[]"
        },
        {
          "internalType": "string",
          "name": "_memo",
          "type": "string"
        }
      ],
      "name": "launchProjectFor",
      "outputs": [
        {
          "internalType": "uint256",
          "name": "projectId",
          "type": "uint256"
        }
      ],
      "stateMutability": "nonpayable",
      "type": "function"
    },
    {
      "inputs": [
        {
          "internalType": "uint256",
          "name": "_projectId",
          "type": "uint256"
        },
        {
          "internalType": "contract IJBMigratable",
          "name": "_to",
          "type": "address"
        }
      ],
      "name": "migrate",
      "outputs": [],
      "stateMutability": "nonpayable",
      "type": "function"
    },
    {
      "inputs": [
        {
          "internalType": "uint256",
          "name": "_projectId",
          "type": "uint256"
        },
        {
          "internalType": "uint256",
          "name": "_tokenCount",
          "type": "uint256"
        },
        {
          "internalType": "address",
          "name": "_beneficiary",
          "type": "address"
        },
        {
          "internalType": "string",
          "name": "_memo",
          "type": "string"
        },
        {
          "internalType": "bool",
          "name": "_preferClaimedTokens",
          "type": "bool"
        },
        {
          "internalType": "bool",
          "name": "_useReservedRate",
          "type": "bool"
        }
      ],
      "name": "mintTokensOf",
      "outputs": [
        {
          "internalType": "uint256",
          "name": "beneficiaryTokenCount",
          "type": "uint256"
        }
      ],
      "stateMutability": "nonpayable",
      "type": "function"
    },
    {
      "inputs": [],
      "name": "operatorStore",
      "outputs": [
        {
          "internalType": "contract IJBOperatorStore",
          "name": "",
          "type": "address"
        }
      ],
      "stateMutability": "view",
      "type": "function"
    },
    {
      "inputs": [
        {
          "internalType": "uint256",
          "name": "_projectId",
          "type": "uint256"
        },
        {
          "internalType": "uint256",
          "name": "_configuration",
          "type": "uint256"
        },
        {
          "internalType": "contract IJBPaymentTerminal",
          "name": "_terminal",
          "type": "address"
        },
        {
          "internalType": "address",
          "name": "_token",
          "type": "address"
        }
      ],
      "name": "overflowAllowanceOf",
      "outputs": [
        {
          "internalType": "uint256",
          "name": "",
          "type": "uint256"
        },
        {
          "internalType": "uint256",
          "name": "",
          "type": "uint256"
        }
      ],
      "stateMutability": "view",
      "type": "function"
    },
    {
      "inputs": [
        {
          "internalType": "uint256",
          "name": "_projectId",
          "type": "uint256"
        },
        {
          "internalType": "address",
          "name": "_from",
          "type": "address"
        }
      ],
      "name": "prepForMigrationOf",
      "outputs": [],
      "stateMutability": "nonpayable",
      "type": "function"
    },
    {
      "inputs": [],
      "name": "projects",
      "outputs": [
        {
          "internalType": "contract IJBProjects",
          "name": "",
          "type": "address"
        }
      ],
      "stateMutability": "view",
      "type": "function"
    },
    {
      "inputs": [
        {
          "internalType": "uint256",
          "name": "_projectId",
          "type": "uint256"
        }
      ],
      "name": "queuedFundingCycleOf",
      "outputs": [
        {
          "components": [
            {
              "internalType": "uint256",
              "name": "number",
              "type": "uint256"
            },
            {
              "internalType": "uint256",
              "name": "configuration",
              "type": "uint256"
            },
            {
              "internalType": "uint256",
              "name": "basedOn",
              "type": "uint256"
            },
            {
              "internalType": "uint256",
              "name": "start",
              "type": "uint256"
            },
            {
              "internalType": "uint256",
              "name": "duration",
              "type": "uint256"
            },
            {
              "internalType": "uint256",
              "name": "weight",
              "type": "uint256"
            },
            {
              "internalType": "uint256",
              "name": "discountRate",
              "type": "uint256"
            },
            {
              "internalType": "contract IJBFundingCycleBallot",
              "name": "ballot",
              "type": "address"
            },
            {
              "internalType": "uint256",
              "name": "metadata",
              "type": "uint256"
            }
          ],
          "internalType": "struct JBFundingCycle",
          "name": "fundingCycle",
          "type": "tuple"
        },
        {
          "components": [
            {
              "internalType": "uint256",
              "name": "reservedRate",
              "type": "uint256"
            },
            {
              "internalType": "uint256",
              "name": "redemptionRate",
              "type": "uint256"
            },
            {
              "internalType": "uint256",
              "name": "ballotRedemptionRate",
              "type": "uint256"
            },
            {
              "internalType": "bool",
              "name": "pausePay",
              "type": "bool"
            },
            {
              "internalType": "bool",
              "name": "pauseDistributions",
              "type": "bool"
            },
            {
              "internalType": "bool",
              "name": "pauseRedeem",
              "type": "bool"
            },
            {
              "internalType": "bool",
              "name": "pauseBurn",
              "type": "bool"
            },
            {
              "internalType": "bool",
              "name": "allowMinting",
              "type": "bool"
            },
            {
              "internalType": "bool",
              "name": "allowChangeToken",
              "type": "bool"
            },
            {
              "internalType": "bool",
              "name": "allowTerminalMigration",
              "type": "bool"
            },
            {
              "internalType": "bool",
              "name": "allowControllerMigration",
              "type": "bool"
            },
            {
              "internalType": "bool",
              "name": "allowSetTerminals",
              "type": "bool"
            },
            {
              "internalType": "bool",
              "name": "allowSetController",
              "type": "bool"
            },
            {
              "internalType": "bool",
              "name": "holdFees",
              "type": "bool"
            },
            {
              "internalType": "bool",
              "name": "useTotalOverflowForRedemptions",
              "type": "bool"
            },
            {
              "internalType": "bool",
              "name": "useDataSourceForPay",
              "type": "bool"
            },
            {
              "internalType": "bool",
              "name": "useDataSourceForRedeem",
              "type": "bool"
            },
            {
              "internalType": "contract IJBFundingCycleDataSource",
              "name": "dataSource",
              "type": "address"
            }
          ],
          "internalType": "struct JBFundingCycleMetadata",
          "name": "metadata",
          "type": "tuple"
        }
      ],
      "stateMutability": "view",
      "type": "function"
    },
    {
      "inputs": [
        {
          "internalType": "uint256",
          "name": "_projectId",
          "type": "uint256"
        },
        {
          "components": [
            {
              "internalType": "uint256",
              "name": "duration",
              "type": "uint256"
            },
            {
              "internalType": "uint256",
              "name": "weight",
              "type": "uint256"
            },
            {
              "internalType": "uint256",
              "name": "discountRate",
              "type": "uint256"
            },
            {
              "internalType": "contract IJBFundingCycleBallot",
              "name": "ballot",
              "type": "address"
            }
          ],
          "internalType": "struct JBFundingCycleData",
          "name": "_data",
          "type": "tuple"
        },
        {
          "components": [
            {
              "internalType": "uint256",
              "name": "reservedRate",
              "type": "uint256"
            },
            {
              "internalType": "uint256",
              "name": "redemptionRate",
              "type": "uint256"
            },
            {
              "internalType": "uint256",
              "name": "ballotRedemptionRate",
              "type": "uint256"
            },
            {
              "internalType": "bool",
              "name": "pausePay",
              "type": "bool"
            },
            {
              "internalType": "bool",
              "name": "pauseDistributions",
              "type": "bool"
            },
            {
              "internalType": "bool",
              "name": "pauseRedeem",
              "type": "bool"
            },
            {
              "internalType": "bool",
              "name": "pauseBurn",
              "type": "bool"
            },
            {
              "internalType": "bool",
              "name": "allowMinting",
              "type": "bool"
            },
            {
              "internalType": "bool",
              "name": "allowChangeToken",
              "type": "bool"
            },
            {
              "internalType": "bool",
              "name": "allowTerminalMigration",
              "type": "bool"
            },
            {
              "internalType": "bool",
              "name": "allowControllerMigration",
              "type": "bool"
            },
            {
              "internalType": "bool",
              "name": "allowSetTerminals",
              "type": "bool"
            },
            {
              "internalType": "bool",
              "name": "allowSetController",
              "type": "bool"
            },
            {
              "internalType": "bool",
              "name": "holdFees",
              "type": "bool"
            },
            {
              "internalType": "bool",
              "name": "useTotalOverflowForRedemptions",
              "type": "bool"
            },
            {
              "internalType": "bool",
              "name": "useDataSourceForPay",
              "type": "bool"
            },
            {
              "internalType": "bool",
              "name": "useDataSourceForRedeem",
              "type": "bool"
            },
            {
              "internalType": "contract IJBFundingCycleDataSource",
              "name": "dataSource",
              "type": "address"
            }
          ],
          "internalType": "struct JBFundingCycleMetadata",
          "name": "_metadata",
          "type": "tuple"
        },
        {
          "internalType": "uint256",
          "name": "_mustStartAtOrAfter",
          "type": "uint256"
        },
        {
          "components": [
            {
              "internalType": "uint256",
              "name": "group",
              "type": "uint256"
            },
            {
              "components": [
                {
                  "internalType": "bool",
                  "name": "preferClaimed",
                  "type": "bool"
                },
                {
                  "internalType": "bool",
                  "name": "preferAddToBalance",
                  "type": "bool"
                },
                {
                  "internalType": "uint256",
                  "name": "percent",
                  "type": "uint256"
                },
                {
                  "internalType": "uint256",
                  "name": "projectId",
                  "type": "uint256"
                },
                {
                  "internalType": "address payable",
                  "name": "beneficiary",
                  "type": "address"
                },
                {
                  "internalType": "uint256",
                  "name": "lockedUntil",
                  "type": "uint256"
                },
                {
                  "internalType": "contract IJBSplitAllocator",
                  "name": "allocator",
                  "type": "address"
                }
              ],
              "internalType": "struct JBSplit[]",
              "name": "splits",
              "type": "tuple[]"
            }
          ],
          "internalType": "struct JBGroupedSplits[]",
          "name": "_groupedSplits",
          "type": "tuple[]"
        },
        {
          "components": [
            {
              "internalType": "contract IJBPaymentTerminal",
              "name": "terminal",
              "type": "address"
            },
            {
              "internalType": "address",
              "name": "token",
              "type": "address"
            },
            {
              "internalType": "uint256",
              "name": "distributionLimit",
              "type": "uint256"
            },
            {
              "internalType": "uint256",
              "name": "distributionLimitCurrency",
              "type": "uint256"
            },
            {
              "internalType": "uint256",
              "name": "overflowAllowance",
              "type": "uint256"
            },
            {
              "internalType": "uint256",
              "name": "overflowAllowanceCurrency",
              "type": "uint256"
            }
          ],
          "internalType": "struct JBFundAccessConstraints[]",
          "name": "_fundAccessConstraints",
          "type": "tuple[]"
        },
        {
          "internalType": "string",
          "name": "_memo",
          "type": "string"
        }
      ],
      "name": "reconfigureFundingCyclesOf",
      "outputs": [
        {
          "internalType": "uint256",
          "name": "configuration",
          "type": "uint256"
        }
      ],
      "stateMutability": "nonpayable",
      "type": "function"
    },
    {
      "inputs": [
        {
          "internalType": "uint256",
          "name": "_projectId",
          "type": "uint256"
        },
        {
          "internalType": "uint256",
          "name": "_reservedRate",
          "type": "uint256"
        }
      ],
      "name": "reservedTokenBalanceOf",
      "outputs": [
        {
          "internalType": "uint256",
          "name": "",
          "type": "uint256"
        }
      ],
      "stateMutability": "view",
      "type": "function"
    },
    {
      "inputs": [],
      "name": "splitsStore",
      "outputs": [
        {
          "internalType": "contract IJBSplitsStore",
          "name": "",
          "type": "address"
        }
      ],
      "stateMutability": "view",
      "type": "function"
    },
    {
      "inputs": [
        {
          "internalType": "bytes4",
          "name": "_interfaceId",
          "type": "bytes4"
        }
      ],
      "name": "supportsInterface",
      "outputs": [
        {
          "internalType": "bool",
          "name": "",
          "type": "bool"
        }
      ],
      "stateMutability": "view",
      "type": "function"
    },
    {
      "inputs": [],
      "name": "tokenStore",
      "outputs": [
        {
          "internalType": "contract IJBTokenStore",
          "name": "",
          "type": "address"
        }
      ],
      "stateMutability": "view",
      "type": "function"
    },
    {
      "inputs": [
        {
          "internalType": "uint256",
          "name": "_projectId",
          "type": "uint256"
        },
        {
          "internalType": "uint256",
          "name": "_reservedRate",
          "type": "uint256"
        }
      ],
      "name": "totalOutstandingTokensOf",
      "outputs": [
        {
          "internalType": "uint256",
          "name": "",
          "type": "uint256"
        }
      ],
      "stateMutability": "view",
      "type": "function"
    }
  ],
  "bytecode": {
    "object": "0x6101406040523480156200001257600080fd5b5060405162004fc438038062004fc4833981016040819052620000359162000076565b6001600160601b0319606096871b811660805294861b851660a05292851b84166101205290841b831660c052831b821660e05290911b166101005262000123565b60008060008060008060c087890312156200009057600080fd5b86516200009d816200010a565b6020880151909650620000b0816200010a565b6040880151909550620000c3816200010a565b6060880151909450620000d6816200010a565b6080880151909350620000e9816200010a565b60a0880151909250620000fc816200010a565b809150509295509295509295565b6001600160a01b03811681146200012057600080fd5b50565b60805160601c60a05160601c60c05160601c60e05160601c6101005160601c6101205160601c614ce8620002dc600039600081816103ec0152818161061a0152818161078f01528181610da501528181611000015281816112b7015281816114810152818161160101528181611bcc01528181611cb501528181611ef60152611f78015260008181610231015281816127cc015261312f0152600081816102bd0152818161087401528181610cff01528181610e5d015281816111820152818161173b0152818161190101528181611a6e015281816120bc01528181612b9601528181612d310152818161320d015261339b01526000818161029601528181610559015281816106d701528181610ac601528181610c1f015281816110ba01528181611386015281816115480152818161184701528181611e36015281816126e40152612af70152600081816103780152818161094f01528181610b7601528181610f50015281816113d6015281816119c701528181611b2401528181611d8501528181612c6d01526132810152600081816103b2015281816123800152818161242b0152818161250801526125b30152614ce86000f3fe608060405234801561001057600080fd5b50600436106101735760003560e01c80638776c499116100de578063c41c2f2411610097578063dff3bd6c11610071578063dff3bd6c14610434578063e867c59c14610447578063e8db21301461045a578063f033b3b4146104b357600080fd5b8063c41c2f24146103e7578063d10130731461040e578063df89c3c11461042157600080fd5b80638776c4991461034d5780638ae9c07b146103605780638b79543c14610373578063a40bb9c71461039a578063ad007d63146103ad578063b5f1e34d146103d457600080fd5b80632bdfe004116101305780632bdfe0041461022c5780633e8c615b1461026b578063405b84fa1461027e578063557e71551461029157806361930630146102b85780637a81b562146102df57600080fd5b806301ffc9a71461017857806312b37b14146101a05780631665bc0f146101c15780631d496dc9146101d65780631f510453146101f7578063229bb82414610219575b600080fd5b61018b610186366004613c8d565b6104c6565b60405190151581526020015b60405180910390f35b6101b36101ae366004613e71565b610533565b6040516101979291906145d5565b6101d46101cf366004613ae7565b6105ef565b005b6101e96101e4366004613fce565b610936565b604051908152602001610197565b61020a610205366004613e71565b610a9d565b604051610197939291906145f2565b6101d4610227366004613ec8565b610b60565b6102537f000000000000000000000000000000000000000000000000000000000000000081565b6040516001600160a01b039091168152602001610197565b6101d4610279366004613ea3565b610d85565b6101d461028c366004613ea3565b610f3a565b6102537f000000000000000000000000000000000000000000000000000000000000000081565b6102537f000000000000000000000000000000000000000000000000000000000000000081565b6103386102ed366004614243565b60009384526002602090815260408086209486529381528385206001600160a01b039384168652815283852091909216845290529020546001600160e81b0381169160e89190911c90565b60408051928352602083019190915201610197565b6101b361035b366004613e71565b611360565b6101e961036e3660046141b4565b6113bd565b6102537f000000000000000000000000000000000000000000000000000000000000000081565b6101b36103a8366004614192565b61181a565b6102537f000000000000000000000000000000000000000000000000000000000000000081565b6101e96103e2366004614192565b6118de565b6102537f000000000000000000000000000000000000000000000000000000000000000081565b61025361041c366004613f55565b6119ae565b6101e961042f3660046139be565b611b0a565b6101e96104423660046140a5565b611d6c565b6101e9610455366004613f0a565b612044565b610338610468366004614243565b60009384526001602090815260408086209486529381528385206001600160a01b039384168652815283852091909216845290529020546001600160e81b0381169160e89190911c90565b6101e96104c1366004614192565b612090565b60006001600160e01b031982166339a4c67560e11b14806104f757506001600160e01b03198216633e8c615b60e01b145b8061051257506001600160e01b0319821663ad007d6360e01b145b8061052d57506301ffc9a760e01b6001600160e01b03198316145b92915050565b61053b61351b565b610543613570565b604051630b8aa00f60e31b8152600481018490527f00000000000000000000000000000000000000000000000000000000000000006001600160a01b031690635c550078906024015b6101206040518083038186803b1580156105a557600080fd5b505afa1580156105b9573d6000803e3d6000fd5b505050506040513d601f19601f820116820180604052508101906105dd9190613e16565b91506105e882612143565b9050915091565b604051636e49181f60e01b81526004810186905233602482015286908690600a906001600160a01b037f00000000000000000000000000000000000000000000000000000000000000001690636e49181f9060440160206040518083038186803b15801561065c57600080fd5b505afa158015610670573d6000803e3d6000fd5b505050506040513d601f19601f820116820180604052508101906106949190613c70565b6106a08484848461234b565b876106be57604051637b38547b60e01b815260040160405180910390fd5b6040516321d1336160e11b8152600481018a90526000907f00000000000000000000000000000000000000000000000000000000000000006001600160a01b0316906343a266c2906024016101206040518083038186803b15801561072257600080fd5b505afa158015610736573d6000803e3d6000fd5b505050506040513d601f19601f8201168201806040525081019061075a9190613e16565b610100810151909150603b1c60019081161480156108135750604051636e49181f60e01b8152600481018b90523360248201527f00000000000000000000000000000000000000000000000000000000000000006001600160a01b031690636e49181f9060440160206040518083038186803b1580156107d957600080fd5b505afa1580156107ed573d6000803e3d6000fd5b505050506040513d601f19601f820116820180604052508101906108119190613c70565b155b1561083157604051630f1490e360e31b815260040160405180910390fd5b60008a81526020819052604090205461084b908a90614a20565b60008b81526020819052604090819020919091555163906ebd0f60e01b81526001600160a01b037f0000000000000000000000000000000000000000000000000000000000000000169063906ebd0f906108af908e908e908e908c9060040161456a565b600060405180830381600087803b1580156108c957600080fd5b505af11580156108dd573d6000803e3d6000fd5b50505050898b6001600160a01b03167fdf04e13ee4fcd48a81ab2fd114757093740a3efa9b6475d86e05878b4c59d0798b8b8b336040516109219493929190614709565b60405180910390a35050505050505050505050565b6040516331a9108f60e11b8152600481018b90526000907f00000000000000000000000000000000000000000000000000000000000000006001600160a01b031690636352211e9060240160206040518083038186803b15801561099957600080fd5b505afa1580156109ad573d6000803e3d6000fd5b505050506040513d601f19601f820116820180604052508101906109d191906139a1565b8b60016109df8383836124dd565b610a4b8e8e8e8e8e8e906109f39190614a76565b8d8d808060200260200160405190810160405280939291908181526020016000905b82821015610a4157610a3260c08302860136819003810190613cb7565b81526020019060010190610a15565b5050505050612664565b93507f1a08ad37c93969a586fd0605d240c17113b20a9c9ac3847595d0ab425225f6af848f888833604051610a849594939291906147c9565b60405180910390a15050509a9950505050505050505050565b610aa561351b565b610aad613570565b60405163ebc8ca1f60e01b8152600481018490526000907f00000000000000000000000000000000000000000000000000000000000000006001600160a01b03169063ebc8ca1f906024016101406040518083038186803b158015610b1157600080fd5b505afa158015610b25573d6000803e3d6000fd5b505050506040513d601f19601f82011682018060405250810190610b499190613e33565b9093509050610b5783612143565b91509193909250565b6040516331a9108f60e11b8152600481018490527f00000000000000000000000000000000000000000000000000000000000000006001600160a01b031690636352211e9060240160206040518083038186803b158015610bc057600080fd5b505afa158015610bd4573d6000803e3d6000fd5b505050506040513d601f19601f82011682018060405250810190610bf891906139a1565b836008610c068383836124dd565b6040516321d1336160e11b8152600481018790526000907f00000000000000000000000000000000000000000000000000000000000000006001600160a01b0316906343a266c2906024016101206040518083038186803b158015610c6a57600080fd5b505afa158015610c7e573d6000803e3d6000fd5b505050506040513d601f19601f82011682018060405250810190610ca29190613e16565b610100810151909150603d1c600190811614610cd157604051632ebc601360e01b815260040160405180910390fd5b604051630afc98ef60e31b8152600481018890526001600160a01b03878116602483015286811660448301527f000000000000000000000000000000000000000000000000000000000000000016906357e4c77890606401602060405180830381600087803b158015610d4357600080fd5b505af1158015610d57573d6000803e3d6000fd5b505050506040513d601f19601f82011682018060405250810190610d7b91906139a1565b5050505050505050565b604051632eec7b5560e11b81526004810183905230906001600160a01b037f00000000000000000000000000000000000000000000000000000000000000001690635dd8f6aa9060240160206040518083038186803b158015610de757600080fd5b505afa158015610dfb573d6000803e3d6000fd5b505050506040513d601f19601f82011682018060405250810190610e1f91906139a1565b6001600160a01b03161415610e4757604051637e16712d60e11b815260040160405180910390fd5b6040516375b0d9cd60e01b8152600481018390527f00000000000000000000000000000000000000000000000000000000000000006001600160a01b0316906375b0d9cd9060240160206040518083038186803b158015610ea757600080fd5b505afa158015610ebb573d6000803e3d6000fd5b505050506040513d601f19601f82011682018060405250810190610edf9190613e8a565b600083815260208181526040918290209290925580516001600160a01b0384168152339281019290925283917ff389f4f5d01fe4903d6a7a63b8790b7bf80d374b6afed808c03795c3b323d4d3910160405180910390a25050565b6040516331a9108f60e11b8152600481018390527f00000000000000000000000000000000000000000000000000000000000000006001600160a01b031690636352211e9060240160206040518083038186803b158015610f9a57600080fd5b505afa158015610fae573d6000803e3d6000fd5b505050506040513d601f19601f82011682018060405250810190610fd291906139a1565b826003610fe08383836124dd565b604051632eec7b5560e11b81526004810186905230906001600160a01b037f00000000000000000000000000000000000000000000000000000000000000001690635dd8f6aa9060240160206040518083038186803b15801561104257600080fd5b505afa158015611056573d6000803e3d6000fd5b505050506040513d601f19601f8201168201806040525081019061107a91906139a1565b6001600160a01b0316146110a15760405163e0a0a87d60e01b815260040160405180910390fd5b6040516321d1336160e11b8152600481018690526000907f00000000000000000000000000000000000000000000000000000000000000006001600160a01b0316906343a266c2906024016101206040518083038186803b15801561110557600080fd5b505afa158015611119573d6000803e3d6000fd5b505050506040513d601f19601f8201168201806040525081019061113d9190613e16565b610100810151909150603f1c60019081161461116c576040516346ace3f960e01b815260040160405180910390fd5b6040516375b0d9cd60e01b8152600481018790527f00000000000000000000000000000000000000000000000000000000000000006001600160a01b0316906375b0d9cd9060240160206040518083038186803b1580156111cc57600080fd5b505afa1580156111e0573d6000803e3d6000fd5b505050506040513d601f19601f820116820180604052508101906112049190613e8a565b60008781526020819052604090205414611233576112318660405180602001604052806000815250612ad4565b505b604051633e8c615b60e01b8152600481018790523060248201526001600160a01b03861690633e8c615b90604401600060405180830381600087803b15801561127b57600080fd5b505af115801561128f573d6000803e3d6000fd5b50506040516338a73f9960e11b8152600481018990526001600160a01b0388811660248301527f000000000000000000000000000000000000000000000000000000000000000016925063714e7f329150604401600060405180830381600087803b1580156112fd57600080fd5b505af1158015611311573d6000803e3d6000fd5b5050604080516001600160a01b03891681523360208201528993507f01f954abace731a88ab86e71186040cc2be49fe517ea06bc0d24f25b82b8345692500160405180910390a2505050505050565b61136861351b565b611370613570565b6040516321d1336160e11b8152600481018490527f00000000000000000000000000000000000000000000000000000000000000006001600160a01b0316906343a266c29060240161058c565b6040516331a9108f60e11b8152600481018890526000907f00000000000000000000000000000000000000000000000000000000000000006001600160a01b031690636352211e9060240160206040518083038186803b15801561142057600080fd5b505afa158015611434573d6000803e3d6000fd5b505050506040513d601f19601f8201168201806040525081019061145891906139a1565b604051636e49181f60e01b8152600481018a905233602482015289906009906001600160a01b037f00000000000000000000000000000000000000000000000000000000000000001690636e49181f9060440160206040518083038186803b1580156114c357600080fd5b505afa1580156114d7573d6000803e3d6000fd5b505050506040513d601f19601f820116820180604052508101906114fb9190613c70565b6115078484848461234b565b8a611525576040516327f44f9560e21b815260040160405180910390fd5b6040516321d1336160e11b8152600481018d905260009081906001600160a01b037f000000000000000000000000000000000000000000000000000000000000000016906343a266c2906024016101206040518083038186803b15801561158b57600080fd5b505afa15801561159f573d6000803e3d6000fd5b505050506040513d601f19601f820116820180604052508101906115c39190613e16565b610100810151909150603c1c60019081161415801561167d5750604051636e49181f60e01b8152600481018f90523360248201526001600160a01b037f00000000000000000000000000000000000000000000000000000000000000001690636e49181f9060440160206040518083038186803b15801561164357600080fd5b505afa158015611657573d6000803e3d6000fd5b505050506040513d601f19601f8201168201806040525081019061167b9190613c70565b155b1561169b57604051639d0ca8fd60e01b815260040160405180910390fd5b876116a75760006116b5565b61010081015160081c61ffff165b9150506127108114156116f05760008d8152602081905260409020546116dc908d90614a20565b60008e8152602081905260409020556117be565b6117088c61170083612710614a5f565b612710612df4565b9550806117395760008d8152602081905260409020546117299087906149c7565b60008e8152602081905260409020555b7f00000000000000000000000000000000000000000000000000000000000000006001600160a01b031663ceddd3e48c8f898c6040518563ffffffff1660e01b815260040161178b949392919061456a565b600060405180830381600087803b1580156117a557600080fd5b505af11580156117b9573d6000803e3d6000fd5b505050505b8c8b6001600160a01b03167fe6fee9c572244c0c2238c3112ac12d411750a7ee00eeebd32521c3e5a666c14b8e898e8e873360405161180296959493929190614803565b60405180910390a35050505050979650505050505050565b61182261351b565b61182a613570565b60405163334f245560e11b815260048101859052602481018490527f00000000000000000000000000000000000000000000000000000000000000006001600160a01b03169063669e48aa906044016101206040518083038186803b15801561189257600080fd5b505afa1580156118a6573d6000803e3d6000fd5b505050506040513d601f19601f820116820180604052508101906118ca9190613e16565b91506118d582612143565b90509250929050565b6040516375b0d9cd60e01b81526004810183905260009081906001600160a01b037f000000000000000000000000000000000000000000000000000000000000000016906375b0d9cd9060240160206040518083038186803b15801561194357600080fd5b505afa158015611957573d6000803e3d6000fd5b505050506040513d601f19601f8201168201806040525081019061197b9190613e8a565b60008581526020819052604081205491925090611999908584612ec6565b90506119a58183614a08565b95945050505050565b6040516331a9108f60e11b8152600481018690526000907f00000000000000000000000000000000000000000000000000000000000000006001600160a01b031690636352211e9060240160206040518083038186803b158015611a1157600080fd5b505afa158015611a25573d6000803e3d6000fd5b505050506040513d601f19601f82011682018060405250810190611a4991906139a1565b866007611a578383836124dd565b60405163a7f2a70b60e01b81526001600160a01b037f0000000000000000000000000000000000000000000000000000000000000000169063a7f2a70b90611aab908c908c908c908c908c9060040161473c565b602060405180830381600087803b158015611ac557600080fd5b505af1158015611ad9573d6000803e3d6000fd5b505050506040513d601f19601f82011682018060405250810190611afd91906139a1565b9998505050505050505050565b6040516303336c3d60e51b81526000906001600160a01b037f0000000000000000000000000000000000000000000000000000000000000000169063666d87a090611b5b908f908f906004016144ea565b602060405180830381600087803b158015611b7557600080fd5b505af1158015611b89573d6000803e3d6000fd5b505050506040513d601f19601f82011682018060405250810190611bad9190613e8a565b6040516338a73f9960e11b8152600481018290523060248201529091507f00000000000000000000000000000000000000000000000000000000000000006001600160a01b03169063714e7f3290604401600060405180830381600087803b158015611c1857600080fd5b505af1158015611c2c573d6000803e3d6000fd5b505050506000611c94828c8c8c8c8c90611c469190614a76565b8b8b808060200260200160405190810160405280939291908181526020016000905b82821015610a4157611c8560c08302860136819003810190613cb7565b81526020019060010190611c68565b845190915015611d1f5760405163104373fb60e31b81526001600160a01b037f0000000000000000000000000000000000000000000000000000000000000000169063821b9fd890611cec90859088906004016146bf565b600060405180830381600087803b158015611d0657600080fd5b505af1158015611d1a573d6000803e3d6000fd5b505050505b7ff3e6948ba8b32d557363ea08470121c47c0127659aed09320812174d373afef281838533604051611d549493929190614846565b60405180910390a1509b9a5050505050505050505050565b6040516331a9108f60e11b8152600481018a90526000907f00000000000000000000000000000000000000000000000000000000000000006001600160a01b031690636352211e9060240160206040518083038186803b158015611dcf57600080fd5b505afa158015611de3573d6000803e3d6000fd5b505050506040513d601f19601f82011682018060405250810190611e0791906139a1565b8a6001611e158383836124dd565b604051632cee6deb60e01b8152600481018e90526000906001600160a01b037f00000000000000000000000000000000000000000000000000000000000000001690632cee6deb9060240160206040518083038186803b158015611e7857600080fd5b505afa158015611e8c573d6000803e3d6000fd5b505050506040513d601f19601f82011682018060405250810190611eb09190613e8a565b1115611ed25760405160016217a1f760e11b0319815260040160405180910390fd5b6040516338a73f9960e11b8152600481018e90523060248201526001600160a01b037f0000000000000000000000000000000000000000000000000000000000000000169063714e7f3290604401600060405180830381600087803b158015611f3a57600080fd5b505af1158015611f4e573d6000803e3d6000fd5b50505050611f6c8d8d8d8d8d8d90611f669190614a76565b8c612664565b865190945015611ff7577f00000000000000000000000000000000000000000000000000000000000000006001600160a01b031663821b9fd88e886040518363ffffffff1660e01b8152600401611fc49291906146bf565b600060405180830381600087803b158015611fde57600080fd5b505af1158015611ff2573d6000803e3d6000fd5b505050505b7f8621c3692c18d8ddd4cd26457d6a3e1d916e7001c4243a6c8dfa862a7e10a823848e873360405161202c9493929190614846565b60405180910390a15050509998505050505050505050565b60006120868484848080601f016020809104026020016040519081016040528093929190818152602001838380828437600092019190915250612ad492505050565b90505b9392505050565b6000828152602081905260408082205490516375b0d9cd60e01b815260048101859052612089919084907f00000000000000000000000000000000000000000000000000000000000000006001600160a01b0316906375b0d9cd9060240160206040518083038186803b15801561210657600080fd5b505afa15801561211a573d6000803e3d6000fd5b505050506040513d601f19601f8201168201806040525081019061213e9190613e8a565b612ec6565b61214b613570565b604080516102408101909152610100830151819060081c61ffff16815260200161217484612f37565b815260200161218284612f54565b815260200161219e846101000151600160389190911c81161490565b151581526020016121bc846101000151600160399190911c81161490565b151581526020016121da8461010001516001603a9190911c81161490565b151581526020016121f88461010001516001603b9190911c81161490565b151581526020016122168461010001516001603c9190911c81161490565b151581526020016122348461010001516001603d9190911c81161490565b151581526020016122528461010001516001603e9190911c81161490565b151581526020016122708461010001516001603f9190911c81161490565b1515815260200161228e846101000151600160409190911c81161490565b151581526020016122ac846101000151600160419190911c81161490565b151581526020016122ca846101000151600160429190911c81161490565b151581526020016122e8846101000151600160439190911c81161490565b15158152602001612306846101000151600160449190911c81161490565b15158152602001612324846101000151600160459190911c81161490565b1515815260200161233a84610100015160461c90565b6001600160a01b0316905292915050565b801580156123625750336001600160a01b03851614155b801561240d575060405163c161c93f60e01b81526001600160a01b037f0000000000000000000000000000000000000000000000000000000000000000169063c161c93f906123bb9033908890889088906004016144c1565b60206040518083038186803b1580156123d357600080fd5b505afa1580156123e7573d6000803e3d6000fd5b505050506040513d601f19601f8201168201806040525081019061240b9190613c70565b155b80156124b9575060405163c161c93f60e01b81526001600160a01b037f0000000000000000000000000000000000000000000000000000000000000000169063c161c93f90612467903390889060009088906004016144c1565b60206040518083038186803b15801561247f57600080fd5b505afa158015612493573d6000803e3d6000fd5b505050506040513d601f19601f820116820180604052508101906124b79190613c70565b155b156124d75760405163075fd2b160e01b815260040160405180910390fd5b50505050565b336001600160a01b03841614801590612595575060405163c161c93f60e01b81526001600160a01b037f0000000000000000000000000000000000000000000000000000000000000000169063c161c93f906125439033908790879087906004016144c1565b60206040518083038186803b15801561255b57600080fd5b505afa15801561256f573d6000803e3d6000fd5b505050506040513d601f19601f820116820180604052508101906125939190613c70565b155b8015612641575060405163c161c93f60e01b81526001600160a01b037f0000000000000000000000000000000000000000000000000000000000000000169063c161c93f906125ef903390879060009087906004016144c1565b60206040518083038186803b15801561260757600080fd5b505afa15801561261b573d6000803e3d6000fd5b505050506040513d601f19601f8201168201806040525081019061263f9190613c70565b155b1561265f5760405163075fd2b160e01b815260040160405180910390fd5b505050565b60006127108535111561268a57604051635623289560e01b815260040160405180910390fd5b612710856020013511156126b157604051639db9ee9360e01b815260040160405180910390fd5b612710856040013511156126d857604051636edf8de360e11b815260040160405180910390fd5b60006001600160a01b037f00000000000000000000000000000000000000000000000000000000000000001663a249d425898961272261271d368c90038c018c613cd3565b612f71565b896040518563ffffffff1660e01b81526004016127429493929190614775565b61012060405180830381600087803b15801561275d57600080fd5b505af1158015612771573d6000803e3d6000fd5b505050506040513d601f19601f820116820180604052508101906127959190613e16565b905060005b845181101561289f5760008582815181106127b7576127b7614c60565b60200260200101516020015151111561288d577f00000000000000000000000000000000000000000000000000000000000000006001600160a01b03166312e7c4c68a846020015188858151811061281157612811614c60565b60200260200101516000015189868151811061282f5761282f614c60565b6020026020010151602001516040518563ffffffff1660e01b815260040161285a949392919061487e565b600060405180830381600087803b15801561287457600080fd5b505af1158015612888573d6000803e3d6000fd5b505050505b8061289781614bfc565b91505061279a565b5060005b8351811015612ac45760008482815181106128c0576128c0614c60565b602002602001015190506001600160e81b038016816040015111156128f85760405163a9b8fbcf60e01b815260040160405180910390fd5b606081015162ffffff101561292057604051639583faed60e01b815260040160405180910390fd5b60808101516001600160e81b03101561294c57604051635730278360e01b815260040160405180910390fd5b60a081015162ffffff10156129745760405163d9b93c2560e01b815260040160405180910390fd5b6040810151156129d157606081015160408083015160008d815260016020908152838220888201518352815283822086516001600160a01b03908116845290825284832082880151909116835290529190912060e89290921b1790555b608081015115612a2e5760a0810151608082015160008c8152600260209081526040808320888301518452825280832086516001600160a01b039081168552908352818420838801519091168452909152902060e89290921b1790555b82516020808501516040805185516001600160a01b0390811682528685015116938101939093528085015190830152606080850151908301526080808501519083015260a080850151908301523360c08301528c92917f8a1c80ab9ab05d6bf02096dd94aa2fa05a9de212e793835a50dd5ffe8d8cbab89060e00160405180910390a45080612abc81614bfc565b9150506128a3565b5060200151979650505050505050565b6040516321d1336160e11b81526004810183905260009081906001600160a01b037f000000000000000000000000000000000000000000000000000000000000000016906343a266c2906024016101206040518083038186803b158015612b3a57600080fd5b505afa158015612b4e573d6000803e3d6000fd5b505050506040513d601f19601f82011682018060405250810190612b729190613e16565b6040516375b0d9cd60e01b8152600481018690529091506000906001600160a01b037f000000000000000000000000000000000000000000000000000000000000000016906375b0d9cd9060240160206040518083038186803b158015612bd857600080fd5b505afa158015612bec573d6000803e3d6000fd5b505050506040513d601f19601f82011682018060405250810190612c109190613e8a565b600086815260208190526040902054610100840151919250612c399160081c61ffff1683612ec6565b9250612c458382614a08565b6000868152602081905260408082209290925590516331a9108f60e11b8152600481018790527f00000000000000000000000000000000000000000000000000000000000000006001600160a01b031690636352211e9060240160206040518083038186803b158015612cb757600080fd5b505afa158015612ccb573d6000803e3d6000fd5b505050506040513d601f19601f82011682018060405250810190612cef91906139a1565b905060008415612d0f57612d0a878560200151600288613106565b612d12565b60005b90508015612da0576040516333b774f960e21b81526001600160a01b037f0000000000000000000000000000000000000000000000000000000000000000169063ceddd3e490612d6d9085908b90869060009060040161456a565b600060405180830381600087803b158015612d8757600080fd5b505af1158015612d9b573d6000803e3d6000fd5b505050505b86846000015185602001517fb12d7a78048433f69fe6d30145bf08aad8e82985b96e4db6d5c6a7e94d57086e8589868c33604051612de2959493929190614592565b60405180910390a45050505092915050565b600080806000198587098587029250828110838203039150508060001415612e2f57838281612e2557612e25614c4a565b0492505050612089565b838110612e5d57604051631dcf306360e21b8152600481018290526024810185905260440160405180910390fd5b60008486880960026001871981018816978890046003810283188082028403028082028403028082028403028082028403028082028403029081029092039091026000889003889004909101858311909403939093029303949094049190911702949350505050565b6000806000851215612eea57612edb85614c17565b612ee59084614a08565b612ef4565b612ef48584614a5f565b905080612f05576000915050612089565b612710841415612f16579050612089565b80612f2d81612710612f288882614a5f565b612df4565b6119a59190614a5f565b60006018826101000151901c61ffff1661271061052d9190614a5f565b60006028826101000151901c61ffff1661271061052d9190614a5f565b8051602082015160089190911b60011790601890612f9190612710614a5f565b901b8117905060288260400151612710612fab9190614a5f565b901b81179050816060015115612fc657670100000000000000175b816080015115612fdb57670200000000000000175b8160a0015115612ff057670400000000000000175b8160c001511561300557670800000000000000175b8160e001511561301a57671000000000000000175b8161010001511561303057672000000000000000175b8161012001511561304657674000000000000000175b8161014001511561305c57678000000000000000175b816101600151156130735768010000000000000000175b8161018001511561308a5768020000000000000000175b816101a00151156130a15768040000000000000000175b816101c00151156130b85768080000000000000000175b816101e00151156130cf5768100000000000000000175b816102000151156130e65768200000000000000000175b610220919091015160461b68400000000000000000600160e61b03161790565b6040516369e11cc560e01b815260048101859052602481018490526044810183905281906000907f00000000000000000000000000000000000000000000000000000000000000006001600160a01b0316906369e11cc59060640160006040518083038186803b15801561317957600080fd5b505afa15801561318d573d6000803e3d6000fd5b505050506040513d6000823e601f3d908101601f191682016040526131b59190810190613b62565b905060005b81518110156135115760008282815181106131d7576131d7614c60565b6020026020010151905060006131f6868360400151633b9aca00612df4565b905080156134be5760c08201516001600160a01b037f000000000000000000000000000000000000000000000000000000000000000081169163ceddd3e491166133085760608401516132655760808401516001600160a01b031661325b573361330e565b836080015161330e565b60608401516040516331a9108f60e11b815260048101919091527f00000000000000000000000000000000000000000000000000000000000000006001600160a01b031690636352211e9060240160206040518083038186803b1580156132cb57600080fd5b505afa1580156132df573d6000803e3d6000fd5b505050506040513d601f19601f8201168201806040525081019061330391906139a1565b61330e565b8360c001515b84516040516001600160e01b031960e085901b16815261333692918e9187919060040161456a565b600060405180830381600087803b15801561335057600080fd5b505af1158015613364573d6000803e3d6000fd5b5050505060c08201516001600160a01b0316156134b1578160c001516001600160a01b0316639d740bfa6040518060c001604052807f00000000000000000000000000000000000000000000000000000000000000006001600160a01b031663ea78803f8e6040518263ffffffff1660e01b81526004016133e791815260200190565b60206040518083038186803b1580156133ff57600080fd5b505afa158015613413573d6000803e3d6000fd5b505050506040513d601f19601f8201168201806040525081019061343791906139a1565b6001600160a01b03168152602001848152602001601281526020018c81526020018a8152602001858152506040518263ffffffff1660e01b815260040161347e919061463c565b600060405180830381600087803b15801561349857600080fd5b505af11580156134ac573d6000803e3d6000fd5b505050505b6134bb8186614a5f565b94505b86888a7f990c1da5d280602f972ae3c429b6dc66a66569875205cc6e67f14e0b3fc4d2ac8585336040516134f493929190614690565b60405180910390a45050808061350990614bfc565b9150506131ba565b5050949350505050565b6040518061012001604052806000815260200160008152602001600081526020016000815260200160008152602001600081526020016000815260200160006001600160a01b03168152602001600081525090565b6040805161024081018252600080825260208201819052918101829052606081018290526080810182905260a0810182905260c0810182905260e08101829052610100810182905261012081018290526101408101829052610160810182905261018081018290526101a081018290526101c081018290526101e08101829052610200810182905261022081019190915290565b803561360f81614c8c565b919050565b600082601f83011261362557600080fd5b8135602061363a613635836149a4565b614974565b80838252828201915082860187848660051b890101111561365a57600080fd5b60005b8581101561368257813561367081614c8c565b8452928401929084019060010161365d565b5090979650505050505050565b60008083601f8401126136a157600080fd5b5081356001600160401b038111156136b857600080fd5b60208301915083602060c0830285010111156136d357600080fd5b9250929050565b600082601f8301126136eb57600080fd5b813560206136fb613635836149a4565b8281528181019085830160c08086028801850189101561371a57600080fd5b60005b868110156137415761372f8a84613859565b8552938501939181019160010161371d565b509198975050505050505050565b60008083601f84011261376157600080fd5b5081356001600160401b0381111561377857600080fd5b6020830191508360208260051b85010111156136d357600080fd5b803561360f81614ca4565b805161360f81614c8c565b60008083601f8401126137bb57600080fd5b5081356001600160401b038111156137d257600080fd5b6020830191508360208285010111156136d357600080fd5b600082601f8301126137fb57600080fd5b81356001600160401b0381111561381457613814614c76565b613827601f8201601f1916602001614974565b81815284602083860101111561383c57600080fd5b816020850160208301376000918101602001919091529392505050565b600060c0828403121561386b57600080fd5b60405160c081018181106001600160401b038211171561388d5761388d614c76565b604052905080823561389e81614c8c565b815260208301356138ae81614c8c565b8060208301525060408301356040820152606083013560608201526080830135608082015260a083013560a08201525092915050565b6000608082840312156138f657600080fd5b50919050565b600061024082840312156138f657600080fd5b6000610120828403121561392257600080fd5b61392a6148e4565b9050815181526020820151602082015260408201516040820152606082015160608201526080820151608082015260a082015160a082015260c082015160c082015261397860e0830161379e565b60e082015261010080830151818301525092915050565b6000604082840312156138f657600080fd5b6000602082840312156139b357600080fd5b815161208981614c8c565b60008060008060008060008060008060006103a08c8e0312156139e057600080fd5b6139e98c613604565b9a506001600160401b038060208e01351115613a0457600080fd5b613a148e60208f01358f0161398f565b9a50613a238e60408f016138e4565b9950613a328e60c08f016138fc565b98506103008d01359750806103208e01351115613a4e57600080fd5b613a5f8e6103208f01358f0161374f565b90975095506103408d0135811015613a7657600080fd5b613a878e6103408f01358f0161368f565b90955093506103608d0135811015613a9e57600080fd5b613aaf8e6103608f01358f01613614565b9250806103808e01351115613ac357600080fd5b50613ad58d6103808e01358e016137ea565b90509295989b509295989b9093969950565b60008060008060008060a08789031215613b0057600080fd5b8635613b0b81614c8c565b9550602087013594506040870135935060608701356001600160401b03811115613b3457600080fd5b613b4089828a016137a9565b9094509250506080870135613b5481614ca4565b809150509295509295509295565b60006020808385031215613b7557600080fd5b82516001600160401b03811115613b8b57600080fd5b8301601f81018513613b9c57600080fd5b8051613baa613635826149a4565b8181528381019083850160e0808502860187018a1015613bc957600080fd5b60009550855b85811015613c615781838c031215613be5578687fd5b613bed61490d565b8351613bf881614ca4565b815283890151613c0781614ca4565b818a01526040848101519082015260608085015190820152608080850151613c2e81614c8c565b9082015260a0848101519082015260c080850151613c4b81614c8c565b9082015285529387019391810191600101613bcf565b50919998505050505050505050565b600060208284031215613c8257600080fd5b815161208981614ca4565b600060208284031215613c9f57600080fd5b81356001600160e01b03198116811461208957600080fd5b600060c08284031215613cc957600080fd5b6120898383613859565b60006102408284031215613ce657600080fd5b613cee61492f565b823581526020830135602082015260408301356040820152613d1260608401613793565b6060820152613d2360808401613793565b6080820152613d3460a08401613793565b60a0820152613d4560c08401613793565b60c0820152613d5660e08401613793565b60e0820152610100613d69818501613793565b90820152610120613d7b848201613793565b90820152610140613d8d848201613793565b90820152610160613d9f848201613793565b90820152610180613db1848201613793565b908201526101a0613dc3848201613793565b908201526101c0613dd5848201613793565b908201526101e0613de7848201613793565b90820152610200613df9848201613793565b90820152610220613e0b848201613604565b908201529392505050565b60006101208284031215613e2957600080fd5b612089838361390f565b6000806101408385031215613e4757600080fd5b613e51848461390f565b915061012083015160038110613e6657600080fd5b809150509250929050565b600060208284031215613e8357600080fd5b5035919050565b600060208284031215613e9c57600080fd5b5051919050565b60008060408385031215613eb657600080fd5b823591506020830135613e6681614c8c565b600080600060608486031215613edd57600080fd5b833592506020840135613eef81614c8c565b91506040840135613eff81614c8c565b809150509250925092565b600080600060408486031215613f1f57600080fd5b8335925060208401356001600160401b03811115613f3c57600080fd5b613f48868287016137a9565b9497909650939450505050565b600080600080600060608688031215613f6d57600080fd5b8535945060208601356001600160401b0380821115613f8b57600080fd5b613f9789838a016137a9565b90965094506040880135915080821115613fb057600080fd5b50613fbd888289016137a9565b969995985093965092949392505050565b6000806000806000806000806000806103608b8d031215613fee57600080fd5b8a359950613fff8c60208d016138e4565b985061400e8c60a08d016138fc565b97506102e08b013596506103008b01356001600160401b038082111561403357600080fd5b61403f8e838f0161374f565b90985096506103208d013591508082111561405957600080fd5b6140658e838f0161368f565b90965094506103408d013591508082111561407f57600080fd5b5061408c8d828e016137a9565b915080935050809150509295989b9194979a5092959850565b60008060008060008060008060006103808a8c0312156140c457600080fd5b893598506140d58b60208c016138e4565b97506140e48b60a08c016138fc565b96506102e08a013595506103008a01356001600160401b038082111561410957600080fd5b6141158d838e0161374f565b90975095506103208c013591508082111561412f57600080fd5b61413b8d838e016136da565b94506103408c013591508082111561415257600080fd5b61415e8d838e01613614565b93506103608c013591508082111561417557600080fd5b506141828c828d016137ea565b9150509295985092959850929598565b600080604083850312156141a557600080fd5b50508035926020909101359150565b600080600080600080600060c0888a0312156141cf57600080fd5b873596506020880135955060408801356141e881614c8c565b945060608801356001600160401b0381111561420357600080fd5b61420f8a828b016137a9565b909550935050608088013561422381614ca4565b915060a088013561423381614ca4565b8091505092959891949750929550565b6000806000806080858703121561425957600080fd5b8435935060208501359250604085013561427281614c8c565b9150606085013561428281614c8c565b939692955090935050565b81835281816020850137506000828201602090810191909152601f909101601f19169091010190565b6000815180845260005b818110156142dc576020818501810151868301820152016142c0565b818111156142ee576000602083870101525b50601f01601f19169290920160200192915050565b805182526020810151602083015260408101516040830152606081015161432e606084018215159052565b506080810151614342608084018215159052565b5060a081015161435660a084018215159052565b5060c081015161436a60c084018215159052565b5060e081015161437e60e084018215159052565b5061010081810151151590830152610120808201511515908301526101408082015115159083015261016080820151151590830152610180808201511515908301526101a0808201511515908301526101c0808201511515908301526101e08082015115159083015261020080820151151590830152610220808201516001600160a01b038116828501526124d7565b805182526020808201519083015260408082015190830152606080820151908301526080808201519083015260a0808201519083015260c0808201519083015260e0808201516001600160a01b03169083015261010090810151910152565b80511515825260208082015115159083015260408082015190830152606080820151908301526080808201516001600160a01b039081169184019190915260a0808301519084015260c09182015116910152565b6001600160a01b0394851681529290931660208301526040820152606081019190915260800190565b6001600160a01b0383168152604060208201526000823536849003601e1901811261451457600080fd5b830180356001600160401b0381111561452c57600080fd5b80360385131561453b57600080fd5b60408085015261455260808501826020850161428d565b91505060208401356060840152809150509392505050565b6001600160a01b03949094168452602084019290925260408301521515606082015260800190565b600060018060a01b03808816835286602084015285604084015260a060608401526145c060a08401866142b6565b91508084166080840152509695505050505050565b61036081016145e4828561440e565b612089610120830184614303565b6103808101614601828661440e565b61460f610120830185614303565b6003831061462d57634e487b7160e01b600052602160045260246000fd5b82610360830152949350505050565b81516001600160a01b031681526020808301519082015260408083015190820152606080830151908201526080808301519082015260a0828101516101808301916146899084018261446d565b5092915050565b610120810161469f828661446d565b60e08201939093526001600160a01b039190911661010090910152919050565b6000604082018483526020604081850152818551808452606086019150828701935060005b818110156136825784516001600160a01b0316835293830193918301916001016146e4565b84815260606020820152600061472360608301858761428d565b905060018060a01b038316604083015295945050505050565b85815260606020820152600061475660608301868861428d565b828103604084015261476981858761428d565b98975050505050505050565b600060e08201905085825284356020830152602085013560408301526040850135606083015260608501356147a981614c8c565b6001600160a01b0316608083015260a082019390935260c0015292915050565b8581528460208201526080604082015260006147e960808301858761428d565b905060018060a01b03831660608301529695505050505050565b86815285602082015260a06040820152600061482360a08301868861428d565b6060830194909452506001600160a01b0391909116608090910152949350505050565b84815283602082015260806040820152600061486560808301856142b6565b905060018060a01b038316606083015295945050505050565b600060808201868352602086818501528560408501526080606085015281855180845260a086019150828701935060005b818110156148d5576148c283865161446d565b9383019360e092909201916001016148af565b50909998505050505050505050565b60405161012081016001600160401b038111828210171561490757614907614c76565b60405290565b60405160e081016001600160401b038111828210171561490757614907614c76565b60405161024081016001600160401b038111828210171561490757614907614c76565b604080519081016001600160401b038111828210171561490757614907614c76565b604051601f8201601f191681016001600160401b038111828210171561499c5761499c614c76565b604052919050565b60006001600160401b038211156149bd576149bd614c76565b5060051b60200190565b600080821280156001600160ff1b03849003851316156149e9576149e9614c34565b600160ff1b8390038412811615614a0257614a02614c34565b50500190565b60008219821115614a1b57614a1b614c34565b500190565b60008083128015600160ff1b850184121615614a3e57614a3e614c34565b6001600160ff1b0384018313811615614a5957614a59614c34565b50500390565b600082821015614a7157614a71614c34565b500390565b6000614a84613635846149a4565b808482526020808301925084368760051b87011115614aa257600080fd5b60005b87811015614bf05781356001600160401b0380821115614ac457600080fd5b81890191506040808336031215614ada57600080fd5b614ae2614952565b833581528684013583811115614af757600080fd5b939093019236601f850112614b0b57600080fd5b83359250614b1b613635846149a4565b8381528781019085890160e03681880289018c011115614b3a57600080fd5b600097505b86881015614bd457808236031215614b5657600080fd5b614b5e61490d565b8235614b6981614ca4565b8152828c0135614b7881614ca4565b818d0152828701358782015260608084013590820152608080840135614b9d81614c8c565b9082015260a0838101359082015260c080840135614bba81614c8c565b90820152845260019790970196928a019290810190614b3f565b5050828901525088525050509382019390820190600101614aa5565b50919695505050505050565b6000600019821415614c1057614c10614c34565b5060010190565b6000600160ff1b821415614c2d57614c2d614c34565b5060000390565b634e487b7160e01b600052601160045260246000fd5b634e487b7160e01b600052601260045260246000fd5b634e487b7160e01b600052603260045260246000fd5b634e487b7160e01b600052604160045260246000fd5b6001600160a01b0381168114614ca157600080fd5b50565b8015158114614ca157600080fdfea2646970667358221220780207d11088f9b038c2ea05f74e5f4786997ac821a6db72c318c9bc54c01fa464736f6c63430008060033",
    "linkReferences": {}
  }
}