{
  "abi": [
    {
      "inputs": [],
      "name": "INSUFFICIENT_BALANCE",
      "type": "error"
    },
    {
      "inputs": [],
      "name": "INVALID_LOCK_DURATION",
      "type": "error"
    },
    {
      "inputs": [
        {
          "internalType": "uint256",
          "name": "",
          "type": "uint256"
        },
        {
          "internalType": "uint256",
          "name": "_amount",
          "type": "uint256"
        },
        {
          "internalType": "uint256",
          "name": "_duration",
          "type": "uint256"
        },
        {
          "internalType": "uint256",
          "name": "",
          "type": "uint256"
        },
        {
          "internalType": "uint256[]",
          "name": "_lockDurationOptions",
          "type": "uint256[]"
        }
      ],
      "name": "tokenURI",
      "outputs": [
        {
          "internalType": "string",
          "name": "",
          "type": "string"
        }
      ],
      "stateMutability": "pure",
      "type": "function"
    }
  ],
  "bytecode": {
    "object": "0x608060405234801561001057600080fd5b50610d25806100206000396000f3fe608060405234801561001057600080fd5b506004361061002b5760003560e01c806308120ceb14610030575b600080fd5b61004361003e366004610a51565b610059565b6040516100509190610ba3565b60405180910390f35b60606000851161007c57604051632858f9ab60e11b815260040160405180910390fd5b6000841161009d576040516318f2148360e11b815260040160405180910390fd5b60006100a8866100f6565b905060006100b686856108d8565b90506100ca6100c58284610c02565b61094b565b6040516020016100da9190610b3f565b6040516020818303038152906040529250505095945050505050565b60006001821015801561010a575060648211155b1561011757506001919050565b60658210158015610129575060c88211155b1561013657506002919050565b60c98210158015610149575061012c8211155b1561015657506003919050565b610191821015801561016a57506101f48211155b1561017757506004919050565b6101f5821015801561018b57506102588211155b1561019857506005919050565b61025982101580156101ac57506102bc8211155b156101b957506006919050565b6102bd82101580156101cd57506103208211155b156101da57506007919050565b61032182101580156101ee57506103848211155b156101fb57506008919050565b610385821015801561020f57506103e88211155b1561021c57506009919050565b6103e9821015801561023057506107d08211155b1561023d5750600a919050565b6107d182101580156102515750610bb88211155b1561025e5750600b919050565b610bb982101580156102725750610fa08211155b1561027f5750600c919050565b610fa1821015801561029357506113888211155b156102a05750600d919050565b61138982101580156102b457506117708211155b156102c15750600e919050565b61177182101580156102d55750611b588211155b156102e25750600f919050565b611b5982101580156102f65750611f408211155b1561030357506010919050565b611f41821015801561031757506123288211155b1561032457506011919050565b612329821015801561033857506127108211155b1561034557506012919050565b61271182101580156103595750612ee08211155b1561036657506013919050565b612ee1821015801561037a57506136b08211155b1561038757506014919050565b6136b1821015801561039b5750613e808211155b156103a857506015919050565b613e8182101580156103bc57506146508211155b156103c957506016919050565b61465182101580156103dd5750614e208211155b156103ea57506017919050565b614e2182101580156103fe57506155f08211155b1561040b57506018919050565b6155f1821015801561041f5750615dc08211155b1561042c57506019919050565b615dc1821015801561044057506165908211155b1561044d5750601a919050565b61659182101580156104615750616d608211155b1561046e5750601b919050565b616d61821015801561048257506175308211155b1561048f5750601c919050565b61753182101580156104a35750619c408211155b156104b05750601d919050565b619c4182101580156104c4575061c3508211155b156104d15750601e919050565b61c35182101580156104e5575061ea608211155b156104f25750601f919050565b61ea6182101580156105075750620111708211155b1561051457506020919050565b62011171821015801561052a5750620138808211155b1561053757506021919050565b62013881821015801561054d575062015f908211155b1561055a57506022919050565b62015f9182101580156105705750620186a08211155b1561057d57506023919050565b620186a18210158015610593575062030d408211155b156105a057506024919050565b62030d4182101580156105b65750620493e08211155b156105c357506025919050565b620493e182101580156105d9575062061a808211155b156105e657506026919050565b62061a8182101580156105fc57506207a1208211155b1561060957506027919050565b6207a121821015801561061f5750620927c08211155b1561062c57506028919050565b620927c182101580156106425750620aae608211155b1561064f57506029919050565b620aae6182101580156106655750620c35008211155b156106725750602a919050565b620c350182101580156106885750620dbba08211155b156106955750602b919050565b620dbba182101580156106ab5750620f42408211155b156106b85750602c919050565b620f424182101580156106ce5750621e84808211155b156106db5750602d919050565b621e848182101580156106f15750622dc6c08211155b156106fe5750602e919050565b622dc6c182101580156107145750623d09008211155b156107215750602f919050565b623d090182101580156107375750624c4b408211155b1561074457506030919050565b624c4b41821015801561075a5750625b8d808211155b1561076757506031919050565b625b8d81821015801561077d5750626acfc08211155b1561078a57506032919050565b626acfc182101580156107a05750627a12008211155b156107ad57506033919050565b627a120182101580156107c35750628954408211155b156107d057506034919050565b6289544182101580156107e65750629896808211155b156107f357506035919050565b62989681821015801561080a57506301312d008211155b1561081757506036919050565b6301312d01821015801561082f57506302625a008211155b1561083c57506037919050565b6302625a01821015801561085457506302faf0808211155b1561086157506038919050565b6302faf081821015801561087957506305f5e1008211155b1561088657506039919050565b6305f5e101821015801561089e5750631dcd65008211155b156108ab5750603a919050565b631dcd650182101580156108c357506329b927008211155b156108d05750603b919050565b50603c919050565b6000805b825181101561092b57838382815181106108f8576108f8610cc3565b6020026020010151141561091957610911816001610bd6565b915050610945565b8061092381610c68565b9150506108dc565b506040516318f2148360e11b815260040160405180910390fd5b92915050565b60608161096f5750506040805180820190915260018152600360fc1b602082015290565b8160005b8115610999578061098381610c68565b91506109929050600a83610bee565b9150610973565b60008167ffffffffffffffff8111156109b4576109b4610cd9565b6040519080825280601f01601f1916602001820160405280156109de576020820181803683370190505b5090505b8415610a49576109f3600183610c21565b9150610a00600a86610c83565b610a0b906030610bd6565b60f81b818381518110610a2057610a20610cc3565b60200101906001600160f81b031916908160001a905350610a42600a86610bee565b94506109e2565b949350505050565b600080600080600060a08688031215610a6957600080fd5b8535945060208087013594506040870135935060608701359250608087013567ffffffffffffffff80821115610a9e57600080fd5b818901915089601f830112610ab257600080fd5b813581811115610ac457610ac4610cd9565b8060051b604051601f19603f83011681018181108582111715610ae957610ae9610cd9565b604052828152858101935084860182860187018e1015610b0857600080fd5b600095505b83861015610b2b578035855260019590950194938601938601610b0d565b508096505050505050509295509295909350565b7f697066733a2f2f516d5669635633764e79504b744b785950505069564b78614181527546613858326b5035787973364e4668694866387a6a2f60501b602082015260008251610b96816036850160208701610c38565b9190910160360192915050565b6020815260008251806020840152610bc2816040850160208701610c38565b601f01601f19169190910160400192915050565b60008219821115610be957610be9610c97565b500190565b600082610bfd57610bfd610cad565b500490565b6000816000190483118215151615610c1c57610c1c610c97565b500290565b600082821015610c3357610c33610c97565b500390565b60005b83811015610c53578181015183820152602001610c3b565b83811115610c62576000848401525b50505050565b6000600019821415610c7c57610c7c610c97565b5060010190565b600082610c9257610c92610cad565b500690565b634e487b7160e01b600052601160045260246000fd5b634e487b7160e01b600052601260045260246000fd5b634e487b7160e01b600052603260045260246000fd5b634e487b7160e01b600052604160045260246000fdfea26469706673582212206bdeaf5d3cae3ebf161e861aebe3252a0cbef6d0b6308ce2f8e37f7e1125392364736f6c63430008060033",
    "linkReferences": {}
  }
}