{
  "abi": [
    {
      "inputs": [],
      "name": "INSUFFICIENT_BALANCE",
      "type": "error"
    },
    {
      "inputs": [],
      "name": "INVALID_LOCK_DURATION",
      "type": "error"
    },
    {
      "anonymous": false,
      "inputs": [
        {
          "indexed": true,
          "internalType": "address",
          "name": "previousOwner",
          "type": "address"
        },
        {
          "indexed": true,
          "internalType": "address",
          "name": "newOwner",
          "type": "address"
        }
      ],
      "name": "OwnershipTransferred",
      "type": "event"
    },
    {
      "inputs": [],
      "name": "baseUri",
      "outputs": [
        {
          "internalType": "string",
          "name": "",
          "type": "string"
        }
      ],
      "stateMutability": "view",
      "type": "function"
    },
    {
      "inputs": [],
      "name": "contractURI",
      "outputs": [
        {
          "internalType": "string",
          "name": "",
          "type": "string"
        }
      ],
      "stateMutability": "pure",
      "type": "function"
    },
    {
      "inputs": [],
      "name": "decimals",
      "outputs": [
        {
          "internalType": "uint8",
          "name": "",
          "type": "uint8"
        }
      ],
      "stateMutability": "view",
      "type": "function"
    },
    {
      "inputs": [],
      "name": "owner",
      "outputs": [
        {
          "internalType": "address",
          "name": "",
          "type": "address"
        }
      ],
      "stateMutability": "view",
      "type": "function"
    },
    {
      "inputs": [],
      "name": "renounceOwnership",
      "outputs": [],
      "stateMutability": "nonpayable",
      "type": "function"
    },
    {
      "inputs": [
        {
          "internalType": "string",
          "name": "_baseUri",
          "type": "string"
        }
      ],
      "name": "setBaseURI",
      "outputs": [],
      "stateMutability": "nonpayable",
      "type": "function"
    },
    {
      "inputs": [
        {
          "internalType": "uint256",
          "name": "_tokenId",
          "type": "uint256"
        },
        {
          "internalType": "uint256",
          "name": "_amount",
          "type": "uint256"
        },
        {
          "internalType": "uint256",
          "name": "_duration",
          "type": "uint256"
        },
        {
          "internalType": "uint256",
          "name": "_lockedUntil",
          "type": "uint256"
        },
        {
          "internalType": "uint256[]",
          "name": "_lockDurationOptions",
          "type": "uint256[]"
        }
      ],
      "name": "tokenURI",
      "outputs": [
        {
          "internalType": "string",
          "name": "",
          "type": "string"
        }
      ],
      "stateMutability": "view",
      "type": "function"
    },
    {
      "inputs": [
        {
          "internalType": "address",
          "name": "newOwner",
          "type": "address"
        }
      ],
      "name": "transferOwnership",
      "outputs": [],
      "stateMutability": "nonpayable",
      "type": "function"
    }
  ],
  "bytecode": {
    "object": "0x60e060405260366080818152906200117260a0398051620000299160019160209091019062000099565b503480156200003757600080fd5b50620000433362000049565b6200017c565b600080546001600160a01b038381166001600160a01b0319831681178455604051919092169283917f8be0079c531659141344cd1fd0a4f28419497f9722a3daafe3b4186f6b6457e09190a35050565b828054620000a7906200013f565b90600052602060002090601f016020900481019282620000cb576000855562000116565b82601f10620000e657805160ff191683800117855562000116565b8280016001018555821562000116579182015b8281111562000116578251825591602001919060010190620000f9565b506200012492915062000128565b5090565b5b8082111562000124576000815560010162000129565b600181811c908216806200015457607f821691505b602082108114156200017657634e487b7160e01b600052602260045260246000fd5b50919050565b610fe6806200018c6000396000f3fe608060405234801561001057600080fd5b50600436106100885760003560e01c80638da5cb5b1161005b5780638da5cb5b146100ed5780639abc832014610108578063e8a3d48514610110578063f2fde38b1461011857600080fd5b806308120ceb1461008d578063313ce567146100b657806355f804b3146100d0578063715018a6146100e5575b600080fd5b6100a061009b366004610b18565b61012b565b6040516100ad9190610cb1565b60405180910390f35b6100be601281565b60405160ff90911681526020016100ad565b6100e36100de366004610a83565b6101cc565b005b6100e3610216565b6000546040516001600160a01b0390911681526020016100ad565b6100a061024c565b6100a06102da565b6100e3610126366004610a53565b6102fa565b60606000851161014e57604051632858f9ab60e11b815260040160405180910390fd5b6000841161016f576040516318f2148360e11b815260040160405180910390fd5b60016101a161017e8685610395565b610187886103fe565b610192906005610e64565b61019c9190610d4a565b610864565b6040516020016101b2929190610c0a565b604051602081830303815290604052905095945050505050565b6000546001600160a01b031633146101ff5760405162461bcd60e51b81526004016101f690610ce4565b60405180910390fd5b80516102129060019060208401906109ba565b5050565b6000546001600160a01b031633146102405760405162461bcd60e51b81526004016101f690610ce4565b61024a600061096a565b565b6001805461025990610eca565b80601f016020809104026020016040519081016040528092919081815260200182805461028590610eca565b80156102d25780601f106102a7576101008083540402835291602001916102d2565b820191906000526020600020905b8154815290600101906020018083116102b557829003601f168201915b505050505081565b6060604051806060016040528060248152602001610f8d60249139905090565b6000546001600160a01b031633146103245760405162461bcd60e51b81526004016101f690610ce4565b6001600160a01b0381166103895760405162461bcd60e51b815260206004820152602660248201527f4f776e61626c653a206e6577206f776e657220697320746865207a65726f206160448201526564647265737360d01b60648201526084016101f6565b6103928161096a565b50565b6000805b82518110156103de57838382815181106103b5576103b5610f60565b602002602001015114156103d6576103ce816001610d4a565b9150506103f8565b600101610399565b506040516318f2148360e11b815260040160405180910390fd5b92915050565b600061040c6012600a610db9565b6104169083610d62565b9150606482101561042957506000919050565b60c882101561043a57506001919050565b61012c82101561044c57506002919050565b61019082101561045e57506003919050565b6101f482101561047057506004919050565b61025882101561048257506005919050565b6102bc82101561049457506006919050565b6103208210156104a657506007919050565b6103848210156104b857506008919050565b6103e88210156104ca57506009919050565b6107d08210156104dc5750600a919050565b610bb88210156104ee5750600b919050565b610fa08210156105005750600c919050565b6113888210156105125750600d919050565b6117708210156105245750600e919050565b611b588210156105365750600f919050565b611f4082101561054857506010919050565b61232882101561055a57506011919050565b61271082101561056c57506012919050565b612ee082101561057e57506013919050565b6136b082101561059057506014919050565b613e808210156105a257506015919050565b6146508210156105b457506016919050565b614e208210156105c657506017919050565b6155f08210156105d857506018919050565b615dc08210156105ea57506019919050565b6165908210156105fc5750601a919050565b616d6082101561060e5750601b919050565b6175308210156106205750601c919050565b619c408210156106325750601d919050565b61c3508210156106445750601e919050565b61ea608210156106565750601f919050565b6201117082101561066957506020919050565b6201388082101561067c57506021919050565b62015f9082101561068f57506022919050565b620186a08210156106a257506023919050565b62030d408210156106b557506024919050565b620493e08210156106c857506025919050565b62061a808210156106db57506026919050565b6207a1208210156106ee57506027919050565b620927c082101561070157506028919050565b620aae6082101561071457506029919050565b620c35008210156107275750602a919050565b620dbba082101561073a5750602b919050565b620f424082101561074d5750602c919050565b621e84808210156107605750602d919050565b622dc6c08210156107735750602e919050565b623d09008210156107865750602f919050565b624c4b4082101561079957506030919050565b625b8d808210156107ac57506031919050565b626acfc08210156107bf57506032919050565b627a12008210156107d257506033919050565b628954408210156107e557506034919050565b629896808210156107f857506035919050565b6301312d0082101561080c57506036919050565b6302625a0082101561082057506037919050565b630393870082101561083457506038919050565b6305f5e10082101561084857506039919050565b6323c3460082101561085c5750603a919050565b50603b919050565b6060816108885750506040805180820190915260018152600360fc1b602082015290565b8160005b81156108b2578061089c81610f05565b91506108ab9050600a83610d62565b915061088c565b60008167ffffffffffffffff8111156108cd576108cd610f76565b6040519080825280601f01601f1916602001820160405280156108f7576020820181803683370190505b5090505b84156109625761090c600183610e83565b9150610919600a86610f20565b610924906030610d4a565b60f81b81838151811061093957610939610f60565b60200101906001600160f81b031916908160001a90535061095b600a86610d62565b94506108fb565b949350505050565b600080546001600160a01b038381166001600160a01b0319831681178455604051919092169283917f8be0079c531659141344cd1fd0a4f28419497f9722a3daafe3b4186f6b6457e09190a35050565b8280546109c690610eca565b90600052602060002090601f0160209004810192826109e85760008555610a2e565b82601f10610a0157805160ff1916838001178555610a2e565b82800160010185558215610a2e579182015b82811115610a2e578251825591602001919060010190610a13565b50610a3a929150610a3e565b5090565b5b80821115610a3a5760008155600101610a3f565b600060208284031215610a6557600080fd5b81356001600160a01b0381168114610a7c57600080fd5b9392505050565b60006020808385031215610a9657600080fd5b823567ffffffffffffffff80821115610aae57600080fd5b818501915085601f830112610ac257600080fd5b813581811115610ad457610ad4610f76565b610ae6601f8201601f19168501610d19565b91508082528684828501011115610afc57600080fd5b8084840185840137600090820190930192909252509392505050565b600080600080600060a08688031215610b3057600080fd5b8535945060208087013594506040870135935060608701359250608087013567ffffffffffffffff80821115610b6557600080fd5b818901915089601f830112610b7957600080fd5b813581811115610b8b57610b8b610f76565b8060051b9150610b9c848301610d19565b8181528481019084860184860187018e1015610bb757600080fd5b600095505b83861015610bda578035835260019590950194918601918601610bbc565b508096505050505050509295509295909350565b60008151610c00818560208601610e9a565b9290920192915050565b600080845481600182811c915080831680610c2657607f831692505b6020808410821415610c4657634e487b7160e01b86526022600452602486fd5b818015610c5a5760018114610c6b57610c98565b60ff19861689528489019650610c98565b60008b81526020902060005b86811015610c905781548b820152908501908301610c77565b505084890196505b505050505050610ca88185610bee565b95945050505050565b6020815260008251806020840152610cd0816040850160208701610e9a565b601f01601f19169190910160400192915050565b6020808252818101527f4f776e61626c653a2063616c6c6572206973206e6f7420746865206f776e6572604082015260600190565b604051601f8201601f1916810167ffffffffffffffff81118282101715610d4257610d42610f76565b604052919050565b60008219821115610d5d57610d5d610f34565b500190565b600082610d7157610d71610f4a565b500490565b600181815b80851115610db1578160001904821115610d9757610d97610f34565b80851615610da457918102915b93841c9390800290610d7b565b509250929050565b6000610a7c60ff841683600082610dd2575060016103f8565b81610ddf575060006103f8565b8160018114610df55760028114610dff57610e1b565b60019150506103f8565b60ff841115610e1057610e10610f34565b50506001821b6103f8565b5060208310610133831016604e8410600b8410161715610e3e575081810a6103f8565b610e488383610d76565b8060001904821115610e5c57610e5c610f34565b029392505050565b6000816000190483118215151615610e7e57610e7e610f34565b500290565b600082821015610e9557610e95610f34565b500390565b60005b83811015610eb5578181015183820152602001610e9d565b83811115610ec4576000848401525b50505050565b600181811c90821680610ede57607f821691505b60208210811415610eff57634e487b7160e01b600052602260045260246000fd5b50919050565b6000600019821415610f1957610f19610f34565b5060010190565b600082610f2f57610f2f610f4a565b500690565b634e487b7160e01b600052601160045260246000fd5b634e487b7160e01b600052601260045260246000fd5b634e487b7160e01b600052603260045260246000fd5b634e487b7160e01b600052604160045260246000fdfe68747470733a2f2f6d657461646174612d75726c2e636f6d2f6d792d6d65746164617461a26469706673582212206c0bc34e9aa6e654c520d2d8f7588696cc07f6fc1c60b7f6da439bce24e0e55164736f6c63430008060033697066733a2f2f516d5343614e693356657972563738715769446778646b4a545542377969746e4c4b487350487564677563396b762f",
    "linkReferences": {}
  },
  "methodIdentifiers": {
    "baseUri()": "9abc8320",
    "contractURI()": "e8a3d485",
    "decimals()": "313ce567",
    "owner()": "8da5cb5b",
    "renounceOwnership()": "715018a6",
    "setBaseURI(string)": "55f804b3",
    "tokenURI(uint256,uint256,uint256,uint256,uint256[])": "08120ceb",
    "transferOwnership(address)": "f2fde38b"
  },
  "id": 2
}