{
  "abi": [
    {
      "inputs": [
        {
          "internalType": "uint256",
          "name": "_tokenId",
          "type": "uint256"
        },
        {
          "internalType": "uint256",
          "name": "_amount",
          "type": "uint256"
        },
        {
          "internalType": "uint256",
          "name": "_duration",
          "type": "uint256"
        },
        {
          "internalType": "uint256",
          "name": "_lockedUntil",
          "type": "uint256"
        }
      ],
      "name": "tokenURI",
      "outputs": [
        {
          "internalType": "string",
          "name": "",
          "type": "string"
        }
      ],
      "stateMutability": "view",
      "type": "function"
    }
  ],
  "bytecode": {
    "object": "0x608060405234801561001057600080fd5b5061012d806100206000396000f3fe6080604052348015600f57600080fd5b506004361060285760003560e01c8063555df1d014602d575b600080fd5b606060383660046074565b604080518082019091526009815268546f6b656e2055524960b81b6020820152949350505050565b604051606b919060a5565b60405180910390f35b60008060008060808587031215608957600080fd5b5050823594602084013594506040840135936060013592509050565b600060208083528351808285015260005b8181101560d05785810183015185820160400152820160b6565b8181111560e1576000604083870101525b50601f01601f191692909201604001939250505056fea26469706673582212206432fdf1e68ce432b15db05c07d719e8accb277b0bc67d991a77418c3d9c1c2e64736f6c63430008060033",
    "linkReferences": {}
  }
}