{
  "abi": [
    {
      "inputs": [],
      "name": "INSUFFICIENT_BALANCE",
      "type": "error"
    },
    {
      "inputs": [],
      "name": "INVALID_LOCK_DURATION",
      "type": "error"
    },
    {
      "inputs": [
        {
          "internalType": "uint256",
          "name": "",
          "type": "uint256"
        },
        {
          "internalType": "uint256",
          "name": "_amount",
          "type": "uint256"
        },
        {
          "internalType": "uint256",
          "name": "_duration",
          "type": "uint256"
        },
        {
          "internalType": "uint256",
          "name": "",
          "type": "uint256"
        },
        {
          "internalType": "uint256[]",
          "name": "_lockDurationOptions",
          "type": "uint256[]"
        }
      ],
      "name": "tokenURI",
      "outputs": [
        {
          "internalType": "string",
          "name": "",
          "type": "string"
        }
      ],
      "stateMutability": "pure",
      "type": "function"
    }
  ],
  "bytecode": {
    "object": "0x608060405234801561001057600080fd5b50610d46806100206000396000f3fe608060405234801561001057600080fd5b506004361061002b5760003560e01c806308120ceb14610030575b600080fd5b61004361003e366004610a72565b610059565b6040516100509190610bc4565b60405180910390f35b60606000851161007c57604051632858f9ab60e11b815260040160405180910390fd5b6000841161009d576040516318f2148360e11b815260040160405180910390fd5b60006100a8866100f6565b905060006100b686856108f9565b90506100ca6100c58284610c23565b61096c565b6040516020016100da9190610b60565b6040516020818303038152906040529250505095945050505050565b60006001821015801561010a575060648211155b1561011757506001919050565b60658210158015610129575060c88211155b1561013657506002919050565b60c98210158015610149575061012c8211155b1561015657506003919050565b61012d821015801561016a57506101908211155b1561017757506004919050565b610191821015801561018b57506101f48211155b1561019857506005919050565b6101f582101580156101ac57506102588211155b156101b957506006919050565b61025982101580156101cd57506102bc8211155b156101da57506007919050565b6102bd82101580156101ee57506103208211155b156101fb57506008919050565b610321821015801561020f57506103848211155b1561021c57506009919050565b610385821015801561023057506103e88211155b1561023d5750600a919050565b6103e9821015801561025157506107d08211155b1561025e5750600b919050565b6107d182101580156102725750610bb88211155b1561027f5750600c919050565b610bb982101580156102935750610fa08211155b156102a05750600d919050565b610fa182101580156102b457506113888211155b156102c15750600e919050565b61138982101580156102d557506117708211155b156102e25750600f919050565b61177182101580156102f65750611b588211155b1561030357506010919050565b611b5982101580156103175750611f408211155b1561032457506011919050565b611f41821015801561033857506123288211155b1561034557506012919050565b612329821015801561035957506127108211155b1561036657506013919050565b612711821015801561037a5750612ee08211155b1561038757506014919050565b612ee1821015801561039b57506136b08211155b156103a857506015919050565b6136b182101580156103bc5750613e808211155b156103c957506016919050565b613e8182101580156103dd57506146508211155b156103ea57506017919050565b61465182101580156103fe5750614e208211155b1561040b57506018919050565b614e21821015801561041f57506155f08211155b1561042c57506019919050565b6155f182101580156104405750615dc08211155b1561044d5750601a919050565b615dc1821015801561046157506165908211155b1561046e5750601b919050565b61659182101580156104825750616d608211155b1561048f5750601c919050565b616d6182101580156104a357506175308211155b156104b05750601d919050565b61753182101580156104c45750619c408211155b156104d15750601e919050565b619c4182101580156104e5575061c3508211155b156104f25750601f919050565b61c3518210158015610506575061ea608211155b1561051357506020919050565b61ea6182101580156105285750620111708211155b1561053557506021919050565b62011171821015801561054b5750620138808211155b1561055857506022919050565b62013881821015801561056e575062015f908211155b1561057b57506023919050565b62015f9182101580156105915750620186a08211155b1561059e57506024919050565b620186a182101580156105b4575062030d408211155b156105c157506025919050565b62030d4182101580156105d75750620493e08211155b156105e457506026919050565b620493e182101580156105fa575062061a808211155b1561060757506027919050565b62061a81821015801561061d57506207a1208211155b1561062a57506028919050565b6207a12182101580156106405750620927c08211155b1561064d57506029919050565b620927c182101580156106635750620aae608211155b156106705750602a919050565b620aae6182101580156106865750620c35008211155b156106935750602b919050565b620c350182101580156106a95750620dbba08211155b156106b65750602c919050565b620dbba182101580156106cc5750620f42408211155b156106d95750602d919050565b620f424182101580156106ef5750621e84808211155b156106fc5750602e919050565b621e848182101580156107125750622dc6c08211155b1561071f5750602f919050565b622dc6c182101580156107355750623d09008211155b1561074257506030919050565b623d090182101580156107585750624c4b408211155b1561076557506031919050565b624c4b41821015801561077b5750625b8d808211155b1561078857506032919050565b625b8d81821015801561079e5750626acfc08211155b156107ab57506033919050565b626acfc182101580156107c15750627a12008211155b156107ce57506034919050565b627a120182101580156107e45750628954408211155b156107f157506035919050565b6289544182101580156108075750629896808211155b1561081457506036919050565b62989681821015801561082b57506301312d008211155b1561083857506037919050565b6301312d01821015801561085057506302625a008211155b1561085d57506038919050565b6302625a01821015801561087557506302faf0808211155b1561088257506039919050565b6302faf081821015801561089a57506305f5e1008211155b156108a75750603a919050565b6305f5e10182101580156108bf5750631dcd65008211155b156108cc5750603b919050565b631dcd650182101580156108e457506329b927008211155b156108f15750603c919050565b50603d919050565b6000805b825181101561094c578383828151811061091957610919610ce4565b6020026020010151141561093a57610932816001610bf7565b915050610966565b8061094481610c89565b9150506108fd565b506040516318f2148360e11b815260040160405180910390fd5b92915050565b6060816109905750506040805180820190915260018152600360fc1b602082015290565b8160005b81156109ba57806109a481610c89565b91506109b39050600a83610c0f565b9150610994565b60008167ffffffffffffffff8111156109d5576109d5610cfa565b6040519080825280601f01601f1916602001820160405280156109ff576020820181803683370190505b5090505b8415610a6a57610a14600183610c42565b9150610a21600a86610ca4565b610a2c906030610bf7565b60f81b818381518110610a4157610a41610ce4565b60200101906001600160f81b031916908160001a905350610a63600a86610c0f565b9450610a03565b949350505050565b600080600080600060a08688031215610a8a57600080fd5b8535945060208087013594506040870135935060608701359250608087013567ffffffffffffffff80821115610abf57600080fd5b818901915089601f830112610ad357600080fd5b813581811115610ae557610ae5610cfa565b8060051b604051601f19603f83011681018181108582111715610b0a57610b0a610cfa565b604052828152858101935084860182860187018e1015610b2957600080fd5b600095505b83861015610b4c578035855260019590950194938601938601610b2e565b508096505050505050509295509295909350565b7f697066733a2f2f516d5669635633764e79504b744b785950505069564b78614181527546613858326b5035787973364e4668694866387a6a2f60501b602082015260008251610bb7816036850160208701610c59565b9190910160360192915050565b6020815260008251806020840152610be3816040850160208701610c59565b601f01601f19169190910160400192915050565b60008219821115610c0a57610c0a610cb8565b500190565b600082610c1e57610c1e610cce565b500490565b6000816000190483118215151615610c3d57610c3d610cb8565b500290565b600082821015610c5457610c54610cb8565b500390565b60005b83811015610c74578181015183820152602001610c5c565b83811115610c83576000848401525b50505050565b6000600019821415610c9d57610c9d610cb8565b5060010190565b600082610cb357610cb3610cce565b500690565b634e487b7160e01b600052601160045260246000fd5b634e487b7160e01b600052601260045260246000fd5b634e487b7160e01b600052603260045260246000fd5b634e487b7160e01b600052604160045260246000fdfea26469706673582212206414c2d4c93f92ada0f108c1e0023b7ccde9964e4b29c7f8b07e6bac91a0da7a64736f6c63430008060033",
    "linkReferences": {}
  }
}