{
  "abi": [
    {
      "inputs": [
        {
          "internalType": "contract IJBProjects",
          "name": "_projects",
          "type": "address"
        },
        {
          "internalType": "contract IJBOperatorStore",
          "name": "_operatorStore",
          "type": "address"
        }
      ],
      "stateMutability": "nonpayable",
      "type": "constructor"
    },
    {
      "inputs": [],
      "name": "UNAUTHORIZED",
      "type": "error"
    },
    {
      "anonymous": false,
      "inputs": [
        {
          "indexed": false,
          "internalType": "address",
          "name": "jbVeNft",
          "type": "address"
        },
        {
          "indexed": true,
          "internalType": "uint256",
          "name": "projectId",
          "type": "uint256"
        },
        {
          "indexed": false,
          "internalType": "string",
          "name": "name",
          "type": "string"
        },
        {
          "indexed": false,
          "internalType": "string",
          "name": "symbol",
          "type": "string"
        },
        {
          "indexed": false,
          "internalType": "contract IJBVeTokenUriResolver",
          "name": "uriResolver",
          "type": "address"
        },
        {
          "indexed": false,
          "internalType": "contract IJBTokenStore",
          "name": "tokenStore",
          "type": "address"
        },
        {
          "indexed": false,
          "internalType": "contract IJBOperatorStore",
          "name": "operatorStore",
          "type": "address"
        },
        {
          "indexed": false,
          "internalType": "uint256[]",
          "name": "lockDurationOptions",
          "type": "uint256[]"
        },
        {
          "indexed": false,
          "internalType": "address",
          "name": "owner",
          "type": "address"
        },
        {
          "indexed": false,
          "internalType": "address",
          "name": "caller",
          "type": "address"
        }
      ],
      "name": "DeployVeNft",
      "type": "event"
    },
    {
      "inputs": [
        {
          "internalType": "uint256",
          "name": "_projectId",
          "type": "uint256"
        },
        {
          "internalType": "string",
          "name": "_name",
          "type": "string"
        },
        {
          "internalType": "string",
          "name": "_symbol",
          "type": "string"
        },
        {
          "internalType": "contract IJBVeTokenUriResolver",
          "name": "_uriResolver",
          "type": "address"
        },
        {
          "internalType": "contract IJBTokenStore",
          "name": "_tokenStore",
          "type": "address"
        },
        {
          "internalType": "contract IJBOperatorStore",
          "name": "_operatorStore",
          "type": "address"
        },
        {
          "internalType": "uint256[]",
          "name": "_lockDurationOptions",
          "type": "uint256[]"
        },
        {
          "internalType": "address",
          "name": "_owner",
          "type": "address"
        }
      ],
      "name": "deployVeNFT",
      "outputs": [
        {
          "internalType": "contract IJBVeNft",
          "name": "veNft",
          "type": "address"
        }
      ],
      "stateMutability": "nonpayable",
      "type": "function"
    },
    {
      "inputs": [],
      "name": "operatorStore",
      "outputs": [
        {
          "internalType": "contract IJBOperatorStore",
          "name": "",
          "type": "address"
        }
      ],
      "stateMutability": "view",
      "type": "function"
    },
    {
      "inputs": [],
      "name": "projects",
      "outputs": [
        {
          "internalType": "contract IJBProjects",
          "name": "",
          "type": "address"
        }
      ],
      "stateMutability": "view",
      "type": "function"
    }
  ],
  "bytecode": {
    "object": "0x60c060405234801561001057600080fd5b5060405161605538038061605583398101604081905261002f9161004e565b6001600160601b0319606091821b811660805291901b1660a0526100a0565b6000806040838503121561006157600080fd5b825161006c81610088565b602084015190925061007d81610088565b809150509250929050565b6001600160a01b038116811461009d57600080fd5b50565b60805160601c60a05160601c615f786100dd600039600081816051015260e1015260008181609501528181610261015261031c0152615f786000f3fe60806040523480156200001157600080fd5b5060043610620000465760003560e01c80638b79543c146200004b578063ad007d63146200008f578063feb7890a14620000b7575b600080fd5b620000737f000000000000000000000000000000000000000000000000000000000000000081565b6040516001600160a01b03909116815260200160405180910390f35b620000737f000000000000000000000000000000000000000000000000000000000000000081565b62000073620000c836600462000531565b6040516331a9108f60e11b8152600481018990526000907f00000000000000000000000000000000000000000000000000000000000000006001600160a01b031690636352211e9060240160206040518083038186803b1580156200012c57600080fd5b505afa15801562000141573d6000803e3d6000fd5b505050506040513d601f19601f82011682018060405250810190620001679190620004e6565b8960146200017783838362000219565b8b8b8b8b8b8b8b8b6040516200018d90620003c0565b620001a098979695949392919062000734565b604051809103906000f080158015620001bd573d6000803e3d6000fd5b5093508b7f55ab928b6f3c3e21cabe78646a559864a2dee4e3ed6a129683881a7dc1618fcf858d8d8d8d8d8d8d336040516200020299989796959493929190620006a5565b60405180910390a250505098975050505050505050565b336001600160a01b03841614801590620002e1575060405163c161c93f60e01b81523360048201526001600160a01b03848116602483015260448201849052606482018390527f0000000000000000000000000000000000000000000000000000000000000000169063c161c93f9060840160206040518083038186803b158015620002a457600080fd5b505afa158015620002b9573d6000803e3d6000fd5b505050506040513d601f19601f82011682018060405250810190620002df91906200050d565b155b80156200039c575060405163c161c93f60e01b81523360048201526001600160a01b03848116602483015260006044830152606482018390527f0000000000000000000000000000000000000000000000000000000000000000169063c161c93f9060840160206040518083038186803b1580156200035f57600080fd5b505afa15801562000374573d6000803e3d6000fd5b505050506040513d601f19601f820116820180604052508101906200039a91906200050d565b155b15620003bb5760405163075fd2b160e01b815260040160405180910390fd5b505050565b615729806200081a83390190565b8035620003db8162000800565b919050565b600082601f830112620003f257600080fd5b8135602067ffffffffffffffff821115620004115762000411620007ea565b8160051b62000422828201620007b6565b8381528281019086840183880185018910156200043e57600080fd5b600093505b858410156200046357803583526001939093019291840191840162000443565b50979650505050505050565b600082601f8301126200048157600080fd5b813567ffffffffffffffff8111156200049e576200049e620007ea565b620004b3601f8201601f1916602001620007b6565b818152846020838601011115620004c957600080fd5b816020850160208301376000918101602001919091529392505050565b600060208284031215620004f957600080fd5b8151620005068162000800565b9392505050565b6000602082840312156200052057600080fd5b815180151581146200050657600080fd5b600080600080600080600080610100898b0312156200054f57600080fd5b88359750602089013567ffffffffffffffff808211156200056f57600080fd5b6200057d8c838d016200046f565b985060408b01359150808211156200059457600080fd5b620005a28c838d016200046f565b9750620005b260608c01620003ce565b9650620005c260808c01620003ce565b9550620005d260a08c01620003ce565b945060c08b0135915080821115620005e957600080fd5b50620005f88b828c01620003e0565b9250506200060960e08a01620003ce565b90509295985092959890939650565b600081518084526020808501945080840160005b838110156200064a578151875295820195908201906001016200062c565b509495945050505050565b6000815180845260005b818110156200067d576020818501810151868301820152016200065f565b8181111562000690576000602083870101525b50601f01601f19169290920160200192915050565b6001600160a01b038a8116825261012060208301819052600091620006cd8483018d62000655565b91508382036040850152620006e3828c62000655565b9150808a166060850152808916608085015280881660a085015283820360c085015262000711828862000618565b925080861660e085015280851661010085015250509a9950505050505050505050565b60006101008a8352806020840152620007508184018b62000655565b9050828103604084015262000766818a62000655565b6001600160a01b038981166060860152888116608086015287811660a086015284820360c08601529091506200079d828762000618565b925080851660e085015250509998505050505050505050565b604051601f8201601f1916810167ffffffffffffffff81118282101715620007e257620007e2620007ea565b604052919050565b634e487b7160e01b600052604160045260246000fd5b6001600160a01b03811681146200081657600080fd5b5056fe60e06040523480156200001157600080fd5b5060405162005729380380620057298339810160408190526200003491620004be565b82878781818160009080519060200190620000519291906200027f565b508051620000679060019060208401906200027f565b505043601155505042601055506200007f3362000221565b60016c03c95a2f0b4856475fe00000135560601b6001600160601b03191660805260405163ea78803f60e01b8152600481018990526001600160a01b0385169063ea78803f9060240160206040518083038186803b158015620000e157600080fd5b505afa158015620000f6573d6000803e3d6000fd5b505050506040513d601f19601f820116820180604052508101906200011c919062000497565b600a80546001600160a01b03199081166001600160a01b039384161790915560a08a90526c03c95a2f0b4856475fe00000158054909116918716919091179055606084901b6001600160601b03191660c05281516200018f906c03c95a2f0b4856475fe00000149060208501906200030e565b506305a39a8060005b6c03c95a2f0b4856475fe0000014548110156200020657816c03c95a2f0b4856475fe00000148281548110620001d257620001d262000615565b90600052602060002001541115620001fd57604051635ed93da360e11b815260040160405180910390fd5b60010162000198565b50620002128262000221565b5050505050505050506200065a565b6c03c95a2f0b4856475fe000001280546001600160a01b038381166001600160a01b0319831681179093556040519116919082907f8be0079c531659141344cd1fd0a4f28419497f9722a3daafe3b4186f6b6457e090600090a35050565b8280546200028d90620005d8565b90600052602060002090601f016020900481019282620002b15760008555620002fc565b82601f10620002cc57805160ff1916838001178555620002fc565b82800160010185558215620002fc579182015b82811115620002fc578251825591602001919060010190620002df565b506200030a9291506200034b565b5090565b828054828255906000526020600020908101928215620002fc5791602002820182811115620002fc578251825591602001919060010190620002df565b5b808211156200030a57600081556001016200034c565b80516200036f8162000641565b919050565b600082601f8301126200038657600080fd5b815160206001600160401b03821115620003a457620003a46200062b565b8160051b620003b5828201620005a5565b838152828101908684018388018501891015620003d157600080fd5b600093505b85841015620003f6578051835260019390930192918401918401620003d6565b50979650505050505050565b600082601f8301126200041457600080fd5b81516001600160401b038111156200043057620004306200062b565b602062000446601f8301601f19168201620005a5565b82815285828487010111156200045b57600080fd5b60005b838110156200047b5785810183015182820184015282016200045e565b838111156200048d5760008385840101525b5095945050505050565b600060208284031215620004aa57600080fd5b8151620004b78162000641565b9392505050565b600080600080600080600080610100898b031215620004dc57600080fd5b885160208a01519098506001600160401b0380821115620004fc57600080fd5b6200050a8c838d0162000402565b985060408b01519150808211156200052157600080fd5b6200052f8c838d0162000402565b97506200053f60608c0162000362565b96506200054f60808c0162000362565b95506200055f60a08c0162000362565b945060c08b01519150808211156200057657600080fd5b50620005858b828c0162000374565b9250506200059660e08a0162000362565b90509295985092959890939650565b604051601f8201601f191681016001600160401b0381118282101715620005d057620005d06200062b565b604052919050565b600181811c90821680620005ed57607f821691505b602082108114156200060f57634e487b7160e01b600052602260045260246000fd5b50919050565b634e487b7160e01b600052603260045260246000fd5b634e487b7160e01b600052604160045260246000fd5b6001600160a01b03811681146200065757600080fd5b50565b60805160601c60a05160c05160601c61500d6200071c6000396000818161051001528181611c2b01528181611e7301528181611f330152818161201e015261226101526000818161047101528181610b4801528181610ff10152818161106101528181611aa401528181611b7501528181611ca801528181611ded01528181611e4201528181611f0d01528181611fec0152818161218e0152818161222601526124420152600081816106680152818161294d0152612a03015261500d6000f3fe608060405234801561001057600080fd5b506004361061030c5760003560e01c80637ba553b61161019d578063b45a3c0e116100e9578063e8a3d485116100a2578063f2fde38b1161007c578063f2fde38b146107f1578063f4359ce514610804578063f52a36f71461080e578063fc0c546a1461083d57600080fd5b8063e8a3d4851461078f578063e985e9c514610797578063ee00ef3a146107d357600080fd5b8063b45a3c0e1461069d578063b88d4fde14610714578063c2c4c5c114610727578063c3cda5201461072f578063c87b56dd1461073d578063e6f3b3ad1461075057600080fd5b806395d89b4111610156578063a74f44a911610130578063a74f44a91461063d578063a787732f14610650578063ad007d6314610663578063b1bf64721461068a57600080fd5b806395d89b411461060f5780639ab24eb014610617578063a22cb4651461062a57600080fd5b80637ba553b61461059b5780638ad4c447146105b05780638da5cb5b146105c35780638e539e8c146105e0578063900cf0cf146105f357806393652edb146105fc57600080fd5b80633a3a03b61161025c578063587cde1e116102155780636352211e116101ef5780636352211e1461053257806366dec1ab1461054557806370a0823114610580578063715018a61461059357600080fd5b8063587cde1e146104e55780635c19a95c146104f8578063619306301461050b57600080fd5b80633a3a03b61461043a5780633a46b1a8146104595780633fafa1271461046c57806342842e0e146104935780634f6ccce7146104a657806352c286d0146104b957600080fd5b80630f02ebec116102c957806318160ddd116102a357806318160ddd146103f95780631fd7b2531461040157806323b872dd146104145780632f745c591461042757600080fd5b80630f02ebec146103c05780630f2dc9e7146103d357806310b1cadc146103e657600080fd5b806301ffc9a714610311578063059f8b161461033957806306661abd1461035657806306fdde031461036b578063081812fc14610380578063095ea7b3146103ab575b600080fd5b61032461031f366004614807565b610850565b60405190151581526020015b60405180910390f35b610348670de0b6b3a764000081565b604051908152602001610330565b6103486c03c95a2f0b4856475fe00000165481565b610373610861565b6040516103309190614aab565b61039361038e3660046148cc565b6108f3565b6040516001600160a01b039091168152602001610330565b6103be6103b9366004614618565b61098d565b005b6103be6103ce366004614716565b610aa3565b6103486103e13660046148fe565b610c16565b6103be6103f4366004614758565b610f6b565b600854610348565b6103be61040f3660046148cc565b6111a7565b6103be6104223660046144fa565b6111f1565b610348610435366004614618565b611222565b6c03c95a2f0b4856475fe000001554610393906001600160a01b031681565b610348610467366004614618565b6112b8565b6103487f000000000000000000000000000000000000000000000000000000000000000081565b6103be6104a13660046144fa565b611461565b6103486104b43660046148cc565b61147c565b6103486104c73660046148cc565b6c03c95a2f0b4856475fe00000106020526000908152604090205481565b6103936104f336600461449d565b61150f565b6103be61050636600461449d565b61152a565b6103937f000000000000000000000000000000000000000000000000000000000000000081565b6103936105403660046148cc565b611543565b6105586105533660046148fe565b6115ba565b60408051600f95860b81529390940b6020840152928201526060810191909152608001610330565b61034861058e36600461449d565b61160d565b6103be611694565b6105a36116d6565b6040516103309190614a67565b6105586105be3660046148cc565b611739565b6c03c95a2f0b4856475fe0000012546001600160a01b0316610393565b6103486105ee3660046148cc565b61177c565b610348600d5481565b6103be61060a36600461449d565b611970565b610373611a06565b61034861062536600461449d565b611a15565b6103be6106383660046145ea565b611a21565b6103be61064b366004614716565b611a30565b61034861065e366004614644565b611da8565b6103937f000000000000000000000000000000000000000000000000000000000000000081565b6105a3610698366004614716565b61233b565b6106e36106ab3660046148cc565b600e602052600090815260409020805460018201546002830154600390930154600f9290920b92909160ff8082169161010090041685565b60408051600f9690960b8652602086019490945292840191909152151560608301521515608082015260a001610330565b6103be61072236600461453b565b612540565b6103be612578565b6103be6105063660046146b4565b61037361074b3660046148cc565b612592565b61076361075e3660046148cc565b612689565b60408051958652602086019490945292840191909152151560608301521515608082015260a001610330565b61037361273d565b6103246107a53660046144c1565b6001600160a01b03918216600090815260056020908152604080832093909416825291909152205460ff1690565b6107de6305a39a8081565b604051600f9190910b8152602001610330565b6103be6107ff36600461449d565b6127cf565b61034862093a8081565b6107de61081c3660046148cc565b6c03c95a2f0b4856475fe000001160205260009081526040902054600f0b81565b600a54610393906001600160a01b031681565b600061085b82612873565b92915050565b60606000805461087090614ef5565b80601f016020809104026020016040519081016040528092919081815260200182805461089c90614ef5565b80156108e95780601f106108be576101008083540402835291602001916108e9565b820191906000526020600020905b8154815290600101906020018083116108cc57829003601f168201915b5050505050905090565b6000818152600260205260408120546001600160a01b03166109715760405162461bcd60e51b815260206004820152602c60248201527f4552433732313a20617070726f76656420717565727920666f72206e6f6e657860448201526b34b9ba32b73a103a37b5b2b760a11b60648201526084015b60405180910390fd5b506000908152600460205260409020546001600160a01b031690565b600061099882611543565b9050806001600160a01b0316836001600160a01b03161415610a065760405162461bcd60e51b815260206004820152602160248201527f4552433732313a20617070726f76616c20746f2063757272656e74206f776e656044820152603960f91b6064820152608401610968565b336001600160a01b0382161480610a225750610a2281336107a5565b610a945760405162461bcd60e51b815260206004820152603860248201527f4552433732313a20617070726f76652063616c6c6572206973206e6f74206f7760448201527f6e6572206e6f7220617070726f76656420666f7220616c6c00000000000000006064820152608401610968565b610a9e8383612898565b505050565b60026c03c95a2f0b4856475fe0000013541415610ad25760405162461bcd60e51b815260040161096890614b96565b60026c03c95a2f0b4856475fe00000135560005b81811015610c005736838383818110610b0157610b01614f72565b9050604002019050806020016020810190610b1c91906147cd565b610b3957604051630f16ffc960e41b815260040160405180910390fd5b610b6e610b468235611543565b7f00000000000000000000000000000000000000000000000000000000000000006019612906565b610b7e60408201602083016147cd565b81356000818152600e602090815260409182902060030180549415156101000261ff00199095169490941790935590917fe8ef09bb567de1b57470a6ef63567bf9e11824b2b5b60eed0d9bdecc70a110b391610bdf919085019085016147cd565b6040805191151582523360208301520160405180910390a250600101610ae6565b505060016c03c95a2f0b4856475fe00000135550565b600043821115610c39576040516318ca46d360e01b815260040160405180910390fd5b60008381526c03c95a2f0b4856475fe00000106020526040812054815b6080811015610ced57818310610c6b57610ced565b60006002610c798486614d44565b610c84906001614d44565b610c8e9190614d9a565b60008881526c03c95a2f0b4856475fe000000f60205260409020909150869082633b9aca008110610cc157610cc1614f72565b600302016002015411610cd657809350610ce4565b610ce1600182614eb2565b92505b50600101610c56565b5060008581526c03c95a2f0b4856475fe000000f6020526040812083633b9aca008110610d1c57610d1c614f72565b60408051608081018252600392909202929092018054600f81810b810b810b8452600160801b909104810b810b900b60208301526001810154928201929092526002909101546060820152600d549091506000610d798783612a9d565b90506000600f82680a18f07d736b90be55601d1b8110610d9b57610d9b614f72565b60408051608081018252600392909202929092018054600f81810b810b810b8452600160801b909104810b810b900b60208301526001810154928201929092526002909101546060820152905060008084841015610e99576000600f610e02866001614d44565b680a18f07d736b90be55601d1b8110610e1d57610e1d614f72565b60408051608081018252600392909202929092018054600f81810b810b810b8452600160801b909104810b810b900b60208301526001810154928201929092526002909101546060808301829052860151919250610e7b9190614eb2565b925083604001518160400151610e919190614eb2565b915050610ebd565b6060830151610ea89043614eb2565b9150826040015142610eba9190614eb2565b90505b60408301518215610efa578284606001518c610ed99190614eb2565b610ee39084614e43565b610eed9190614d9a565b610ef79082614d44565b90505b6040870151610f099082614e62565b8760200151610f189190614dae565b87518890610f27908390614e62565b600f90810b810b90915288516000910b129050610f5957505093516001600160801b0316965061085b95505050505050565b5060009b9a5050505050505050505050565b60026c03c95a2f0b4856475fe0000013541415610f9a5760405162461bcd60e51b815260040161096890614b96565b60026c03c95a2f0b4856475fe00000135560005b81811015610c005736838383818110610fc957610fc9614f72565b9050602002810190610fdb9190614c7c565b90506000610fe98235611543565b9050611017817f00000000000000000000000000000000000000000000000000000000000000006018612906565b81356000818152600e6020526040902054600f0b6001600160801b03169061103e90612b32565b600061105060e0850160c0860161449d565b6001600160a01b031663fe663f0f307f00000000000000000000000000000000000000000000000000000000000000008561109160408a0160208b0161449d565b60408a01356110a660808c0160608d0161449d565b6110b360808d018d614c35565b6110c060a08f018f614c35565b6040518b63ffffffff1660e01b81526004016110e59a999897969594939291906149f6565b602060405180830381600087803b1580156110ff57600080fd5b505af1158015611113573d6000803e3d6000fd5b505050506040513d601f19601f8201168201806040525081019061113791906148e5565b905083357f123a3c914dca72b47bd01de7161291d9b3934e0cfbeab5f43d914497d45e79b38461116d608088016060890161449d565b858561117c60808b018b614c35565b336040516111909796959493929190614975565b60405180910390a284600101945050505050610fae565b6111b081611543565b6001600160a01b0316336001600160a01b0316146111e1576040516338ebc58960e11b815260040160405180910390fd5b6111ee8133600080612bfb565b50565b6111fb3382612dc9565b6112175760405162461bcd60e51b815260040161096890614b45565b610a9e838383612ec0565b600061122d8361160d565b821061128f5760405162461bcd60e51b815260206004820152602b60248201527f455243373231456e756d657261626c653a206f776e657220696e646578206f7560448201526a74206f6620626f756e647360a81b6064820152608401610968565b506001600160a01b03919091166000908152600660209081526040808320938352929052205490565b6000805b6001600160a01b0384166000908152600c602052604090205481101561145a576001600160a01b0384166000908152600c6020526040812080548390811061130657611306614f72565b6000918252602080832090910154808352600b909152604090912054909150806113345750506001016112bc565b600080611342600184614eb2565b905060005b60808110156113da5781831061135c576113da565b6000600261136a8486614d44565b611375906001614d44565b61137f9190614d9a565b6000878152600b6020526040902080549192508a91839081106113a4576113a4614f72565b906000526020600020906002020160000154116113c3578093506113d1565b6113ce600182614eb2565b92505b50600101611347565b506000848152600b602052604081208054849081106113fb576113fb614f72565b906000526020600020906002020190508781600001541115801561142e575060018101546001600160a01b038a81169116145b1561144a5761143d8589610c16565b6114479088614d44565b96505b85600101955050505050506112bc565b5092915050565b610a9e83838360405180602001604052806000815250612540565b600061148760085490565b82106114ea5760405162461bcd60e51b815260206004820152602c60248201527f455243373231456e756d657261626c653a20676c6f62616c20696e646578206f60448201526b7574206f6620626f756e647360a01b6064820152608401610968565b600882815481106114fd576114fd614f72565b90600052602060002001549050919050565b600060405163033ce0e560e21b815260040160405180910390fd5b60405163033ce0e560e21b815260040160405180910390fd5b6000818152600260205260408120546001600160a01b03168061085b5760405162461bcd60e51b815260206004820152602960248201527f4552433732313a206f776e657220717565727920666f72206e6f6e657869737460448201526832b73a103a37b5b2b760b91b6064820152608401610968565b6c03c95a2f0b4856475fe000000f60205281600052604060002081633b9aca0081106115e557600080fd5b6003020180546001820154600290920154600f82810b9550600160801b90920490910b925084565b60006001600160a01b0382166116785760405162461bcd60e51b815260206004820152602a60248201527f4552433732313a2062616c616e636520717565727920666f7220746865207a65604482015269726f206164647265737360b01b6064820152608401610968565b506001600160a01b031660009081526003602052604090205490565b6c03c95a2f0b4856475fe0000012546001600160a01b031633146116ca5760405162461bcd60e51b815260040161096890614b10565b6116d46000613067565b565b60606c03c95a2f0b4856475fe00000148054806020026020016040519081016040528092919081815260200182805480156108e957602002820191906000526020600020905b81548152602001906001019080831161171c575050505050905090565b600f81680a18f07d736b90be55601d1b811061175457600080fd5b6003020180546001820154600290920154600f82810b9450600160801b90920490910b919084565b60004382111561179f576040516318ca46d360e01b815260040160405180910390fd5b600d5460006117ae8483612a9d565b90506000600f82680a18f07d736b90be55601d1b81106117d0576117d0614f72565b60408051608081018252600392909202929092018054600f81810b810b810b8452600160801b909104810b810b900b6020830152600181015492820192909252600290910154606082015290506000838310156118fe576000600f611836856001614d44565b680a18f07d736b90be55601d1b811061185157611851614f72565b60408051608081018252600392909202929092018054600f81810b810b810b8452600160801b909104810b810b900b60208301526001810154928201929092526002909101546060808301829052850151919250146118f857826060015181606001516118be9190614eb2565b836040015182604001516118d29190614eb2565b60608501516118e1908a614eb2565b6118eb9190614e43565b6118f59190614d9a565b91505b5061194d565b4382606001511461194d5760608201516119189043614eb2565b60408301516119279042614eb2565b60608401516119369089614eb2565b6119409190614e43565b61194a9190614d9a565b90505b611966828284604001516119619190614d44565b6130c5565b9695505050505050565b6c03c95a2f0b4856475fe0000012546001600160a01b031633146119a65760405162461bcd60e51b815260040161096890614b10565b6c03c95a2f0b4856475fe000001580546001600160a01b0319166001600160a01b0383169081179091556040513381527fbddd64b8a0b5e5673286f9759cdbbd18be2722a145cf077f5c17b2ff8c0a90379060200160405180910390a250565b60606001805461087090614ef5565b600061085b82436112b8565b611a2c3383836131d3565b5050565b60026c03c95a2f0b4856475fe0000013541415611a5f5760405162461bcd60e51b815260040161096890614b96565b60026c03c95a2f0b4856475fe00000135560005b81811015610c0057611aca611aa2848484818110611a9357611a93614f72565b90506040020160000135611543565b7f00000000000000000000000000000000000000000000000000000000000000006016612906565b6000600e6000858585818110611ae257611ae2614f72565b6040908102929092013583525060208201929092520160002080546001820154919250600f0b6001600160801b0316904211611b315760405163d3c86c0f60e01b815260040160405180910390fd5b611b55858585818110611b4657611b46614f72565b90506040020160000135612b32565b600382015460ff1615611c2957600a546001600160a01b031663f8548e367f0000000000000000000000000000000000000000000000000000000000000000878787818110611ba657611ba6614f72565b9050604002016020016020810190611bbe919061449d565b6040516001600160e01b031960e085901b16815260048101929092526001600160a01b0316602482015260448101849052606401600060405180830381600087803b158015611c0c57600080fd5b505af1158015611c20573d6000803e3d6000fd5b50505050611d0f565b7f00000000000000000000000000000000000000000000000000000000000000006001600160a01b031663ac689bcd868686818110611c6a57611c6a614f72565b9050604002016020016020810190611c82919061449d565b6040516001600160e01b031960e084901b1681526001600160a01b0390911660048201527f0000000000000000000000000000000000000000000000000000000000000000602482015230604482015260648101849052608401600060405180830381600087803b158015611cf657600080fd5b505af1158015611d0a573d6000803e3d6000fd5b505050505b848484818110611d2157611d21614f72565b905060400201600001357f684a333bfbd5b9645c0ec7d11d5044fb3efe90f87a8e2d424f539fc796f9b31f868686818110611d5e57611d5e614f72565b9050604002016020016020810190611d76919061449d565b604080516001600160a01b03909216825260208201859052339082015260600160405180910390a25050600101611a73565b600060026c03c95a2f0b4856475fe0000013541415611dd95760405162461bcd60e51b815260040161096890614b96565b60026c03c95a2f0b4856475fe000001355867f00000000000000000000000000000000000000000000000000000000000000006015611e19838383612906565b85156120bf57600a546001600160a01b0316158015611ef9575060405163ea78803f60e01b81527f000000000000000000000000000000000000000000000000000000000000000060048201526000906001600160a01b037f0000000000000000000000000000000000000000000000000000000000000000169063ea78803f9060240160206040518083038186803b158015611eb557600080fd5b505afa158015611ec9573d6000803e3d6000fd5b505050506040513d601f19601f82011682018060405250810190611eed9190614841565b6001600160a01b031614155b15611fda5760405163ea78803f60e01b81527f000000000000000000000000000000000000000000000000000000000000000060048201527f00000000000000000000000000000000000000000000000000000000000000006001600160a01b03169063ea78803f9060240160206040518083038186803b158015611f7d57600080fd5b505afa158015611f91573d6000803e3d6000fd5b505050506040513d601f19601f82011682018060405250810190611fb59190614841565b600a80546001600160a01b0319166001600160a01b03929092169190911790556120bf565b600a5460405163ea78803f60e01b81527f000000000000000000000000000000000000000000000000000000000000000060048201526001600160a01b03918216917f0000000000000000000000000000000000000000000000000000000000000000169063ea78803f9060240160206040518083038186803b15801561206057600080fd5b505afa158015612074573d6000803e3d6000fd5b505050506040513d601f19601f820116820180604052508101906120989190614841565b6001600160a01b0316146120bf57604051635aea2c8f60e11b815260040160405180910390fd5b6120c8886132a2565b6120e5576040516318f2148360e11b815260040160405180910390fd5b6c03c95a2f0b4856475fe00000168054600101908190559350600061210a8942614d44565b905061214e856040518060a001604052808d600f0b81526020018c426121309190614d44565b81526020018c81526020018a15158152602001891515815250613307565b612158888661345d565b336001600160a01b0389161415612176576121768589600180612bfb565b861561221157600a54604051630e07895b60e11b81527f00000000000000000000000000000000000000000000000000000000000000006004820152336024820152306044820152606481018c90526001600160a01b0390911690631c0f12b690608401600060405180830381600087803b1580156121f457600080fd5b505af1158015612208573d6000803e3d6000fd5b505050506122be565b60405163ac689bcd60e01b81523360048201527f00000000000000000000000000000000000000000000000000000000000000006024820152306044820152606481018b90526001600160a01b037f0000000000000000000000000000000000000000000000000000000000000000169063ac689bcd90608401600060405180830381600087803b1580156122a557600080fd5b505af11580156122b9573d6000803e3d6000fd5b505050505b604080518b8152602081018b90526001600160a01b038a811682840152606082018490523360808301529151918d169187917fd0486aa1ced26d88137420f26eef05e9c3f4ad2f9c0ffc2469522a98befeab21919081900360a00190a3505060016c03c95a2f0b4856475fe0000013555090979650505050505050565b606060026c03c95a2f0b4856475fe000001354141561236c5760405162461bcd60e51b815260040161096890614b96565b60026c03c95a2f0b4856475fe0000013558167ffffffffffffffff81111561239657612396614f88565b6040519080825280602002602001820160405280156123bf578160200160208202803683370190505b50905060005b8281101561252857368484838181106123e0576123e0614f72565b90506040020190506123f581602001356132a2565b612412576040516318f2148360e11b815260040160405180910390fd5b80356000908152600e602052604090206003810154610100900460ff16612468576124686124408335611543565b7f00000000000000000000000000000000000000000000000000000000000000006017612906565b6000612478602084013542614d44565b9050816001015481101561249f57604051630825cd3d60e01b815260040160405180910390fd5b6124af8335602085013583613477565b82600001358585815181106124c6576124c6614f72565b6020908102919091018101919091526040805185830135815291820183905233828201525184359182917fa4fbc395f535af46c17744dfc108cb05265b52f229dc57a5be996f3f1c140bd99181900360600190a38360010193505050506123c5565b5060016c03c95a2f0b4856475fe00000135592915050565b61254a3383612dc9565b6125665760405162461bcd60e51b815260040161096890614b45565b61257284848484613522565b50505050565b6116d46000612585613555565b61258d613555565b6135af565b6c03c95a2f0b4856475fe0000015546060906001600160a01b03166125c557505060408051602081019091526000815290565b60008060006125d385612689565b50506c03c95a2f0b4856475fe0000015546040516308120ceb60e01b815293965091945092506001600160a01b0316906308120ceb9061262c9088908790879087906c03c95a2f0b4856475fe000001490600401614bcd565b60006040518083038186803b15801561264457600080fd5b505afa158015612658573d6000803e3d6000fd5b505050506040513d6000823e601f3d908101601f19168201604052612680919081019061485e565b95945050505050565b6000818152600e60209081526040808320815160a0810183528154600f90810b810b900b815260018201549381018490526002820154928101929092526003015460ff80821615156060840152610100909104161515608082015282918291829182919061270a57604051631d3031fd60e31b815260040160405180910390fd5b80516020820151606083015160808401516040909401516001600160801b039093169a9299509097509550909350915050565b6c03c95a2f0b4856475fe0000015546040805163e8a3d48560e01b815290516060926001600160a01b03169163e8a3d485916004808301926000929190829003018186803b15801561278e57600080fd5b505afa1580156127a2573d6000803e3d6000fd5b505050506040513d6000823e601f3d908101601f191682016040526127ca919081019061485e565b905090565b6c03c95a2f0b4856475fe0000012546001600160a01b031633146128055760405162461bcd60e51b815260040161096890614b10565b6001600160a01b03811661286a5760405162461bcd60e51b815260206004820152602660248201527f4f776e61626c653a206e6577206f776e657220697320746865207a65726f206160448201526564647265737360d01b6064820152608401610968565b6111ee81613067565b60006001600160e01b0319821663780e9d6360e01b148061085b575061085b82613bb9565b600081815260046020526040902080546001600160a01b0319166001600160a01b03841690811790915581906128cd82611543565b6001600160a01b03167f8c5be1e5ebec7d5bd14f71427d1e84f3dd0314c0f7b2291e5b200ac8c7c3b92560405160405180910390a45050565b336001600160a01b038416148015906129c9575060405163c161c93f60e01b81523360048201526001600160a01b03848116602483015260448201849052606482018390527f0000000000000000000000000000000000000000000000000000000000000000169063c161c93f9060840160206040518083038186803b15801561298f57600080fd5b505afa1580156129a3573d6000803e3d6000fd5b505050506040513d601f19601f820116820180604052508101906129c791906147ea565b155b8015612a7f575060405163c161c93f60e01b81523360048201526001600160a01b03848116602483015260006044830152606482018390527f0000000000000000000000000000000000000000000000000000000000000000169063c161c93f9060840160206040518083038186803b158015612a4557600080fd5b505afa158015612a59573d6000803e3d6000fd5b505050506040513d601f19601f82011682018060405250810190612a7d91906147ea565b155b15610a9e5760405163075fd2b160e01b815260040160405180910390fd5b60008082815b6080811015612b2857818310612ab857612b28565b60006002612ac68486614d44565b612ad1906001614d44565b612adb9190614d9a565b905086600f82680a18f07d736b90be55601d1b8110612afc57612afc614f72565b600302016002015411612b1157809350612b1f565b612b1c600182614eb2565b92505b50600101612aa3565b5090949350505050565b6000818152600e60208181526040808420815160a081018352815460028301805494830194855260038401805460ff808216151560608701908152610100808404909216151560808801908152878b018d81528d89529c8e90529a9099528551600f0b6001600160801b03166001600160801b03199095169490941786559851600190950194909455935190935592519351151590910261ff00199315159390931661ffff19909416939093179190911790915580612bf28382806135af565b610a9e83613c09565b600082612c795760005b6001600160a01b0385166000908152600c6020526040902054811015612c77576001600160a01b0385166000908152600c60205260408120805483908110612c4f57612c4f614f72565b9060005260206000200154905080871415612c6e576001925050612c77565b50600101612c05565b505b8280612c83575080155b15612cb4576001600160a01b0384166000908152600c60209081526040822080546001810182559083529120018590555b600082612d4e576000868152600b60205260409020548015612d4c576000878152600b60205260408120612ce9600184614eb2565b81548110612cf957612cf9614f72565b9060005260206000209060020201905043816000015410612d2d5760405163f6cad3cb60e01b815260040160405180910390fd5b60018101546001600160a01b0388811691161415612d4a57600192505b505b505b8280612d58575080155b15612dc1576000868152600b6020908152604080832081518083019092524382526001600160a01b03898116838501908152825460018082018555938752949095209251600290940290920192835592519190920180546001600160a01b031916919092161790555b505050505050565b6000818152600260205260408120546001600160a01b0316612e425760405162461bcd60e51b815260206004820152602c60248201527f4552433732313a206f70657261746f7220717565727920666f72206e6f6e657860448201526b34b9ba32b73a103a37b5b2b760a11b6064820152608401610968565b6000612e4d83611543565b9050806001600160a01b0316846001600160a01b03161480612e885750836001600160a01b0316612e7d846108f3565b6001600160a01b0316145b80612eb857506001600160a01b0380821660009081526005602090815260408083209388168352929052205460ff165b949350505050565b826001600160a01b0316612ed382611543565b6001600160a01b031614612f375760405162461bcd60e51b815260206004820152602560248201527f4552433732313a207472616e736665722066726f6d20696e636f72726563742060448201526437bbb732b960d91b6064820152608401610968565b6001600160a01b038216612f995760405162461bcd60e51b8152602060048201526024808201527f4552433732313a207472616e7366657220746f20746865207a65726f206164646044820152637265737360e01b6064820152608401610968565b612fa4838383613cb0565b612faf600082612898565b6001600160a01b0383166000908152600360205260408120805460019290612fd8908490614eb2565b90915550506001600160a01b0382166000908152600360205260408120805460019290613006908490614d44565b909155505060008181526002602052604080822080546001600160a01b0319166001600160a01b0386811691821790925591518493918716917fddf252ad1be2c89b69c2b068fc378daa952ba7f163c4a11628f55a4df523b3ef91a4505050565b6c03c95a2f0b4856475fe000001280546001600160a01b038381166001600160a01b0319831681179093556040519116919082907f8be0079c531659141344cd1fd0a4f28419497f9722a3daafe3b4186f6b6457e090600090a35050565b600080839050600062093a808083604001516130e19190614d9a565b6130eb9190614e43565b905060005b60ff8110156131ab5761310662093a8083614d44565b915060008583111561311a5785925061313a565b5060008281526c03c95a2f0b4856475fe00000116020526040902054600f0b5b60408401516131499084614e62565b84602001516131589190614dae565b84518590613167908390614e62565b600f90810b900b9052508286141561317f57506131ab565b80846020018181516131919190614cf5565b600f90810b900b90525050604083018290526001016130f0565b5060008260000151600f0b12156131c157600082525b50516001600160801b03169392505050565b816001600160a01b0316836001600160a01b031614156132355760405162461bcd60e51b815260206004820152601960248201527f4552433732313a20617070726f766520746f2063616c6c6572000000000000006044820152606401610968565b6001600160a01b03838116600081815260056020908152604080832094871680845294825291829020805460ff191686151590811790915591519182527f17307eab39ab6107e8899845ad3d59bd9653f200f220920489ca2b5937696c31910160405180910390a3505050565b6000805b6c03c95a2f0b4856475fe0000014548110156132fe57826c03c95a2f0b4856475fe000001482815481106132dc576132dc614f72565b906000526020600020015414156132f65750600192915050565b6001016132a6565b50600092915050565b62093a8080826020015161331b9190614d9a565b6133259190614e43565b8160200181815250506000600e60008481526020019081526020016000206040518060a00160405290816000820160009054906101000a9004600f0b600f0b600f0b815260200160018201548152602001600282015481526020016003820160009054906101000a900460ff161515151581526020016003820160019054906101000a900460ff161515151581525050905081600e600085815260200190815260200160002060008201518160000160006101000a8154816001600160801b030219169083600f0b6001600160801b03160217905550602082015181600101556040820151816002015560608201518160030160006101000a81548160ff02191690831515021790555060808201518160030160016101000a81548160ff021916908315150217905550905050610a9e8382846135af565b611a2c828260405180602001604052806000815250613da6565b62093a806134858183614d9a565b61348f9190614e43565b6000848152600e6020908152604091829020825160a0810184528154600f90810b810b900b815260018201549281018390526002820154938101939093526003015460ff80821615156060850152610100909104161515608083015291925090821161350e5760405163440345cd60e11b815260040160405180910390fd5b604081018390526125728460008484613dd9565b61352d848484612ec0565b61353984848484613e87565b6125725760405162461bcd60e51b815260040161096890614abe565b6040805160a081018252600080825260208201819052918101829052606081018290526080810191909152506040805160a08101825260008082526020820181905291810182905260608101829052608081019190915290565b60006135b9613f94565b905060006135c5613f94565b600d5490915060009081908715613714574287602001511180156135f0575060008760000151600f0b135b1561363d578651613606906305a39a8090614d5c565b600f90810b900b602080870191909152870151613624904290614e62565b85602001516136339190614dae565b600f90810b900b85525b428660200151118015613657575060008660000151600f0b135b156136a457855161366d906305a39a8090614d5c565b600f90810b900b60208086019190915286015161368b904290614e62565b846020015161369a9190614dae565b600f90810b900b84525b60208088015160009081526c03c95a2f0b4856475fe00000118252604090205490870151600f9190910b935015613714578660200151866020015114156136ed57829150613714565b60208087015160009081526c03c95a2f0b4856475fe00000119091526040902054600f0b91505b6040805160808101825260008082526020820152429181019190915243606082015281156137a857600f82680a18f07d736b90be55601d1b811061375a5761375a614f72565b60408051608081018252600392909202929092018054600f81810b810b810b8452600160801b909104810b810b900b6020830152600181015492820192909252600290910154606082015290505b6040810151816000428310156137f55760408401516137c79042614eb2565b60608501516137d69043614eb2565b6137e890670de0b6b3a7640000614e43565b6137f29190614d9a565b90505b600062093a806138058186614d9a565b61380f9190614e43565b905060005b60ff8110156139b45761382a62093a8083614d44565b915060004283111561383e5742925061385e565b5060008281526c03c95a2f0b4856475fe00000116020526040902054600f0b5b6138688684614e62565b87602001516138779190614dae565b87518890613886908390614e62565b600f90810b900b9052506020870180518291906138a4908390614cf5565b600f90810b810b90915288516000910b121590506138c157600087525b60008760200151600f0b12156138d957600060208801525b60408088018490528501519295508592670de0b6b3a7640000906138fd9085614eb2565b6139079086614e43565b6139119190614d9a565b85606001516139209190614d44565b6060880152613930600189614d44565b97504283141561394657504360608701526139b4565b86600f89680a18f07d736b90be55601d1b811061396557613965614f72565b82516020840151600f90810b6001600160801b03908116600160801b029290910b1617600391909102919091019081556040820151600182015560609091015160029091015550600101613814565b50600d8690558c15613a4457896020015189602001516139d49190614e62565b856020018181516139e59190614cf5565b600f90810b900b905250895189516139fd9190614e62565b85518690613a0c908390614cf5565b600f90810b810b90915260208701516000910b12159050613a2f57600060208601525b60008560000151600f0b1215613a4457600085525b84600f87680a18f07d736b90be55601d1b8110613a6357613a63614f72565b82516020840151600f90810b6001600160801b03908116600160801b029290910b161760039190910291909101908155604082015160018201556060909101516002909101558c15613baa57428c602001511115613b2c5760208a0151613aca9089614cf5565b97508b602001518b602001511415613aee576020890151613aeb9089614e62565b97505b60208c81015160009081526c03c95a2f0b4856475fe00000119091526040902080546001600160801b0319166001600160801b03600f8b900b161790555b428b602001511115613b97578b602001518b602001511115613b97576020890151613b579088614e62565b60208c81015160009081526c03c95a2f0b4856475fe00000119091526040902080546001600160801b0319166001600160801b03600f84900b1617905596505b613baa8d8a600001518b60200151613fd9565b50505050505050505050505050565b60006001600160e01b031982166380ac58cd60e01b1480613bea57506001600160e01b03198216635b5e139f60e01b145b8061085b57506301ffc9a760e01b6001600160e01b031983161461085b565b6000613c1482611543565b9050613c2281600084613cb0565b613c2d600083612898565b6001600160a01b0381166000908152600360205260408120805460019290613c56908490614eb2565b909155505060008281526002602052604080822080546001600160a01b0319169055518391906001600160a01b038416907fddf252ad1be2c89b69c2b068fc378daa952ba7f163c4a11628f55a4df523b3ef908390a45050565b6001600160a01b03831615613d9b576000818152600b60205260409020548015613d99576000828152600b60205260408120613ced600184614eb2565b81548110613cfd57613cfd614f72565b60009182526020918290206040805180820190915260029092020180548252600101546001600160a01b0316918101829052915015613d97576000838152600b60209081526040808320815180830190925243825281830184815281546001808201845592865293909420915160029093029091019182559151910180546001600160a01b0319166001600160a01b039092169190911790555b505b505b610a9e8383836140bb565b613db08383614173565b613dbd6000848484613e87565b610a9e5760405162461bcd60e51b815260040161096890614abe565b80518190819085908290613dee908390614cf5565b600f90810b900b9052508315613e0657602082018490525b6000868152600e602090815260409182902084518154600f9190910b6001600160801b03166001600160801b0319909116178155908401516001820155908301516002820155606083015160039091018054608085015115156101000261ff00199315159390931661ffff1990911617919091179055612dc18682846135af565b60006001600160a01b0384163b15613f8957604051630a85bd0160e11b81526001600160a01b0385169063150b7a0290613ecb9033908990889088906004016149c3565b602060405180830381600087803b158015613ee557600080fd5b505af1925050508015613f15575060408051601f3d908101601f19168201909252613f1291810190614824565b60015b613f6f573d808015613f43576040519150601f19603f3d011682016040523d82523d6000602084013e613f48565b606091505b508051613f675760405162461bcd60e51b815260040161096890614abe565b805181602001fd5b6001600160e01b031916630a85bd0160e11b149050612eb8565b506001949350505050565b60408051608080820183526000808352602080840182905283850182905260609384018290528451928301855281835282018190529281018390529081019190915290565b60008381526c03c95a2f0b4856475fe00000106020526040812054613fff906001614d44565b60008581526c03c95a2f0b4856475fe0000010602090815260408083208490558051608081018252600f88810b825287900b8184015242818301524360608201528884526c03c95a2f0b4856475fe000000f9092529091209192509082633b9aca00811061406f5761406f614f72565b82516020840151600f90810b6001600160801b03908116600160801b029290910b1617600391909102919091019081556040820151600182015560609091015160029091015550505050565b6001600160a01b0383166141165761411181600880546000838152600960205260408120829055600182018355919091527ff3f7a9fe364faab93b216da50a3214154f22a0a2b415b23a84c8169e8b636ee30155565b614139565b816001600160a01b0316836001600160a01b0316146141395761413983826142c1565b6001600160a01b03821661415057610a9e8161435e565b826001600160a01b0316826001600160a01b031614610a9e57610a9e828261440d565b6001600160a01b0382166141c95760405162461bcd60e51b815260206004820181905260248201527f4552433732313a206d696e7420746f20746865207a65726f20616464726573736044820152606401610968565b6000818152600260205260409020546001600160a01b03161561422e5760405162461bcd60e51b815260206004820152601c60248201527f4552433732313a20746f6b656e20616c7265616479206d696e746564000000006044820152606401610968565b61423a60008383613cb0565b6001600160a01b0382166000908152600360205260408120805460019290614263908490614d44565b909155505060008181526002602052604080822080546001600160a01b0319166001600160a01b03861690811790915590518392907fddf252ad1be2c89b69c2b068fc378daa952ba7f163c4a11628f55a4df523b3ef908290a45050565b600060016142ce8461160d565b6142d89190614eb2565b60008381526007602052604090205490915080821461432b576001600160a01b03841660009081526006602090815260408083208584528252808320548484528184208190558352600790915290208190555b5060009182526007602090815260408084208490556001600160a01b039094168352600681528383209183525290812055565b60085460009061437090600190614eb2565b6000838152600960205260408120546008805493945090928490811061439857614398614f72565b9060005260206000200154905080600883815481106143b9576143b9614f72565b60009182526020808320909101929092558281526009909152604080822084905585825281205560088054806143f1576143f1614f5c565b6001900381819060005260206000200160009055905550505050565b60006144188361160d565b6001600160a01b039093166000908152600660209081526040808320868452825280832085905593825260079052919091209190915550565b60008083601f84011261446357600080fd5b50813567ffffffffffffffff81111561447b57600080fd5b6020830191508360208260061b850101111561449657600080fd5b9250929050565b6000602082840312156144af57600080fd5b81356144ba81614f9e565b9392505050565b600080604083850312156144d457600080fd5b82356144df81614f9e565b915060208301356144ef81614f9e565b809150509250929050565b60008060006060848603121561450f57600080fd5b833561451a81614f9e565b9250602084013561452a81614f9e565b929592945050506040919091013590565b6000806000806080858703121561455157600080fd5b843561455c81614f9e565b9350602085013561456c81614f9e565b925060408501359150606085013567ffffffffffffffff81111561458f57600080fd5b8501601f810187136145a057600080fd5b80356145b36145ae82614ccd565b614c9c565b8181528860208385010111156145c857600080fd5b8160208401602083013760006020838301015280935050505092959194509250565b600080604083850312156145fd57600080fd5b823561460881614f9e565b915060208301356144ef81614fb3565b6000806040838503121561462b57600080fd5b823561463681614f9e565b946020939093013593505050565b60008060008060008060c0878903121561465d57600080fd5b863561466881614f9e565b95506020870135945060408701359350606087013561468681614f9e565b9250608087013561469681614fb3565b915060a08701356146a681614fb3565b809150509295509295509295565b60008060008060008060c087890312156146cd57600080fd5b86356146d881614f9e565b95506020870135945060408701359350606087013560ff811681146146fc57600080fd5b9598949750929560808101359460a0909101359350915050565b6000806020838503121561472957600080fd5b823567ffffffffffffffff81111561474057600080fd5b61474c85828601614451565b90969095509350505050565b6000806020838503121561476b57600080fd5b823567ffffffffffffffff8082111561478357600080fd5b818501915085601f83011261479757600080fd5b8135818111156147a657600080fd5b8660208260051b85010111156147bb57600080fd5b60209290920196919550909350505050565b6000602082840312156147df57600080fd5b81356144ba81614fb3565b6000602082840312156147fc57600080fd5b81516144ba81614fb3565b60006020828403121561481957600080fd5b81356144ba81614fc1565b60006020828403121561483657600080fd5b81516144ba81614fc1565b60006020828403121561485357600080fd5b81516144ba81614f9e565b60006020828403121561487057600080fd5b815167ffffffffffffffff81111561488757600080fd5b8201601f8101841361489857600080fd5b80516148a66145ae82614ccd565b8181528560208385010111156148bb57600080fd5b612680826020830160208601614ec9565b6000602082840312156148de57600080fd5b5035919050565b6000602082840312156148f757600080fd5b5051919050565b6000806040838503121561491157600080fd5b50508035926020909101359150565b81835281816020850137506000828201602090810191909152601f909101601f19169091010190565b60008151808452614961816020860160208601614ec9565b601f01601f19169290920160200192915050565b600060018060a01b03808a168352808916602084015287604084015286606084015260c060808401526149ac60c084018688614920565b915080841660a08401525098975050505050505050565b6001600160a01b038581168252841660208201526040810183905260806060820181905260009061196690830184614949565b6001600160a01b038b81168252602082018b9052604082018a9052888116606083015260808201889052861660a082015261010060c08201819052600090614a418382018789614920565b905082810360e0840152614a56818587614920565b9d9c50505050505050505050505050565b6020808252825182820181905260009190848201906040850190845b81811015614a9f57835183529284019291840191600101614a83565b50909695505050505050565b6020815260006144ba6020830184614949565b60208082526032908201527f4552433732313a207472616e7366657220746f206e6f6e20455243373231526560408201527131b2b4bb32b91034b6b83632b6b2b73a32b960711b606082015260800190565b6020808252818101527f4f776e61626c653a2063616c6c6572206973206e6f7420746865206f776e6572604082015260600190565b60208082526031908201527f4552433732313a207472616e736665722063616c6c6572206973206e6f74206f6040820152701ddb995c881b9bdc88185c1c1c9bdd9959607a1b606082015260800190565b6020808252601f908201527f5265656e7472616e637947756172643a207265656e7472616e742063616c6c00604082015260600190565b600060a082018783526020878185015286604085015285606085015260a0608085015281855480845260c0860191508660005282600020935060005b81811015614c2557845483526001948501949284019201614c09565b50909a9950505050505050505050565b6000808335601e19843603018112614c4c57600080fd5b83018035915067ffffffffffffffff821115614c6757600080fd5b60200191503681900382131561449657600080fd5b6000823560de19833603018112614c9257600080fd5b9190910192915050565b604051601f8201601f1916810167ffffffffffffffff81118282101715614cc557614cc5614f88565b604052919050565b600067ffffffffffffffff821115614ce757614ce7614f88565b50601f01601f191660200190565b600081600f0b83600f0b600082128260016001607f1b0303821381151615614d1f57614d1f614f30565b8260016001607f1b0319038212811615614d3b57614d3b614f30565b50019392505050565b60008219821115614d5757614d57614f30565b500190565b600081600f0b83600f0b80614d7357614d73614f46565b60016001607f1b0319821460001982141615614d9157614d91614f30565b90059392505050565b600082614da957614da9614f46565b500490565b600081600f0b83600f0b60016001607f1b03600082136000841383830485118282161615614dde57614dde614f30565b60016001607f1b03196000851282811687830587121615614e0157614e01614f30565b60008712925085820587128484161615614e1d57614e1d614f30565b85850587128184161615614e3357614e33614f30565b5050509290910295945050505050565b6000816000190483118215151615614e5d57614e5d614f30565b500290565b600081600f0b83600f0b600081128160016001607f1b031901831281151615614e8d57614e8d614f30565b8160016001607f1b03018313811615614ea857614ea8614f30565b5090039392505050565b600082821015614ec457614ec4614f30565b500390565b60005b83811015614ee4578181015183820152602001614ecc565b838111156125725750506000910152565b600181811c90821680614f0957607f821691505b60208210811415614f2a57634e487b7160e01b600052602260045260246000fd5b50919050565b634e487b7160e01b600052601160045260246000fd5b634e487b7160e01b600052601260045260246000fd5b634e487b7160e01b600052603160045260246000fd5b634e487b7160e01b600052603260045260246000fd5b634e487b7160e01b600052604160045260246000fd5b6001600160a01b03811681146111ee57600080fd5b80151581146111ee57600080fd5b6001600160e01b0319811681146111ee57600080fdfea26469706673582212206987f75c5a03c4e848fa09f0471ebc058cb0721d2cb567bf3905e847a284035f64736f6c63430008060033a2646970667358221220febee41dca3476cceec684dedd5aef5bde8b1065dad9ffc6f5fce80f0040200f64736f6c63430008060033",
    "linkReferences": {}
  },
  "methodIdentifiers": {
    "deployVeNFT(uint256,string,string,address,address,address,uint256[],address)": "feb7890a",
    "operatorStore()": "ad007d63",
    "projects()": "8b79543c"
  },
  "id": 1
}