{
  "abi": [
    {
      "inputs": [],
      "name": "PERMISSION_INDEX_OUT_OF_BOUNDS",
      "type": "error"
    },
    {
      "anonymous": false,
      "inputs": [
        {
          "indexed": true,
          "internalType": "address",
          "name": "operator",
          "type": "address"
        },
        {
          "indexed": true,
          "internalType": "address",
          "name": "account",
          "type": "address"
        },
        {
          "indexed": true,
          "internalType": "uint256",
          "name": "domain",
          "type": "uint256"
        },
        {
          "indexed": false,
          "internalType": "uint256[]",
          "name": "permissionIndexes",
          "type": "uint256[]"
        },
        {
          "indexed": false,
          "internalType": "uint256",
          "name": "packed",
          "type": "uint256"
        }
      ],
      "name": "SetOperator",
      "type": "event"
    },
    {
      "inputs": [
        {
          "internalType": "address",
          "name": "_operator",
          "type": "address"
        },
        {
          "internalType": "address",
          "name": "_account",
          "type": "address"
        },
        {
          "internalType": "uint256",
          "name": "_domain",
          "type": "uint256"
        },
        {
          "internalType": "uint256",
          "name": "_permissionIndex",
          "type": "uint256"
        }
      ],
      "name": "hasPermission",
      "outputs": [
        {
          "internalType": "bool",
          "name": "",
          "type": "bool"
        }
      ],
      "stateMutability": "view",
      "type": "function"
    },
    {
      "inputs": [
        {
          "internalType": "address",
          "name": "_operator",
          "type": "address"
        },
        {
          "internalType": "address",
          "name": "_account",
          "type": "address"
        },
        {
          "internalType": "uint256",
          "name": "_domain",
          "type": "uint256"
        },
        {
          "internalType": "uint256[]",
          "name": "_permissionIndexes",
          "type": "uint256[]"
        }
      ],
      "name": "hasPermissions",
      "outputs": [
        {
          "internalType": "bool",
          "name": "",
          "type": "bool"
        }
      ],
      "stateMutability": "view",
      "type": "function"
    },
    {
      "inputs": [
        {
          "internalType": "address",
          "name": "",
          "type": "address"
        },
        {
          "internalType": "address",
          "name": "",
          "type": "address"
        },
        {
          "internalType": "uint256",
          "name": "",
          "type": "uint256"
        }
      ],
      "name": "permissionsOf",
      "outputs": [
        {
          "internalType": "uint256",
          "name": "",
          "type": "uint256"
        }
      ],
      "stateMutability": "view",
      "type": "function"
    },
    {
      "inputs": [
        {
          "components": [
            {
              "internalType": "address",
              "name": "operator",
              "type": "address"
            },
            {
              "internalType": "uint256",
              "name": "domain",
              "type": "uint256"
            },
            {
              "internalType": "uint256[]",
              "name": "permissionIndexes",
              "type": "uint256[]"
            }
          ],
          "internalType": "struct JBOperatorData",
          "name": "_operatorData",
          "type": "tuple"
        }
      ],
      "name": "setOperator",
      "outputs": [],
      "stateMutability": "nonpayable",
      "type": "function"
    },
    {
      "inputs": [
        {
          "components": [
            {
              "internalType": "address",
              "name": "operator",
              "type": "address"
            },
            {
              "internalType": "uint256",
              "name": "domain",
              "type": "uint256"
            },
            {
              "internalType": "uint256[]",
              "name": "permissionIndexes",
              "type": "uint256[]"
            }
          ],
          "internalType": "struct JBOperatorData[]",
          "name": "_operatorData",
          "type": "tuple[]"
        }
      ],
      "name": "setOperators",
      "outputs": [],
      "stateMutability": "nonpayable",
      "type": "function"
    }
  ],
  "bytecode": {
    "object": "0x608060405234801561001057600080fd5b50610818806100206000396000f3fe608060405234801561001057600080fd5b50600436106100575760003560e01c80630f5932f01461005c578063529cdd2e1461008457806380deb230146100995780638d5f697f146100d7578063c161c93f146100ea575b600080fd5b61006f61006a3660046105c5565b6100fd565b60405190151581526020015b60405180910390f35b6100976100923660046106b8565b6101aa565b005b6100c96100a7366004610589565b6000602081815293815260408082208552928152828120909352825290205481565b60405190815260200161007b565b6100976100e5366004610676565b61026f565b61006f6100f8366004610634565b610431565b6000805b8281101561019b57600084848381811061011d5761011d6107cc565b90506020020135905060ff81111561014857604051638e9503a960e01b815260040160405180910390fd5b6001600160a01b03888116600090815260208181526040808320938b16835292815282822089835290522054811c600116610188576000925050506101a1565b5080610193816107a3565b915050610101565b50600190505b95945050505050565b60006101c16101bc6040840184610739565b610492565b9050806000806101d46020860186610567565b6001600160a01b0316815260208082019290925260409081016000908120338083529084528282208785018035808552919095529290912093909355919061021c9085610567565b6001600160a01b03167f9dee2ffb464e2d0198cd20321be1ae3f79ed49f7ed4abfaa7ee4fe982bbeb3206102536040870187610739565b86604051610263939291906106f3565b60405180910390a45050565b60005b8181101561042c5760006102b1848484818110610291576102916107cc565b90506020028101906102a39190610783565b6101bc906040810190610739565b9050806000808686868181106102c9576102c96107cc565b90506020028101906102db9190610783565b6102e9906020810190610567565b6001600160a01b0316815260208082019290925260409081016000908120338252909252812090868686818110610322576103226107cc565b90506020028101906103349190610783565b6020013581526020019081526020016000208190555083838381811061035c5761035c6107cc565b905060200281019061036e9190610783565b6020013533858585818110610385576103856107cc565b90506020028101906103979190610783565b6103a5906020810190610567565b6001600160a01b03167f9dee2ffb464e2d0198cd20321be1ae3f79ed49f7ed4abfaa7ee4fe982bbeb3208787878181106103e1576103e16107cc565b90506020028101906103f39190610783565b610401906040810190610739565b86604051610411939291906106f3565b60405180910390a45080610424816107a3565b915050610272565b505050565b600060ff82111561045557604051638e9503a960e01b815260040160405180910390fd5b506001600160a01b03808516600090815260208181526040808320938716835292815282822085835290522054600190821c811614949350505050565b6000805b828110156104f85760008484838181106104b2576104b26107cc565b90506020020135905060ff8111156104dd57604051638e9503a960e01b815260040160405180910390fd5b6001901b9190911790806104f0816107a3565b915050610496565b5092915050565b80356001600160a01b038116811461051657600080fd5b919050565b60008083601f84011261052d57600080fd5b50813567ffffffffffffffff81111561054557600080fd5b6020830191508360208260051b850101111561056057600080fd5b9250929050565b60006020828403121561057957600080fd5b610582826104ff565b9392505050565b60008060006060848603121561059e57600080fd5b6105a7846104ff565b92506105b5602085016104ff565b9150604084013590509250925092565b6000806000806000608086880312156105dd57600080fd5b6105e6866104ff565b94506105f4602087016104ff565b935060408601359250606086013567ffffffffffffffff81111561061757600080fd5b6106238882890161051b565b969995985093965092949392505050565b6000806000806080858703121561064a57600080fd5b610653856104ff565b9350610661602086016104ff565b93969395505050506040820135916060013590565b6000806020838503121561068957600080fd5b823567ffffffffffffffff8111156106a057600080fd5b6106ac8582860161051b565b90969095509350505050565b6000602082840312156106ca57600080fd5b813567ffffffffffffffff8111156106e157600080fd5b82016060818503121561058257600080fd5b6040808252810183905260006001600160fb1b0384111561071357600080fd5b8360051b8086606085013760009083016060019081526020909201929092529392505050565b6000808335601e1984360301811261075057600080fd5b83018035915067ffffffffffffffff82111561076b57600080fd5b6020019150600581901b360382131561056057600080fd5b60008235605e1983360301811261079957600080fd5b9190910192915050565b60006000198214156107c557634e487b7160e01b600052601160045260246000fd5b5060010190565b634e487b7160e01b600052603260045260246000fdfea2646970667358221220f4e661e5cc03a740e09f60a261f23fc66adde3540d3fc34bc1b666df78c9916b64736f6c63430008060033",
    "linkReferences": {}
  }
}