{
  "abi": [
    {
      "inputs": [
        {
          "internalType": "contract IJBDirectory",
          "name": "_directory",
          "type": "address"
        }
      ],
      "stateMutability": "nonpayable",
      "type": "constructor"
    },
    {
      "inputs": [],
      "name": "CONTROLLER_UNAUTHORIZED",
      "type": "error"
    },
    {
      "inputs": [],
      "name": "INVALID_DISCOUNT_RATE",
      "type": "error"
    },
    {
      "inputs": [],
      "name": "INVALID_DURATION",
      "type": "error"
    },
    {
      "inputs": [],
      "name": "INVALID_WEIGHT",
      "type": "error"
    },
    {
      "inputs": [
        {
          "internalType": "uint256",
          "name": "prod1",
          "type": "uint256"
        },
        {
          "internalType": "uint256",
          "name": "denominator",
          "type": "uint256"
        }
      ],
      "name": "PRBMath__MulDivOverflow",
      "type": "error"
    },
    {
      "anonymous": false,
      "inputs": [
        {
          "indexed": true,
          "internalType": "uint256",
          "name": "configuration",
          "type": "uint256"
        },
        {
          "indexed": true,
          "internalType": "uint256",
          "name": "projectId",
          "type": "uint256"
        },
        {
          "components": [
            {
              "internalType": "uint256",
              "name": "duration",
              "type": "uint256"
            },
            {
              "internalType": "uint256",
              "name": "weight",
              "type": "uint256"
            },
            {
              "internalType": "uint256",
              "name": "discountRate",
              "type": "uint256"
            },
            {
              "internalType": "contract IJBFundingCycleBallot",
              "name": "ballot",
              "type": "address"
            }
          ],
          "indexed": false,
          "internalType": "struct JBFundingCycleData",
          "name": "data",
          "type": "tuple"
        },
        {
          "indexed": false,
          "internalType": "uint256",
          "name": "metadata",
          "type": "uint256"
        },
        {
          "indexed": false,
          "internalType": "uint256",
          "name": "mustStartAtOrAfter",
          "type": "uint256"
        },
        {
          "indexed": false,
          "internalType": "address",
          "name": "caller",
          "type": "address"
        }
      ],
      "name": "Configure",
      "type": "event"
    },
    {
      "anonymous": false,
      "inputs": [
        {
          "indexed": true,
          "internalType": "uint256",
          "name": "configuration",
          "type": "uint256"
        },
        {
          "indexed": true,
          "internalType": "uint256",
          "name": "projectId",
          "type": "uint256"
        },
        {
          "indexed": true,
          "internalType": "uint256",
          "name": "basedOn",
          "type": "uint256"
        }
      ],
      "name": "Init",
      "type": "event"
    },
    {
      "inputs": [
        {
          "internalType": "uint256",
          "name": "_projectId",
          "type": "uint256"
        },
        {
          "components": [
            {
              "internalType": "uint256",
              "name": "duration",
              "type": "uint256"
            },
            {
              "internalType": "uint256",
              "name": "weight",
              "type": "uint256"
            },
            {
              "internalType": "uint256",
              "name": "discountRate",
              "type": "uint256"
            },
            {
              "internalType": "contract IJBFundingCycleBallot",
              "name": "ballot",
              "type": "address"
            }
          ],
          "internalType": "struct JBFundingCycleData",
          "name": "_data",
          "type": "tuple"
        },
        {
          "internalType": "uint256",
          "name": "_metadata",
          "type": "uint256"
        },
        {
          "internalType": "uint256",
          "name": "_mustStartAtOrAfter",
          "type": "uint256"
        }
      ],
      "name": "configureFor",
      "outputs": [
        {
          "components": [
            {
              "internalType": "uint256",
              "name": "number",
              "type": "uint256"
            },
            {
              "internalType": "uint256",
              "name": "configuration",
              "type": "uint256"
            },
            {
              "internalType": "uint256",
              "name": "basedOn",
              "type": "uint256"
            },
            {
              "internalType": "uint256",
              "name": "start",
              "type": "uint256"
            },
            {
              "internalType": "uint256",
              "name": "duration",
              "type": "uint256"
            },
            {
              "internalType": "uint256",
              "name": "weight",
              "type": "uint256"
            },
            {
              "internalType": "uint256",
              "name": "discountRate",
              "type": "uint256"
            },
            {
              "internalType": "contract IJBFundingCycleBallot",
              "name": "ballot",
              "type": "address"
            },
            {
              "internalType": "uint256",
              "name": "metadata",
              "type": "uint256"
            }
          ],
          "internalType": "struct JBFundingCycle",
          "name": "",
          "type": "tuple"
        }
      ],
      "stateMutability": "nonpayable",
      "type": "function"
    },
    {
      "inputs": [
        {
          "internalType": "uint256",
          "name": "_projectId",
          "type": "uint256"
        }
      ],
      "name": "currentBallotStateOf",
      "outputs": [
        {
          "internalType": "enum JBBallotState",
          "name": "",
          "type": "uint8"
        }
      ],
      "stateMutability": "view",
      "type": "function"
    },
    {
      "inputs": [
        {
          "internalType": "uint256",
          "name": "_projectId",
          "type": "uint256"
        }
      ],
      "name": "currentOf",
      "outputs": [
        {
          "components": [
            {
              "internalType": "uint256",
              "name": "number",
              "type": "uint256"
            },
            {
              "internalType": "uint256",
              "name": "configuration",
              "type": "uint256"
            },
            {
              "internalType": "uint256",
              "name": "basedOn",
              "type": "uint256"
            },
            {
              "internalType": "uint256",
              "name": "start",
              "type": "uint256"
            },
            {
              "internalType": "uint256",
              "name": "duration",
              "type": "uint256"
            },
            {
              "internalType": "uint256",
              "name": "weight",
              "type": "uint256"
            },
            {
              "internalType": "uint256",
              "name": "discountRate",
              "type": "uint256"
            },
            {
              "internalType": "contract IJBFundingCycleBallot",
              "name": "ballot",
              "type": "address"
            },
            {
              "internalType": "uint256",
              "name": "metadata",
              "type": "uint256"
            }
          ],
          "internalType": "struct JBFundingCycle",
          "name": "fundingCycle",
          "type": "tuple"
        }
      ],
      "stateMutability": "view",
      "type": "function"
    },
    {
      "inputs": [],
      "name": "directory",
      "outputs": [
        {
          "internalType": "contract IJBDirectory",
          "name": "",
          "type": "address"
        }
      ],
      "stateMutability": "view",
      "type": "function"
    },
    {
      "inputs": [
        {
          "internalType": "uint256",
          "name": "_projectId",
          "type": "uint256"
        },
        {
          "internalType": "uint256",
          "name": "_configuration",
          "type": "uint256"
        }
      ],
      "name": "get",
      "outputs": [
        {
          "components": [
            {
              "internalType": "uint256",
              "name": "number",
              "type": "uint256"
            },
            {
              "internalType": "uint256",
              "name": "configuration",
              "type": "uint256"
            },
            {
              "internalType": "uint256",
              "name": "basedOn",
              "type": "uint256"
            },
            {
              "internalType": "uint256",
              "name": "start",
              "type": "uint256"
            },
            {
              "internalType": "uint256",
              "name": "duration",
              "type": "uint256"
            },
            {
              "internalType": "uint256",
              "name": "weight",
              "type": "uint256"
            },
            {
              "internalType": "uint256",
              "name": "discountRate",
              "type": "uint256"
            },
            {
              "internalType": "contract IJBFundingCycleBallot",
              "name": "ballot",
              "type": "address"
            },
            {
              "internalType": "uint256",
              "name": "metadata",
              "type": "uint256"
            }
          ],
          "internalType": "struct JBFundingCycle",
          "name": "fundingCycle",
          "type": "tuple"
        }
      ],
      "stateMutability": "view",
      "type": "function"
    },
    {
      "inputs": [
        {
          "internalType": "uint256",
          "name": "",
          "type": "uint256"
        }
      ],
      "name": "latestConfigurationOf",
      "outputs": [
        {
          "internalType": "uint256",
          "name": "",
          "type": "uint256"
        }
      ],
      "stateMutability": "view",
      "type": "function"
    },
    {
      "inputs": [
        {
          "internalType": "uint256",
          "name": "_projectId",
          "type": "uint256"
        }
      ],
      "name": "queuedOf",
      "outputs": [
        {
          "components": [
            {
              "internalType": "uint256",
              "name": "number",
              "type": "uint256"
            },
            {
              "internalType": "uint256",
              "name": "configuration",
              "type": "uint256"
            },
            {
              "internalType": "uint256",
              "name": "basedOn",
              "type": "uint256"
            },
            {
              "internalType": "uint256",
              "name": "start",
              "type": "uint256"
            },
            {
              "internalType": "uint256",
              "name": "duration",
              "type": "uint256"
            },
            {
              "internalType": "uint256",
              "name": "weight",
              "type": "uint256"
            },
            {
              "internalType": "uint256",
              "name": "discountRate",
              "type": "uint256"
            },
            {
              "internalType": "contract IJBFundingCycleBallot",
              "name": "ballot",
              "type": "address"
            },
            {
              "internalType": "uint256",
              "name": "metadata",
              "type": "uint256"
            }
          ],
          "internalType": "struct JBFundingCycle",
          "name": "fundingCycle",
          "type": "tuple"
        }
      ],
      "stateMutability": "view",
      "type": "function"
    }
  ],
  "bytecode": {
    "object": "0x60a060405234801561001057600080fd5b506040516112f93803806112f983398101604081905261002f91610044565b60601b6001600160601b031916608052610074565b60006020828403121561005657600080fd5b81516001600160a01b038116811461006d57600080fd5b9392505050565b60805160601c6112606100996000396000818161017601526103eb01526112606000f3fe608060405234801561001057600080fd5b506004361061007d5760003560e01c8063669e48aa1161005b578063669e48aa1461014b578063a249d4251461015e578063c41c2f2414610171578063c55f571c146101b057600080fd5b80632cee6deb1461008257806343a266c2146100b55780635c55007814610138575b600080fd5b6100a2610090366004611041565b60036020526000908152604090205481565b6040519081526020015b60405180910390f35b6100c86100c3366004611041565b6101d0565b6040516100ac9190815181526020808301519082015260408083015190820152606080830151908201526080808301519082015260a0808301519082015260c0808301519082015260e0808301516001600160a01b03169082015261010091820151918101919091526101200190565b6100c8610146366004611041565b6102b7565b6100c86101593660046110ba565b6103af565b6100c861016c366004611073565b6103c1565b6101987f000000000000000000000000000000000000000000000000000000000000000081565b6040516001600160a01b0390911681526020016100ac565b6101c36101be366004611041565b610629565b6040516100ac91906110dc565b6101d8610f91565b6000828152600360205260409020546101fc576101f6600080610658565b92915050565b600061020783610723565b9050610211610f91565b8115610245576102218483610658565b905061022d84826107dc565b15610239579392505050565b80604001519150610288565b60008481526003602052604090205491506102608483610658565b905061026c84826107dc565b158061027b5750806060015142105b1561028857806040015191505b816102a057610298600080610658565b949350505050565b6102aa8483610658565b905061029881600161080b565b6102bf610f91565b6000828152600360205260409020546102dd576101f6600080610658565b60006102e8836108e6565b90508015610326576102fa8382610658565b915061030683836107dc565b156103115750919050565b61031f838360400151610658565b915061035f565b600083815260036020526040902054610340908490610658565b9150428260600151111561035f5761035c838360400151610658565b91505b608082015161037a57610373600080610658565b9392505050565b61038483836107dc565b156103945761037382600061080b565b6103a2838360400151610658565b915061037382600061080b565b6103b7610f91565b6103738383610658565b6103c9610f91565b604051632eec7b5560e11b815260048101869052859033906001600160a01b037f00000000000000000000000000000000000000000000000000000000000000001690635dd8f6aa9060240160206040518083038186803b15801561042d57600080fd5b505afa158015610441573d6000803e3d6000fd5b505050506040513d601f19601f820116820180604052508101906104659190610fe6565b6001600160a01b03161461048c57604051632adfdd0560e21b815260040160405180910390fd5b67ffffffffffffffff853511156104b657604051630c51c95b60e21b815260040160405180910390fd5b633b9aca00856040013511156104df57604051632459513560e01b815260040160405180910390fd5b6affffffffffffffffffffff6020860135111561050f5760405163698f22ad60e01b815260040160405180910390fd5b4261052d878260208901358188116105275742610974565b87610974565b600061053f6080880160608901611003565b6001600160a01b03161415806105555750853515155b80610564575060008660400135115b156105b257600061057b6080880160608901611003565b600089815260208181526040808320868452909152908190206001600160a01b0392909216893560a01b179089013560e01b179055505b84156105d557600087815260026020908152604080832084845290915290208590555b86817f1175572e9e7787125bbb2c1175e626d6fa90191342319fa2c35d8bd194a8a1b68888883360405161060c9493929190611104565b60405180910390a361061e8782610658565b979650505050505050565b600081815260036020526040812054816106438483610658565b90506102988482602001518360400151610ac7565b610660610f91565b8161066a576101f6565b602081810183905260008481526001825260408082208583528352808220546affffffffffffffffffffff811660a080870191909152605882901c66ffffffffffffff90811684880152609083901c16606087015260c89190911c85528683528284528183208684528452818320546001600160a01b03811660e0808801919091529181901c67ffffffffffffffff166080870152901c60c0850152948152600282528481209381529290529190205461010082015290565b6000818152600360205260408120549061073d8383610658565b905060008160800151118015610766575080608001518160600151610762919061115e565b4210155b156107745750600092915050565b80606001514210610789576020015192915050565b6000610799848360400151610658565b9050600081608001511180156107c25750806080015181606001516107be919061115e565b4210155b156107d1575060009392505050565b506040015192915050565b6000806107f28484602001518560400151610ac7565b6002811115610803576108036111fc565b149392505050565b610813610f91565b600082158061082457506080840151155b610847576080840151610837904261118a565b61084290600161115e565b610852565b61085242600161115e565b905060006108608583610c1d565b9050600061086e8683610caa565b90506040518061012001604052808281526020018760200151815260200187604001518152602001838152602001876080015181526020016108b08885610cfd565b81526020018760c0015181526020018760e001516001600160a01b03168152602001876101000151815250935050505092915050565b600081815260036020526040812054906109008383610658565b9050806060015142106109165750600092915050565b8051600114156109265750919050565b6000610936848360400151610658565b90506000816080015111801561095e57508060800151826060015161095b919061118a565b42105b1561096d575060009392505050565b5050919050565b6000848152600360205260409020546109a35761099e84610996600080610658565b858486610db8565b610ac1565b60006109ae85610723565b9050806109c657506000848152600360205260409020545b60006109d28683610658565b90506109de86826107dc565b6109f3576109ec8683610658565b6040015191505b60006109ff8784610658565b60e08101519091506000906001600160a01b031615610a9c578160e001516001600160a01b0316630fb5a6b46040518163ffffffff1660e01b815260040160206040518083038186803b158015610a5557600080fd5b505afa158015610a69573d6000803e3d6000fd5b505050506040513d601f19601f82011682018060405250810190610a8d919061105a565b610a97908861115e565b610a9f565b60005b9050610abc888389888511610ab45788610ab6565b845b8a610db8565b505050505b50505050565b600081610ad657506000610373565b6000610ae28584610658565b60e08101519091506001600160a01b0316610b01576000915050610373565b610b0b844261118a565b8160e001516001600160a01b0316630fb5a6b46040518163ffffffff1660e01b815260040160206040518083038186803b158015610b4857600080fd5b505afa158015610b5c573d6000803e3d6000fd5b505050506040513d601f19601f82011682018060405250810190610b80919061105a565b10610b8f576001915050610373565b60e081015160405163f94633fb60e01b815260048101879052602481018690526001600160a01b039091169063f94633fb9060440160206040518083038186803b158015610bdc57600080fd5b505afa158015610bf0573d6000803e3d6000fd5b505050506040513d601f19601f82011682018060405250810190610c149190611020565b95945050505050565b6000826080015160001415610c335750806101f6565b600083608001518460600151610c49919061115e565b9050828110610c595790506101f6565b6080840151600090610c6b838661118a565b610c7591906111bc565b9050610c81818561118a565b92505b82841115610ca2576080850151610c9b908461115e565b9250610c84565b505092915050565b6000826080015160001415610ccd578251610cc690600161115e565b90506101f6565b6000836060015183610cdf919061118a565b9050836080015181610cf19190611176565b8451610298919061115e565b6000826080015160001415610d3257610cc68360a001518460c00151633b9aca00610d28919061118a565b633b9aca00610ebf565b5060a082015160c0830151610d46576101f6565b6000836060015183610d58919061118a565b90506000846080015182610d6c9190611176565b905060005b81811015610daf57610d91848760c00151633b9aca00610d28919061118a565b935083610d9d57610daf565b80610da7816111a1565b915050610d71565b50505092915050565b8351610df85760208085015160008781526001808452604080832088845290945292902060589190911b8317609085901b17600160c81b17905550610e75565b6000610e048584610c1d565b905060008211610e1d57610e188582610cfd565b610e2e565b81600114610e2b5781610e2e565b60005b91506000610e3c8683610caa565b60208088015160008a81526001835260408082208a83529093529190912060589190911b8517609085901b1760c883901b179055905050505b60008581526003602090815260408083208690559086015190519091879186917ff1bd4f3fcb4e0b193abc7e4002c0284e25086269a02de2e4c52045a91f64703791a45050505050565b600080806000198587098587029250828110838203039150508060001415610efa57838281610ef057610ef06111e6565b0492505050610373565b838110610f2857604051631dcf306360e21b8152600481018290526024810185905260440160405180910390fd5b60008486880960026001871981018816978890046003810283188082028403028082028403028082028403028082028403028082028403029081029092039091026000889003889004909101858311909403939093029303949094049190911702949350505050565b6040518061012001604052806000815260200160008152602001600081526020016000815260200160008152602001600081526020016000815260200160006001600160a01b03168152602001600081525090565b600060208284031215610ff857600080fd5b815161037381611212565b60006020828403121561101557600080fd5b813561037381611212565b60006020828403121561103257600080fd5b81516003811061037357600080fd5b60006020828403121561105357600080fd5b5035919050565b60006020828403121561106c57600080fd5b5051919050565b60008060008084860360e081121561108a57600080fd5b853594506080601f19820112156110a057600080fd5b50929560208501955060a08501359460c001359350915050565b600080604083850312156110cd57600080fd5b50508035926020909101359150565b60208101600383106110fe57634e487b7160e01b600052602160045260246000fd5b91905290565b84358152602080860135908201526040808601359082015260e08101606086013561112e81611212565b6001600160a01b039081166060840152608083019590955260a0820193909352921660c090920191909152919050565b60008219821115611171576111716111d0565b500190565b600082611185576111856111e6565b500490565b60008282101561119c5761119c6111d0565b500390565b60006000198214156111b5576111b56111d0565b5060010190565b6000826111cb576111cb6111e6565b500690565b634e487b7160e01b600052601160045260246000fd5b634e487b7160e01b600052601260045260246000fd5b634e487b7160e01b600052602160045260246000fd5b6001600160a01b038116811461122757600080fd5b5056fea2646970667358221220cd994b4eba72bdbe973881bfe4f4f17634c10df33ca104c591bf8f683f47bcbc64736f6c63430008060033",
    "linkReferences": {}
  }
}