{
  "abi": [
    {
      "inputs": [
        {
          "internalType": "contract IJBDirectory",
          "name": "_directory",
          "type": "address"
        }
      ],
      "stateMutability": "nonpayable",
      "type": "constructor"
    },
    {
      "inputs": [],
      "name": "CONTROLLER_UNAUTHORIZED",
      "type": "error"
    },
    {
      "inputs": [],
      "name": "INVALID_DISCOUNT_RATE",
      "type": "error"
    },
    {
      "inputs": [],
      "name": "INVALID_DURATION",
      "type": "error"
    },
    {
      "inputs": [],
      "name": "INVALID_WEIGHT",
      "type": "error"
    },
    {
      "inputs": [
        {
          "internalType": "uint256",
          "name": "prod1",
          "type": "uint256"
        },
        {
          "internalType": "uint256",
          "name": "denominator",
          "type": "uint256"
        }
      ],
      "name": "PRBMath__MulDivOverflow",
      "type": "error"
    },
    {
      "anonymous": false,
      "inputs": [
        {
          "indexed": true,
          "internalType": "uint256",
          "name": "configuration",
          "type": "uint256"
        },
        {
          "indexed": true,
          "internalType": "uint256",
          "name": "projectId",
          "type": "uint256"
        },
        {
          "components": [
            {
              "internalType": "uint256",
              "name": "duration",
              "type": "uint256"
            },
            {
              "internalType": "uint256",
              "name": "weight",
              "type": "uint256"
            },
            {
              "internalType": "uint256",
              "name": "discountRate",
              "type": "uint256"
            },
            {
              "internalType": "contract IJBFundingCycleBallot",
              "name": "ballot",
              "type": "address"
            }
          ],
          "indexed": false,
          "internalType": "struct JBFundingCycleData",
          "name": "data",
          "type": "tuple"
        },
        {
          "indexed": false,
          "internalType": "uint256",
          "name": "metadata",
          "type": "uint256"
        },
        {
          "indexed": false,
          "internalType": "uint256",
          "name": "mustStartAtOrAfter",
          "type": "uint256"
        },
        {
          "indexed": false,
          "internalType": "address",
          "name": "caller",
          "type": "address"
        }
      ],
      "name": "Configure",
      "type": "event"
    },
    {
      "anonymous": false,
      "inputs": [
        {
          "indexed": true,
          "internalType": "uint256",
          "name": "configuration",
          "type": "uint256"
        },
        {
          "indexed": true,
          "internalType": "uint256",
          "name": "projectId",
          "type": "uint256"
        },
        {
          "indexed": true,
          "internalType": "uint256",
          "name": "basedOn",
          "type": "uint256"
        }
      ],
      "name": "Init",
      "type": "event"
    },
    {
      "inputs": [
        {
          "internalType": "uint256",
          "name": "_projectId",
          "type": "uint256"
        },
        {
          "components": [
            {
              "internalType": "uint256",
              "name": "duration",
              "type": "uint256"
            },
            {
              "internalType": "uint256",
              "name": "weight",
              "type": "uint256"
            },
            {
              "internalType": "uint256",
              "name": "discountRate",
              "type": "uint256"
            },
            {
              "internalType": "contract IJBFundingCycleBallot",
              "name": "ballot",
              "type": "address"
            }
          ],
          "internalType": "struct JBFundingCycleData",
          "name": "_data",
          "type": "tuple"
        },
        {
          "internalType": "uint256",
          "name": "_metadata",
          "type": "uint256"
        },
        {
          "internalType": "uint256",
          "name": "_mustStartAtOrAfter",
          "type": "uint256"
        }
      ],
      "name": "configureFor",
      "outputs": [
        {
          "components": [
            {
              "internalType": "uint256",
              "name": "number",
              "type": "uint256"
            },
            {
              "internalType": "uint256",
              "name": "configuration",
              "type": "uint256"
            },
            {
              "internalType": "uint256",
              "name": "basedOn",
              "type": "uint256"
            },
            {
              "internalType": "uint256",
              "name": "start",
              "type": "uint256"
            },
            {
              "internalType": "uint256",
              "name": "duration",
              "type": "uint256"
            },
            {
              "internalType": "uint256",
              "name": "weight",
              "type": "uint256"
            },
            {
              "internalType": "uint256",
              "name": "discountRate",
              "type": "uint256"
            },
            {
              "internalType": "contract IJBFundingCycleBallot",
              "name": "ballot",
              "type": "address"
            },
            {
              "internalType": "uint256",
              "name": "metadata",
              "type": "uint256"
            }
          ],
          "internalType": "struct JBFundingCycle",
          "name": "",
          "type": "tuple"
        }
      ],
      "stateMutability": "nonpayable",
      "type": "function"
    },
    {
      "inputs": [
        {
          "internalType": "uint256",
          "name": "_projectId",
          "type": "uint256"
        }
      ],
      "name": "currentBallotStateOf",
      "outputs": [
        {
          "internalType": "enum JBBallotState",
          "name": "",
          "type": "uint8"
        }
      ],
      "stateMutability": "view",
      "type": "function"
    },
    {
      "inputs": [
        {
          "internalType": "uint256",
          "name": "_projectId",
          "type": "uint256"
        }
      ],
      "name": "currentOf",
      "outputs": [
        {
          "components": [
            {
              "internalType": "uint256",
              "name": "number",
              "type": "uint256"
            },
            {
              "internalType": "uint256",
              "name": "configuration",
              "type": "uint256"
            },
            {
              "internalType": "uint256",
              "name": "basedOn",
              "type": "uint256"
            },
            {
              "internalType": "uint256",
              "name": "start",
              "type": "uint256"
            },
            {
              "internalType": "uint256",
              "name": "duration",
              "type": "uint256"
            },
            {
              "internalType": "uint256",
              "name": "weight",
              "type": "uint256"
            },
            {
              "internalType": "uint256",
              "name": "discountRate",
              "type": "uint256"
            },
            {
              "internalType": "contract IJBFundingCycleBallot",
              "name": "ballot",
              "type": "address"
            },
            {
              "internalType": "uint256",
              "name": "metadata",
              "type": "uint256"
            }
          ],
          "internalType": "struct JBFundingCycle",
          "name": "fundingCycle",
          "type": "tuple"
        }
      ],
      "stateMutability": "view",
      "type": "function"
    },
    {
      "inputs": [],
      "name": "directory",
      "outputs": [
        {
          "internalType": "contract IJBDirectory",
          "name": "",
          "type": "address"
        }
      ],
      "stateMutability": "view",
      "type": "function"
    },
    {
      "inputs": [
        {
          "internalType": "uint256",
          "name": "_projectId",
          "type": "uint256"
        },
        {
          "internalType": "uint256",
          "name": "_configuration",
          "type": "uint256"
        }
      ],
      "name": "get",
      "outputs": [
        {
          "components": [
            {
              "internalType": "uint256",
              "name": "number",
              "type": "uint256"
            },
            {
              "internalType": "uint256",
              "name": "configuration",
              "type": "uint256"
            },
            {
              "internalType": "uint256",
              "name": "basedOn",
              "type": "uint256"
            },
            {
              "internalType": "uint256",
              "name": "start",
              "type": "uint256"
            },
            {
              "internalType": "uint256",
              "name": "duration",
              "type": "uint256"
            },
            {
              "internalType": "uint256",
              "name": "weight",
              "type": "uint256"
            },
            {
              "internalType": "uint256",
              "name": "discountRate",
              "type": "uint256"
            },
            {
              "internalType": "contract IJBFundingCycleBallot",
              "name": "ballot",
              "type": "address"
            },
            {
              "internalType": "uint256",
              "name": "metadata",
              "type": "uint256"
            }
          ],
          "internalType": "struct JBFundingCycle",
          "name": "fundingCycle",
          "type": "tuple"
        }
      ],
      "stateMutability": "view",
      "type": "function"
    },
    {
      "inputs": [
        {
          "internalType": "uint256",
          "name": "",
          "type": "uint256"
        }
      ],
      "name": "latestConfigurationOf",
      "outputs": [
        {
          "internalType": "uint256",
          "name": "",
          "type": "uint256"
        }
      ],
      "stateMutability": "view",
      "type": "function"
    },
    {
      "inputs": [
        {
          "internalType": "uint256",
          "name": "_projectId",
          "type": "uint256"
        }
      ],
      "name": "latestConfiguredOf",
      "outputs": [
        {
          "components": [
            {
              "internalType": "uint256",
              "name": "number",
              "type": "uint256"
            },
            {
              "internalType": "uint256",
              "name": "configuration",
              "type": "uint256"
            },
            {
              "internalType": "uint256",
              "name": "basedOn",
              "type": "uint256"
            },
            {
              "internalType": "uint256",
              "name": "start",
              "type": "uint256"
            },
            {
              "internalType": "uint256",
              "name": "duration",
              "type": "uint256"
            },
            {
              "internalType": "uint256",
              "name": "weight",
              "type": "uint256"
            },
            {
              "internalType": "uint256",
              "name": "discountRate",
              "type": "uint256"
            },
            {
              "internalType": "contract IJBFundingCycleBallot",
              "name": "ballot",
              "type": "address"
            },
            {
              "internalType": "uint256",
              "name": "metadata",
              "type": "uint256"
            }
          ],
          "internalType": "struct JBFundingCycle",
          "name": "fundingCycle",
          "type": "tuple"
        },
        {
          "internalType": "enum JBBallotState",
          "name": "ballotState",
          "type": "uint8"
        }
      ],
      "stateMutability": "view",
      "type": "function"
    },
    {
      "inputs": [
        {
          "internalType": "uint256",
          "name": "_projectId",
          "type": "uint256"
        }
      ],
      "name": "queuedOf",
      "outputs": [
        {
          "components": [
            {
              "internalType": "uint256",
              "name": "number",
              "type": "uint256"
            },
            {
              "internalType": "uint256",
              "name": "configuration",
              "type": "uint256"
            },
            {
              "internalType": "uint256",
              "name": "basedOn",
              "type": "uint256"
            },
            {
              "internalType": "uint256",
              "name": "start",
              "type": "uint256"
            },
            {
              "internalType": "uint256",
              "name": "duration",
              "type": "uint256"
            },
            {
              "internalType": "uint256",
              "name": "weight",
              "type": "uint256"
            },
            {
              "internalType": "uint256",
              "name": "discountRate",
              "type": "uint256"
            },
            {
              "internalType": "contract IJBFundingCycleBallot",
              "name": "ballot",
              "type": "address"
            },
            {
              "internalType": "uint256",
              "name": "metadata",
              "type": "uint256"
            }
          ],
          "internalType": "struct JBFundingCycle",
          "name": "fundingCycle",
          "type": "tuple"
        }
      ],
      "stateMutability": "view",
      "type": "function"
    }
  ],
  "bytecode": {
    "object": "0x60a060405234801561001057600080fd5b506040516113c93803806113c983398101604081905261002f91610044565b60601b6001600160601b031916608052610074565b60006020828403121561005657600080fd5b81516001600160a01b038116811461006d57600080fd5b9392505050565b60805160601c6113306100996000396000818161011e01526103e001526113306000f3fe608060405234801561001057600080fd5b50600436106100885760003560e01c8063a249d4251161005b578063a249d42514610106578063c41c2f2414610119578063c55f571c14610158578063ebc8ca1f1461017857600080fd5b80632cee6deb1461008d57806343a266c2146100c05780635c550078146100e0578063669e48aa146100f3575b600080fd5b6100ad61009b36600461107e565b60036020526000908152604090205481565b6040519081526020015b60405180910390f35b6100d36100ce36600461107e565b610199565b6040516100b79190611202565b6100d36100ee36600461107e565b610294565b6100d36101013660046110f7565b6103a4565b6100d36101143660046110b0565b6103b6565b6101407f000000000000000000000000000000000000000000000000000000000000000081565b6040516001600160a01b0390911681526020016100b7565b61016b61016636600461107e565b61061e565b6040516100b7919061119a565b61018b61018636600461107e565b610652565b6040516100b7929190611211565b6101a1610fce565b6000828152600360205260409020546101c5576101bf600080610695565b92915050565b60006101d083610760565b90506101da610fce565b811561020e576101ea8483610695565b90506101f68482610819565b15610202579392505050565b80604001519150610251565b60008481526003602052604090205491506102298483610695565b90506102358482610819565b15806102445750806060015142105b1561025157806040015191505b8161026957610261600080610695565b949350505050565b6102738483610695565b9050806080015160001415610289579392505050565b61026181600161084e565b61029c610fce565b6000828152600360205260409020546102ba576101bf600080610695565b60006102c58361091c565b90508015610303576102d78382610695565b91506102e38383610819565b156102ee5750919050565b6102fc838360400151610695565b915061033c565b60008381526003602052604090205461031d908490610695565b9150428260600151111561033c57610339838360400151610695565b91505b608082015161035757610350600080610695565b9392505050565b6103618383610819565b156103715761035082600061084e565b61037f838360400151610695565b915081608001516000141561039957610350600080610695565b61035082600061084e565b6103ac610fce565b6103508383610695565b6103be610fce565b604051632eec7b5560e11b815260048101869052859033906001600160a01b037f00000000000000000000000000000000000000000000000000000000000000001690635dd8f6aa9060240160206040518083038186803b15801561042257600080fd5b505afa158015610436573d6000803e3d6000fd5b505050506040513d601f19601f8201168201806040525081019061045a9190611023565b6001600160a01b03161461048157604051632adfdd0560e21b815260040160405180910390fd5b67ffffffffffffffff853511156104ab57604051630c51c95b60e21b815260040160405180910390fd5b633b9aca00856040013511156104d457604051632459513560e01b815260040160405180910390fd5b6affffffffffffffffffffff602086013511156105045760405163698f22ad60e01b815260040160405180910390fd5b426105228782602089013581881161051c57426109aa565b876109aa565b60006105346080880160608901611040565b6001600160a01b031614158061054a5750853515155b80610559575060008660400135115b156105a75760006105706080880160608901611040565b600089815260208181526040808320868452909152908190206001600160a01b0392909216893560a01b179089013560e01b179055505b84156105ca57600087815260026020908152604080832084845290915290208590555b86817f1175572e9e7787125bbb2c1175e626d6fa90191342319fa2c35d8bd194a8a1b68888883360405161060194939291906111a8565b60405180910390a36106138782610695565b979650505050505050565b600081815260036020526040812054816106388483610695565b905061026184826020015183606001518460400151610afd565b61065a610fce565b6000828152600360205260408120546106738482610695565b925061068d84846020015185606001518660400151610afd565b915050915091565b61069d610fce565b816106a7576101bf565b602081810183905260008481526001825260408082208583528352808220546affffffffffffffffffffff811660a080870191909152605882901c66ffffffffffffff90811684880152609083901c16606087015260c89190911c85528683528284528183208684528452818320546001600160a01b03811660e0808801919091529181901c67ffffffffffffffff166080870152901c60c0850152948152600282528481209381529290529190205461010082015290565b6000818152600360205260408120549061077a8383610695565b9050600081608001511180156107a357508060800151816060015161079f919061122e565b4210155b156107b15750600092915050565b806060015142106107c6576020015192915050565b60006107d6848360400151610695565b9050600081608001511180156107ff5750806080015181606001516107fb919061122e565b4210155b1561080e575060009392505050565b506040015192915050565b6000600161083584846020015185606001518660400151610afd565b6002811115610846576108466112cc565b149392505050565b610856610fce565b6000821561087d57608084015161086d904261125a565b61087890600161122e565b610888565b61088842600161122e565b905060006108968583610c5b565b905060006108a48683610ce8565b90506040518061012001604052808281526020018760200151815260200187604001518152602001838152602001876080015181526020016108e68885610d3b565b81526020018760c0015181526020018760e001516001600160a01b03168152602001876101000151815250935050505092915050565b600081815260036020526040812054906109368383610695565b90508060600151421061094c5750600092915050565b80516001141561095c5750919050565b600061096c848360400151610695565b905060008160800151118015610994575080608001518260600151610991919061125a565b42105b156109a3575060009392505050565b5050919050565b6000848152600360205260409020546109d9576109d4846109cc600080610695565b858486610df6565b610af7565b60006109e485610760565b9050806109fc57506000848152600360205260409020545b6000610a088683610695565b9050610a148682610819565b610a2957610a228683610695565b6040015191505b6000610a358784610695565b60e08101519091506000906001600160a01b031615610ad2578160e001516001600160a01b0316630fb5a6b46040518163ffffffff1660e01b815260040160206040518083038186803b158015610a8b57600080fd5b505afa158015610a9f573d6000803e3d6000fd5b505050506040513d601f19601f82011682018060405250810190610ac39190611097565b610acd908861122e565b610ad5565b60005b9050610af2888389888511610aea5788610aec565b845b8a610df6565b505050505b50505050565b600081610b0c57506001610261565b6000610b188684610695565b60e08101519091506001600160a01b0316610b37576001915050610261565b610b41854261125a565b8160e001516001600160a01b0316630fb5a6b46040518163ffffffff1660e01b815260040160206040518083038186803b158015610b7e57600080fd5b505afa158015610b92573d6000803e3d6000fd5b505050506040513d601f19601f82011682018060405250810190610bb69190611097565b10610bc5576000915050610261565b60e0810151604051637416790760e01b81526004810188905260248101879052604481018690526001600160a01b039091169063741679079060640160206040518083038186803b158015610c1957600080fd5b505afa158015610c2d573d6000803e3d6000fd5b505050506040513d601f19601f82011682018060405250810190610c51919061105d565b9695505050505050565b6000826080015160001415610c715750806101bf565b600083608001518460600151610c87919061122e565b9050828110610c975790506101bf565b6080840151600090610ca9838661125a565b610cb3919061128c565b9050610cbf818561125a565b92505b82841115610ce0576080850151610cd9908461122e565b9250610cc2565b505092915050565b6000826080015160001415610d0b578251610d0490600161122e565b90506101bf565b6000836060015183610d1d919061125a565b9050836080015181610d2f9190611246565b8451610261919061122e565b6000826080015160001415610d7057610d048360a001518460c00151633b9aca00610d66919061125a565b633b9aca00610efd565b5060a082015160c0830151610d84576101bf565b6000836060015183610d96919061125a565b90506000846080015182610daa9190611246565b905060005b81811015610ded57610dcf848760c00151633b9aca00610d66919061125a565b935083610ddb57610ded565b80610de581611271565b915050610daf565b50505092915050565b8351610e365760208085015160008781526001808452604080832088845290945292902060589190911b8317609085901b17600160c81b17905550610eb3565b6000610e428584610c5b565b905060008211610e5b57610e568582610d3b565b610e6c565b81600114610e695781610e6c565b60005b91506000610e7a8683610ce8565b60208088015160008a81526001835260408082208a83529093529190912060589190911b8517609085901b1760c883901b179055905050505b60008581526003602090815260408083208690559086015190519091879186917ff1bd4f3fcb4e0b193abc7e4002c0284e25086269a02de2e4c52045a91f64703791a45050505050565b600080806000198587098587029250828110838203039150508060001415610f3857838281610f2e57610f2e6112b6565b0492505050610350565b838110610f6657604051631dcf306360e21b8152600481018290526024810185905260440160405180910390fd5b600084868809600260036001881981018916988990049182028318808302840302808302840302808302840302808302840302808302840302918202909203026000889003889004909101858311909403939093029303949094049190911702949350505050565b6040518061012001604052806000815260200160008152602001600081526020016000815260200160008152602001600081526020016000815260200160006001600160a01b03168152602001600081525090565b60006020828403121561103557600080fd5b8151610350816112e2565b60006020828403121561105257600080fd5b8135610350816112e2565b60006020828403121561106f57600080fd5b81516003811061035057600080fd5b60006020828403121561109057600080fd5b5035919050565b6000602082840312156110a957600080fd5b5051919050565b60008060008084860360e08112156110c757600080fd5b853594506080601f19820112156110dd57600080fd5b50929560208501955060a08501359460c001359350915050565b6000806040838503121561110a57600080fd5b50508035926020909101359150565b6003811061113757634e487b7160e01b600052602160045260246000fd5b9052565b805182526020808201519083015260408082015190830152606080820151908301526080808201519083015260a0808201519083015260c0808201519083015260e0808201516001600160a01b03169083015261010090810151910152565b602081016101bf8284611119565b84358152602080860135908201526040808601359082015260e0810160608601356111d2816112e2565b6001600160a01b039081166060840152608083019590955260a0820193909352921660c090920191909152919050565b61012081016101bf828461113b565b6101408101611220828561113b565b610350610120830184611119565b60008219821115611241576112416112a0565b500190565b600082611255576112556112b6565b500490565b60008282101561126c5761126c6112a0565b500390565b6000600019821415611285576112856112a0565b5060010190565b60008261129b5761129b6112b6565b500690565b634e487b7160e01b600052601160045260246000fd5b634e487b7160e01b600052601260045260246000fd5b634e487b7160e01b600052602160045260246000fd5b6001600160a01b03811681146112f757600080fd5b5056fea2646970667358221220e83920be46d90901f7474ff1cdb7f223ad7336fa35e1f78b71c655c8addd6b8564736f6c63430008060033",
    "linkReferences": {}
  }
}