{
  "address": "0x1a3226Cc7Fbf837Fa4c327ECE00ae5b5a083a1AE",
  "abi": [
    {
      "inputs": [],
      "name": "INSUFFICIENT_BALANCE",
      "type": "error"
    },
    {
      "inputs": [],
      "name": "INVALID_DURATION",
      "type": "error"
    },
    {
      "inputs": [
        {
          "internalType": "uint256",
          "name": "_duration",
          "type": "uint256"
        }
      ],
      "name": "getTokenDuration",
      "outputs": [
        {
          "internalType": "uint256",
          "name": "",
          "type": "uint256"
        }
      ],
      "stateMutability": "pure",
      "type": "function"
    },
    {
      "inputs": [
        {
          "internalType": "uint256",
          "name": "_amount",
          "type": "uint256"
        }
      ],
      "name": "getTokenRange",
      "outputs": [
        {
          "internalType": "uint256",
          "name": "",
          "type": "uint256"
        }
      ],
      "stateMutability": "pure",
      "type": "function"
    },
    {
      "inputs": [
        {
          "internalType": "uint256",
          "name": "_amount",
          "type": "uint256"
        },
        {
          "internalType": "uint256",
          "name": "_duration",
          "type": "uint256"
        }
      ],
      "name": "tokenURI",
      "outputs": [
        {
          "internalType": "string",
          "name": "uri",
          "type": "string"
        }
      ],
      "stateMutability": "pure",
      "type": "function"
    }
  ],
  "transactionHash": "0x082d5d832130d6ae966adea7a52a5a0e19e39ff868739ccdef594ce92a481d59",
  "args": [],
  "numDeployments": 1,
  "solcInputHash": "75d946f03e257c9f76e85b0eb9efe831",
  "bytecode": "0x608060405234801561001057600080fd5b50610d2b806100206000396000f3fe608060405234801561001057600080fd5b50600436106100415760003560e01c806315c9fe87146100465780631efec8601461006c57806392cb829d1461007f575b600080fd5b610059610054366004610b2c565b61009f565b6040519081526020015b60405180910390f35b61005961007a366004610b2c565b610147565b61009261008d366004610b45565b610975565b6040516100639190610bd2565b60008082116100c157604051630c51c95b60e21b815260040160405180910390fd5b600082620d2f0014156100d65750600161013d565b826220f58014156100e95750600261013d565b826283d60014156100fc5750600361013d565b82630149970014156101105750600461013d565b826305265c0014156101245750600561013d565b604051630c51c95b60e21b815260040160405180910390fd5b61ffff1692915050565b600080821161016957604051632858f9ab60e11b815260040160405180910390fd5b60006001831015801561017d575060648311155b1561018a5750600161096f565b6065831015801561019c575060c88311155b156101a95750600261096f565b60c983101580156101bc575061012c8311155b156101c95750600361096f565b61019183101580156101dd57506101f48311155b156101ea5750600461096f565b6101f583101580156101fe57506102588311155b1561020b5750600561096f565b610259831015801561021f57506102bc8311155b1561022c5750600661096f565b6102bd831015801561024057506103208311155b1561024d5750600761096f565b610321831015801561026157506103848311155b1561026e5750600861096f565b610385831015801561028257506103e88311155b1561028f5750600961096f565b6103e983101580156102a357506107d08311155b156102b05750600a61096f565b6107d183101580156102c45750610bb88311155b156102d15750600b61096f565b610bb983101580156102e55750610fa08311155b156102f25750600c61096f565b610fa1831015801561030657506113888311155b156103135750600d61096f565b611389831015801561032757506117708311155b156103345750600e61096f565b61177183101580156103485750611b588311155b156103555750600f61096f565b611b5983101580156103695750611f408311155b156103765750601061096f565b611f41831015801561038a57506123288311155b156103975750601161096f565b61232983101580156103ab57506127108311155b156103b85750601261096f565b61271183101580156103cc5750612ee08311155b156103d95750601361096f565b612ee183101580156103ed57506136b08311155b156103fa5750601461096f565b6136b1831015801561040e5750613e808311155b1561041b5750601561096f565b613e81831015801561042f57506146508311155b1561043c5750601661096f565b61465183101580156104505750614e208311155b1561045d5750601761096f565b614e21831015801561047157506155f08311155b1561047e5750601861096f565b6155f183101580156104925750615dc08311155b1561049f5750601961096f565b615dc183101580156104b357506165908311155b156104c05750601a61096f565b61659183101580156104d45750616d608311155b156104e15750601b61096f565b616d6183101580156104f557506175308311155b156105025750601c61096f565b61753183101580156105165750619c408311155b156105235750601d61096f565b619c418310158015610537575061c3508311155b156105445750601e61096f565b61c3518310158015610558575061ea608311155b156105655750601f61096f565b61ea61831015801561057a5750620111708311155b156105875750602061096f565b62011171831015801561059d5750620138808311155b156105aa5750602161096f565b6201388183101580156105c0575062015f908311155b156105cd5750602261096f565b62015f9183101580156105e35750620186a08311155b156105f05750602361096f565b620186a18310158015610606575062030d408311155b156106135750602461096f565b62030d4183101580156106295750620493e08311155b156106365750602561096f565b620493e1831015801561064c575062061a808311155b156106595750602661096f565b62061a81831015801561066f57506207a1208311155b1561067c5750602761096f565b6207a12183101580156106925750620927c08311155b1561069f5750602861096f565b620927c183101580156106b55750620aae608311155b156106c25750602961096f565b620aae6183101580156106d85750620c35008311155b156106e55750602a61096f565b620c350183101580156106fb5750620dbba08311155b156107085750602b61096f565b620dbba1831015801561071e5750620f42408311155b1561072b5750602c61096f565b620f424183101580156107415750621e84808311155b1561074e5750602d61096f565b621e848183101580156107645750622dc6c08311155b156107715750602e61096f565b622dc6c183101580156107875750623d09008311155b156107945750602f61096f565b623d090183101580156107aa5750624c4b408311155b156107b75750603061096f565b624c4b4183101580156107cd5750625b8d808311155b156107da5750603161096f565b625b8d8183101580156107f05750626acfc08311155b156107fd5750603261096f565b626acfc183101580156108135750627a12008311155b156108205750603361096f565b627a120183101580156108365750628954408311155b156108435750603461096f565b6289544183101580156108595750629896808311155b156108665750603561096f565b62989681831015801561087d57506301312d008311155b1561088a5750603661096f565b6301312d0183101580156108a257506302625a008311155b156108af5750603761096f565b6302625a0183101580156108c757506302faf0808311155b156108d45750603861096f565b6302faf08183101580156108ec57506305f5e1008311155b156108f95750603961096f565b6305f5e10183101580156109115750631dcd65008311155b1561091e5750603a61096f565b631dcd6501831015801561093657506329b927008311155b156109435750603b61096f565b6329b9270183106109565750603c61096f565b604051632858f9ab60e11b815260040160405180910390fd5b92915050565b60606000831161099857604051632858f9ab60e11b815260040160405180910390fd5b600082116109b957604051630c51c95b60e21b815260040160405180910390fd5b60006109c484610147565b905060006109d18461009f565b90506109e56109e08284610c31565b610a0e565b6040516020016109f59190610b67565b6040516020818303038152906040529250505092915050565b606081610a325750506040805180820190915260018152600360fc1b602082015290565b8160005b8115610a5c5780610a4681610c97565b9150610a559050600a83610c1d565b9150610a36565b60008167ffffffffffffffff811115610a7757610a77610d08565b6040519080825280601f01601f191660200182016040528015610aa1576020820181803683370190505b5090505b8415610b2457610ab6600183610c50565b9150610ac3600a86610cb2565b610ace906030610c05565b60f81b818381518110610ae357610ae3610cf2565b60200101907effffffffffffffffffffffffffffffffffffffffffffffffffffffffffffff1916908160001a905350610b1d600a86610c1d565b9450610aa5565b949350505050565b600060208284031215610b3e57600080fd5b5035919050565b60008060408385031215610b5857600080fd5b50508035926020909101359150565b7f697066733a2f2f516d5669635633764e79504b744b785950505069564b78614181527f46613858326b5035787973364e4668694866387a6a2f00000000000000000000602082015260008251610bc5816036850160208701610c67565b9190910160360192915050565b6020815260008251806020840152610bf1816040850160208701610c67565b601f01601f19169190910160400192915050565b60008219821115610c1857610c18610cc6565b500190565b600082610c2c57610c2c610cdc565b500490565b6000816000190483118215151615610c4b57610c4b610cc6565b500290565b600082821015610c6257610c62610cc6565b500390565b60005b83811015610c82578181015183820152602001610c6a565b83811115610c91576000848401525b50505050565b6000600019821415610cab57610cab610cc6565b5060010190565b600082610cc157610cc1610cdc565b500690565b634e487b7160e01b600052601160045260246000fd5b634e487b7160e01b600052601260045260246000fd5b634e487b7160e01b600052603260045260246000fd5b634e487b7160e01b600052604160045260246000fdfea164736f6c6343000806000a",
  "devdoc": {
    "kind": "dev",
    "methods": {
      "getTokenDuration(uint256)": {
        "params": {
          "_duration": "Time in seconds corresponding with one of five acceptable staking durations.  The Staking durations below were gleaned from the JBveBanny.sol contract line 55-59. Returns the duration multiplier used to index into the proper veBanny mediallion on IPFS."
        }
      },
      "getTokenRange(uint256)": {
        "params": {
          "_amount": "Amount of locked Juicebox.      The range values referenced below were gleaned from the following Notion URL.  https://www.notion.so/juicebox/veBanny-proposal-from-Jango-2-68c6f578bef84205a9f87e3f1057aa37 Returns the token range index or veBanny character commensurate with amount of locked Juicebox."
        }
      },
      "tokenURI(uint256,uint256)": {
        "params": {
          "_amount": "Amount of locked Juicebox. ",
          "_duration": "Duration in seconds to stake Juicebox. Returns one of the epic and totally righteous veBanny character IPFS URI the user is entitled to with the aforementioned parameters."
        }
      }
    },
    "version": 1
  },
  "userdoc": {
    "kind": "user",
    "methods": {
      "getTokenDuration(uint256)": {
        "notice": "Returns the token duration multiplier needed to index into the righteous veBanny mediallion background."
      },
      "getTokenRange(uint256)": {
        "notice": "Returns the veBanny character index needed to compute the righteous veBanny on IPFS."
      },
      "tokenURI(uint256,uint256)": {
        "notice": "Computes the specific veBanny IPFS URI  based on the above locked Juicebox token range index and the duration multiplier."
      }
    },
    "version": 1
  },
  "storageLayout": {
    "storage": [],
    "types": null
  }
}