{
  "abi": [
    {
      "inputs": [
        {
          "internalType": "uint256",
          "name": "_projectId",
          "type": "uint256"
        },
        {
          "internalType": "string",
          "name": "_name",
          "type": "string"
        },
        {
          "internalType": "string",
          "name": "_symbol",
          "type": "string"
        },
        {
          "internalType": "contract IJBVeTokenUriResolver",
          "name": "_uriResolver",
          "type": "address"
        },
        {
          "internalType": "contract IJBTokenStore",
          "name": "_tokenStore",
          "type": "address"
        },
        {
          "internalType": "contract IJBOperatorStore",
          "name": "_operatorStore",
          "type": "address"
        },
        {
          "internalType": "uint256[]",
          "name": "__lockDurationOptions",
          "type": "uint256[]"
        }
      ],
      "stateMutability": "nonpayable",
      "type": "constructor"
    },
    {
      "inputs": [],
      "name": "INSUFFICIENT_ALLOWANCE",
      "type": "error"
    },
    {
      "inputs": [],
      "name": "INSUFFICIENT_BALANCE",
      "type": "error"
    },
    {
      "inputs": [],
      "name": "INVALID_ACCOUNT",
      "type": "error"
    },
    {
      "inputs": [],
      "name": "INVALID_LOCK_DURATION",
      "type": "error"
    },
    {
      "inputs": [],
      "name": "INVALID_LOCK_EXTENSION",
      "type": "error"
    },
    {
      "inputs": [],
      "name": "INVALID_PUBLIC_EXTENSION_FLAG_VALUE",
      "type": "error"
    },
    {
      "inputs": [],
      "name": "LOCK_PERIOD_NOT_OVER",
      "type": "error"
    },
    {
      "inputs": [],
      "name": "NON_EXISTENT_TOKEN",
      "type": "error"
    },
    {
      "inputs": [
        {
          "internalType": "uint256",
          "name": "prod1",
          "type": "uint256"
        },
        {
          "internalType": "uint256",
          "name": "denominator",
          "type": "uint256"
        }
      ],
      "name": "PRBMath__MulDivOverflow",
      "type": "error"
    },
    {
      "inputs": [],
      "name": "TOKEN_MISMATCH",
      "type": "error"
    },
    {
      "inputs": [],
      "name": "UNAUTHORIZED",
      "type": "error"
    },
    {
      "anonymous": false,
      "inputs": [
        {
          "indexed": true,
          "internalType": "address",
          "name": "owner",
          "type": "address"
        },
        {
          "indexed": true,
          "internalType": "address",
          "name": "approved",
          "type": "address"
        },
        {
          "indexed": true,
          "internalType": "uint256",
          "name": "tokenId",
          "type": "uint256"
        }
      ],
      "name": "Approval",
      "type": "event"
    },
    {
      "anonymous": false,
      "inputs": [
        {
          "indexed": true,
          "internalType": "address",
          "name": "owner",
          "type": "address"
        },
        {
          "indexed": true,
          "internalType": "address",
          "name": "operator",
          "type": "address"
        },
        {
          "indexed": false,
          "internalType": "bool",
          "name": "approved",
          "type": "bool"
        }
      ],
      "name": "ApprovalForAll",
      "type": "event"
    },
    {
      "anonymous": false,
      "inputs": [
        {
          "indexed": true,
          "internalType": "address",
          "name": "delegator",
          "type": "address"
        },
        {
          "indexed": true,
          "internalType": "address",
          "name": "fromDelegate",
          "type": "address"
        },
        {
          "indexed": true,
          "internalType": "address",
          "name": "toDelegate",
          "type": "address"
        }
      ],
      "name": "DelegateChanged",
      "type": "event"
    },
    {
      "anonymous": false,
      "inputs": [
        {
          "indexed": true,
          "internalType": "address",
          "name": "delegate",
          "type": "address"
        },
        {
          "indexed": false,
          "internalType": "uint256",
          "name": "previousBalance",
          "type": "uint256"
        },
        {
          "indexed": false,
          "internalType": "uint256",
          "name": "newBalance",
          "type": "uint256"
        }
      ],
      "name": "DelegateVotesChanged",
      "type": "event"
    },
    {
      "anonymous": false,
      "inputs": [
        {
          "indexed": true,
          "internalType": "uint256",
          "name": "oldTokenID",
          "type": "uint256"
        },
        {
          "indexed": true,
          "internalType": "uint256",
          "name": "newTokenID",
          "type": "uint256"
        },
        {
          "indexed": false,
          "internalType": "uint256",
          "name": "updatedDuration",
          "type": "uint256"
        },
        {
          "indexed": false,
          "internalType": "uint256",
          "name": "updatedLockedUntil",
          "type": "uint256"
        },
        {
          "indexed": false,
          "internalType": "address",
          "name": "caller",
          "type": "address"
        }
      ],
      "name": "ExtendLock",
      "type": "event"
    },
    {
      "anonymous": false,
      "inputs": [
        {
          "indexed": true,
          "internalType": "uint256",
          "name": "tokenId",
          "type": "uint256"
        },
        {
          "indexed": true,
          "internalType": "address",
          "name": "account",
          "type": "address"
        },
        {
          "indexed": false,
          "internalType": "uint256",
          "name": "amount",
          "type": "uint256"
        },
        {
          "indexed": false,
          "internalType": "uint256",
          "name": "duration",
          "type": "uint256"
        },
        {
          "indexed": false,
          "internalType": "address",
          "name": "beneficiary",
          "type": "address"
        },
        {
          "indexed": false,
          "internalType": "uint256",
          "name": "lockedUntil",
          "type": "uint256"
        },
        {
          "indexed": false,
          "internalType": "address",
          "name": "caller",
          "type": "address"
        }
      ],
      "name": "Lock",
      "type": "event"
    },
    {
      "anonymous": false,
      "inputs": [
        {
          "indexed": true,
          "internalType": "address",
          "name": "previousOwner",
          "type": "address"
        },
        {
          "indexed": true,
          "internalType": "address",
          "name": "newOwner",
          "type": "address"
        }
      ],
      "name": "OwnershipTransferred",
      "type": "event"
    },
    {
      "anonymous": false,
      "inputs": [
        {
          "indexed": true,
          "internalType": "uint256",
          "name": "tokenId",
          "type": "uint256"
        },
        {
          "indexed": false,
          "internalType": "address",
          "name": "holder",
          "type": "address"
        },
        {
          "indexed": false,
          "internalType": "address",
          "name": "beneficiary",
          "type": "address"
        },
        {
          "indexed": false,
          "internalType": "uint256",
          "name": "tokenCount",
          "type": "uint256"
        },
        {
          "indexed": false,
          "internalType": "uint256",
          "name": "claimedAmount",
          "type": "uint256"
        },
        {
          "indexed": false,
          "internalType": "string",
          "name": "memo",
          "type": "string"
        },
        {
          "indexed": false,
          "internalType": "address",
          "name": "caller",
          "type": "address"
        }
      ],
      "name": "Redeem",
      "type": "event"
    },
    {
      "anonymous": false,
      "inputs": [
        {
          "indexed": true,
          "internalType": "uint256",
          "name": "tokenId",
          "type": "uint256"
        },
        {
          "indexed": false,
          "internalType": "bool",
          "name": "allowPublicExtension",
          "type": "bool"
        },
        {
          "indexed": false,
          "internalType": "address",
          "name": "caller",
          "type": "address"
        }
      ],
      "name": "SetAllowPublicExtension",
      "type": "event"
    },
    {
      "anonymous": false,
      "inputs": [
        {
          "indexed": true,
          "internalType": "contract IJBVeTokenUriResolver",
          "name": "resolver",
          "type": "address"
        },
        {
          "indexed": false,
          "internalType": "address",
          "name": "caller",
          "type": "address"
        }
      ],
      "name": "SetUriResolver",
      "type": "event"
    },
    {
      "anonymous": false,
      "inputs": [
        {
          "indexed": true,
          "internalType": "address",
          "name": "from",
          "type": "address"
        },
        {
          "indexed": true,
          "internalType": "address",
          "name": "to",
          "type": "address"
        },
        {
          "indexed": true,
          "internalType": "uint256",
          "name": "tokenId",
          "type": "uint256"
        }
      ],
      "name": "Transfer",
      "type": "event"
    },
    {
      "anonymous": false,
      "inputs": [
        {
          "indexed": true,
          "internalType": "uint256",
          "name": "tokenId",
          "type": "uint256"
        },
        {
          "indexed": false,
          "internalType": "address",
          "name": "beneficiary",
          "type": "address"
        },
        {
          "indexed": false,
          "internalType": "uint256",
          "name": "amount",
          "type": "uint256"
        },
        {
          "indexed": false,
          "internalType": "address",
          "name": "caller",
          "type": "address"
        }
      ],
      "name": "Unlock",
      "type": "event"
    },
    {
      "inputs": [],
      "name": "DOMAIN_SEPARATOR",
      "outputs": [
        {
          "internalType": "bytes32",
          "name": "",
          "type": "bytes32"
        }
      ],
      "stateMutability": "view",
      "type": "function"
    },
    {
      "inputs": [
        {
          "internalType": "address",
          "name": "to",
          "type": "address"
        },
        {
          "internalType": "uint256",
          "name": "tokenId",
          "type": "uint256"
        }
      ],
      "name": "approve",
      "outputs": [],
      "stateMutability": "nonpayable",
      "type": "function"
    },
    {
      "inputs": [
        {
          "internalType": "address",
          "name": "owner",
          "type": "address"
        }
      ],
      "name": "balanceOf",
      "outputs": [
        {
          "internalType": "uint256",
          "name": "",
          "type": "uint256"
        }
      ],
      "stateMutability": "view",
      "type": "function"
    },
    {
      "inputs": [],
      "name": "count",
      "outputs": [
        {
          "internalType": "uint256",
          "name": "",
          "type": "uint256"
        }
      ],
      "stateMutability": "view",
      "type": "function"
    },
    {
      "inputs": [
        {
          "internalType": "address",
          "name": "delegatee",
          "type": "address"
        }
      ],
      "name": "delegate",
      "outputs": [],
      "stateMutability": "nonpayable",
      "type": "function"
    },
    {
      "inputs": [
        {
          "internalType": "address",
          "name": "delegatee",
          "type": "address"
        },
        {
          "internalType": "uint256",
          "name": "nonce",
          "type": "uint256"
        },
        {
          "internalType": "uint256",
          "name": "expiry",
          "type": "uint256"
        },
        {
          "internalType": "uint8",
          "name": "v",
          "type": "uint8"
        },
        {
          "internalType": "bytes32",
          "name": "r",
          "type": "bytes32"
        },
        {
          "internalType": "bytes32",
          "name": "s",
          "type": "bytes32"
        }
      ],
      "name": "delegateBySig",
      "outputs": [],
      "stateMutability": "nonpayable",
      "type": "function"
    },
    {
      "inputs": [
        {
          "internalType": "address",
          "name": "account",
          "type": "address"
        }
      ],
      "name": "delegates",
      "outputs": [
        {
          "internalType": "address",
          "name": "",
          "type": "address"
        }
      ],
      "stateMutability": "view",
      "type": "function"
    },
    {
      "inputs": [
        {
          "components": [
            {
              "internalType": "uint256",
              "name": "tokenId",
              "type": "uint256"
            },
            {
              "internalType": "uint256",
              "name": "updatedDuration",
              "type": "uint256"
            }
          ],
          "internalType": "struct JBLockExtensionData[]",
          "name": "_lockExtensionData",
          "type": "tuple[]"
        }
      ],
      "name": "extendLock",
      "outputs": [
        {
          "internalType": "uint256[]",
          "name": "newTokenIds",
          "type": "uint256[]"
        }
      ],
      "stateMutability": "nonpayable",
      "type": "function"
    },
    {
      "inputs": [
        {
          "internalType": "uint256",
          "name": "tokenId",
          "type": "uint256"
        }
      ],
      "name": "getApproved",
      "outputs": [
        {
          "internalType": "address",
          "name": "",
          "type": "address"
        }
      ],
      "stateMutability": "view",
      "type": "function"
    },
    {
      "inputs": [
        {
          "internalType": "uint256",
          "name": "blockNumber",
          "type": "uint256"
        }
      ],
      "name": "getPastTotalSupply",
      "outputs": [
        {
          "internalType": "uint256",
          "name": "",
          "type": "uint256"
        }
      ],
      "stateMutability": "view",
      "type": "function"
    },
    {
      "inputs": [
        {
          "internalType": "address",
          "name": "account",
          "type": "address"
        },
        {
          "internalType": "uint256",
          "name": "blockNumber",
          "type": "uint256"
        }
      ],
      "name": "getPastVotes",
      "outputs": [
        {
          "internalType": "uint256",
          "name": "",
          "type": "uint256"
        }
      ],
      "stateMutability": "view",
      "type": "function"
    },
    {
      "inputs": [
        {
          "internalType": "uint256",
          "name": "_tokenId",
          "type": "uint256"
        }
      ],
      "name": "getSpecs",
      "outputs": [
        {
          "internalType": "uint256",
          "name": "amount",
          "type": "uint256"
        },
        {
          "internalType": "uint256",
          "name": "duration",
          "type": "uint256"
        },
        {
          "internalType": "uint256",
          "name": "lockedUntil",
          "type": "uint256"
        },
        {
          "internalType": "bool",
          "name": "useJbToken",
          "type": "bool"
        },
        {
          "internalType": "bool",
          "name": "allowPublicExtension",
          "type": "bool"
        }
      ],
      "stateMutability": "view",
      "type": "function"
    },
    {
      "inputs": [
        {
          "internalType": "address",
          "name": "account",
          "type": "address"
        }
      ],
      "name": "getVotes",
      "outputs": [
        {
          "internalType": "uint256",
          "name": "",
          "type": "uint256"
        }
      ],
      "stateMutability": "view",
      "type": "function"
    },
    {
      "inputs": [
        {
          "internalType": "address",
          "name": "owner",
          "type": "address"
        },
        {
          "internalType": "address",
          "name": "operator",
          "type": "address"
        }
      ],
      "name": "isApprovedForAll",
      "outputs": [
        {
          "internalType": "bool",
          "name": "",
          "type": "bool"
        }
      ],
      "stateMutability": "view",
      "type": "function"
    },
    {
      "inputs": [
        {
          "internalType": "address",
          "name": "_account",
          "type": "address"
        },
        {
          "internalType": "uint256",
          "name": "_count",
          "type": "uint256"
        },
        {
          "internalType": "uint256",
          "name": "_duration",
          "type": "uint256"
        },
        {
          "internalType": "address",
          "name": "_beneficiary",
          "type": "address"
        },
        {
          "internalType": "bool",
          "name": "_useJbToken",
          "type": "bool"
        },
        {
          "internalType": "bool",
          "name": "_allowPublicExtension",
          "type": "bool"
        }
      ],
      "name": "lock",
      "outputs": [
        {
          "internalType": "uint256",
          "name": "tokenId",
          "type": "uint256"
        }
      ],
      "stateMutability": "nonpayable",
      "type": "function"
    },
    {
      "inputs": [],
      "name": "lockDurationOptions",
      "outputs": [
        {
          "internalType": "uint256[]",
          "name": "",
          "type": "uint256[]"
        }
      ],
      "stateMutability": "view",
      "type": "function"
    },
    {
      "inputs": [],
      "name": "name",
      "outputs": [
        {
          "internalType": "string",
          "name": "",
          "type": "string"
        }
      ],
      "stateMutability": "view",
      "type": "function"
    },
    {
      "inputs": [
        {
          "internalType": "address",
          "name": "owner",
          "type": "address"
        }
      ],
      "name": "nonces",
      "outputs": [
        {
          "internalType": "uint256",
          "name": "",
          "type": "uint256"
        }
      ],
      "stateMutability": "view",
      "type": "function"
    },
    {
      "inputs": [],
      "name": "operatorStore",
      "outputs": [
        {
          "internalType": "contract IJBOperatorStore",
          "name": "",
          "type": "address"
        }
      ],
      "stateMutability": "view",
      "type": "function"
    },
    {
      "inputs": [],
      "name": "owner",
      "outputs": [
        {
          "internalType": "address",
          "name": "",
          "type": "address"
        }
      ],
      "stateMutability": "view",
      "type": "function"
    },
    {
      "inputs": [
        {
          "internalType": "uint256",
          "name": "tokenId",
          "type": "uint256"
        }
      ],
      "name": "ownerOf",
      "outputs": [
        {
          "internalType": "address",
          "name": "",
          "type": "address"
        }
      ],
      "stateMutability": "view",
      "type": "function"
    },
    {
      "inputs": [],
      "name": "projectId",
      "outputs": [
        {
          "internalType": "uint256",
          "name": "",
          "type": "uint256"
        }
      ],
      "stateMutability": "view",
      "type": "function"
    },
    {
      "inputs": [
        {
          "components": [
            {
              "internalType": "uint256",
              "name": "tokenId",
              "type": "uint256"
            },
            {
              "internalType": "address",
              "name": "token",
              "type": "address"
            },
            {
              "internalType": "uint256",
              "name": "minReturnedTokens",
              "type": "uint256"
            },
            {
              "internalType": "address payable",
              "name": "beneficiary",
              "type": "address"
            },
            {
              "internalType": "string",
              "name": "memo",
              "type": "string"
            },
            {
              "internalType": "bytes",
              "name": "metadata",
              "type": "bytes"
            },
            {
              "internalType": "contract IJBRedemptionTerminal",
              "name": "terminal",
              "type": "address"
            }
          ],
          "internalType": "struct JBRedeemData[]",
          "name": "_redeemData",
          "type": "tuple[]"
        }
      ],
      "name": "redeem",
      "outputs": [],
      "stateMutability": "nonpayable",
      "type": "function"
    },
    {
      "inputs": [],
      "name": "renounceOwnership",
      "outputs": [],
      "stateMutability": "nonpayable",
      "type": "function"
    },
    {
      "inputs": [
        {
          "internalType": "address",
          "name": "from",
          "type": "address"
        },
        {
          "internalType": "address",
          "name": "to",
          "type": "address"
        },
        {
          "internalType": "uint256",
          "name": "tokenId",
          "type": "uint256"
        }
      ],
      "name": "safeTransferFrom",
      "outputs": [],
      "stateMutability": "nonpayable",
      "type": "function"
    },
    {
      "inputs": [
        {
          "internalType": "address",
          "name": "from",
          "type": "address"
        },
        {
          "internalType": "address",
          "name": "to",
          "type": "address"
        },
        {
          "internalType": "uint256",
          "name": "tokenId",
          "type": "uint256"
        },
        {
          "internalType": "bytes",
          "name": "_data",
          "type": "bytes"
        }
      ],
      "name": "safeTransferFrom",
      "outputs": [],
      "stateMutability": "nonpayable",
      "type": "function"
    },
    {
      "inputs": [
        {
          "components": [
            {
              "internalType": "uint256",
              "name": "tokenId",
              "type": "uint256"
            },
            {
              "internalType": "bool",
              "name": "allowPublicExtension",
              "type": "bool"
            }
          ],
          "internalType": "struct JBAllowPublicExtensionData[]",
          "name": "_allowPublicExtensionData",
          "type": "tuple[]"
        }
      ],
      "name": "setAllowPublicExtension",
      "outputs": [],
      "stateMutability": "nonpayable",
      "type": "function"
    },
    {
      "inputs": [
        {
          "internalType": "address",
          "name": "operator",
          "type": "address"
        },
        {
          "internalType": "bool",
          "name": "approved",
          "type": "bool"
        }
      ],
      "name": "setApprovalForAll",
      "outputs": [],
      "stateMutability": "nonpayable",
      "type": "function"
    },
    {
      "inputs": [
        {
          "internalType": "contract IJBVeTokenUriResolver",
          "name": "_resolver",
          "type": "address"
        }
      ],
      "name": "setUriResolver",
      "outputs": [],
      "stateMutability": "nonpayable",
      "type": "function"
    },
    {
      "inputs": [
        {
          "internalType": "bytes4",
          "name": "_interfaceId",
          "type": "bytes4"
        }
      ],
      "name": "supportsInterface",
      "outputs": [
        {
          "internalType": "bool",
          "name": "",
          "type": "bool"
        }
      ],
      "stateMutability": "view",
      "type": "function"
    },
    {
      "inputs": [],
      "name": "symbol",
      "outputs": [
        {
          "internalType": "string",
          "name": "",
          "type": "string"
        }
      ],
      "stateMutability": "view",
      "type": "function"
    },
    {
      "inputs": [],
      "name": "token",
      "outputs": [
        {
          "internalType": "contract IJBToken",
          "name": "",
          "type": "address"
        }
      ],
      "stateMutability": "view",
      "type": "function"
    },
    {
      "inputs": [
        {
          "internalType": "uint256",
          "name": "index",
          "type": "uint256"
        }
      ],
      "name": "tokenByIndex",
      "outputs": [
        {
          "internalType": "uint256",
          "name": "",
          "type": "uint256"
        }
      ],
      "stateMutability": "view",
      "type": "function"
    },
    {
      "inputs": [
        {
          "internalType": "address",
          "name": "owner",
          "type": "address"
        },
        {
          "internalType": "uint256",
          "name": "index",
          "type": "uint256"
        }
      ],
      "name": "tokenOfOwnerByIndex",
      "outputs": [
        {
          "internalType": "uint256",
          "name": "",
          "type": "uint256"
        }
      ],
      "stateMutability": "view",
      "type": "function"
    },
    {
      "inputs": [],
      "name": "tokenStore",
      "outputs": [
        {
          "internalType": "contract IJBTokenStore",
          "name": "",
          "type": "address"
        }
      ],
      "stateMutability": "view",
      "type": "function"
    },
    {
      "inputs": [
        {
          "internalType": "uint256",
          "name": "_tokenId",
          "type": "uint256"
        }
      ],
      "name": "tokenURI",
      "outputs": [
        {
          "internalType": "string",
          "name": "",
          "type": "string"
        }
      ],
      "stateMutability": "view",
      "type": "function"
    },
    {
      "inputs": [],
      "name": "totalSupply",
      "outputs": [
        {
          "internalType": "uint256",
          "name": "",
          "type": "uint256"
        }
      ],
      "stateMutability": "view",
      "type": "function"
    },
    {
      "inputs": [
        {
          "internalType": "address",
          "name": "from",
          "type": "address"
        },
        {
          "internalType": "address",
          "name": "to",
          "type": "address"
        },
        {
          "internalType": "uint256",
          "name": "tokenId",
          "type": "uint256"
        }
      ],
      "name": "transferFrom",
      "outputs": [],
      "stateMutability": "nonpayable",
      "type": "function"
    },
    {
      "inputs": [
        {
          "internalType": "address",
          "name": "newOwner",
          "type": "address"
        }
      ],
      "name": "transferOwnership",
      "outputs": [],
      "stateMutability": "nonpayable",
      "type": "function"
    },
    {
      "inputs": [
        {
          "components": [
            {
              "internalType": "uint256",
              "name": "tokenId",
              "type": "uint256"
            },
            {
              "internalType": "address",
              "name": "beneficiary",
              "type": "address"
            }
          ],
          "internalType": "struct JBUnlockData[]",
          "name": "_unlockData",
          "type": "tuple[]"
        }
      ],
      "name": "unlock",
      "outputs": [],
      "stateMutability": "nonpayable",
      "type": "function"
    },
    {
      "inputs": [],
      "name": "uriResolver",
      "outputs": [
        {
          "internalType": "contract IJBVeTokenUriResolver",
          "name": "",
          "type": "address"
        }
      ],
      "stateMutability": "view",
      "type": "function"
    }
  ],
  "bytecode": {
    "object": "0x6101a06040523480156200001257600080fd5b5060405162004b0238038062004b0283398101604081905262000035916200054b565b81604051806040016040528060098152602001684a42766542616e6e7960b81b815250604051806040016040528060018152602001603160f81b815250888881600090805190602001906200008c9291906200030c565b508051620000a29060019060208401906200030c565b5050825160208085019190912083518483012060e08290526101008190524660a0818152604080517f8b73c3c69bb8fe3d512ecc4cf759cc79239f7b179b0ffacaa9a75d522b39400f81880181905281830187905260608201869052608082019490945230818401528151808203909301835260c0019052805194019390932091935091906080523060601b60c05261012052506200014d9250620001479150503390565b620002ba565b6001600f5560601b6001600160601b0319166101405260405163ea78803f60e01b8152600481018890526001600160a01b0384169063ea78803f9060240160206040518083038186803b158015620001a457600080fd5b505afa158015620001b9573d6000803e3d6000fd5b505050506040513d601f19601f82011682018060405250810190620001df919062000524565b601280546001600160a01b03199081166001600160a01b0393841617909155610180899052601380548216878416179055601480549091169185169190911790558051620002359060119060208401906200039b565b506000805b601154811015620002a75781601182815481106200025c576200025c620006c1565b90600052602060002001541115620002925760118181548110620002845762000284620006c1565b906000526020600020015491505b806200029e8162000697565b9150506200023a565b5061016052506200070695505050505050565b600e80546001600160a01b038381166001600160a01b0319831681179093556040519116919082907f8be0079c531659141344cd1fd0a4f28419497f9722a3daafe3b4186f6b6457e090600090a35050565b8280546200031a906200065a565b90600052602060002090601f0160209004810192826200033e576000855562000389565b82601f106200035957805160ff191683800117855562000389565b8280016001018555821562000389579182015b82811115620003895782518255916020019190600101906200036c565b5062000397929150620003d8565b5090565b828054828255906000526020600020908101928215620003895791602002820182811115620003895782518255916020019190600101906200036c565b5b80821115620003975760008155600101620003d9565b600082601f8301126200040157600080fd5b815160206001600160401b038211156200041f576200041f620006d7565b8160051b6200043082820162000627565b8381528281019086840183880185018910156200044c57600080fd5b600093505b858410156200047157805183526001939093019291840191840162000451565b50979650505050505050565b80516200048a81620006ed565b919050565b600082601f830112620004a157600080fd5b81516001600160401b03811115620004bd57620004bd620006d7565b6020620004d3601f8301601f1916820162000627565b8281528582848701011115620004e857600080fd5b60005b8381101562000508578581018301518282018401528201620004eb565b838111156200051a5760008385840101525b5095945050505050565b6000602082840312156200053757600080fd5b81516200054481620006ed565b9392505050565b600080600080600080600060e0888a0312156200056757600080fd5b875160208901519097506001600160401b03808211156200058757600080fd5b620005958b838c016200048f565b975060408a0151915080821115620005ac57600080fd5b620005ba8b838c016200048f565b965060608a01519150620005ce82620006ed565b60808a0151919550620005e182620006ed565b819450620005f260a08b016200047d565b935060c08a01519150808211156200060957600080fd5b50620006188a828b01620003ef565b91505092959891949750929550565b604051601f8201601f191681016001600160401b0381118282101715620006525762000652620006d7565b604052919050565b600181811c908216806200066f57607f821691505b602082108114156200069157634e487b7160e01b600052602260045260246000fd5b50919050565b6000600019821415620006ba57634e487b7160e01b600052601160045260246000fd5b5060010190565b634e487b7160e01b600052603260045260246000fd5b634e487b7160e01b600052604160045260246000fd5b6001600160a01b03811681146200070357600080fd5b50565b60805160a05160c05160601c60e05161010051610120516101405160601c610160516101805161430e620007f4600039600081816103730152818161090401528181610a2201528181610aa20152818161108e015281816111420152818161125701528181611390015281816113e801528181611495015281816115580152818161165b015281816117260152818161181c015281816118b70152611aa901526000612b430152600081816104f30152818161200a01526120c0015260006124e2015260006125310152600061250c015260006124650152600061248f015260006124b9015261430e6000f3fe608060405234801561001057600080fd5b50600436106102535760003560e01c806370a0823111610146578063a74f44a9116100c3578063c3cda52011610087578063c3cda5201461053b578063c87b56dd1461054e578063e6f3b3ad14610561578063e985e9c5146105a0578063f2fde38b146105dc578063fc0c546a146105ef57600080fd5b8063a74f44a9146104c8578063a787732f146104db578063ad007d63146104ee578063b1bf647214610515578063b88d4fde1461052857600080fd5b80638e539e8c1161010a5780638e539e8c1461047457806393652edb1461048757806395d89b411461049a5780639ab24eb0146104a2578063a22cb465146104b557600080fd5b806370a0823114610420578063715018a6146104335780637ba553b61461043b5780637ecebe00146104505780638da5cb5b1461046357600080fd5b80633644e515116101d45780634f6ccce7116101985780634f6ccce7146103a8578063587cde1e146103bb5780635c19a95c146103e757806361930630146103fa5780636352211e1461040d57600080fd5b80633644e515146103405780633a3a03b6146103485780633a46b1a81461035b5780633fafa1271461036e57806342842e0e1461039557600080fd5b80630f02ebec1161021b5780630f02ebec146102ec57806310b1cadc146102ff57806318160ddd1461031257806323b872dd1461031a5780632f745c591461032d57600080fd5b806301ffc9a71461025857806306661abd1461028057806306fdde0314610297578063081812fc146102ac578063095ea7b3146102d7575b600080fd5b61026b610266366004613b84565b610602565b60405190151581526020015b60405180910390f35b61028960155481565b604051908152602001610277565b61029f610613565b6040516102779190613e4b565b6102bf6102ba366004613cb3565b6106a5565b6040516001600160a01b039091168152602001610277565b6102ea6102e53660046139b2565b61073f565b005b6102ea6102fa366004613ab0565b610855565b6102ea61030d366004613af2565b6109a7565b600c54610289565b6102ea6103283660046138d7565b610bb8565b61028961033b3660046139b2565b610be9565b610289610c7f565b6013546102bf906001600160a01b031681565b6102896103693660046139b2565b610c8e565b6102897f000000000000000000000000000000000000000000000000000000000000000081565b6102ea6103a33660046138d7565b610cb7565b6102896103b6366004613cb3565b610cd2565b6102bf6103c9366004613881565b6001600160a01b039081166000908152600660205260409020541690565b6102ea6103f5366004613881565b610d65565b6014546102bf906001600160a01b031681565b6102bf61041b366004613cb3565b610d74565b61028961042e366004613881565b610deb565b6102ea610e72565b610443610ea8565b6040516102779190613e07565b61028961045e366004613881565b610eff565b600e546001600160a01b03166102bf565b610289610482366004613cb3565b610f1d565b6102ea610495366004613881565b610f79565b61029f610ff7565b6102896104b0366004613881565b611006565b6102ea6104c3366004613984565b611027565b6102ea6104d6366004613ab0565b611032565b6102896104e93660046139de565b611363565b6102bf7f000000000000000000000000000000000000000000000000000000000000000081565b610443610523366004613ab0565b6119a1565b6102ea610536366004613918565b611bff565b6102ea610549366004613a4e565b611c37565b61029f61055c366004613cb3565b611d64565b61057461056f366004613cb3565b611e12565b60408051958652602086019490945292840191909152151560608301521515608082015260a001610277565b61026b6105ae36600461389e565b6001600160a01b03918216600090815260056020908152604080832093909416825291909152205460ff1690565b6102ea6105ea366004613881565b611e95565b6012546102bf906001600160a01b031681565b600061060d82611f30565b92915050565b606060008054610622906141cb565b80601f016020809104026020016040519081016040528092919081815260200182805461064e906141cb565b801561069b5780601f106106705761010080835404028352916020019161069b565b820191906000526020600020905b81548152906001019060200180831161067e57829003601f168201915b5050505050905090565b6000818152600260205260408120546001600160a01b03166107235760405162461bcd60e51b815260206004820152602c60248201527f4552433732313a20617070726f76656420717565727920666f72206e6f6e657860448201526b34b9ba32b73a103a37b5b2b760a11b60648201526084015b60405180910390fd5b506000908152600460205260409020546001600160a01b031690565b600061074a82610d74565b9050806001600160a01b0316836001600160a01b031614156107b85760405162461bcd60e51b815260206004820152602160248201527f4552433732313a20617070726f76616c20746f2063757272656e74206f776e656044820152603960f91b606482015260840161071a565b336001600160a01b03821614806107d457506107d481336105ae565b6108465760405162461bcd60e51b815260206004820152603860248201527f4552433732313a20617070726f76652063616c6c6572206973206e6f74206f7760448201527f6e6572206e6f7220617070726f76656420666f7220616c6c0000000000000000606482015260840161071a565b6108508383611f55565b505050565b6002600f5414156108785760405162461bcd60e51b815260040161071a90613f36565b6002600f5560005b8181101561099d57600083838381811061089c5761089c614273565b9050604002018036038101906108b29190613c49565b905080602001516108d657604051630f16ffc960e41b815260040160405180910390fd5b6000806000806108e98560000151611e12565b50935093509350935061092a6109028660000151610d74565b7f00000000000000000000000000000000000000000000000000000000000000006017611fc3565b6109408560000151858585858a6020015161215a565b50845160208087015160408051911515825233928201929092527fe8ef09bb567de1b57470a6ef63567bf9e11824b2b5b60eed0d9bdecc70a110b3910160405180910390a25050505050808061099590614200565b915050610880565b50506001600f5550565b6002600f5414156109ca5760405162461bcd60e51b815260040161071a90613f36565b6002600f5560005b8181101561099d5760008383838181106109ee576109ee614273565b9050602002810190610a009190613fd5565b610a09906140eb565b90506000610a1a8260000151610d74565b9050610a48817f00000000000000000000000000000000000000000000000000000000000000006016611fc3565b600080610a588460000151611e12565b50509250509150804211610a7f5760405163d3c86c0f60e01b815260040160405180910390fd5b8351610a8a9061219c565b60008460c001516001600160a01b031663fe663f0f307f00000000000000000000000000000000000000000000000000000000000000008689602001518a604001518b606001518c608001518d60a001516040518963ffffffff1660e01b8152600401610afe989796959493929190613d9a565b602060405180830381600087803b158015610b1857600080fd5b505af1158015610b2c573d6000803e3d6000fd5b505050506040513d601f19601f82011682018060405250810190610b509190613ccc565b905084600001517f123a3c914dca72b47bd01de7161291d9b3934e0cfbeab5f43d914497d45e79b385876060015186858a6080015133604051610b9896959493929190613d11565b60405180910390a250505050508080610bb090614200565b9150506109d2565b610bc233826121b4565b610bde5760405162461bcd60e51b815260040161071a90613ee5565b6108508383836122ab565b6000610bf483610deb565b8210610c565760405162461bcd60e51b815260206004820152602b60248201527f455243373231456e756d657261626c653a206f776e657220696e646578206f7560448201526a74206f6620626f756e647360a81b606482015260840161071a565b506001600160a01b03919091166000908152600a60209081526040808320938352929052205490565b6000610c89612458565b905090565b6001600160a01b0382166000908152600760205260408120610cb0908361257f565b9392505050565b61085083838360405180602001604052806000815250611bff565b6000610cdd600c5490565b8210610d405760405162461bcd60e51b815260206004820152602c60248201527f455243373231456e756d657261626c653a20676c6f62616c20696e646578206f60448201526b7574206f6620626f756e647360a01b606482015260840161071a565b600c8281548110610d5357610d53614273565b90600052602060002001549050919050565b33610d70818361268e565b5050565b6000818152600260205260408120546001600160a01b03168061060d5760405162461bcd60e51b815260206004820152602960248201527f4552433732313a206f776e657220717565727920666f72206e6f6e657869737460448201526832b73a103a37b5b2b760b91b606482015260840161071a565b60006001600160a01b038216610e565760405162461bcd60e51b815260206004820152602a60248201527f4552433732313a2062616c616e636520717565727920666f7220746865207a65604482015269726f206164647265737360b01b606482015260840161071a565b506001600160a01b031660009081526003602052604090205490565b600e546001600160a01b03163314610e9c5760405162461bcd60e51b815260040161071a90613eb0565b610ea66000612700565b565b6060601180548060200260200160405190810160405280929190818152602001828054801561069b57602002820191906000526020600020905b815481526020019060010190808311610ee2575050505050905090565b6001600160a01b03811660009081526009602052604081205461060d565b6000438210610f6e5760405162461bcd60e51b815260206004820152601a60248201527f566f7465733a20626c6f636b206e6f7420796574206d696e6564000000000000604482015260640161071a565b61060d60088361257f565b600e546001600160a01b03163314610fa35760405162461bcd60e51b815260040161071a90613eb0565b601380546001600160a01b0319166001600160a01b0383169081179091556040513381527fbddd64b8a0b5e5673286f9759cdbbd18be2722a145cf077f5c17b2ff8c0a90379060200160405180910390a250565b606060018054610622906141cb565b6001600160a01b038116600090815260076020526040812061060d90612752565b610d703383836127ae565b6002600f5414156110555760405162461bcd60e51b815260040161071a90613f36565b6002600f5560005b8181101561099d576110b461108c84848481811061107d5761107d614273565b90506040020160000135610d74565b7f00000000000000000000000000000000000000000000000000000000000000006014611fc3565b60008060006110dd8686868181106110ce576110ce614273565b90506040020160000135611e12565b50935093505092508142116111055760405163d3c86c0f60e01b815260040160405180910390fd5b61112986868681811061111a5761111a614273565b9050604002016000013561219c565b80156111f6576012546001600160a01b031663f8548e367f000000000000000000000000000000000000000000000000000000000000000088888881811061117357611173614273565b905060400201602001602081019061118b9190613881565b6040516001600160e01b031960e085901b16815260048101929092526001600160a01b0316602482015260448101869052606401600060405180830381600087803b1580156111d957600080fd5b505af11580156111ed573d6000803e3d6000fd5b505050506112be565b6014546001600160a01b031663ac689bcd87878781811061121957611219614273565b90506040020160200160208101906112319190613881565b6040516001600160e01b031960e084901b1681526001600160a01b0390911660048201527f0000000000000000000000000000000000000000000000000000000000000000602482015230604482015260648101869052608401600060405180830381600087803b1580156112a557600080fd5b505af11580156112b9573d6000803e3d6000fd5b505050505b8585858181106112d0576112d0614273565b905060400201600001357f684a333bfbd5b9645c0ec7d11d5044fb3efe90f87a8e2d424f539fc796f9b31f87878781811061130d5761130d614273565b90506040020160200160208101906113259190613881565b604080516001600160a01b03909216825260208201879052339082015260600160405180910390a2505050808061135b90614200565b91505061105d565b60006002600f5414156113885760405162461bcd60e51b815260040161071a90613f36565b6002600f55867f000000000000000000000000000000000000000000000000000000000000000060136113bc838383611fc3565b851561160c576012546001600160a01b031615801561147e575060145460405163ea78803f60e01b81527f000000000000000000000000000000000000000000000000000000000000000060048201526000916001600160a01b03169063ea78803f9060240160206040518083038186803b15801561143a57600080fd5b505afa15801561144e573d6000803e3d6000fd5b505050506040513d601f19601f820116820180604052508101906114729190613bbe565b6001600160a01b031614155b156115435760145460405163ea78803f60e01b81527f000000000000000000000000000000000000000000000000000000000000000060048201526001600160a01b039091169063ea78803f9060240160206040518083038186803b1580156114e657600080fd5b505afa1580156114fa573d6000803e3d6000fd5b505050506040513d601f19601f8201168201806040525081019061151e9190613bbe565b601280546001600160a01b0319166001600160a01b039290921691909117905561160c565b60125460145460405163ea78803f60e01b81527f000000000000000000000000000000000000000000000000000000000000000060048201526001600160a01b03928316929091169063ea78803f9060240160206040518083038186803b1580156115ad57600080fd5b505afa1580156115c1573d6000803e3d6000fd5b505050506040513d601f19601f820116820180604052508101906115e59190613bbe565b6001600160a01b03161461160c57604051635aea2c8f60e11b815260040160405180910390fd5b6116158861287d565b611632576040516318f2148360e11b815260040160405180910390fd5b8580156116dd5750601254604051627eeac760e11b81526001600160a01b038c811660048301527f000000000000000000000000000000000000000000000000000000000000000060248301528b92169062fdd58e9060440160206040518083038186803b1580156116a357600080fd5b505afa1580156116b7573d6000803e3d6000fd5b505050506040513d601f19601f820116820180604052508101906116db9190613ccc565b105b156116fb57604051632858f9ab60e11b815260040160405180910390fd5b851580156117a95750601454604051635287af3760e01b81526001600160a01b038c811660048301527f000000000000000000000000000000000000000000000000000000000000000060248301528b921690635287af379060440160206040518083038186803b15801561176f57600080fd5b505afa158015611783573d6000803e3d6000fd5b505050506040513d601f19601f820116820180604052508101906117a79190613ccc565b105b156117c757604051632858f9ab60e11b815260040160405180910390fd5b6015600081546117d690614200565b9182905550935060006117e9894261409a565b90506117f9858b8b848b8b61215a565b5061180488866128d4565b861561189f57601254604051630e07895b60e11b81527f00000000000000000000000000000000000000000000000000000000000000006004820152336024820152306044820152606481018c90526001600160a01b0390911690631c0f12b690608401600060405180830381600087803b15801561188257600080fd5b505af1158015611896573d6000803e3d6000fd5b50505050611930565b60145460405163ac689bcd60e01b81523360048201527f00000000000000000000000000000000000000000000000000000000000000006024820152306044820152606481018c90526001600160a01b039091169063ac689bcd90608401600060405180830381600087803b15801561191757600080fd5b505af115801561192b573d6000803e3d6000fd5b505050505b604080518b8152602081018b90526001600160a01b038a811682840152606082018490523360808301529151918d169187917fd0486aa1ced26d88137420f26eef05e9c3f4ad2f9c0ffc2469522a98befeab21919081900360a00190a350506001600f555090979650505050505050565b60606002600f5414156119c65760405162461bcd60e51b815260040161071a90613f36565b6002600f558167ffffffffffffffff8111156119e4576119e4614289565b604051908082528060200260200182016040528015611a0d578160200160208202803683370190505b50905060005b82811015611bf3576000848483818110611a2f57611a2f614273565b905060400201803603810190611a459190613c81565b9050611a54816020015161287d565b611a71576040516318f2148360e11b815260040160405180910390fd5b600080600080611a848560000151611e12565b9450945094505093506000611a9c8660000151610d74565b905081611acf57611acf817f00000000000000000000000000000000000000000000000000000000000000006015611fc3565b600084421015611ae857611ae342866140d4565b611aeb565b60005b9050600081886020015142611b00919061409a565b611b0a91906140d4565b905080861115611b2d57604051630825cd3d60e01b815260040160405180910390fd5b8751611b389061219c565b6000601560008154611b4990614200565b9190508190559050808b8b81518110611b6457611b64614273565b602002602001018181525050611b8281898b60200151858a8a61215a565b50611b8d84826128d4565b88516020808b015160408051918252918101859052338183015290518392917fa4fbc395f535af46c17744dfc108cb05265b52f229dc57a5be996f3f1c140bd9919081900360600190a35050505050505050508080611beb90614200565b915050611a13565b506001600f5592915050565b611c0933836121b4565b611c255760405162461bcd60e51b815260040161071a90613ee5565b611c31848484846128ee565b50505050565b83421115611c875760405162461bcd60e51b815260206004820152601860248201527f566f7465733a207369676e617475726520657870697265640000000000000000604482015260640161071a565b604080517fe48329057bfd03d55e49b547132e39cffd9c1820ad7b9d4c5307691425d15adf60208201526001600160a01b038816918101919091526060810186905260808101859052600090611d0190611cf99060a00160405160208183030381529060405280519060200120612921565b85858561296f565b9050611d0c81612997565b8614611d515760405162461bcd60e51b8152602060048201526014602482015273566f7465733a20696e76616c6964206e6f6e636560601b604482015260640161071a565b611d5b818861268e565b50505050505050565b60606000806000611d7485611e12565b50506013546040516308120ceb60e01b815293965091945092506001600160a01b0316906308120ceb90611db5908890879087908790601190600401613f6d565b60006040518083038186803b158015611dcd57600080fd5b505afa158015611de1573d6000803e3d6000fd5b505050506040513d6000823e601f3d908101601f19168201604052611e099190810190613bdb565b95945050505050565b600081815260106020526040812054819081908190819080611e4757604051631d3031fd60e31b815260040160405180910390fd5b72ffffffffffffffffffffffffffffffffffffff81169765ffffffffffff609883901c8116985060c883901c169650600160f883901c81168114965060f99290921c82169091149350915050565b600e546001600160a01b03163314611ebf5760405162461bcd60e51b815260040161071a90613eb0565b6001600160a01b038116611f245760405162461bcd60e51b815260206004820152602660248201527f4f776e61626c653a206e6577206f776e657220697320746865207a65726f206160448201526564647265737360d01b606482015260840161071a565b611f2d81612700565b50565b60006001600160e01b0319821663780e9d6360e01b148061060d575061060d826129bf565b600081815260046020526040902080546001600160a01b0319166001600160a01b0384169081179091558190611f8a82610d74565b6001600160a01b03167f8c5be1e5ebec7d5bd14f71427d1e84f3dd0314c0f7b2291e5b200ac8c7c3b92560405160405180910390a45050565b336001600160a01b03841614801590612086575060405163c161c93f60e01b81523360048201526001600160a01b03848116602483015260448201849052606482018390527f0000000000000000000000000000000000000000000000000000000000000000169063c161c93f9060840160206040518083038186803b15801561204c57600080fd5b505afa158015612060573d6000803e3d6000fd5b505050506040513d601f19601f820116820180604052508101906120849190613b67565b155b801561213c575060405163c161c93f60e01b81523360048201526001600160a01b03848116602483015260006044830152606482018390527f0000000000000000000000000000000000000000000000000000000000000000169063c161c93f9060840160206040518083038186803b15801561210257600080fd5b505afa158015612116573d6000803e3d6000fd5b505050506040513d601f19601f8201168201806040525081019061213a9190613b67565b155b156108505760405163075fd2b160e01b815260040160405180910390fd5b60c883901b609885901b861717821561217457600160f81b175b811561218157600160f91b175b60008781526010602052604090208190559695505050505050565b600081815260106020526040812055611f2d81612a0f565b6000818152600260205260408120546001600160a01b031661222d5760405162461bcd60e51b815260206004820152602c60248201527f4552433732313a206f70657261746f7220717565727920666f72206e6f6e657860448201526b34b9ba32b73a103a37b5b2b760a11b606482015260840161071a565b600061223883610d74565b9050806001600160a01b0316846001600160a01b031614806122735750836001600160a01b0316612268846106a5565b6001600160a01b0316145b806122a357506001600160a01b0380821660009081526005602090815260408083209388168352929052205460ff165b949350505050565b826001600160a01b03166122be82610d74565b6001600160a01b0316146123225760405162461bcd60e51b815260206004820152602560248201527f4552433732313a207472616e736665722066726f6d20696e636f72726563742060448201526437bbb732b960d91b606482015260840161071a565b6001600160a01b0382166123845760405162461bcd60e51b8152602060048201526024808201527f4552433732313a207472616e7366657220746f20746865207a65726f206164646044820152637265737360e01b606482015260840161071a565b61238f838383612abe565b61239a600082611f55565b6001600160a01b03831660009081526003602052604081208054600192906123c39084906140d4565b90915550506001600160a01b03821660009081526003602052604081208054600192906123f190849061409a565b909155505060008181526002602052604080822080546001600160a01b0319166001600160a01b0386811691821790925591518493918716917fddf252ad1be2c89b69c2b068fc378daa952ba7f163c4a11628f55a4df523b3ef91a4610850838383612ac9565b6000306001600160a01b037f0000000000000000000000000000000000000000000000000000000000000000161480156124b157507f000000000000000000000000000000000000000000000000000000000000000046145b156124db57507f000000000000000000000000000000000000000000000000000000000000000090565b50604080517f00000000000000000000000000000000000000000000000000000000000000006020808301919091527f0000000000000000000000000000000000000000000000000000000000000000828401527f000000000000000000000000000000000000000000000000000000000000000060608301524660808301523060a0808401919091528351808403909101815260c0909201909252805191012090565b60004382106125d05760405162461bcd60e51b815260206004820181905260248201527f436865636b706f696e74733a20626c6f636b206e6f7420796574206d696e6564604482015260640161071a565b825460005b818110156126355760006125e98284612ad4565b90508486600001828154811061260157612601614273565b60009182526020909120015463ffffffff1611156126215780925061262f565b61262c81600161409a565b91505b506125d5565b811561267957846126476001846140d4565b8154811061265757612657614273565b60009182526020909120015464010000000090046001600160e01b031661267c565b60005b6001600160e01b031695945050505050565b6001600160a01b0382811660008181526006602052604080822080548686166001600160a01b0319821681179092559151919094169392849290917f3134e8a2e6d97e929a7e54011ea5485d7d196dd5f0ba4d4ef95803e8e3fc257f9190a461085081836126fb86612aef565b612b89565b600e80546001600160a01b038381166001600160a01b0319831681179093556040519116919082907f8be0079c531659141344cd1fd0a4f28419497f9722a3daafe3b4186f6b6457e090600090a35050565b8054600090801561279b57826127696001836140d4565b8154811061277957612779614273565b60009182526020909120015464010000000090046001600160e01b031661279e565b60005b6001600160e01b03169392505050565b816001600160a01b0316836001600160a01b031614156128105760405162461bcd60e51b815260206004820152601960248201527f4552433732313a20617070726f766520746f2063616c6c657200000000000000604482015260640161071a565b6001600160a01b03838116600081815260056020908152604080832094871680845294825291829020805460ff191686151590811790915591519182527f17307eab39ab6107e8899845ad3d59bd9653f200f220920489ca2b5937696c31910160405180910390a3505050565b6000805b6011548110156128cb57826011828154811061289f5761289f614273565b906000526020600020015414156128b95750600192915050565b806128c381614200565b915050612881565b50600092915050565b610d70828260405180602001604052806000815250612cc6565b6128f98484846122ab565b61290584848484612cf9565b611c315760405162461bcd60e51b815260040161071a90613e5e565b600061060d61292e612458565b8360405161190160f01b6020820152602281018390526042810182905260009060620160405160208183030381529060405280519060200120905092915050565b600080600061298087878787612e03565b9150915061298d81612ef0565b5095945050505050565b6001600160a01b03811660009081526009602052604090208054600181018255905b50919050565b60006001600160e01b031982166380ac58cd60e01b14806129f057506001600160e01b03198216635b5e139f60e01b145b8061060d57506301ffc9a760e01b6001600160e01b031983161461060d565b6000612a1a82610d74565b9050612a2881600084612abe565b612a33600083611f55565b6001600160a01b0381166000908152600360205260408120805460019290612a5c9084906140d4565b909155505060008281526002602052604080822080546001600160a01b0319169055518391906001600160a01b038416907fddf252ad1be2c89b69c2b068fc378daa952ba7f163c4a11628f55a4df523b3ef908390a4610d7081600084612ac9565b6108508383836130ab565b610850838383613163565b6000612ae360028484186140b2565b610cb09084841661409a565b6000805b612afc83610deb565b8110156129b9576000612b0f8483610be9565b9050600080612b1d83611e12565b50509250509150804210612b3357505050612b77565b612b6782612b4142846140d4565b7f000000000000000000000000000000000000000000000000000000000000000061316f565b612b71908661409a565b94505050505b80612b8181614200565b915050612af3565b816001600160a01b0316836001600160a01b031614158015612bab5750600081115b15610850576001600160a01b03831615612c39576001600160a01b03831660009081526007602052604081208190612be69061323d85613249565b91509150846001600160a01b03167fdec2bacdd2f05b59de34da9b523dff8be42e5e38e818c82fdb0bae774387a7248383604051612c2e929190918252602082015260400190565b60405180910390a250505b6001600160a01b03821615610850576001600160a01b03821660009081526007602052604081208190612c6f9061327785613249565b91509150836001600160a01b03167fdec2bacdd2f05b59de34da9b523dff8be42e5e38e818c82fdb0bae774387a7248383604051612cb7929190918252602082015260400190565b60405180910390a25050505050565b612cd08383613283565b612cdd6000848484612cf9565b6108505760405162461bcd60e51b815260040161071a90613e5e565b60006001600160a01b0384163b15612dfb57604051630a85bd0160e11b81526001600160a01b0385169063150b7a0290612d3d903390899088908890600401613d5d565b602060405180830381600087803b158015612d5757600080fd5b505af1925050508015612d87575060408051601f3d908101601f19168201909252612d8491810190613ba1565b60015b612de1573d808015612db5576040519150601f19603f3d011682016040523d82523d6000602084013e612dba565b606091505b508051612dd95760405162461bcd60e51b815260040161071a90613e5e565b805181602001fd5b6001600160e01b031916630a85bd0160e11b1490506122a3565b5060016122a3565b6000807f7fffffffffffffffffffffffffffffff5d576e7357a4501ddfe92f46681b20a0831115612e3a5750600090506003612ee7565b8460ff16601b14158015612e5257508460ff16601c14155b15612e635750600090506004612ee7565b6040805160008082526020820180845289905260ff881692820192909252606081018690526080810185905260019060a0016020604051602081039080840390855afa158015612eb7573d6000803e3d6000fd5b5050604051601f1901519150506001600160a01b038116612ee057600060019250925050612ee7565b9150600090505b94509492505050565b6000816004811115612f0457612f04614247565b1415612f0d5750565b6001816004811115612f2157612f21614247565b1415612f6f5760405162461bcd60e51b815260206004820152601860248201527f45434453413a20696e76616c6964207369676e61747572650000000000000000604482015260640161071a565b6002816004811115612f8357612f83614247565b1415612fd15760405162461bcd60e51b815260206004820152601f60248201527f45434453413a20696e76616c6964207369676e6174757265206c656e67746800604482015260640161071a565b6003816004811115612fe557612fe5614247565b141561303e5760405162461bcd60e51b815260206004820152602260248201527f45434453413a20696e76616c6964207369676e6174757265202773272076616c604482015261756560f01b606482015260840161071a565b600481600481111561305257613052614247565b1415611f2d5760405162461bcd60e51b815260206004820152602260248201527f45434453413a20696e76616c6964207369676e6174757265202776272076616c604482015261756560f01b606482015260840161071a565b6001600160a01b0383166131065761310181600c80546000838152600d60205260408120829055600182018355919091527fdf6966c971051c3d54ec59162606531493a51404a002842f56009d7e5cf4a8c70155565b613129565b816001600160a01b0316836001600160a01b0316146131295761312983826133d9565b6001600160a01b0382166131405761085081613476565b826001600160a01b0316826001600160a01b031614610850576108508282613525565b61085083836001613569565b6000808060001985870985870292508281108382030391505080600014156131aa578382816131a0576131a0614231565b0492505050610cb0565b8381106131d457604051631dcf306360e21b8152600481018290526024810185905260440161071a565b60008486880960026001871981018816978890046003810283188082028403028082028403028082028403028082028403028082028403029081029092039091026000889003889004909101858311909403939093029303949094049190911702949350505050565b6000610cb082846140d4565b60008061326b8561326661325c88612752565b868863ffffffff16565b6135d9565b91509150935093915050565b6000610cb0828461409a565b6001600160a01b0382166132d95760405162461bcd60e51b815260206004820181905260248201527f4552433732313a206d696e7420746f20746865207a65726f2061646472657373604482015260640161071a565b6000818152600260205260409020546001600160a01b03161561333e5760405162461bcd60e51b815260206004820152601c60248201527f4552433732313a20746f6b656e20616c7265616479206d696e74656400000000604482015260640161071a565b61334a60008383612abe565b6001600160a01b038216600090815260036020526040812080546001929061337390849061409a565b909155505060008181526002602052604080822080546001600160a01b0319166001600160a01b03861690811790915590518392907fddf252ad1be2c89b69c2b068fc378daa952ba7f163c4a11628f55a4df523b3ef908290a4610d7060008383612ac9565b600060016133e684610deb565b6133f091906140d4565b6000838152600b6020526040902054909150808214613443576001600160a01b0384166000908152600a602090815260408083208584528252808320548484528184208190558352600b90915290208190555b506000918252600b602090815260408084208490556001600160a01b039094168352600a81528383209183525290812055565b600c54600090613488906001906140d4565b6000838152600d6020526040812054600c80549394509092849081106134b0576134b0614273565b9060005260206000200154905080600c83815481106134d1576134d1614273565b6000918252602080832090910192909255828152600d9091526040808220849055858252812055600c8054806135095761350961425d565b6001900381819060005260206000200160009055905550505050565b600061353083610deb565b6001600160a01b039093166000908152600a602090815260408083208684528252808320859055938252600b9052919091209190915550565b6001600160a01b03831661358857613585600861327783613249565b50505b6001600160a01b0382166135a7576135a4600861323d83613249565b50505b6001600160a01b0383811660009081526006602052604080822054858416835291205461085092918216911683612b89565b81546000908190816135ea86612752565b9050600082118015613628575043866136046001856140d4565b8154811061361457613614614273565b60009182526020909120015463ffffffff16145b156136885761363685613704565b866136426001856140d4565b8154811061365257613652614273565b9060005260206000200160000160046101000a8154816001600160e01b0302191690836001600160e01b031602179055506136f6565b8560000160405180604001604052806136a043613771565b63ffffffff1681526020016136b488613704565b6001600160e01b0390811690915282546001810184556000938452602093849020835194909301519091166401000000000263ffffffff909316929092179101555b9250839150505b9250929050565b60006001600160e01b0382111561376d5760405162461bcd60e51b815260206004820152602760248201527f53616665436173743a2076616c756520646f65736e27742066697420696e20326044820152663234206269747360c81b606482015260840161071a565b5090565b600063ffffffff82111561376d5760405162461bcd60e51b815260206004820152602660248201527f53616665436173743a2076616c756520646f65736e27742066697420696e203360448201526532206269747360d01b606482015260840161071a565b80356137e18161429f565b919050565b60008083601f8401126137f857600080fd5b50813567ffffffffffffffff81111561381057600080fd5b6020830191508360208260061b85010111156136fd57600080fd5b600082601f83011261383c57600080fd5b813561384f61384a82614072565b614041565b81815284602083860101111561386457600080fd5b816020850160208301376000918101602001919091529392505050565b60006020828403121561389357600080fd5b8135610cb08161429f565b600080604083850312156138b157600080fd5b82356138bc8161429f565b915060208301356138cc8161429f565b809150509250929050565b6000806000606084860312156138ec57600080fd5b83356138f78161429f565b925060208401356139078161429f565b929592945050506040919091013590565b6000806000806080858703121561392e57600080fd5b84356139398161429f565b935060208501356139498161429f565b925060408501359150606085013567ffffffffffffffff81111561396c57600080fd5b6139788782880161382b565b91505092959194509250565b6000806040838503121561399757600080fd5b82356139a28161429f565b915060208301356138cc816142b4565b600080604083850312156139c557600080fd5b82356139d08161429f565b946020939093013593505050565b60008060008060008060c087890312156139f757600080fd5b8635613a028161429f565b955060208701359450604087013593506060870135613a208161429f565b92506080870135613a30816142b4565b915060a0870135613a40816142b4565b809150509295509295509295565b60008060008060008060c08789031215613a6757600080fd5b8635613a728161429f565b95506020870135945060408701359350606087013560ff81168114613a9657600080fd5b9598949750929560808101359460a0909101359350915050565b60008060208385031215613ac357600080fd5b823567ffffffffffffffff811115613ada57600080fd5b613ae6858286016137e6565b90969095509350505050565b60008060208385031215613b0557600080fd5b823567ffffffffffffffff80821115613b1d57600080fd5b818501915085601f830112613b3157600080fd5b813581811115613b4057600080fd5b8660208260051b8501011115613b5557600080fd5b60209290920196919550909350505050565b600060208284031215613b7957600080fd5b8151610cb0816142b4565b600060208284031215613b9657600080fd5b8135610cb0816142c2565b600060208284031215613bb357600080fd5b8151610cb0816142c2565b600060208284031215613bd057600080fd5b8151610cb08161429f565b600060208284031215613bed57600080fd5b815167ffffffffffffffff811115613c0457600080fd5b8201601f81018413613c1557600080fd5b8051613c2361384a82614072565b818152856020838501011115613c3857600080fd5b611e0982602083016020860161419f565b600060408284031215613c5b57600080fd5b613c63613ff5565b823581526020830135613c75816142b4565b60208201529392505050565b600060408284031215613c9357600080fd5b613c9b613ff5565b82358152602083013560208201528091505092915050565b600060208284031215613cc557600080fd5b5035919050565b600060208284031215613cde57600080fd5b5051919050565b60008151808452613cfd81602086016020860161419f565b601f01601f19169290920160200192915050565b600060018060a01b038089168352808816602084015286604084015285606084015260c06080840152613d4760c0840186613ce5565b915080841660a084015250979650505050505050565b6001600160a01b0385811682528416602082015260408101839052608060608201819052600090613d9090830184613ce5565b9695505050505050565b6001600160a01b0389811682526020820189905260408201889052868116606083015260808201869052841660a082015261010060c08201819052600090613de483820186613ce5565b905082810360e0840152613df88185613ce5565b9b9a5050505050505050505050565b6020808252825182820181905260009190848201906040850190845b81811015613e3f57835183529284019291840191600101613e23565b50909695505050505050565b602081526000610cb06020830184613ce5565b60208082526032908201527f4552433732313a207472616e7366657220746f206e6f6e20455243373231526560408201527131b2b4bb32b91034b6b83632b6b2b73a32b960711b606082015260800190565b6020808252818101527f4f776e61626c653a2063616c6c6572206973206e6f7420746865206f776e6572604082015260600190565b60208082526031908201527f4552433732313a207472616e736665722063616c6c6572206973206e6f74206f6040820152701ddb995c881b9bdc88185c1c1c9bdd9959607a1b606082015260800190565b6020808252601f908201527f5265656e7472616e637947756172643a207265656e7472616e742063616c6c00604082015260600190565b600060a082018783526020878185015286604085015285606085015260a0608085015281855480845260c0860191508660005282600020935060005b81811015613fc557845483526001948501949284019201613fa9565b50909a9950505050505050505050565b6000823560de19833603018112613feb57600080fd5b9190910192915050565b6040805190810167ffffffffffffffff8111828210171561401857614018614289565b60405290565b60405160e0810167ffffffffffffffff8111828210171561401857614018614289565b604051601f8201601f1916810167ffffffffffffffff8111828210171561406a5761406a614289565b604052919050565b600067ffffffffffffffff82111561408c5761408c614289565b50601f01601f191660200190565b600082198211156140ad576140ad61421b565b500190565b6000826140cf57634e487b7160e01b600052601260045260246000fd5b500490565b6000828210156140e6576140e661421b565b500390565b600060e082360312156140fd57600080fd5b61410561401e565b82358152614115602084016137d6565b602082015260408301356040820152614130606084016137d6565b6060820152608083013567ffffffffffffffff8082111561415057600080fd5b61415c3683870161382b565b608084015260a085013591508082111561417557600080fd5b506141823682860161382b565b60a08301525061419460c084016137d6565b60c082015292915050565b60005b838110156141ba5781810151838201526020016141a2565b83811115611c315750506000910152565b600181811c908216806141df57607f821691505b602082108114156129b957634e487b7160e01b600052602260045260246000fd5b60006000198214156142145761421461421b565b5060010190565b634e487b7160e01b600052601160045260246000fd5b634e487b7160e01b600052601260045260246000fd5b634e487b7160e01b600052602160045260246000fd5b634e487b7160e01b600052603160045260246000fd5b634e487b7160e01b600052603260045260246000fd5b634e487b7160e01b600052604160045260246000fd5b6001600160a01b0381168114611f2d57600080fd5b8015158114611f2d57600080fd5b6001600160e01b031981168114611f2d57600080fdfea26469706673582212200b9dfe0eed6681a20eff6d56ba2da0bef5a54857bbcb9eef7a06d995b34aa1fb64736f6c63430008060033",
    "linkReferences": {}
  }
}