{
  "abi": [
    {
      "inputs": [
        {
          "internalType": "uint256",
          "name": "_projectId",
          "type": "uint256"
        },
        {
          "internalType": "string",
          "name": "_name",
          "type": "string"
        },
        {
          "internalType": "string",
          "name": "_symbol",
          "type": "string"
        },
        {
          "internalType": "contract IJBVeTokenUriResolver",
          "name": "_uriResolver",
          "type": "address"
        },
        {
          "internalType": "contract IJBTokenStore",
          "name": "_tokenStore",
          "type": "address"
        },
        {
          "internalType": "contract IJBOperatorStore",
          "name": "_operatorStore",
          "type": "address"
        },
        {
          "internalType": "uint256[]",
          "name": "_lockDurationOptions",
          "type": "uint256[]"
        }
      ],
      "stateMutability": "nonpayable",
      "type": "constructor"
    },
    {
      "inputs": [],
      "name": "INSUFFICIENT_BALANCE",
      "type": "error"
    },
    {
      "inputs": [],
      "name": "INVALID_LOCK_DURATION",
      "type": "error"
    },
    {
      "inputs": [],
      "name": "INVALID_LOCK_EXTENSION",
      "type": "error"
    },
    {
      "inputs": [],
      "name": "LOCK_PERIOD_NOT_OVER",
      "type": "error"
    },
    {
      "inputs": [
        {
          "internalType": "uint256",
          "name": "prod1",
          "type": "uint256"
        },
        {
          "internalType": "uint256",
          "name": "denominator",
          "type": "uint256"
        }
      ],
      "name": "PRBMath__MulDivOverflow",
      "type": "error"
    },
    {
      "inputs": [],
      "name": "TOKEN_MISMATCH",
      "type": "error"
    },
    {
      "inputs": [],
      "name": "UNAUTHORIZED",
      "type": "error"
    },
    {
      "anonymous": false,
      "inputs": [
        {
          "indexed": true,
          "internalType": "address",
          "name": "owner",
          "type": "address"
        },
        {
          "indexed": true,
          "internalType": "address",
          "name": "approved",
          "type": "address"
        },
        {
          "indexed": true,
          "internalType": "uint256",
          "name": "tokenId",
          "type": "uint256"
        }
      ],
      "name": "Approval",
      "type": "event"
    },
    {
      "anonymous": false,
      "inputs": [
        {
          "indexed": true,
          "internalType": "address",
          "name": "owner",
          "type": "address"
        },
        {
          "indexed": true,
          "internalType": "address",
          "name": "operator",
          "type": "address"
        },
        {
          "indexed": false,
          "internalType": "bool",
          "name": "approved",
          "type": "bool"
        }
      ],
      "name": "ApprovalForAll",
      "type": "event"
    },
    {
      "anonymous": false,
      "inputs": [
        {
          "indexed": true,
          "internalType": "address",
          "name": "delegator",
          "type": "address"
        },
        {
          "indexed": true,
          "internalType": "address",
          "name": "fromDelegate",
          "type": "address"
        },
        {
          "indexed": true,
          "internalType": "address",
          "name": "toDelegate",
          "type": "address"
        }
      ],
      "name": "DelegateChanged",
      "type": "event"
    },
    {
      "anonymous": false,
      "inputs": [
        {
          "indexed": true,
          "internalType": "address",
          "name": "delegate",
          "type": "address"
        },
        {
          "indexed": false,
          "internalType": "uint256",
          "name": "previousBalance",
          "type": "uint256"
        },
        {
          "indexed": false,
          "internalType": "uint256",
          "name": "newBalance",
          "type": "uint256"
        }
      ],
      "name": "DelegateVotesChanged",
      "type": "event"
    },
    {
      "anonymous": false,
      "inputs": [
        {
          "indexed": true,
          "internalType": "uint256",
          "name": "tokenId",
          "type": "uint256"
        },
        {
          "indexed": false,
          "internalType": "uint256",
          "name": "updatedDuration",
          "type": "uint256"
        },
        {
          "indexed": false,
          "internalType": "uint256",
          "name": "updatedLockedUntil",
          "type": "uint256"
        },
        {
          "indexed": false,
          "internalType": "address",
          "name": "caller",
          "type": "address"
        }
      ],
      "name": "ExtendLock",
      "type": "event"
    },
    {
      "anonymous": false,
      "inputs": [
        {
          "indexed": true,
          "internalType": "uint256",
          "name": "tokenId",
          "type": "uint256"
        },
        {
          "indexed": true,
          "internalType": "address",
          "name": "account",
          "type": "address"
        },
        {
          "indexed": false,
          "internalType": "uint256",
          "name": "amount",
          "type": "uint256"
        },
        {
          "indexed": false,
          "internalType": "uint256",
          "name": "duration",
          "type": "uint256"
        },
        {
          "indexed": false,
          "internalType": "address",
          "name": "beneficiary",
          "type": "address"
        },
        {
          "indexed": false,
          "internalType": "uint256",
          "name": "lockedUntil",
          "type": "uint256"
        },
        {
          "indexed": false,
          "internalType": "address",
          "name": "caller",
          "type": "address"
        }
      ],
      "name": "Lock",
      "type": "event"
    },
    {
      "anonymous": false,
      "inputs": [
        {
          "indexed": true,
          "internalType": "address",
          "name": "previousOwner",
          "type": "address"
        },
        {
          "indexed": true,
          "internalType": "address",
          "name": "newOwner",
          "type": "address"
        }
      ],
      "name": "OwnershipTransferred",
      "type": "event"
    },
    {
      "anonymous": false,
      "inputs": [
        {
          "indexed": true,
          "internalType": "contract IJBVeTokenUriResolver",
          "name": "resolver",
          "type": "address"
        },
        {
          "indexed": false,
          "internalType": "address",
          "name": "caller",
          "type": "address"
        }
      ],
      "name": "SetUriResolver",
      "type": "event"
    },
    {
      "anonymous": false,
      "inputs": [
        {
          "indexed": true,
          "internalType": "address",
          "name": "from",
          "type": "address"
        },
        {
          "indexed": true,
          "internalType": "address",
          "name": "to",
          "type": "address"
        },
        {
          "indexed": true,
          "internalType": "uint256",
          "name": "tokenId",
          "type": "uint256"
        }
      ],
      "name": "Transfer",
      "type": "event"
    },
    {
      "anonymous": false,
      "inputs": [
        {
          "indexed": true,
          "internalType": "uint256",
          "name": "tokenId",
          "type": "uint256"
        },
        {
          "indexed": false,
          "internalType": "address",
          "name": "beneficiary",
          "type": "address"
        },
        {
          "indexed": false,
          "internalType": "uint256",
          "name": "amount",
          "type": "uint256"
        },
        {
          "indexed": false,
          "internalType": "address",
          "name": "caller",
          "type": "address"
        }
      ],
      "name": "Unlock",
      "type": "event"
    },
    {
      "inputs": [],
      "name": "DOMAIN_SEPARATOR",
      "outputs": [
        {
          "internalType": "bytes32",
          "name": "",
          "type": "bytes32"
        }
      ],
      "stateMutability": "view",
      "type": "function"
    },
    {
      "inputs": [
        {
          "internalType": "address",
          "name": "to",
          "type": "address"
        },
        {
          "internalType": "uint256",
          "name": "tokenId",
          "type": "uint256"
        }
      ],
      "name": "approve",
      "outputs": [],
      "stateMutability": "nonpayable",
      "type": "function"
    },
    {
      "inputs": [
        {
          "internalType": "address",
          "name": "owner",
          "type": "address"
        }
      ],
      "name": "balanceOf",
      "outputs": [
        {
          "internalType": "uint256",
          "name": "",
          "type": "uint256"
        }
      ],
      "stateMutability": "view",
      "type": "function"
    },
    {
      "inputs": [],
      "name": "count",
      "outputs": [
        {
          "internalType": "uint256",
          "name": "",
          "type": "uint256"
        }
      ],
      "stateMutability": "view",
      "type": "function"
    },
    {
      "inputs": [
        {
          "internalType": "address",
          "name": "delegatee",
          "type": "address"
        }
      ],
      "name": "delegate",
      "outputs": [],
      "stateMutability": "nonpayable",
      "type": "function"
    },
    {
      "inputs": [
        {
          "internalType": "address",
          "name": "delegatee",
          "type": "address"
        },
        {
          "internalType": "uint256",
          "name": "nonce",
          "type": "uint256"
        },
        {
          "internalType": "uint256",
          "name": "expiry",
          "type": "uint256"
        },
        {
          "internalType": "uint8",
          "name": "v",
          "type": "uint8"
        },
        {
          "internalType": "bytes32",
          "name": "r",
          "type": "bytes32"
        },
        {
          "internalType": "bytes32",
          "name": "s",
          "type": "bytes32"
        }
      ],
      "name": "delegateBySig",
      "outputs": [],
      "stateMutability": "nonpayable",
      "type": "function"
    },
    {
      "inputs": [
        {
          "internalType": "address",
          "name": "account",
          "type": "address"
        }
      ],
      "name": "delegates",
      "outputs": [
        {
          "internalType": "address",
          "name": "",
          "type": "address"
        }
      ],
      "stateMutability": "view",
      "type": "function"
    },
    {
      "inputs": [
        {
          "internalType": "uint256",
          "name": "_tokenId",
          "type": "uint256"
        },
        {
          "internalType": "uint256",
          "name": "_updatedDuration",
          "type": "uint256"
        }
      ],
      "name": "extendLock",
      "outputs": [],
      "stateMutability": "nonpayable",
      "type": "function"
    },
    {
      "inputs": [
        {
          "internalType": "uint256",
          "name": "tokenId",
          "type": "uint256"
        }
      ],
      "name": "getApproved",
      "outputs": [
        {
          "internalType": "address",
          "name": "",
          "type": "address"
        }
      ],
      "stateMutability": "view",
      "type": "function"
    },
    {
      "inputs": [
        {
          "internalType": "uint256",
          "name": "blockNumber",
          "type": "uint256"
        }
      ],
      "name": "getPastTotalSupply",
      "outputs": [
        {
          "internalType": "uint256",
          "name": "",
          "type": "uint256"
        }
      ],
      "stateMutability": "view",
      "type": "function"
    },
    {
      "inputs": [
        {
          "internalType": "address",
          "name": "account",
          "type": "address"
        },
        {
          "internalType": "uint256",
          "name": "blockNumber",
          "type": "uint256"
        }
      ],
      "name": "getPastVotes",
      "outputs": [
        {
          "internalType": "uint256",
          "name": "",
          "type": "uint256"
        }
      ],
      "stateMutability": "view",
      "type": "function"
    },
    {
      "inputs": [
        {
          "internalType": "uint256",
          "name": "_tokenId",
          "type": "uint256"
        }
      ],
      "name": "getSpecs",
      "outputs": [
        {
          "internalType": "uint256",
          "name": "amount",
          "type": "uint256"
        },
        {
          "internalType": "uint256",
          "name": "duration",
          "type": "uint256"
        },
        {
          "internalType": "uint256",
          "name": "lockedUntil",
          "type": "uint256"
        },
        {
          "internalType": "bool",
          "name": "useJbToken",
          "type": "bool"
        }
      ],
      "stateMutability": "view",
      "type": "function"
    },
    {
      "inputs": [
        {
          "internalType": "address",
          "name": "account",
          "type": "address"
        }
      ],
      "name": "getVotes",
      "outputs": [
        {
          "internalType": "uint256",
          "name": "",
          "type": "uint256"
        }
      ],
      "stateMutability": "view",
      "type": "function"
    },
    {
      "inputs": [
        {
          "internalType": "address",
          "name": "owner",
          "type": "address"
        },
        {
          "internalType": "address",
          "name": "operator",
          "type": "address"
        }
      ],
      "name": "isApprovedForAll",
      "outputs": [
        {
          "internalType": "bool",
          "name": "",
          "type": "bool"
        }
      ],
      "stateMutability": "view",
      "type": "function"
    },
    {
      "inputs": [
        {
          "internalType": "address",
          "name": "_account",
          "type": "address"
        },
        {
          "internalType": "uint256",
          "name": "_amount",
          "type": "uint256"
        },
        {
          "internalType": "uint256",
          "name": "_duration",
          "type": "uint256"
        },
        {
          "internalType": "address",
          "name": "_beneficiary",
          "type": "address"
        },
        {
          "internalType": "bool",
          "name": "_useJbToken",
          "type": "bool"
        }
      ],
      "name": "lock",
      "outputs": [
        {
          "internalType": "uint256",
          "name": "tokenId",
          "type": "uint256"
        }
      ],
      "stateMutability": "nonpayable",
      "type": "function"
    },
    {
      "inputs": [
        {
          "internalType": "uint256",
          "name": "",
          "type": "uint256"
        }
      ],
      "name": "lockDurationOptions",
      "outputs": [
        {
          "internalType": "uint256",
          "name": "",
          "type": "uint256"
        }
      ],
      "stateMutability": "view",
      "type": "function"
    },
    {
      "inputs": [],
      "name": "name",
      "outputs": [
        {
          "internalType": "string",
          "name": "",
          "type": "string"
        }
      ],
      "stateMutability": "view",
      "type": "function"
    },
    {
      "inputs": [
        {
          "internalType": "address",
          "name": "owner",
          "type": "address"
        }
      ],
      "name": "nonces",
      "outputs": [
        {
          "internalType": "uint256",
          "name": "",
          "type": "uint256"
        }
      ],
      "stateMutability": "view",
      "type": "function"
    },
    {
      "inputs": [],
      "name": "operatorStore",
      "outputs": [
        {
          "internalType": "contract IJBOperatorStore",
          "name": "",
          "type": "address"
        }
      ],
      "stateMutability": "view",
      "type": "function"
    },
    {
      "inputs": [],
      "name": "owner",
      "outputs": [
        {
          "internalType": "address",
          "name": "",
          "type": "address"
        }
      ],
      "stateMutability": "view",
      "type": "function"
    },
    {
      "inputs": [
        {
          "internalType": "uint256",
          "name": "tokenId",
          "type": "uint256"
        }
      ],
      "name": "ownerOf",
      "outputs": [
        {
          "internalType": "address",
          "name": "",
          "type": "address"
        }
      ],
      "stateMutability": "view",
      "type": "function"
    },
    {
      "inputs": [],
      "name": "projectId",
      "outputs": [
        {
          "internalType": "uint256",
          "name": "",
          "type": "uint256"
        }
      ],
      "stateMutability": "view",
      "type": "function"
    },
    {
      "inputs": [],
      "name": "renounceOwnership",
      "outputs": [],
      "stateMutability": "nonpayable",
      "type": "function"
    },
    {
      "inputs": [
        {
          "internalType": "address",
          "name": "from",
          "type": "address"
        },
        {
          "internalType": "address",
          "name": "to",
          "type": "address"
        },
        {
          "internalType": "uint256",
          "name": "tokenId",
          "type": "uint256"
        }
      ],
      "name": "safeTransferFrom",
      "outputs": [],
      "stateMutability": "nonpayable",
      "type": "function"
    },
    {
      "inputs": [
        {
          "internalType": "address",
          "name": "from",
          "type": "address"
        },
        {
          "internalType": "address",
          "name": "to",
          "type": "address"
        },
        {
          "internalType": "uint256",
          "name": "tokenId",
          "type": "uint256"
        },
        {
          "internalType": "bytes",
          "name": "_data",
          "type": "bytes"
        }
      ],
      "name": "safeTransferFrom",
      "outputs": [],
      "stateMutability": "nonpayable",
      "type": "function"
    },
    {
      "inputs": [
        {
          "internalType": "address",
          "name": "operator",
          "type": "address"
        },
        {
          "internalType": "bool",
          "name": "approved",
          "type": "bool"
        }
      ],
      "name": "setApprovalForAll",
      "outputs": [],
      "stateMutability": "nonpayable",
      "type": "function"
    },
    {
      "inputs": [
        {
          "internalType": "contract IJBVeTokenUriResolver",
          "name": "_resolver",
          "type": "address"
        }
      ],
      "name": "setUriResolver",
      "outputs": [],
      "stateMutability": "nonpayable",
      "type": "function"
    },
    {
      "inputs": [
        {
          "internalType": "bytes4",
          "name": "_interfaceId",
          "type": "bytes4"
        }
      ],
      "name": "supportsInterface",
      "outputs": [
        {
          "internalType": "bool",
          "name": "",
          "type": "bool"
        }
      ],
      "stateMutability": "view",
      "type": "function"
    },
    {
      "inputs": [],
      "name": "symbol",
      "outputs": [
        {
          "internalType": "string",
          "name": "",
          "type": "string"
        }
      ],
      "stateMutability": "view",
      "type": "function"
    },
    {
      "inputs": [],
      "name": "token",
      "outputs": [
        {
          "internalType": "contract IJBToken",
          "name": "",
          "type": "address"
        }
      ],
      "stateMutability": "view",
      "type": "function"
    },
    {
      "inputs": [
        {
          "internalType": "uint256",
          "name": "index",
          "type": "uint256"
        }
      ],
      "name": "tokenByIndex",
      "outputs": [
        {
          "internalType": "uint256",
          "name": "",
          "type": "uint256"
        }
      ],
      "stateMutability": "view",
      "type": "function"
    },
    {
      "inputs": [
        {
          "internalType": "address",
          "name": "owner",
          "type": "address"
        },
        {
          "internalType": "uint256",
          "name": "index",
          "type": "uint256"
        }
      ],
      "name": "tokenOfOwnerByIndex",
      "outputs": [
        {
          "internalType": "uint256",
          "name": "",
          "type": "uint256"
        }
      ],
      "stateMutability": "view",
      "type": "function"
    },
    {
      "inputs": [],
      "name": "tokenStore",
      "outputs": [
        {
          "internalType": "contract IJBTokenStore",
          "name": "",
          "type": "address"
        }
      ],
      "stateMutability": "view",
      "type": "function"
    },
    {
      "inputs": [
        {
          "internalType": "uint256",
          "name": "_tokenId",
          "type": "uint256"
        }
      ],
      "name": "tokenURI",
      "outputs": [
        {
          "internalType": "string",
          "name": "",
          "type": "string"
        }
      ],
      "stateMutability": "view",
      "type": "function"
    },
    {
      "inputs": [],
      "name": "totalSupply",
      "outputs": [
        {
          "internalType": "uint256",
          "name": "",
          "type": "uint256"
        }
      ],
      "stateMutability": "view",
      "type": "function"
    },
    {
      "inputs": [
        {
          "internalType": "address",
          "name": "from",
          "type": "address"
        },
        {
          "internalType": "address",
          "name": "to",
          "type": "address"
        },
        {
          "internalType": "uint256",
          "name": "tokenId",
          "type": "uint256"
        }
      ],
      "name": "transferFrom",
      "outputs": [],
      "stateMutability": "nonpayable",
      "type": "function"
    },
    {
      "inputs": [
        {
          "internalType": "address",
          "name": "newOwner",
          "type": "address"
        }
      ],
      "name": "transferOwnership",
      "outputs": [],
      "stateMutability": "nonpayable",
      "type": "function"
    },
    {
      "inputs": [
        {
          "internalType": "uint256",
          "name": "_tokenId",
          "type": "uint256"
        },
        {
          "internalType": "address",
          "name": "_beneficiary",
          "type": "address"
        }
      ],
      "name": "unlock",
      "outputs": [],
      "stateMutability": "nonpayable",
      "type": "function"
    },
    {
      "inputs": [],
      "name": "uriResolver",
      "outputs": [
        {
          "internalType": "contract IJBVeTokenUriResolver",
          "name": "",
          "type": "address"
        }
      ],
      "stateMutability": "view",
      "type": "function"
    }
  ],
  "bytecode": {
    "object": "0x6101a06040523480156200001257600080fd5b506040516200439f3803806200439f833981016040819052620000359162000542565b81604051806040016040528060098152602001684a42766542616e6e7960b81b815250604051806040016040528060018152602001603160f81b815250888881600090805190602001906200008c92919062000303565b508051620000a290600190602084019062000303565b5050825160208085019190912083518483012060e08290526101008190524660a0818152604080517f8b73c3c69bb8fe3d512ecc4cf759cc79239f7b179b0ffacaa9a75d522b39400f81880181905281830187905260608201869052608082019490945230818401528151808203909301835260c0019052805194019390932091935091906080523060601b60c05261012052506200014d9250620001479150503390565b620002b1565b6001600f5560601b6001600160601b0319166101405260405163ea78803f60e01b8152600481018890526001600160a01b0384169063ea78803f9060240160206040518083038186803b158015620001a457600080fd5b505afa158015620001b9573d6000803e3d6000fd5b505050506040513d601f19601f82011682018060405250810190620001df91906200051b565b601180546001600160a01b03199081166001600160a01b03938416179091556101808990526013805482168784161790556014805490911691851691909117905580516200023590601290602084019062000392565b506000805b82518110156200029e57818382815181106200025a576200025a620006b8565b6020026020010151111562000289578281815181106200027e576200027e620006b8565b602002602001015191505b8062000295816200068e565b9150506200023a565b506101605250620006fd95505050505050565b600e80546001600160a01b038381166001600160a01b0319831681179093556040519116919082907f8be0079c531659141344cd1fd0a4f28419497f9722a3daafe3b4186f6b6457e090600090a35050565b828054620003119062000651565b90600052602060002090601f01602090048101928262000335576000855562000380565b82601f106200035057805160ff191683800117855562000380565b8280016001018555821562000380579182015b828111156200038057825182559160200191906001019062000363565b506200038e929150620003cf565b5090565b8280548282559060005260206000209081019282156200038057916020028201828111156200038057825182559160200191906001019062000363565b5b808211156200038e5760008155600101620003d0565b600082601f830112620003f857600080fd5b815160206001600160401b03821115620004165762000416620006ce565b8160051b620004278282016200061e565b8381528281019086840183880185018910156200044357600080fd5b600093505b858410156200046857805183526001939093019291840191840162000448565b50979650505050505050565b80516200048181620006e4565b919050565b600082601f8301126200049857600080fd5b81516001600160401b03811115620004b457620004b4620006ce565b6020620004ca601f8301601f191682016200061e565b8281528582848701011115620004df57600080fd5b60005b83811015620004ff578581018301518282018401528201620004e2565b83811115620005115760008385840101525b5095945050505050565b6000602082840312156200052e57600080fd5b81516200053b81620006e4565b9392505050565b600080600080600080600060e0888a0312156200055e57600080fd5b875160208901519097506001600160401b03808211156200057e57600080fd5b6200058c8b838c0162000486565b975060408a0151915080821115620005a357600080fd5b620005b18b838c0162000486565b965060608a01519150620005c582620006e4565b60808a0151919550620005d882620006e4565b819450620005e960a08b0162000474565b935060c08a01519150808211156200060057600080fd5b506200060f8a828b01620003e6565b91505092959891949750929550565b604051601f8201601f191681016001600160401b0381118282101715620006495762000649620006ce565b604052919050565b600181811c908216806200066657607f821691505b602082108114156200068857634e487b7160e01b600052602260045260246000fd5b50919050565b6000600019821415620006b157634e487b7160e01b600052601160045260246000fd5b5060010190565b634e487b7160e01b600052603260045260246000fd5b634e487b7160e01b600052604160045260246000fd5b6001600160a01b0381168114620006fa57600080fd5b50565b60805160a05160c05160601c60e05161010051610120516101405160601c6101605161018051613bad620007f26000396000818161034a0152818161069901528181610db901528181610f8801528181611035015281816110f8015281816111fb015281816112c6015281816113d8015281816114730152818161198201528181611b7b0152611c1c015260006127960152600081816104b5015281816106e50152818161079001528181610e0501528181610eb0015281816119ce0152611a790152600061219a015260006121e9015260006121c40152600061211d01526000612147015260006121710152613bad6000f3fe608060405234801561001057600080fd5b506004361061023d5760003560e01c806370a082311161013b578063a6e2c52b116100b8578063e6f3b3ad1161007c578063e6f3b3ad14610510578063e985e9c514610545578063f1d2ec1d14610581578063f2fde38b14610594578063fc0c546a146105a757600080fd5b8063a6e2c52b1461049d578063ad007d63146104b0578063b88d4fde146104d7578063c3cda520146104ea578063c87b56dd146104fd57600080fd5b80638e539e8c116100ff5780638e539e8c1461044957806393652edb1461045c57806395d89b411461046f5780639ab24eb014610477578063a22cb4651461048a57600080fd5b806370a08231146103f7578063711dcc0f1461040a578063715018a61461041d5780637ecebe00146104255780638da5cb5b1461043857600080fd5b80633644e515116101c95780634f6ccce71161018d5780634f6ccce71461037f578063587cde1e146103925780635c19a95c146103be57806361930630146103d15780636352211e146103e457600080fd5b80633644e515146103175780633a3a03b61461031f5780633a46b1a8146103325780633fafa1271461034557806342842e0e1461036c57600080fd5b8063081812fc11610210578063081812fc146102ab578063095ea7b3146102d657806318160ddd146102e957806323b872dd146102f15780632f745c591461030457600080fd5b806301ffc9a71461024257806306661abd1461026a57806306fdde0314610281578063070d66bf14610296575b600080fd5b6102556102503660046136a2565b6105ba565b60405190151581526020015b60405180910390f35b61027360155481565b604051908152602001610261565b6102896105cb565b6040516102619190613872565b6102a96102a43660046137be565b61065d565b005b6102be6102b9366004613767565b610927565b6040516001600160a01b039091168152602001610261565b6102a96102e4366004613598565b6109bc565b600c54610273565b6102a96102ff36600461347a565b610ad2565b610273610312366004613598565b610b03565b610273610b99565b6013546102be906001600160a01b031681565b610273610340366004613598565b610ba8565b6102737f000000000000000000000000000000000000000000000000000000000000000081565b6102a961037a36600461347a565b610bd1565b61027361038d366004613767565b610bec565b6102be6103a0366004613424565b6001600160a01b039081166000908152600660205260409020541690565b6102a96103cc366004613424565b610c7f565b6014546102be906001600160a01b031681565b6102be6103f2366004613767565b610c8e565b610273610405366004613424565b610d05565b6102736104183660046135c4565b610d8c565b6102a961155d565b610273610433366004613424565b611593565b600e546001600160a01b03166102be565b610273610457366004613767565b6115b1565b6102a961046a366004613424565b61160d565b61028961168b565b610273610485366004613424565b61169a565b6102a961049836600461356a565b6116bb565b6102736104ab366004613767565b6116c6565b6102be7f000000000000000000000000000000000000000000000000000000000000000081565b6102a96104e53660046134bb565b6116e7565b6102a96104f8366004613623565b61171f565b61028961050b366004613767565b61184c565b61052361051e366004613767565b611901565b6040805194855260208501939093529183015215156060820152608001610261565b610255610553366004613441565b6001600160a01b03918216600090815260056020908152604080832093909416825291909152205460ff1690565b6102a961058f366004613799565b61194f565b6102a96105a2366004613424565b611ce7565b6011546102be906001600160a01b031681565b60006105c582611d82565b92915050565b6060600080546105da90613a6a565b80601f016020809104026020016040519081016040528092919081815260200182805461060690613a6a565b80156106535780601f1061062857610100808354040283529160200191610653565b820191906000526020600020905b81548152906001019060200180831161063657829003601f168201915b5050505050905090565b6002600f5414156106895760405162461bcd60e51b81526004016106809061395d565b60405180910390fd5b6002600f5561069782610c8e565b7f00000000000000000000000000000000000000000000000000000000000000006015336001600160a01b03841614801590610772575060405163c161c93f60e01b81526001600160a01b037f0000000000000000000000000000000000000000000000000000000000000000169063c161c93f9061072090339087908790879060040161380c565b60206040518083038186803b15801561073857600080fd5b505afa15801561074c573d6000803e3d6000fd5b505050506040513d601f19601f820116820180604052508101906107709190613685565b155b801561081e575060405163c161c93f60e01b81526001600160a01b037f0000000000000000000000000000000000000000000000000000000000000000169063c161c93f906107cc9033908790600090879060040161380c565b60206040518083038186803b1580156107e457600080fd5b505afa1580156107f8573d6000803e3d6000fd5b505050506040513d601f19601f8201168201806040525081019061081c9190613685565b155b1561083c5760405163075fd2b160e01b815260040160405180910390fd5b61084584611da7565b610862576040516318f2148360e11b815260040160405180910390fd5b600080600061087088611901565b935093505092506000874261088591906139ed565b9050808311156108a857604051630825cd3d60e01b815260040160405180910390fd5b60c881901b609889901b85171782156108c257600160f81b175b60008a81526010602090815260409182902083905581518b8152908101849052338183015290518b917fa8798e5ea82c0106598138b7943f1168abac99bddc93eaee36f8076baa36ddc9919081900360600190a250506001600f555050505050505050565b6000818152600260205260408120546001600160a01b03166109a05760405162461bcd60e51b815260206004820152602c60248201527f4552433732313a20617070726f76656420717565727920666f72206e6f6e657860448201526b34b9ba32b73a103a37b5b2b760a11b6064820152608401610680565b506000908152600460205260409020546001600160a01b031690565b60006109c782610c8e565b9050806001600160a01b0316836001600160a01b03161415610a355760405162461bcd60e51b815260206004820152602160248201527f4552433732313a20617070726f76616c20746f2063757272656e74206f776e656044820152603960f91b6064820152608401610680565b336001600160a01b0382161480610a515750610a518133610553565b610ac35760405162461bcd60e51b815260206004820152603860248201527f4552433732313a20617070726f76652063616c6c6572206973206e6f74206f7760448201527f6e6572206e6f7220617070726f76656420666f7220616c6c00000000000000006064820152608401610680565b610acd8383611dfe565b505050565b610adc3382611e6c565b610af85760405162461bcd60e51b81526004016106809061390c565b610acd838383611f63565b6000610b0e83610d05565b8210610b705760405162461bcd60e51b815260206004820152602b60248201527f455243373231456e756d657261626c653a206f776e657220696e646578206f7560448201526a74206f6620626f756e647360a81b6064820152608401610680565b506001600160a01b03919091166000908152600a60209081526040808320938352929052205490565b6000610ba3612110565b905090565b6001600160a01b0382166000908152600760205260408120610bca9083612237565b9392505050565b610acd838383604051806020016040528060008152506116e7565b6000610bf7600c5490565b8210610c5a5760405162461bcd60e51b815260206004820152602c60248201527f455243373231456e756d657261626c653a20676c6f62616c20696e646578206f60448201526b7574206f6620626f756e647360a01b6064820152608401610680565b600c8281548110610c6d57610c6d613b12565b90600052602060002001549050919050565b33610c8a8183612346565b5050565b6000818152600260205260408120546001600160a01b0316806105c55760405162461bcd60e51b815260206004820152602960248201527f4552433732313a206f776e657220717565727920666f72206e6f6e657869737460448201526832b73a103a37b5b2b760b91b6064820152608401610680565b60006001600160a01b038216610d705760405162461bcd60e51b815260206004820152602a60248201527f4552433732313a2062616c616e636520717565727920666f7220746865207a65604482015269726f206164647265737360b01b6064820152608401610680565b506001600160a01b031660009081526003602052604090205490565b60006002600f541415610db15760405162461bcd60e51b81526004016106809061395d565b6002600f55857f00000000000000000000000000000000000000000000000000000000000000006013336001600160a01b03841614801590610e92575060405163c161c93f60e01b81526001600160a01b037f0000000000000000000000000000000000000000000000000000000000000000169063c161c93f90610e4090339087908790879060040161380c565b60206040518083038186803b158015610e5857600080fd5b505afa158015610e6c573d6000803e3d6000fd5b505050506040513d601f19601f82011682018060405250810190610e909190613685565b155b8015610f3e575060405163c161c93f60e01b81526001600160a01b037f0000000000000000000000000000000000000000000000000000000000000000169063c161c93f90610eec9033908790600090879060040161380c565b60206040518083038186803b158015610f0457600080fd5b505afa158015610f18573d6000803e3d6000fd5b505050506040513d601f19601f82011682018060405250810190610f3c9190613685565b155b15610f5c5760405163075fd2b160e01b815260040160405180910390fd5b84156111ac576011546001600160a01b031615801561101e575060145460405163ea78803f60e01b81527f000000000000000000000000000000000000000000000000000000000000000060048201526000916001600160a01b03169063ea78803f9060240160206040518083038186803b158015610fda57600080fd5b505afa158015610fee573d6000803e3d6000fd5b505050506040513d601f19601f8201168201806040525081019061101291906136dc565b6001600160a01b031614155b156110e35760145460405163ea78803f60e01b81527f000000000000000000000000000000000000000000000000000000000000000060048201526001600160a01b039091169063ea78803f9060240160206040518083038186803b15801561108657600080fd5b505afa15801561109a573d6000803e3d6000fd5b505050506040513d601f19601f820116820180604052508101906110be91906136dc565b601180546001600160a01b0319166001600160a01b03929092169190911790556111ac565b60115460145460405163ea78803f60e01b81527f000000000000000000000000000000000000000000000000000000000000000060048201526001600160a01b03928316929091169063ea78803f9060240160206040518083038186803b15801561114d57600080fd5b505afa158015611161573d6000803e3d6000fd5b505050506040513d601f19601f8201168201806040525081019061118591906136dc565b6001600160a01b0316146111ac57604051635aea2c8f60e11b815260040160405180910390fd5b6111b587611da7565b6111d2576040516318f2148360e11b815260040160405180910390fd5b84801561127d5750601154604051627eeac760e11b81526001600160a01b038b811660048301527f000000000000000000000000000000000000000000000000000000000000000060248301528a92169062fdd58e9060440160206040518083038186803b15801561124357600080fd5b505afa158015611257573d6000803e3d6000fd5b505050506040513d601f19601f8201168201806040525081019061127b9190613780565b105b1561129b57604051632858f9ab60e11b815260040160405180910390fd5b841580156113495750601454604051635287af3760e01b81526001600160a01b038b811660048301527f000000000000000000000000000000000000000000000000000000000000000060248301528a921690635287af379060440160206040518083038186803b15801561130f57600080fd5b505afa158015611323573d6000803e3d6000fd5b505050506040513d601f19601f820116820180604052508101906113479190613780565b105b1561136757604051632858f9ab60e11b815260040160405180910390fd5b60156000815461137690613a9f565b91829055509350600061138988426139ed565b905060c881901b609889901b8a171786156113a557600160f81b175b60008681526010602052604090208190556113c088876123b8565b861561145b57601154604051630e07895b60e11b81527f00000000000000000000000000000000000000000000000000000000000000006004820152336024820152306044820152606481018c90526001600160a01b0390911690631c0f12b690608401600060405180830381600087803b15801561143e57600080fd5b505af1158015611452573d6000803e3d6000fd5b505050506114ec565b60145460405163ac689bcd60e01b81523060048201527f00000000000000000000000000000000000000000000000000000000000000006024820152336044820152606481018c90526001600160a01b039091169063ac689bcd90608401600060405180830381600087803b1580156114d357600080fd5b505af11580156114e7573d6000803e3d6000fd5b505050505b604080518b8152602081018b90526001600160a01b038a811682840152606082018590523360808301529151918d169188917fd0486aa1ced26d88137420f26eef05e9c3f4ad2f9c0ffc2469522a98befeab21919081900360a00190a350506001600f555091979650505050505050565b600e546001600160a01b031633146115875760405162461bcd60e51b8152600401610680906138d7565b61159160006123d2565b565b6001600160a01b0381166000908152600960205260408120546105c5565b60004382106116025760405162461bcd60e51b815260206004820152601a60248201527f566f7465733a20626c6f636b206e6f7420796574206d696e65640000000000006044820152606401610680565b6105c5600883612237565b600e546001600160a01b031633146116375760405162461bcd60e51b8152600401610680906138d7565b601380546001600160a01b0319166001600160a01b0383169081179091556040513381527fbddd64b8a0b5e5673286f9759cdbbd18be2722a145cf077f5c17b2ff8c0a90379060200160405180910390a250565b6060600180546105da90613a6a565b6001600160a01b03811660009081526007602052604081206105c590612424565b610c8a338383612480565b601281815481106116d657600080fd5b600091825260209091200154905081565b6116f13383611e6c565b61170d5760405162461bcd60e51b81526004016106809061390c565b6117198484848461254f565b50505050565b8342111561176f5760405162461bcd60e51b815260206004820152601860248201527f566f7465733a207369676e6174757265206578706972656400000000000000006044820152606401610680565b604080517fe48329057bfd03d55e49b547132e39cffd9c1820ad7b9d4c5307691425d15adf60208201526001600160a01b0388169181019190915260608101869052608081018590526000906117e9906117e19060a00160405160208183030381529060405280519060200120612582565b8585856125d0565b90506117f4816125f8565b86146118395760405162461bcd60e51b8152602060048201526014602482015273566f7465733a20696e76616c6964206e6f6e636560601b6044820152606401610680565b6118438188612346565b50505050505050565b6060600080600061185c85611901565b50601354604051630555df1d60e41b8152600481018a905260248101859052604481018490526064810183905293965091945092506001600160a01b03169063555df1d09060840160006040518083038186803b1580156118bc57600080fd5b505afa1580156118d0573d6000803e3d6000fd5b505050506040513d6000823e601f3d908101601f191682016040526118f891908101906136f9565b95945050505050565b60009081526010602052604090205472ffffffffffffffffffffffffffffffffffffff81169165ffffffffffff609883901c81169260c881901c90911691600160f89290921c821690911490565b6002600f5414156119725760405162461bcd60e51b81526004016106809061395d565b6002600f5561198082610c8e565b7f00000000000000000000000000000000000000000000000000000000000000006014336001600160a01b03841614801590611a5b575060405163c161c93f60e01b81526001600160a01b037f0000000000000000000000000000000000000000000000000000000000000000169063c161c93f90611a0990339087908790879060040161380c565b60206040518083038186803b158015611a2157600080fd5b505afa158015611a35573d6000803e3d6000fd5b505050506040513d601f19601f82011682018060405250810190611a599190613685565b155b8015611b07575060405163c161c93f60e01b81526001600160a01b037f0000000000000000000000000000000000000000000000000000000000000000169063c161c93f90611ab59033908790600090879060040161380c565b60206040518083038186803b158015611acd57600080fd5b505afa158015611ae1573d6000803e3d6000fd5b505050506040513d601f19601f82011682018060405250810190611b059190613685565b155b15611b255760405163075fd2b160e01b815260040160405180910390fd5b6000806000611b3388611901565b93509350509250814211611b5a5760405163d3c86c0f60e01b815260040160405180910390fd5b611b6388612620565b8015611bfa57601154604051637c2a471b60e11b81527f000000000000000000000000000000000000000000000000000000000000000060048201526001600160a01b038981166024830152604482018690529091169063f8548e3690606401600060405180830381600087803b158015611bdd57600080fd5b505af1158015611bf1573d6000803e3d6000fd5b50505050611c8d565b60145460405163ac689bcd60e01b81526001600160a01b0389811660048301527f00000000000000000000000000000000000000000000000000000000000000006024830152306044830152606482018690529091169063ac689bcd90608401600060405180830381600087803b158015611c7457600080fd5b505af1158015611c88573d6000803e3d6000fd5b505050505b604080516001600160a01b0389168152602081018590523381830152905189917f684a333bfbd5b9645c0ec7d11d5044fb3efe90f87a8e2d424f539fc796f9b31f919081900360600190a250506001600f55505050505050565b600e546001600160a01b03163314611d115760405162461bcd60e51b8152600401610680906138d7565b6001600160a01b038116611d765760405162461bcd60e51b815260206004820152602660248201527f4f776e61626c653a206e6577206f776e657220697320746865207a65726f206160448201526564647265737360d01b6064820152608401610680565b611d7f816123d2565b50565b60006001600160e01b0319821663780e9d6360e01b14806105c557506105c5826126cf565b6000805b601254811015611df5578260128281548110611dc957611dc9613b12565b90600052602060002001541415611de35750600192915050565b80611ded81613a9f565b915050611dab565b50600092915050565b600081815260046020526040902080546001600160a01b0319166001600160a01b0384169081179091558190611e3382610c8e565b6001600160a01b03167f8c5be1e5ebec7d5bd14f71427d1e84f3dd0314c0f7b2291e5b200ac8c7c3b92560405160405180910390a45050565b6000818152600260205260408120546001600160a01b0316611ee55760405162461bcd60e51b815260206004820152602c60248201527f4552433732313a206f70657261746f7220717565727920666f72206e6f6e657860448201526b34b9ba32b73a103a37b5b2b760a11b6064820152608401610680565b6000611ef083610c8e565b9050806001600160a01b0316846001600160a01b03161480611f2b5750836001600160a01b0316611f2084610927565b6001600160a01b0316145b80611f5b57506001600160a01b0380821660009081526005602090815260408083209388168352929052205460ff165b949350505050565b826001600160a01b0316611f7682610c8e565b6001600160a01b031614611fda5760405162461bcd60e51b815260206004820152602560248201527f4552433732313a207472616e736665722066726f6d20696e636f72726563742060448201526437bbb732b960d91b6064820152608401610680565b6001600160a01b03821661203c5760405162461bcd60e51b8152602060048201526024808201527f4552433732313a207472616e7366657220746f20746865207a65726f206164646044820152637265737360e01b6064820152608401610680565b61204783838361271f565b612052600082611dfe565b6001600160a01b038316600090815260036020526040812080546001929061207b908490613a27565b90915550506001600160a01b03821660009081526003602052604081208054600192906120a99084906139ed565b909155505060008181526002602052604080822080546001600160a01b0319166001600160a01b0386811691821790925591518493918716917fddf252ad1be2c89b69c2b068fc378daa952ba7f163c4a11628f55a4df523b3ef91a4610acd83838361272a565b6000306001600160a01b037f00000000000000000000000000000000000000000000000000000000000000001614801561216957507f000000000000000000000000000000000000000000000000000000000000000046145b1561219357507f000000000000000000000000000000000000000000000000000000000000000090565b50604080517f00000000000000000000000000000000000000000000000000000000000000006020808301919091527f0000000000000000000000000000000000000000000000000000000000000000828401527f000000000000000000000000000000000000000000000000000000000000000060608301524660808301523060a0808401919091528351808403909101815260c0909201909252805191012090565b60004382106122885760405162461bcd60e51b815260206004820181905260248201527f436865636b706f696e74733a20626c6f636b206e6f7420796574206d696e65646044820152606401610680565b825460005b818110156122ed5760006122a18284612735565b9050848660000182815481106122b9576122b9613b12565b60009182526020909120015463ffffffff1611156122d9578092506122e7565b6122e48160016139ed565b91505b5061228d565b811561233157846122ff600184613a27565b8154811061230f5761230f613b12565b60009182526020909120015464010000000090046001600160e01b0316612334565b60005b6001600160e01b031695945050505050565b6001600160a01b0382811660008181526006602052604080822080548686166001600160a01b0319821681179092559151919094169392849290917f3134e8a2e6d97e929a7e54011ea5485d7d196dd5f0ba4d4ef95803e8e3fc257f9190a4610acd81836123b386612750565b6127dc565b610c8a828260405180602001604052806000815250612919565b600e80546001600160a01b038381166001600160a01b0319831681179093556040519116919082907f8be0079c531659141344cd1fd0a4f28419497f9722a3daafe3b4186f6b6457e090600090a35050565b8054600090801561246d578261243b600183613a27565b8154811061244b5761244b613b12565b60009182526020909120015464010000000090046001600160e01b0316612470565b60005b6001600160e01b03169392505050565b816001600160a01b0316836001600160a01b031614156124e25760405162461bcd60e51b815260206004820152601960248201527f4552433732313a20617070726f766520746f2063616c6c6572000000000000006044820152606401610680565b6001600160a01b03838116600081815260056020908152604080832094871680845294825291829020805460ff191686151590811790915591519182527f17307eab39ab6107e8899845ad3d59bd9653f200f220920489ca2b5937696c31910160405180910390a3505050565b61255a848484611f63565b6125668484848461294c565b6117195760405162461bcd60e51b815260040161068090613885565b60006105c561258f612110565b8360405161190160f01b6020820152602281018390526042810182905260009060620160405160208183030381529060405280519060200120905092915050565b60008060006125e187878787612a56565b915091506125ee81612b43565b5095945050505050565b6001600160a01b03811660009081526009602052604090208054600181018255905b50919050565b600061262b82610c8e565b90506126398160008461271f565b612644600083611dfe565b6001600160a01b038116600090815260036020526040812080546001929061266d908490613a27565b909155505060008281526002602052604080822080546001600160a01b0319169055518391906001600160a01b038416907fddf252ad1be2c89b69c2b068fc378daa952ba7f163c4a11628f55a4df523b3ef908390a4610c8a8160008461272a565b60006001600160e01b031982166380ac58cd60e01b148061270057506001600160e01b03198216635b5e139f60e01b145b806105c557506301ffc9a760e01b6001600160e01b03198316146105c5565b610acd838383612cfe565b610acd838383612db6565b60006127446002848418613a05565b610bca908484166139ed565b6000805b61275d83610d05565b81101561261a5760006127708483610b03565b905060008061277e83611901565b5092505091506127ba8242836127949190613a27565b7f0000000000000000000000000000000000000000000000000000000000000000612dc2565b6127c490866139ed565b945050505080806127d490613a9f565b915050612754565b816001600160a01b0316836001600160a01b0316141580156127fe5750600081115b15610acd576001600160a01b0383161561288c576001600160a01b0383166000908152600760205260408120819061283990612e9085612e9c565b91509150846001600160a01b03167fdec2bacdd2f05b59de34da9b523dff8be42e5e38e818c82fdb0bae774387a7248383604051612881929190918252602082015260400190565b60405180910390a250505b6001600160a01b03821615610acd576001600160a01b038216600090815260076020526040812081906128c290612eca85612e9c565b91509150836001600160a01b03167fdec2bacdd2f05b59de34da9b523dff8be42e5e38e818c82fdb0bae774387a724838360405161290a929190918252602082015260400190565b60405180910390a25050505050565b6129238383612ed6565b612930600084848461294c565b610acd5760405162461bcd60e51b815260040161068090613885565b60006001600160a01b0384163b15612a4e57604051630a85bd0160e11b81526001600160a01b0385169063150b7a0290612990903390899088908890600401613835565b602060405180830381600087803b1580156129aa57600080fd5b505af19250505080156129da575060408051601f3d908101601f191682019092526129d7918101906136bf565b60015b612a34573d808015612a08576040519150601f19603f3d011682016040523d82523d6000602084013e612a0d565b606091505b508051612a2c5760405162461bcd60e51b815260040161068090613885565b805181602001fd5b6001600160e01b031916630a85bd0160e11b149050611f5b565b506001611f5b565b6000807f7fffffffffffffffffffffffffffffff5d576e7357a4501ddfe92f46681b20a0831115612a8d5750600090506003612b3a565b8460ff16601b14158015612aa557508460ff16601c14155b15612ab65750600090506004612b3a565b6040805160008082526020820180845289905260ff881692820192909252606081018690526080810185905260019060a0016020604051602081039080840390855afa158015612b0a573d6000803e3d6000fd5b5050604051601f1901519150506001600160a01b038116612b3357600060019250925050612b3a565b9150600090505b94509492505050565b6000816004811115612b5757612b57613ae6565b1415612b605750565b6001816004811115612b7457612b74613ae6565b1415612bc25760405162461bcd60e51b815260206004820152601860248201527f45434453413a20696e76616c6964207369676e617475726500000000000000006044820152606401610680565b6002816004811115612bd657612bd6613ae6565b1415612c245760405162461bcd60e51b815260206004820152601f60248201527f45434453413a20696e76616c6964207369676e6174757265206c656e677468006044820152606401610680565b6003816004811115612c3857612c38613ae6565b1415612c915760405162461bcd60e51b815260206004820152602260248201527f45434453413a20696e76616c6964207369676e6174757265202773272076616c604482015261756560f01b6064820152608401610680565b6004816004811115612ca557612ca5613ae6565b1415611d7f5760405162461bcd60e51b815260206004820152602260248201527f45434453413a20696e76616c6964207369676e6174757265202776272076616c604482015261756560f01b6064820152608401610680565b6001600160a01b038316612d5957612d5481600c80546000838152600d60205260408120829055600182018355919091527fdf6966c971051c3d54ec59162606531493a51404a002842f56009d7e5cf4a8c70155565b612d7c565b816001600160a01b0316836001600160a01b031614612d7c57612d7c838261302c565b6001600160a01b038216612d9357610acd816130c9565b826001600160a01b0316826001600160a01b031614610acd57610acd8282613178565b610acd838360016131bc565b600080806000198587098587029250828110838203039150508060001415612dfd57838281612df357612df3613ad0565b0492505050610bca565b838110612e2757604051631dcf306360e21b81526004810182905260248101859052604401610680565b60008486880960026001871981018816978890046003810283188082028403028082028403028082028403028082028403028082028403029081029092039091026000889003889004909101858311909403939093029303949094049190911702949350505050565b6000610bca8284613a27565b600080612ebe85612eb9612eaf88612424565b868863ffffffff16565b61322c565b91509150935093915050565b6000610bca82846139ed565b6001600160a01b038216612f2c5760405162461bcd60e51b815260206004820181905260248201527f4552433732313a206d696e7420746f20746865207a65726f20616464726573736044820152606401610680565b6000818152600260205260409020546001600160a01b031615612f915760405162461bcd60e51b815260206004820152601c60248201527f4552433732313a20746f6b656e20616c7265616479206d696e746564000000006044820152606401610680565b612f9d6000838361271f565b6001600160a01b0382166000908152600360205260408120805460019290612fc69084906139ed565b909155505060008181526002602052604080822080546001600160a01b0319166001600160a01b03861690811790915590518392907fddf252ad1be2c89b69c2b068fc378daa952ba7f163c4a11628f55a4df523b3ef908290a4610c8a6000838361272a565b6000600161303984610d05565b6130439190613a27565b6000838152600b6020526040902054909150808214613096576001600160a01b0384166000908152600a602090815260408083208584528252808320548484528184208190558352600b90915290208190555b506000918252600b602090815260408084208490556001600160a01b039094168352600a81528383209183525290812055565b600c546000906130db90600190613a27565b6000838152600d6020526040812054600c805493945090928490811061310357613103613b12565b9060005260206000200154905080600c838154811061312457613124613b12565b6000918252602080832090910192909255828152600d9091526040808220849055858252812055600c80548061315c5761315c613afc565b6001900381819060005260206000200160009055905550505050565b600061318383610d05565b6001600160a01b039093166000908152600a602090815260408083208684528252808320859055938252600b9052919091209190915550565b6001600160a01b0383166131db576131d86008612eca83612e9c565b50505b6001600160a01b0382166131fa576131f76008612e9083612e9c565b50505b6001600160a01b03838116600090815260066020526040808220548584168352912054610acd929182169116836127dc565b815460009081908161323d86612424565b905060008211801561327b57504386613257600185613a27565b8154811061326757613267613b12565b60009182526020909120015463ffffffff16145b156132db5761328985613352565b86613295600185613a27565b815481106132a5576132a5613b12565b9060005260206000200160000160046101000a8154816001600160e01b0302191690836001600160e01b03160217905550613349565b8560000160405180604001604052806132f3436133bf565b63ffffffff16815260200161330788613352565b6001600160e01b0390811690915282546001810184556000938452602093849020835194909301519091166401000000000263ffffffff909316929092179101555b95939450505050565b60006001600160e01b038211156133bb5760405162461bcd60e51b815260206004820152602760248201527f53616665436173743a2076616c756520646f65736e27742066697420696e20326044820152663234206269747360c81b6064820152608401610680565b5090565b600063ffffffff8211156133bb5760405162461bcd60e51b815260206004820152602660248201527f53616665436173743a2076616c756520646f65736e27742066697420696e203360448201526532206269747360d01b6064820152608401610680565b60006020828403121561343657600080fd5b8135610bca81613b3e565b6000806040838503121561345457600080fd5b823561345f81613b3e565b9150602083013561346f81613b3e565b809150509250929050565b60008060006060848603121561348f57600080fd5b833561349a81613b3e565b925060208401356134aa81613b3e565b929592945050506040919091013590565b600080600080608085870312156134d157600080fd5b84356134dc81613b3e565b935060208501356134ec81613b3e565b925060408501359150606085013567ffffffffffffffff81111561350f57600080fd5b8501601f8101871361352057600080fd5b803561353361352e826139c5565b613994565b81815288602083850101111561354857600080fd5b8160208401602083013760006020838301015280935050505092959194509250565b6000806040838503121561357d57600080fd5b823561358881613b3e565b9150602083013561346f81613b53565b600080604083850312156135ab57600080fd5b82356135b681613b3e565b946020939093013593505050565b600080600080600060a086880312156135dc57600080fd5b85356135e781613b3e565b94506020860135935060408601359250606086013561360581613b3e565b9150608086013561361581613b53565b809150509295509295909350565b60008060008060008060c0878903121561363c57600080fd5b863561364781613b3e565b95506020870135945060408701359350606087013560ff8116811461366b57600080fd5b9598949750929560808101359460a0909101359350915050565b60006020828403121561369757600080fd5b8151610bca81613b53565b6000602082840312156136b457600080fd5b8135610bca81613b61565b6000602082840312156136d157600080fd5b8151610bca81613b61565b6000602082840312156136ee57600080fd5b8151610bca81613b3e565b60006020828403121561370b57600080fd5b815167ffffffffffffffff81111561372257600080fd5b8201601f8101841361373357600080fd5b805161374161352e826139c5565b81815285602083850101111561375657600080fd5b6118f8826020830160208601613a3e565b60006020828403121561377957600080fd5b5035919050565b60006020828403121561379257600080fd5b5051919050565b600080604083850312156137ac57600080fd5b82359150602083013561346f81613b3e565b600080604083850312156137d157600080fd5b50508035926020909101359150565b600081518084526137f8816020860160208601613a3e565b601f01601f19169290920160200192915050565b6001600160a01b0394851681529290931660208301526040820152606081019190915260800190565b6001600160a01b0385811682528416602082015260408101839052608060608201819052600090613868908301846137e0565b9695505050505050565b602081526000610bca60208301846137e0565b60208082526032908201527f4552433732313a207472616e7366657220746f206e6f6e20455243373231526560408201527131b2b4bb32b91034b6b83632b6b2b73a32b960711b606082015260800190565b6020808252818101527f4f776e61626c653a2063616c6c6572206973206e6f7420746865206f776e6572604082015260600190565b60208082526031908201527f4552433732313a207472616e736665722063616c6c6572206973206e6f74206f6040820152701ddb995c881b9bdc88185c1c1c9bdd9959607a1b606082015260800190565b6020808252601f908201527f5265656e7472616e637947756172643a207265656e7472616e742063616c6c00604082015260600190565b604051601f8201601f1916810167ffffffffffffffff811182821017156139bd576139bd613b28565b604052919050565b600067ffffffffffffffff8211156139df576139df613b28565b50601f01601f191660200190565b60008219821115613a0057613a00613aba565b500190565b600082613a2257634e487b7160e01b600052601260045260246000fd5b500490565b600082821015613a3957613a39613aba565b500390565b60005b83811015613a59578181015183820152602001613a41565b838111156117195750506000910152565b600181811c90821680613a7e57607f821691505b6020821081141561261a57634e487b7160e01b600052602260045260246000fd5b6000600019821415613ab357613ab3613aba565b5060010190565b634e487b7160e01b600052601160045260246000fd5b634e487b7160e01b600052601260045260246000fd5b634e487b7160e01b600052602160045260246000fd5b634e487b7160e01b600052603160045260246000fd5b634e487b7160e01b600052603260045260246000fd5b634e487b7160e01b600052604160045260246000fd5b6001600160a01b0381168114611d7f57600080fd5b8015158114611d7f57600080fd5b6001600160e01b031981168114611d7f57600080fdfea26469706673582212205516e8d16b6385e6342ccfb22ea21ee1525122584b42db26118b62873d74829564736f6c63430008060033",
    "linkReferences": {}
  }
}